{
  "contractName": "PercentMock",
  "abi": [
    {
      "constant": true,
      "inputs": [
        {
          "name": "_a",
          "type": "uint256"
        },
        {
          "name": "_b",
          "type": "uint256"
        }
      ],
      "name": "percent",
      "outputs": [
        {
          "name": "",
          "type": "uint256"
        }
      ],
      "payable": false,
      "stateMutability": "pure",
      "type": "function"
    },
    {
      "constant": true,
      "inputs": [
        {
          "name": "_a",
          "type": "uint256"
        }
      ],
      "name": "isPercent",
      "outputs": [
        {
          "name": "",
          "type": "bool"
        }
      ],
      "payable": false,
      "stateMutability": "pure",
      "type": "function"
    },
    {
      "constant": true,
      "inputs": [
        {
          "name": "_a",
          "type": "uint256"
        }
      ],
      "name": "toPercent",
      "outputs": [
        {
          "name": "",
          "type": "uint256"
        }
      ],
      "payable": false,
      "stateMutability": "pure",
      "type": "function"
    },
    {
      "constant": true,
      "inputs": [
        {
          "name": "_a",
          "type": "uint256"
        }
      ],
      "name": "fromPercent",
      "outputs": [
        {
          "name": "",
          "type": "uint256"
        }
      ],
      "payable": false,
      "stateMutability": "pure",
      "type": "function"
    }
  ],
  "bytecode": "0x608060405234801561001057600080fd5b506102fb806100206000396000f300608060405260043610610062576000357c0100000000000000000000000000000000000000000000000000000000900463ffffffff1680630fe911471461006757806317b8f5e1146100a857806342318e3d146100e9578063520b006614610134575b600080fd5b34801561007357600080fd5b5061009260048036038101908080359060200190929190505050610179565b6040518082815260200191505060405180910390f35b3480156100b457600080fd5b506100d36004803603810190808035906020019092919050505061018b565b6040518082815260200191505060405180910390f35b3480156100f557600080fd5b5061011e600480360381019080803590602001909291908035906020019092919050505061019d565b6040518082815260200191505060405180910390f35b34801561014057600080fd5b5061015f600480360381019080803590602001909291905050506101b1565b604051808215151515815260200191505060405180910390f35b6000610184826101c3565b9050919050565b6000610196826101f4565b9050919050565b60006101a98383610221565b905092915050565b60006101bc82610266565b9050919050565b60006101ce82610266565b15156101d957600080fd5b6101ed60648361028190919063ffffffff16565b9050919050565b60006064821115151561020657600080fd5b61021a60648361029790919063ffffffff16565b9050919050565b600061022c82610266565b151561023757600080fd5b61025e612710610250848661029790919063ffffffff16565b61028190919063ffffffff16565b905092915050565b600080821015801561027a57506127108211155b9050919050565b6000818381151561028e57fe5b04905092915050565b6000808314156102aa57600090506102c9565b81830290508183828115156102bb57fe5b041415156102c557fe5b8090505b929150505600a165627a7a72305820696275e6ce729da2141bc85b14f58fade9d6403e304371ee09cf574c589af5d80029",
  "source": "pragma solidity ^0.4.24;\n\nimport \"./Percent.sol\";\nimport \"../../openzeppelin-solidity/contracts/math/SafeMath.sol\";\n\ncontract PercentMock {\n    using SafeMath for uint;\n    using Percent for uint;\n\n    function percent(uint _a, uint _b) public pure returns (uint)  {\n        return Percent.percent(_a, _b);\n    }\n\n    function isPercent(uint _a) public pure returns (bool) {\n        return Percent.isPercent(_a);\n    }\n\n    function toPercent(uint _a) public pure returns (uint) {\n        return Percent.toPercent(_a);\n    }\n\n    function fromPercent(uint _a) public pure returns (uint) {\n        return Percent.fromPercent(_a);\n    }\n}\n",
  "sourcePath": "/Projects/w12-new/contracts/libs/PercentMock.sol",
  "compiler": {
    "name": "solc",
    "version": "0.4.24+commit.e67f0147.Emscripten.clang"
  },
  "schemaVersion": "2.0.1",
  "updatedAt": "2018-08-29T16:48:08.262Z"
}