{
  "contractName": "W12CrowdsaleFactory",
  "abi": [
    {
      "inputs": [
        {
          "name": "_fundFactory",
          "type": "address"
        }
      ],
      "payable": false,
      "stateMutability": "nonpayable",
      "type": "constructor"
    },
    {
      "anonymous": false,
      "inputs": [
        {
          "indexed": true,
          "name": "owner",
          "type": "address"
        },
        {
          "indexed": true,
          "name": "token",
          "type": "address"
        },
        {
          "indexed": false,
          "name": "crowdsaleAddress",
          "type": "address"
        },
        {
          "indexed": false,
          "name": "fundAddress",
          "type": "address"
        }
      ],
      "name": "CrowdsaleCreated",
      "type": "event"
    },
    {
      "constant": false,
      "inputs": [
        {
          "name": "tokenAddress",
          "type": "address"
        },
        {
          "name": "wTokenAddress",
          "type": "address"
        },
        {
          "name": "price",
          "type": "uint256"
        },
        {
          "name": "serviceWallet",
          "type": "address"
        },
        {
          "name": "serviceFee",
          "type": "uint256"
        },
        {
          "name": "WTokenSaleFeePercent",
          "type": "uint256"
        },
        {
          "name": "trancheFeePercent",
          "type": "uint256"
        },
        {
          "name": "swap",
          "type": "address"
        },
        {
          "name": "owner",
          "type": "address"
        }
      ],
      "name": "createCrowdsale",
      "outputs": [
        {
          "name": "result",
          "type": "address"
        }
      ],
      "payable": false,
      "stateMutability": "nonpayable",
      "type": "function"
    }
  ],
  "bytecode": "0x608060405234801561001057600080fd5b50604051602080614e5f83398101806040528101908080519060200190929190505050600073ffffffffffffffffffffffffffffffffffffffff168173ffffffffffffffffffffffffffffffffffffffff16141515156100d8576040517f08c379a00000000000000000000000000000000000000000000000000000000081526004018080602001828103825260188152602001807f466163746f72792061646472657373207265717569726564000000000000000081525060200191505060405180910390fd5b806000806101000a81548173ffffffffffffffffffffffffffffffffffffffff021916908373ffffffffffffffffffffffffffffffffffffffff16021790555050614d37806101286000396000f300608060405260043610610041576000357c0100000000000000000000000000000000000000000000000000000000900463ffffffff168063aa1322f714610046575b600080fd5b34801561005257600080fd5b5061012f600480360381019080803573ffffffffffffffffffffffffffffffffffffffff169060200190929190803573ffffffffffffffffffffffffffffffffffffffff16906020019092919080359060200190929190803573ffffffffffffffffffffffffffffffffffffffff169060200190929190803590602001909291908035906020019092919080359060200190929190803573ffffffffffffffffffffffffffffffffffffffff169060200190929190803573ffffffffffffffffffffffffffffffffffffffff169060200190929190505050610171565b604051808273ffffffffffffffffffffffffffffffffffffffff1673ffffffffffffffffffffffffffffffffffffffff16815260200191505060405180910390f35b6000806000809054906101000a900473ffffffffffffffffffffffffffffffffffffffff1673ffffffffffffffffffffffffffffffffffffffff166317444626858a886040518463ffffffff167c0100000000000000000000000000000000000000000000000000000000028152600401808473ffffffffffffffffffffffffffffffffffffffff1673ffffffffffffffffffffffffffffffffffffffff1681526020018373ffffffffffffffffffffffffffffffffffffffff1673ffffffffffffffffffffffffffffffffffffffff1681526020018281526020019350505050602060405180830381600087803b15801561026c57600080fd5b505af1158015610280573d6000803e3d6000fd5b505050506040513d602081101561029657600080fd5b810190808051906020019092919050505090508a8a8b73ffffffffffffffffffffffffffffffffffffffff1663313ce5676040518163ffffffff167c0100000000000000000000000000000000000000000000000000000000028152600401602060405180830381600087803b15801561030f57600080fd5b505af1158015610323573d6000803e3d6000fd5b505050506040513d602081101561033957600080fd5b81019080805190602001909291905050508b8b888c8c88610358610784565b808a73ffffffffffffffffffffffffffffffffffffffff1673ffffffffffffffffffffffffffffffffffffffff1681526020018973ffffffffffffffffffffffffffffffffffffffff1673ffffffffffffffffffffffffffffffffffffffff1681526020018860ff1681526020018781526020018673ffffffffffffffffffffffffffffffffffffffff1673ffffffffffffffffffffffffffffffffffffffff1681526020018573ffffffffffffffffffffffffffffffffffffffff1673ffffffffffffffffffffffffffffffffffffffff1681526020018481526020018381526020018273ffffffffffffffffffffffffffffffffffffffff1673ffffffffffffffffffffffffffffffffffffffff1681526020019950505050505050505050604051809103906000f080158015610495573d6000803e3d6000fd5b5091508173ffffffffffffffffffffffffffffffffffffffff1663f2fde38b846040518263ffffffff167c0100000000000000000000000000000000000000000000000000000000028152600401808273ffffffffffffffffffffffffffffffffffffffff1673ffffffffffffffffffffffffffffffffffffffff168152602001915050600060405180830381600087803b15801561053357600080fd5b505af1158015610547573d6000803e3d6000fd5b505050508073ffffffffffffffffffffffffffffffffffffffff1663483a20b2836040518263ffffffff167c0100000000000000000000000000000000000000000000000000000000028152600401808273ffffffffffffffffffffffffffffffffffffffff1673ffffffffffffffffffffffffffffffffffffffff168152602001915050600060405180830381600087803b1580156105e657600080fd5b505af11580156105fa573d6000803e3d6000fd5b505050508073ffffffffffffffffffffffffffffffffffffffff1663f2fde38b846040518263ffffffff167c0100000000000000000000000000000000000000000000000000000000028152600401808273ffffffffffffffffffffffffffffffffffffffff1673ffffffffffffffffffffffffffffffffffffffff168152602001915050600060405180830381600087803b15801561069957600080fd5b505af11580156106ad573d6000803e3d6000fd5b505050508973ffffffffffffffffffffffffffffffffffffffff168373ffffffffffffffffffffffffffffffffffffffff167f5c5f2ecd800afaa9861ac6ebf9ef843dfc826dedb68c6fc1447d0879f383629f8484604051808373ffffffffffffffffffffffffffffffffffffffff1673ffffffffffffffffffffffffffffffffffffffff1681526020018273ffffffffffffffffffffffffffffffffffffffff1673ffffffffffffffffffffffffffffffffffffffff1681526020019250505060405180910390a3509998505050505050505050565b60405161457780610795833901905600608060405260008060146101000a81548160ff0219169083151502179055503480156200002b57600080fd5b506040516101208062004577833981018060405281019080805190602001909291908051906020019092919080519060200190929190805190602001909291908051906020019092919080519060200190929190805190602001909291908051906020019092919080519060200190929190505050336000806101000a81548173ffffffffffffffffffffffffffffffffffffffff021916908373ffffffffffffffffffffffffffffffffffffffff160217905550600073ffffffffffffffffffffffffffffffffffffffff168873ffffffffffffffffffffffffffffffffffffffff16141515156200011d57600080fd5b6200013c83620003866401000000000262003c82176401000000009004565b801562000167575060646200016584620003a26401000000000262004065176401000000009004565b105b15156200017357600080fd5b6200019282620003866401000000000262003c82176401000000009004565b8015620001bd57506064620001bb83620003a26401000000000262004065176401000000009004565b105b1515620001c957600080fd5b600073ffffffffffffffffffffffffffffffffffffffff168173ffffffffffffffffffffffffffffffffffffffff16141515156200020657600080fd5b600073ffffffffffffffffffffffffffffffffffffffff168473ffffffffffffffffffffffffffffffffffffffff16141515156200024357600080fd5b87600160006101000a81548173ffffffffffffffffffffffffffffffffffffffff021916908373ffffffffffffffffffffffffffffffffffffffff16021790555088600260006101000a81548173ffffffffffffffffffffffffffffffffffffffff021916908373ffffffffffffffffffffffffffffffffffffffff16021790555086600381905550620002e78686620003f5640100000000026401000000009004565b8260058190555083600860006101000a81548173ffffffffffffffffffffffffffffffffffffffff021916908373ffffffffffffffffffffffffffffffffffffffff1602179055508160068190555080600960006101000a81548173ffffffffffffffffffffffffffffffffffffffff021916908373ffffffffffffffffffffffffffffffffffffffff160217905550505050505050505050620004a5565b60008082101580156200039b57506127108211155b9050919050565b6000620003be8262000386640100000000026401000000009004565b1515620003ca57600080fd5b620003ee6064836200048e6401000000000262003c6c179091906401000000009004565b9050919050565b6000821115156200040557600080fd5b600073ffffffffffffffffffffffffffffffffffffffff168173ffffffffffffffffffffffffffffffffffffffff16141515156200044257600080fd5b8160048190555080600760006101000a81548173ffffffffffffffffffffffffffffffffffffffff021916908373ffffffffffffffffffffffffffffffffffffffff1602179055505050565b600081838115156200049c57fe5b04905092915050565b6140c280620004b56000396000f3006080604052600436106101ac576000357c0100000000000000000000000000000000000000000000000000000000900463ffffffff1680630d544ffe146101b65780630ee62c771461023957806313096a41146102bb578063208853c91461031257806323d840f5146103535780632442e1cb146103a0578063299a017c146104f85780632c9a4bab1461063a5780632fbe5990146106a5578063313602d4146106d05780633baba4d7146106e75780634090cb6414610712578063521b7499146107695780635641f3c3146107c6578063564566a81461081d578063715018a61461084c57806372e6a88114610863578063792c02ea146108b05780638119c065146108db578063845ddcb2146109325780638abdf5aa146109b25780638da5cb5b146109dd5780638edd6eb614610a34578063a035b1fe14610a8b578063a4fd6f5614610ab6578063b135648814610ae5578063b60d428814610b1c578063d0febe4c14610b73578063d6d65f3d14610b7d578063daa4cf8814610ba8578063e89e4ed614610bde578063f12585f514610d36578063f2fde38b14610db8578063fc0c546a14610dfb575b6101b4610e52565b005b3480156101c257600080fd5b506102376004803603810190808035906020019082018035906020019190919293919293908035906020019082018035906020019190919293919293908035906020019082018035906020019190919293919293908035906020019082018035906020019190919293919293905050506115f7565b005b34801561024557600080fd5b5061026460048036038101908080359060200190929190505050611e6b565b6040518080602001828103825283818151815260200191508051906020019060200280838360005b838110156102a757808201518184015260208101905061028c565b505050509050019250505060405180910390f35b3480156102c757600080fd5b506102d0611f09565b604051808273ffffffffffffffffffffffffffffffffffffffff1673ffffffffffffffffffffffffffffffffffffffff16815260200191505060405180910390f35b34801561031e57600080fd5b5061033d60048036038101908080359060200190929190505050611f2f565b6040518082815260200191505060405180910390f35b34801561035f57600080fd5b5061039e60048036038101908080359060200190929190803573ffffffffffffffffffffffffffffffffffffffff16906020019092919050505061202b565b005b3480156103ac57600080fd5b506103cb600480360381019080803590602001909291905050506120e8565b604051808763ffffffff1663ffffffff1681526020018660ff1660ff1681526020018563ffffffff1663ffffffff1681526020018463ffffffff1663ffffffff1681526020018060200180602001838103835285818151815260200191508051906020019080838360005b83811015610451578082015181840152602081019050610436565b50505050905090810190601f16801561047e5780820380516001836020036101000a031916815260200191505b50838103825284818151815260200191508051906020019080838360005b838110156104b757808201518184015260208101905061049c565b50505050905090810190601f1680156104e45780820380516001836020036101000a031916815260200191505b509850505050505050505060405180910390f35b34801561050457600080fd5b5061050d61233f565b604051808763ffffffff1663ffffffff1681526020018660ff1660ff1681526020018563ffffffff1663ffffffff1681526020018463ffffffff1663ffffffff1681526020018060200180602001838103835285818151815260200191508051906020019080838360005b83811015610593578082015181840152602081019050610578565b50505050905090810190601f1680156105c05780820380516001836020036101000a031916815260200191505b50838103825284818151815260200191508051906020019080838360005b838110156105f95780820151818401526020810190506105de565b50505050905090810190601f1680156106265780820380516001836020036101000a031916815260200191505b509850505050505050505060405180910390f35b34801561064657600080fd5b506106a3600480360381019080803590602001908201803590602001919091929391929390803590602001908201803590602001919091929391929390803590602001908201803590602001919091929391929390505050612372565b005b3480156106b157600080fd5b506106ba612afa565b6040518082815260200191505060405180910390f35b3480156106dc57600080fd5b506106e5612b00565b005b3480156106f357600080fd5b506106fc612d93565b6040518082815260200191505060405180910390f35b34801561071e57600080fd5b50610727612da0565b604051808273ffffffffffffffffffffffffffffffffffffffff1673ffffffffffffffffffffffffffffffffffffffff16815260200191505060405180910390f35b34801561077557600080fd5b506107c460048036038101908080359060200190929190803590602001908201803590602001919091929391929390803590602001908201803590602001919091929391929390505050612dca565b005b3480156107d257600080fd5b506107db613051565b604051808273ffffffffffffffffffffffffffffffffffffffff1673ffffffffffffffffffffffffffffffffffffffff16815260200191505060405180910390f35b34801561082957600080fd5b50610832613077565b604051808215151515815260200191505060405180910390f35b34801561085857600080fd5b5061086161311b565b005b34801561086f57600080fd5b5061088e6004803603810190808035906020019092919050505061321d565b604051808263ffffffff1663ffffffff16815260200191505060405180910390f35b3480156108bc57600080fd5b506108c5613256565b6040518082815260200191505060405180910390f35b3480156108e757600080fd5b506108f0613263565b604051808273ffffffffffffffffffffffffffffffffffffffff1673ffffffffffffffffffffffffffffffffffffffff16815260200191505060405180910390f35b34801561093e57600080fd5b5061095d60048036038101908080359060200190929190505050613289565b604051808563ffffffff1663ffffffff1681526020018463ffffffff1663ffffffff1681526020018360ff1660ff1681526020018263ffffffff1663ffffffff16815260200194505050505060405180910390f35b3480156109be57600080fd5b506109c7613305565b6040518082815260200191505060405180910390f35b3480156109e957600080fd5b506109f261330b565b604051808273ffffffffffffffffffffffffffffffffffffffff1673ffffffffffffffffffffffffffffffffffffffff16815260200191505060405180910390f35b348015610a4057600080fd5b50610a49613330565b604051808273ffffffffffffffffffffffffffffffffffffffff1673ffffffffffffffffffffffffffffffffffffffff16815260200191505060405180910390f35b348015610a9757600080fd5b50610aa061335a565b6040518082815260200191505060405180910390f35b348015610ac257600080fd5b50610acb613360565b604051808215151515815260200191505060405180910390f35b348015610af157600080fd5b50610afa6133b7565b604051808263ffffffff1663ffffffff16815260200191505060405180910390f35b348015610b2857600080fd5b50610b3161340a565b604051808273ffffffffffffffffffffffffffffffffffffffff1673ffffffffffffffffffffffffffffffffffffffff16815260200191505060405180910390f35b610b7b610e52565b005b348015610b8957600080fd5b50610b92613430565b6040518082815260200191505060405180910390f35b348015610bb457600080fd5b50610bbd6134ae565b60405180838152602001821515151581526020019250505060405180910390f35b348015610bea57600080fd5b50610c0960048036038101908080359060200190929190505050613557565b604051808763ffffffff1663ffffffff1681526020018660ff1660ff1681526020018563ffffffff1663ffffffff1681526020018463ffffffff1663ffffffff1681526020018060200180602001838103835285818151815260200191508051906020019080838360005b83811015610c8f578082015181840152602081019050610c74565b50505050905090810190601f168015610cbc5780820380516001836020036101000a031916815260200191505b50838103825284818151815260200191508051906020019080838360005b83811015610cf5578082015181840152602081019050610cda565b50505050905090810190601f168015610d225780820380516001836020036101000a031916815260200191505b509850505050505050505060405180910390f35b348015610d4257600080fd5b50610d616004803603810190808035906020019092919050505061370f565b6040518080602001828103825283818151815260200191508051906020019060200280838360005b83811015610da4578082015181840152602081019050610d89565b505050509050019250505060405180910390f35b348015610dc457600080fd5b50610df9600480360381019080803573ffffffffffffffffffffffffffffffffffffffff169060200190929190505050613787565b005b348015610e0757600080fd5b50610e106138dc565b604051808273ffffffffffffffffffffffffffffffffffffffff1673ffffffffffffffffffffffffffffffffffffffff16815260200191505060405180910390f35b600080600080600080600080600060149054906101000a900460ff16151515610e7a57600080fd5b6001600060146101000a81548160ff021916908315150217905550610e9d613077565b1515610f11576040517f08c379a00000000000000000000000000000000000000000000000000000000081526004018080602001828103825260178152602001807f53616c65206973206e6f7420737461727465642079657400000000000000000081525060200191505060405180910390fd5b600034111515610f2057600080fd5b610f286134ae565b509750600a88815481101515610f3a57fe5b906000526020600020906003020160000160089054906101000a900460ff1660ff169650600a88815481101515610f6d57fe5b906000526020600020906003020160000160099054906101000a900463ffffffff169550610f9a34611f2f565b9450610fa7348887613902565b509350935093506000600654111561128157610fce60065485613acb90919063ffffffff16565b9050600260009054906101000a900473ffffffffffffffffffffffffffffffffffffffff1673ffffffffffffffffffffffffffffffffffffffff166323b872dd600860009054906101000a900473ffffffffffffffffffffffffffffffffffffffff16600760009054906101000a900473ffffffffffffffffffffffffffffffffffffffff16846040518463ffffffff167c0100000000000000000000000000000000000000000000000000000000028152600401808473ffffffffffffffffffffffffffffffffffffffff1673ffffffffffffffffffffffffffffffffffffffff1681526020018373ffffffffffffffffffffffffffffffffffffffff1673ffffffffffffffffffffffffffffffffffffffff1681526020018281526020019350505050602060405180830381600087803b15801561110d57600080fd5b505af1158015611121573d6000803e3d6000fd5b505050506040513d602081101561113757600080fd5b8101908080519060200190929190505050151561115357600080fd5b600160009054906101000a900473ffffffffffffffffffffffffffffffffffffffff1673ffffffffffffffffffffffffffffffffffffffff1663a9059cbb600860009054906101000a900473ffffffffffffffffffffffffffffffffffffffff16836040518363ffffffff167c0100000000000000000000000000000000000000000000000000000000028152600401808373ffffffffffffffffffffffffffffffffffffffff1673ffffffffffffffffffffffffffffffffffffffff16815260200182815260200192505050602060405180830381600087803b15801561123a57600080fd5b505af115801561124e573d6000803e3d6000fd5b505050506040513d602081101561126457600080fd5b8101908080519060200190929190505050151561128057600080fd5b5b600160009054906101000a900473ffffffffffffffffffffffffffffffffffffffff1673ffffffffffffffffffffffffffffffffffffffff16639d2e47773386896040518463ffffffff167c0100000000000000000000000000000000000000000000000000000000028152600401808473ffffffffffffffffffffffffffffffffffffffff1673ffffffffffffffffffffffffffffffffffffffff1681526020018381526020018263ffffffff1663ffffffff1681526020019350505050602060405180830381600087803b15801561135a57600080fd5b505af115801561136e573d6000803e3d6000fd5b505050506040513d602081101561138457600080fd5b810190808051906020019092919050505015156113a057600080fd5b60008211156113f1573373ffffffffffffffffffffffffffffffffffffffff166108fc839081150290604051600060405180830381858888f193505050501580156113ef573d6000803e3d6000fd5b505b6000600554111561147a57600760009054906101000a900473ffffffffffffffffffffffffffffffffffffffff1673ffffffffffffffffffffffffffffffffffffffff166108fc61144d60055486613acb90919063ffffffff16565b9081150290604051600060405180830381858888f19350505050158015611478573d6000803e3d6000fd5b505b600960009054906101000a900473ffffffffffffffffffffffffffffffffffffffff1673ffffffffffffffffffffffffffffffffffffffff1663958799cb3073ffffffffffffffffffffffffffffffffffffffff1631620186a09033886040518563ffffffff167c0100000000000000000000000000000000000000000000000000000000028152600401808373ffffffffffffffffffffffffffffffffffffffff1673ffffffffffffffffffffffffffffffffffffffff168152602001828152602001925050506000604051808303818589803b15801561155b57600080fd5b5088f115801561156f573d6000803e3d6000fd5b5050505050503373ffffffffffffffffffffffffffffffffffffffff167f347f5f0051b895093800553e6e78ef332849e2552639a4f5ffe66535788ae07884868560405180848152602001838152602001828152602001935050505060405180910390a260008060146101000a81548160ff0219169083151502179055505050505050505050565b60008060006060806000809054906101000a900473ffffffffffffffffffffffffffffffffffffffff1673ffffffffffffffffffffffffffffffffffffffff163373ffffffffffffffffffffffffffffffffffffffff1614151561165a57600080fd5b6000600a8054905011156116ae5742600a600081548110151561167957fe5b906000526020600020906003020160000160009054906101000a900463ffffffff1663ffffffff161115156116ad57600080fd5b5b7fffffffffffffffffffffffffffffffffffffffffffffffffffffffffffffffff60ff168d8d9050111515156116e357600080fd5b60038d8d9050101515156116f657600080fd5b600060038e8e905081151561170757fe5b0614151561171457600080fd5b8888905061172f60028d8d9050613b1090919063ffffffff16565b14151561173b57600080fd5b8c8c905061175660038d8d9050613b1090919063ffffffff16565b14151561176257600080fd5b60028b8b905002878790501015151561177a57600080fd5b6000600a805490501115611885578c8c6000818110151561179757fe5b9050602002013563ffffffff1663ffffffff16600a6001600a80549050038154811015156117c157fe5b906000526020600020906003020160000160049054906101000a900463ffffffff1663ffffffff16101515611884576040517f08c379a00000000000000000000000000000000000000000000000000000000081526004018080602001828103825260358152602001807f4669727374206d696c6573746f6e6520656e6444617465206d7573742062652081526020017f6774206c61737420737461676520656e6444617465000000000000000000000081525060400191505060405180910390fd5b5b6000945060009350600092505b8c8c905060ff168360ff161015611e3857428d8d8560ff1681811015156118b557fe5b9050602002013563ffffffff1663ffffffff161115156118d457600080fd5b8c8c8460ff1681811015156118e557fe5b9050602002013563ffffffff1663ffffffff168d8d6001860160ff16818110151561190c57fe5b9050602002013563ffffffff1663ffffffff1611151561192b57600080fd5b8c8c6001850160ff16818110151561193f57fe5b9050602002013563ffffffff1663ffffffff168d8d6002860160ff16818110151561196657fe5b9050602002013563ffffffff1663ffffffff1611151561198557600080fd5b60008360ff161115611a78578c8c8460ff1681811015156119a257fe5b9050602002013563ffffffff1663ffffffff168d8d6001860360ff1681811015156119c957fe5b9050602002013563ffffffff1663ffffffff16101515611a77576040517f08c379a00000000000000000000000000000000000000000000000000000000081526004018080602001828103825260298152602001807f4d696c6573746f6e65206461746573206973206e6f7420696e20617363656e6481526020017f696e67206f72646572000000000000000000000000000000000000000000000081525060400191505060405180910390fd5b5b611af4858a8a600260038860ff16811515611a8f57fe5b040260ff168181101515611a9f57fe5b9050602002013563ffffffff1663ffffffff1689898080601f016020809104026020016040519081016040528093929190818152602001838380828437820191505050505050613b489092919063ffffffff16565b9150611bac8989600260038760ff16811515611b0c57fe5b040260ff168181101515611b1c57fe5b9050602002013563ffffffff1663ffffffff1686018a8a6001600260038960ff16811515611b4657fe5b04020160ff168181101515611b5757fe5b9050602002013563ffffffff1663ffffffff1689898080601f016020809104026020016040519081016040528093929190818152602001838380828437820191505050505050613b489092919063ffffffff16565b905060008251111515611bbe57600080fd5b60008151111515611bce57600080fd5b600b60c0604051908101604052808f8f8760ff168181101515611bed57fe5b9050602002013563ffffffff1663ffffffff1681526020018d8d60038860ff16811515611c1657fe5b0460ff168181101515611c2557fe5b9050602002013560ff1660ff1681526020018f8f6001880160ff168181101515611c4b57fe5b9050602002013563ffffffff1663ffffffff1681526020018f8f6002880160ff168181101515611c7757fe5b9050602002013563ffffffff1663ffffffff168152602001848152602001838152509080600181540180825580915050906001820390600052602060002090600302016000909192909190915060008201518160000160006101000a81548163ffffffff021916908363ffffffff16021790555060208201518160000160046101000a81548160ff021916908360ff16021790555060408201518160000160056101000a81548163ffffffff021916908363ffffffff16021790555060608201518160000160096101000a81548163ffffffff021916908363ffffffff1602179055506080820151816001019080519060200190611d76929190613c9d565b5060a0820151816002019080519060200190611d93929190613c9d565b505050508888600160038660ff16811515611daa57fe5b040160ff168181101515611dba57fe5b9050602002013563ffffffff16898960038660ff16811515611dd857fe5b0460ff168181101515611de757fe5b9050602002013563ffffffff160163ffffffff16850194508a8a60038560ff16811515611e1057fe5b0460ff168181101515611e1f57fe5b9050602002013560ff1684019350600383019250611892565b8c8c600c9190611e49929190613d1d565b5060648460ff16141515611e5c57600080fd5b50505050505050505050505050565b6060600a82815481101515611e7c57fe5b9060005260206000209060030201600201805480602002602001604051908101604052809291908181526020018280548015611efd57602002820191906000526020600020906000905b82829054906101000a900460ff1660ff1681526020019060010190602082600001049283019260010382029150808411611ec65790505b50505050509050919050565b600260009054906101000a900473ffffffffffffffffffffffffffffffffffffffff1681565b600080600080600080611f406134ae565b94509450831515611f545760009550612021565b600a81815481101515611f6357fe5b9060005260206000209060030201925060009150600090505b826001018054905081101561202057818710158015611fb557508260010181815481101515611fa757fe5b906000526020600020015487105b15611ff5578260020181815481101515611fcb57fe5b90600052602060002090602091828204019190069054906101000a900460ff1660ff169550612020565b826001018181548110151561200657fe5b906000526020600020015491508080600101915050611f7c565b5b5050505050919050565b6000809054906101000a900473ffffffffffffffffffffffffffffffffffffffff1673ffffffffffffffffffffffffffffffffffffffff163373ffffffffffffffffffffffffffffffffffffffff1614151561208657600080fd5b6000600a8054905011156120da5742600a60008154811015156120a557fe5b906000526020600020906003020160000160009054906101000a900463ffffffff1663ffffffff161115156120d957600080fd5b5b6120e48282613bd5565b5050565b600080600080606080600b8781548110151561210057fe5b906000526020600020906003020160000160009054906101000a900463ffffffff16600b8881548110151561213157fe5b906000526020600020906003020160000160049054906101000a900460ff16600b8981548110151561215f57fe5b906000526020600020906003020160000160059054906101000a900463ffffffff16600b8a81548110151561219057fe5b906000526020600020906003020160000160099054906101000a900463ffffffff16600b8b8154811015156121c157fe5b9060005260206000209060030201600101600b8c8154811015156121e157fe5b9060005260206000209060030201600201818054600181600116156101000203166002900480601f0160208091040260200160405190810160405280929190818152602001828054600181600116156101000203166002900480156122875780601f1061225c57610100808354040283529160200191612287565b820191906000526020600020905b81548152906001019060200180831161226a57829003601f168201915b50505050509150808054600181600116156101000203166002900480601f0160208091040260200160405190810160405280929190818152602001828054600181600116156101000203166002900480156123235780601f106122f857610100808354040283529160200191612323565b820191906000526020600020905b81548152906001019060200180831161230657829003601f168201915b5050505050905095509550955095509550955091939550919395565b6000806000806060806000612352613430565b905061235d816120e8565b96509650965096509650965050909192939495565b6000806000809054906101000a900473ffffffffffffffffffffffffffffffffffffffff1673ffffffffffffffffffffffffffffffffffffffff163373ffffffffffffffffffffffffffffffffffffffff161415156123d057600080fd5b6000600a8054905011156124245742600a60008154811015156123ef57fe5b906000526020600020906003020160000160009054906101000a900463ffffffff1663ffffffff1611151561242357600080fd5b5b7fffffffffffffffffffffffffffffffffffffffffffffffffffffffffffffffff60ff16888890501115151561245957600080fd5b60008888905011151561246b57600080fd5b858590508888905014151561247f57600080fd5b838390508888905014151561249357600080fd5b6000600b8054905011156125ae57878760018a8a90500381811015156124b557fe5b90506040020160016002811015156124c957fe5b602002013563ffffffff1663ffffffff16600b60008154811015156124ea57fe5b906000526020600020906003020160000160009054906101000a900463ffffffff1663ffffffff161115156125ad576040517f08c379a00000000000000000000000000000000000000000000000000000000081526004018080602001828103825260358152602001807f4c61737420737461676520656e6444617465206d757374206265206c7420666981526020017f727374206d696c6573746f6e6520656e6444617465000000000000000000000081525060400191505060405180910390fd5b5b8787905091508160ff16600a816125c59190613dd3565b50600090505b8160ff168160ff161015612ac457600086868360ff1681811015156125ec57fe5b9050602002013560ff1660ff16101580156126245750606486868360ff16818110151561261557fe5b9050602002013560ff1660ff16105b15156126be576040517f08c379a000000000000000000000000000000000000000000000000000000000815260040180806020018281038252602f8152602001807f537461676520646973636f756e74206973206e6f7420696e20616c6c6f77656481526020017f2072616e6765205b302c2031303029000000000000000000000000000000000081525060400191505060405180910390fd5b4288888360ff1681811015156126d057fe5b90506040020160006002811015156126e457fe5b602002013563ffffffff1663ffffffff1611151561270157600080fd5b87878260ff16818110151561271257fe5b905060400201600160028110151561272657fe5b602002013563ffffffff1663ffffffff1688888360ff16818110151561274857fe5b905060400201600060028110151561275c57fe5b602002013563ffffffff1663ffffffff16101515612808576040517f08c379a00000000000000000000000000000000000000000000000000000000081526004018080602001828103825260248152602001807f53746167652073746172742064617465206d75737420626520677420656e642081526020017f646174650000000000000000000000000000000000000000000000000000000081525060400191505060405180910390fd5b60008160ff1611156129205787878260ff16818110151561282557fe5b905060400201600060028110151561283957fe5b602002013563ffffffff1663ffffffff1688886001840360ff16818110151561285e57fe5b905060400201600160028110151561287257fe5b602002013563ffffffff1663ffffffff161115151561291f576040517f08c379a00000000000000000000000000000000000000000000000000000000081526004018080602001828103825260228152602001807f53746167657320617265206e6f7420696e20686973746f726963616c206f726481526020017f657200000000000000000000000000000000000000000000000000000000000081525060400191505060405180910390fd5b5b87878260ff16818110151561293157fe5b905060400201600060028110151561294557fe5b602002013563ffffffff16600a8260ff1681548110151561296257fe5b906000526020600020906003020160000160006101000a81548163ffffffff021916908363ffffffff16021790555087878260ff1681811015156129a257fe5b90506040020160016002811015156129b657fe5b602002013563ffffffff16600a8260ff168154811015156129d357fe5b906000526020600020906003020160000160046101000a81548163ffffffff021916908363ffffffff16021790555085858260ff168181101515612a1357fe5b9050602002013560ff16600a8260ff16815481101515612a2f57fe5b906000526020600020906003020160000160086101000a81548160ff021916908360ff16021790555083838260ff168181101515612a6957fe5b9050602002013563ffffffff16600a8260ff16815481101515612a8857fe5b906000526020600020906003020160000160096101000a81548163ffffffff021916908363ffffffff16021790555080806001019150506125cb565b7f743961f4e677d1146fbf85d75565b1c5474fd083eb166f8b9595cf5d01a4d6e660405160405180910390a15050505050505050565b60065481565b6000809054906101000a900473ffffffffffffffffffffffffffffffffffffffff1673ffffffffffffffffffffffffffffffffffffffff163373ffffffffffffffffffffffffffffffffffffffff16141515612b5b57600080fd5b612b63613360565b1515612b6e57600080fd5b600160009054906101000a900473ffffffffffffffffffffffffffffffffffffffff1673ffffffffffffffffffffffffffffffffffffffff1663a9059cbb6000809054906101000a900473ffffffffffffffffffffffffffffffffffffffff16600160009054906101000a900473ffffffffffffffffffffffffffffffffffffffff1673ffffffffffffffffffffffffffffffffffffffff166370a08231306040518263ffffffff167c0100000000000000000000000000000000000000000000000000000000028152600401808273ffffffffffffffffffffffffffffffffffffffff1673ffffffffffffffffffffffffffffffffffffffff168152602001915050602060405180830381600087803b158015612c8b57600080fd5b505af1158015612c9f573d6000803e3d6000fd5b505050506040513d6020811015612cb557600080fd5b81019080805190602001909291905050506040518363ffffffff167c0100000000000000000000000000000000000000000000000000000000028152600401808373ffffffffffffffffffffffffffffffffffffffff1673ffffffffffffffffffffffffffffffffffffffff16815260200182815260200192505050602060405180830381600087803b158015612d4b57600080fd5b505af1158015612d5f573d6000803e3d6000fd5b505050506040513d6020811015612d7557600080fd5b81019080805190602001909291905050501515612d9157600080fd5b565b6000600b80549050905090565b6000600160009054906101000a900473ffffffffffffffffffffffffffffffffffffffff16905090565b60008060009054906101000a900473ffffffffffffffffffffffffffffffffffffffff1673ffffffffffffffffffffffffffffffffffffffff163373ffffffffffffffffffffffffffffffffffffffff16141515612e2757600080fd5b6000600a805490501115612e7b5742600a6000815481101515612e4657fe5b906000526020600020906003020160000160009054906101000a900463ffffffff1663ffffffff16111515612e7a57600080fd5b5b8282905085859050141515612e8f57600080fd5b600a8054905086101515612ea257600080fd5b600090505b84849050811015612f91576000811115612f84578484828181101515612ec957fe5b905060200201358585600184038181101515612ee157fe5b90506020020135101515612f83576040517f08c379a000000000000000000000000000000000000000000000000000000000815260040180806020018281038252602c8152602001807f566f6c756d6520626f756e646172696573206d75737420626520696e2061736381526020017f656e64696e67206f72646572000000000000000000000000000000000000000081525060400191505060405180910390fd5b5b8080600101915050612ea7565b600a86815481101515612fa057fe5b90600052602060002090600302016001016000612fbd9190613e05565b600a86815481101515612fcc57fe5b90600052602060002090600302016002016000612fe99190613e26565b8484600a88815481101515612ffa57fe5b90600052602060002090600302016001019190613018929190613e4e565b508282600a8881548110151561302a57fe5b90600052602060002090600302016002019190613048929190613e9b565b50505050505050565b600760009054906101000a900473ffffffffffffffffffffffffffffffffffffffff1681565b60008060006130846134ae565b915091508015156130985760009250613116565b42600a838154811015156130a857fe5b906000526020600020906003020160000160009054906101000a900463ffffffff1663ffffffff1611158015613113575042600a838154811015156130e957fe5b906000526020600020906003020160000160049054906101000a900463ffffffff1663ffffffff16115b92505b505090565b6000809054906101000a900473ffffffffffffffffffffffffffffffffffffffff1673ffffffffffffffffffffffffffffffffffffffff163373ffffffffffffffffffffffffffffffffffffffff1614151561317657600080fd5b6000809054906101000a900473ffffffffffffffffffffffffffffffffffffffff1673ffffffffffffffffffffffffffffffffffffffff167ff8df31144d9c2f0f6b59d69b8b98abd5459d07f2742c4df920b25aae33c6482060405160405180910390a260008060006101000a81548173ffffffffffffffffffffffffffffffffffffffff021916908373ffffffffffffffffffffffffffffffffffffffff160217905550565b600c8181548110151561322c57fe5b9060005260206000209060089182820401919006600402915054906101000a900463ffffffff1681565b6000600a80549050905090565b600860009054906101000a900473ffffffffffffffffffffffffffffffffffffffff1681565b600a8181548110151561329857fe5b90600052602060002090600302016000915090508060000160009054906101000a900463ffffffff16908060000160049054906101000a900463ffffffff16908060000160089054906101000a900460ff16908060000160099054906101000a900463ffffffff16905084565b60055481565b6000809054906101000a900473ffffffffffffffffffffffffffffffffffffffff1681565b6000600960009054906101000a900473ffffffffffffffffffffffffffffffffffffffff16905090565b60045481565b600080600a8054905014806133b2575042600a6001600a805490500381548110151561338857fe5b906000526020600020906003020160000160049054906101000a900463ffffffff1663ffffffff16105b905090565b600080600a805490501115156133cc57600080fd5b600a6001600a80549050038154811015156133e357fe5b906000526020600020906003020160000160049054906101000a900463ffffffff16905090565b600960009054906101000a900473ffffffffffffffffffffffffffffffffffffffff1681565b600080600b805490509050600081141561344957600080fd5b5b60018103821080156134985750600c6003830281548110151561346957fe5b90600052602060002090600891828204019190066004029054906101000a900463ffffffff1663ffffffff1642115b156134aa57818060010192505061344a565b5090565b600080600080600091505b600a8054905082101561354657600a828154811015156134d557fe5b90600052602060002090600302019050428160000160009054906101000a900463ffffffff1663ffffffff16111580156135285750428160000160049054906101000a900463ffffffff1663ffffffff16115b156135395781600193509350613551565b81806001019250506134b9565b600080819150935093505b50509091565b600b8181548110151561356657fe5b90600052602060002090600302016000915090508060000160009054906101000a900463ffffffff16908060000160049054906101000a900460ff16908060000160059054906101000a900463ffffffff16908060000160099054906101000a900463ffffffff1690806001018054600181600116156101000203166002900480601f0160208091040260200160405190810160405280929190818152602001828054600181600116156101000203166002900480156136675780601f1061363c57610100808354040283529160200191613667565b820191906000526020600020905b81548152906001019060200180831161364a57829003601f168201915b505050505090806002018054600181600116156101000203166002900480601f0160208091040260200160405190810160405280929190818152602001828054600181600116156101000203166002900480156137055780601f106136da57610100808354040283529160200191613705565b820191906000526020600020905b8154815290600101906020018083116136e857829003601f168201915b5050505050905086565b6060600a8281548110151561372057fe5b906000526020600020906003020160010180548060200260200160405190810160405280929190818152602001828054801561377b57602002820191906000526020600020905b815481526020019060010190808311613767575b50505050509050919050565b6000809054906101000a900473ffffffffffffffffffffffffffffffffffffffff1673ffffffffffffffffffffffffffffffffffffffff163373ffffffffffffffffffffffffffffffffffffffff161415156137e257600080fd5b600073ffffffffffffffffffffffffffffffffffffffff168173ffffffffffffffffffffffffffffffffffffffff161415151561381e57600080fd5b8073ffffffffffffffffffffffffffffffffffffffff166000809054906101000a900473ffffffffffffffffffffffffffffffffffffffff1673ffffffffffffffffffffffffffffffffffffffff167f8be0079c531659141344cd1fd0a4f28419497f9722a3daafe3b4186f6b6457e060405160405180910390a3806000806101000a81548173ffffffffffffffffffffffffffffffffffffffff021916908373ffffffffffffffffffffffffffffffffffffffff16021790555050565b600160009054906101000a900473ffffffffffffffffffffffffffffffffffffffff1681565b60008060008060008793506000871161391d57600454613949565b613948606461393a89606403600454613b1090919063ffffffff16565b613c6c90919063ffffffff16565b5b915061398d600260035403600a0a61397f846139718a6064018d613b1090919063ffffffff16565b613c6c90919063ffffffff16565b613b1090919063ffffffff16565b9450600160009054906101000a900473ffffffffffffffffffffffffffffffffffffffff1673ffffffffffffffffffffffffffffffffffffffff166370a08231306040518263ffffffff167c0100000000000000000000000000000000000000000000000000000000028152600401808273ffffffffffffffffffffffffffffffffffffffff1673ffffffffffffffffffffffffffffffffffffffff168152602001915050602060405180830381600087803b158015613a4c57600080fd5b505af1158015613a60573d6000803e3d6000fd5b505050506040513d6020811015613a7657600080fd5b8101908080519060200190929190505050905084811015613ac157613ab685613aa8838b613b1090919063ffffffff16565b613c6c90919063ffffffff16565b935083880392508094505b5093509350935093565b6000613ad682613c82565b1515613ae157600080fd5b613b08612710613afa8486613b1090919063ffffffff16565b613c6c90919063ffffffff16565b905092915050565b600080831415613b235760009050613b42565b8183029050818382811515613b3457fe5b04141515613b3e57fe5b8090505b92915050565b606080828401855110151515613b5d57600080fd5b821560008114613b7857604051915060208201604052613bc9565b6040519150601f8416801560200281840101858101878315602002848b0101015b81831015613bb65780518352602083019250602081019050613b99565b50868552601f19601f8301166040525050505b50809150509392505050565b600082111515613be457600080fd5b600073ffffffffffffffffffffffffffffffffffffffff168173ffffffffffffffffffffffffffffffffffffffff1614151515613c2057600080fd5b8160048190555080600760006101000a81548173ffffffffffffffffffffffffffffffffffffffff021916908373ffffffffffffffffffffffffffffffffffffffff1602179055505050565b60008183811515613c7957fe5b04905092915050565b6000808210158015613c9657506127108211155b9050919050565b828054600181600116156101000203166002900490600052602060002090601f016020900481019282601f10613cde57805160ff1916838001178555613d0c565b82800160010185558215613d0c579182015b82811115613d0b578251825591602001919060010190613cf0565b5b509050613d199190613f45565b5090565b82805482825590600052602060002090600701600890048101928215613dc25791602002820160005b83821115613d9057833563ffffffff1683826101000a81548163ffffffff021916908363ffffffff1602179055509260200192600401602081600301049283019260010302613d46565b8015613dc05782816101000a81549063ffffffff0219169055600401602081600301049283019260010302613d90565b505b509050613dcf9190613f6a565b5090565b815481835581811115613e0057600302816003028360005260206000209182019101613dff9190613f9d565b5b505050565b5080546000825590600052602060002090810190613e239190613f45565b50565b50805460008255601f016020900490600052602060002090810190613e4b9190613f45565b50565b828054828255906000526020600020908101928215613e8a579160200282015b82811115613e89578235825591602001919060010190613e6e565b5b509050613e979190613f45565b5090565b82805482825590600052602060002090601f01602090048101928215613f345791602002820160005b83821115613f0557833560ff1683826101000a81548160ff021916908360ff1602179055509260200192600101602081600001049283019260010302613ec4565b8015613f325782816101000a81549060ff0219169055600101602081600001049283019260010302613f05565b505b509050613f419190614035565b5090565b613f6791905b80821115613f63576000816000905550600101613f4b565b5090565b90565b613f9a91905b80821115613f9657600081816101000a81549063ffffffff021916905550600101613f70565b5090565b90565b61403291905b8082111561402e57600080820160006101000a81549063ffffffff02191690556000820160046101000a81549063ffffffff02191690556000820160086101000a81549060ff02191690556000820160096101000a81549063ffffffff02191690556001820160006140159190613e05565b6002820160006140259190613e26565b50600301613fa3565b5090565b90565b61406291905b8082111561405e57600081816101000a81549060ff02191690555060010161403b565b5090565b90565b600061407082613c82565b151561407b57600080fd5b61408f606483613c6c90919063ffffffff16565b90509190505600a165627a7a72305820e8fb6daeef7b2fdc1ee3c372eb431662133623792b25256240d1ce1a60b2f9220029a165627a7a72305820701b9fc30664608e4ccd45216e118c7ec10281711117e2c5f2a98fdb78b4a49e0029",
  "source": "pragma solidity ^0.4.24;\n\nimport \"./interfaces/IW12CrowdsaleFactory.sol\";\nimport \"./interfaces/IW12FundFactory.sol\";\nimport \"./W12Crowdsale.sol\";\n\n\ncontract W12CrowdsaleFactory is IW12CrowdsaleFactory {\n    IW12FundFactory private fundFactory;\n\n    event CrowdsaleCreated(address indexed owner, address indexed token, address crowdsaleAddress, address fundAddress);\n\n    constructor(IW12FundFactory _fundFactory) public {\n        require(_fundFactory != address(0), \"Factory address required\");\n\n        fundFactory = _fundFactory;\n    }\n\n    function createCrowdsale(\n        address tokenAddress,\n        address wTokenAddress,\n        uint price,\n        address serviceWallet,\n        uint serviceFee,\n        uint WTokenSaleFeePercent,\n        uint trancheFeePercent,\n        address swap,\n        address owner\n    )\n        external returns (IW12Crowdsale result)\n    {\n        IW12Fund fund = fundFactory.createFund(swap, serviceWallet, trancheFeePercent);\n\n        result = new W12Crowdsale(\n            tokenAddress,\n            wTokenAddress,\n            DetailedERC20(wTokenAddress).decimals(),\n            price,\n            serviceWallet,\n            swap,\n            serviceFee,\n            WTokenSaleFeePercent,\n            fund\n        );\n\n        result.transferOwnership(owner);\n\n        fund.setCrowdsale(result);\n        fund.transferOwnership(owner);\n\n        emit CrowdsaleCreated(owner, wTokenAddress, address(result), fund);\n    }\n}\n",
  "sourcePath": "/Projects/w12-new/contracts/W12CrowdsaleFactory.sol",
  "compiler": {
    "name": "solc",
    "version": "0.4.24+commit.e67f0147.Emscripten.clang"
  },
  "schemaVersion": "2.0.1",
  "updatedAt": "2018-08-24T22:22:14.909Z"
}