{
  "contractName": "W12CrowdsaleFactory",
  "abi": [
    {
      "anonymous": false,
      "inputs": [
        {
          "indexed": true,
          "name": "owner",
          "type": "address"
        },
        {
          "indexed": true,
          "name": "token",
          "type": "address"
        },
        {
          "indexed": false,
          "name": "startDate",
          "type": "uint32"
        },
        {
          "indexed": false,
          "name": "crowdsaleAddress",
          "type": "address"
        },
        {
          "indexed": false,
          "name": "fundAddress",
          "type": "address"
        }
      ],
      "name": "CrowdsaleCreated",
      "type": "event"
    },
    {
      "constant": false,
      "inputs": [
        {
          "name": "wTokenAddress",
          "type": "address"
        },
        {
          "name": "startDate",
          "type": "uint32"
        },
        {
          "name": "price",
          "type": "uint256"
        },
        {
          "name": "serviceWallet",
          "type": "address"
        },
        {
          "name": "serviceFee",
          "type": "uint8"
        },
        {
          "name": "swap",
          "type": "address"
        },
        {
          "name": "owner",
          "type": "address"
        }
      ],
      "name": "createCrowdsale",
      "outputs": [
        {
          "name": "result",
          "type": "address"
        }
      ],
      "payable": false,
      "stateMutability": "nonpayable",
      "type": "function"
    }
  ],
  "bytecode": "0x608060405234801561001057600080fd5b5061556b806100206000396000f300608060405260043610610041576000357c0100000000000000000000000000000000000000000000000000000000900463ffffffff168063c56351cd14610046575b600080fd5b34801561005257600080fd5b5061010e600480360381019080803573ffffffffffffffffffffffffffffffffffffffff169060200190929190803563ffffffff16906020019092919080359060200190929190803573ffffffffffffffffffffffffffffffffffffffff169060200190929190803560ff169060200190929190803573ffffffffffffffffffffffffffffffffffffffff169060200190929190803573ffffffffffffffffffffffffffffffffffffffff169060200190929190505050610150565b604051808273ffffffffffffffffffffffffffffffffffffffff1673ffffffffffffffffffffffffffffffffffffffff16815260200191505060405180910390f35b60008061015b61061b565b604051809103906000f080158015610177573d6000803e3d6000fd5b50905088888888888561018861062b565b808773ffffffffffffffffffffffffffffffffffffffff1673ffffffffffffffffffffffffffffffffffffffff1681526020018663ffffffff1663ffffffff1681526020018581526020018473ffffffffffffffffffffffffffffffffffffffff1673ffffffffffffffffffffffffffffffffffffffff1681526020018360ff1660ff1681526020018273ffffffffffffffffffffffffffffffffffffffff1673ffffffffffffffffffffffffffffffffffffffff1681526020019650505050505050604051809103906000f080158015610267573d6000803e3d6000fd5b5091508173ffffffffffffffffffffffffffffffffffffffff1663f2fde38b846040518263ffffffff167c0100000000000000000000000000000000000000000000000000000000028152600401808273ffffffffffffffffffffffffffffffffffffffff1673ffffffffffffffffffffffffffffffffffffffff168152602001915050600060405180830381600087803b15801561030557600080fd5b505af1158015610319573d6000803e3d6000fd5b505050508073ffffffffffffffffffffffffffffffffffffffff1663483a20b2836040518263ffffffff167c0100000000000000000000000000000000000000000000000000000000028152600401808273ffffffffffffffffffffffffffffffffffffffff1673ffffffffffffffffffffffffffffffffffffffff168152602001915050600060405180830381600087803b1580156103b857600080fd5b505af11580156103cc573d6000803e3d6000fd5b505050508073ffffffffffffffffffffffffffffffffffffffff1663acb3c073856040518263ffffffff167c0100000000000000000000000000000000000000000000000000000000028152600401808273ffffffffffffffffffffffffffffffffffffffff1673ffffffffffffffffffffffffffffffffffffffff168152602001915050600060405180830381600087803b15801561046b57600080fd5b505af115801561047f573d6000803e3d6000fd5b505050508073ffffffffffffffffffffffffffffffffffffffff1663f2fde38b846040518263ffffffff167c0100000000000000000000000000000000000000000000000000000000028152600401808273ffffffffffffffffffffffffffffffffffffffff1673ffffffffffffffffffffffffffffffffffffffff168152602001915050600060405180830381600087803b15801561051e57600080fd5b505af1158015610532573d6000803e3d6000fd5b505050508873ffffffffffffffffffffffffffffffffffffffff168373ffffffffffffffffffffffffffffffffffffffff167fed25eb23596fb8771d2e1e79182ae4c1e2c0e9d7f8718b8e52c92a7ecd154c8c8a8585604051808463ffffffff1663ffffffff1681526020018373ffffffffffffffffffffffffffffffffffffffff1673ffffffffffffffffffffffffffffffffffffffff1681526020018273ffffffffffffffffffffffffffffffffffffffff1673ffffffffffffffffffffffffffffffffffffffff168152602001935050505060405180910390a350979650505050505050565b604051611aa58061063c83390190565b60405161345f806120e1833901905600608060405260008060146101000a81548160ff021916908315150217905550336000806101000a81548173ffffffffffffffffffffffffffffffffffffffff021916908373ffffffffffffffffffffffffffffffffffffffff160217905550611a388061006d6000396000f3006080604052600436106100e6576000357c0100000000000000000000000000000000000000000000000000000000900463ffffffff16806304cd5294146100eb5780630babd8641461012c57806311fa7da214610183578063278ecde1146101e1578063483a20b21461020e5780635647cb1414610251578063715018a61461029b5780638119c065146102b25780638da5cb5b14610309578063958799cb1461036057806397a993aa146103a05780639c1e03a014610405578063acb3c0731461045c578063ad044f491461049f578063d9082962146104ca578063f2fde38b146104f5575b600080fd5b3480156100f757600080fd5b5061011660048036038101908080359060200190929190505050610538565b6040518082815260200191505060405180910390f35b34801561013857600080fd5b506101416108d7565b604051808273ffffffffffffffffffffffffffffffffffffffff1673ffffffffffffffffffffffffffffffffffffffff16815260200191505060405180910390f35b34801561018f57600080fd5b506101c4600480360381019080803573ffffffffffffffffffffffffffffffffffffffff1690602001909291905050506108fd565b604051808381526020018281526020019250505060405180910390f35b3480156101ed57600080fd5b5061020c600480360381019080803590602001909291905050506109cb565b005b34801561021a57600080fd5b5061024f600480360381019080803573ffffffffffffffffffffffffffffffffffffffff169060200190929190505050610f61565b005b34801561025d57600080fd5b5061026661111b565b604051808363ffffffff1663ffffffff1681526020018263ffffffff1663ffffffff1681526020019250505060405180910390f35b3480156102a757600080fd5b506102b06112c3565b005b3480156102be57600080fd5b506102c76113c5565b604051808273ffffffffffffffffffffffffffffffffffffffff1673ffffffffffffffffffffffffffffffffffffffff16815260200191505060405180910390f35b34801561031557600080fd5b5061031e6113eb565b604051808273ffffffffffffffffffffffffffffffffffffffff1673ffffffffffffffffffffffffffffffffffffffff16815260200191505060405180910390f35b61039e600480360381019080803573ffffffffffffffffffffffffffffffffffffffff16906020019092919080359060200190929190505050611410565b005b3480156103ac57600080fd5b506103e1600480360381019080803573ffffffffffffffffffffffffffffffffffffffff1690602001909291905050506116f1565b60405180848152602001838152602001828152602001935050505060405180910390f35b34801561041157600080fd5b5061041a61171b565b604051808273ffffffffffffffffffffffffffffffffffffffff1673ffffffffffffffffffffffffffffffffffffffff16815260200191505060405180910390f35b34801561046857600080fd5b5061049d600480360381019080803573ffffffffffffffffffffffffffffffffffffffff169060200190929190505050611741565b005b3480156104ab57600080fd5b506104b461181c565b6040518082815260200191505060405180910390f35b3480156104d657600080fd5b506104df611822565b6040518082815260200191505060405180910390f35b34801561050157600080fd5b50610536600480360381019080803573ffffffffffffffffffffffffffffffffffffffff169060200190929190505050611828565b005b600080600080600080600080600096506305f5e1007fffffffffffffffffffffffffffffffffffffffffffffffffffffffffffffffff81151561057757fe5b04955033945061058561111b565b9350935060008463ffffffff161180156105a55750428363ffffffff1610155b80156105b65750428463ffffffff16105b80156105c25750600089115b801561061057506000600460008773ffffffffffffffffffffffffffffffffffffffff1673ffffffffffffffffffffffffffffffffffffffff16815260200190815260200160002060000154115b8015610633575060003073ffffffffffffffffffffffffffffffffffffffff1631115b8015610736575088600360009054906101000a900473ffffffffffffffffffffffffffffffffffffffff1673ffffffffffffffffffffffffffffffffffffffff166370a08231876040518263ffffffff167c0100000000000000000000000000000000000000000000000000000000028152600401808273ffffffffffffffffffffffffffffffffffffffff1673ffffffffffffffffffffffffffffffffffffffff168152602001915050602060405180830381600087803b1580156106f857600080fd5b505af115801561070c573d6000803e3d6000fd5b505050506040513d602081101561072257600080fd5b810190808051906020019092919050505010155b8015610784575088600460008773ffffffffffffffffffffffffffffffffffffffff1673ffffffffffffffffffffffffffffffffffffffff1681526020019081526020016000206000015410155b156108c8576108093073ffffffffffffffffffffffffffffffffffffffff16316107fb600554600460008a73ffffffffffffffffffffffffffffffffffffffff1673ffffffffffffffffffffffffffffffffffffffff1681526020019081526020016000206002015461188f90919063ffffffff16565b6118c790919063ffffffff16565b91508582101561081d576305f5e100610820565b60015b63ffffffff1690506108c56108b6826108a88c61089a600460008c73ffffffffffffffffffffffffffffffffffffffff1673ffffffffffffffffffffffffffffffffffffffff1681526020019081526020016000206000015461088c888a61188f90919063ffffffff16565b6118c790919063ffffffff16565b61188f90919063ffffffff16565b6118c790919063ffffffff16565b886118dd90919063ffffffff16565b96505b86975050505050505050919050565b600360009054906101000a900473ffffffffffffffffffffffffffffffffffffffff1681565b600080600073ffffffffffffffffffffffffffffffffffffffff168373ffffffffffffffffffffffffffffffffffffffff161415151561093c57600080fd5b600460008473ffffffffffffffffffffffffffffffffffffffff1673ffffffffffffffffffffffffffffffffffffffff16815260200190815260200160002060000154600460008573ffffffffffffffffffffffffffffffffffffffff1673ffffffffffffffffffffffffffffffffffffffff1681526020019081526020016000206001015491509150915091565b600080600060149054906101000a900460ff161515156109ea57600080fd5b6001600060146101000a81548160ff021916908315150217905550610a0e83610538565b9150339050600082111515610a2257600080fd5b600360009054906101000a900473ffffffffffffffffffffffffffffffffffffffff1673ffffffffffffffffffffffffffffffffffffffff166323b872dd82600260009054906101000a900473ffffffffffffffffffffffffffffffffffffffff16866040518463ffffffff167c0100000000000000000000000000000000000000000000000000000000028152600401808473ffffffffffffffffffffffffffffffffffffffff1673ffffffffffffffffffffffffffffffffffffffff1681526020018373ffffffffffffffffffffffffffffffffffffffff1673ffffffffffffffffffffffffffffffffffffffff1681526020018281526020019350505050602060405180830381600087803b158015610b3d57600080fd5b505af1158015610b51573d6000803e3d6000fd5b505050506040513d6020811015610b6757600080fd5b81019080805190602001909291905050501515610b8357600080fd5b610bd883600460008473ffffffffffffffffffffffffffffffffffffffff1673ffffffffffffffffffffffffffffffffffffffff168152602001908152602001600020600001546118f990919063ffffffff16565b600460008373ffffffffffffffffffffffffffffffffffffffff1673ffffffffffffffffffffffffffffffffffffffff16815260200190815260200160002060000181905550610cc7610c76600460008473ffffffffffffffffffffffffffffffffffffffff1673ffffffffffffffffffffffffffffffffffffffff168152602001908152602001600020600101548561188f90919063ffffffff16565b600460008473ffffffffffffffffffffffffffffffffffffffff1673ffffffffffffffffffffffffffffffffffffffff168152602001908152602001600020600201546118f990919063ffffffff16565b600460008373ffffffffffffffffffffffffffffffffffffffff1673ffffffffffffffffffffffffffffffffffffffff168152602001908152602001600020600201819055506000600460008373ffffffffffffffffffffffffffffffffffffffff1673ffffffffffffffffffffffffffffffffffffffff16815260200190815260200160002060020154118015610da157506000600460008373ffffffffffffffffffffffffffffffffffffffff1673ffffffffffffffffffffffffffffffffffffffff16815260200190815260200160002060000154115b610dac576000610e44565b610e43600460008373ffffffffffffffffffffffffffffffffffffffff1673ffffffffffffffffffffffffffffffffffffffff16815260200190815260200160002060000154600460008473ffffffffffffffffffffffffffffffffffffffff1673ffffffffffffffffffffffffffffffffffffffff168152602001908152602001600020600201546118c790919063ffffffff16565b5b600460008373ffffffffffffffffffffffffffffffffffffffff1673ffffffffffffffffffffffffffffffffffffffff16815260200190815260200160002060010181905550610e9f826006546118dd90919063ffffffff16565b6006819055508073ffffffffffffffffffffffffffffffffffffffff166108fc839081150290604051600060405180830381858888f19350505050158015610eeb573d6000803e3d6000fd5b508073ffffffffffffffffffffffffffffffffffffffff167ffc48f4f163cfed28aaf3be3f0b162a1338fab214afc9340eafc6cb081c71fadf8385604051808381526020018281526020019250505060405180910390a260008060146101000a81548160ff021916908315150217905550505050565b6000809054906101000a900473ffffffffffffffffffffffffffffffffffffffff1673ffffffffffffffffffffffffffffffffffffffff163373ffffffffffffffffffffffffffffffffffffffff16141515610fbc57600080fd5b600073ffffffffffffffffffffffffffffffffffffffff168173ffffffffffffffffffffffffffffffffffffffff1614151515610ff857600080fd5b80600160006101000a81548173ffffffffffffffffffffffffffffffffffffffff021916908373ffffffffffffffffffffffffffffffffffffffff1602179055508073ffffffffffffffffffffffffffffffffffffffff16634090cb646040518163ffffffff167c0100000000000000000000000000000000000000000000000000000000028152600401602060405180830381600087803b15801561109d57600080fd5b505af11580156110b1573d6000803e3d6000fd5b505050506040513d60208110156110c757600080fd5b8101908080519060200190929190505050600360006101000a81548173ffffffffffffffffffffffffffffffffffffffff021916908373ffffffffffffffffffffffffffffffffffffffff16021790555050565b600080600080600160009054906101000a900473ffffffffffffffffffffffffffffffffffffffff1673ffffffffffffffffffffffffffffffffffffffff1663299a017c6040518163ffffffff167c0100000000000000000000000000000000000000000000000000000000028152600401600060405180830381600087803b1580156111a757600080fd5b505af11580156111bb573d6000803e3d6000fd5b505050506040513d6000823e3d601f19601f8201168201806040525060c08110156111e557600080fd5b8101908080519060200190929190805190602001909291908051906020019092919080519060200190929190805164010000000081111561122557600080fd5b8281019050602081018481111561123b57600080fd5b815185600182028301116401000000008211171561125857600080fd5b5050929190602001805164010000000081111561127457600080fd5b8281019050602081018481111561128a57600080fd5b81518560018202830111640100000000821117156112a757600080fd5b5050929190505050505093509350505081819350935050509091565b6000809054906101000a900473ffffffffffffffffffffffffffffffffffffffff1673ffffffffffffffffffffffffffffffffffffffff163373ffffffffffffffffffffffffffffffffffffffff1614151561131e57600080fd5b6000809054906101000a900473ffffffffffffffffffffffffffffffffffffffff1673ffffffffffffffffffffffffffffffffffffffff167ff8df31144d9c2f0f6b59d69b8b98abd5459d07f2742c4df920b25aae33c6482060405160405180910390a260008060006101000a81548173ffffffffffffffffffffffffffffffffffffffff021916908373ffffffffffffffffffffffffffffffffffffffff160217905550565b600260009054906101000a900473ffffffffffffffffffffffffffffffffffffffff1681565b6000809054906101000a900473ffffffffffffffffffffffffffffffffffffffff1681565b6000600160009054906101000a900473ffffffffffffffffffffffffffffffffffffffff168073ffffffffffffffffffffffffffffffffffffffff163373ffffffffffffffffffffffffffffffffffffffff1614151561146f57600080fd5b600460008573ffffffffffffffffffffffffffffffffffffffff1673ffffffffffffffffffffffffffffffffffffffff1681526020019081526020016000206000015491506114c783836118dd90919063ffffffff16565b600460008673ffffffffffffffffffffffffffffffffffffffff1673ffffffffffffffffffffffffffffffffffffffff1681526020019081526020016000206000018190555061156234600460008773ffffffffffffffffffffffffffffffffffffffff1673ffffffffffffffffffffffffffffffffffffffff168152602001908152602001600020600201546118dd90919063ffffffff16565b600460008673ffffffffffffffffffffffffffffffffffffffff1673ffffffffffffffffffffffffffffffffffffffff1681526020019081526020016000206002018190555061163f600460008673ffffffffffffffffffffffffffffffffffffffff1673ffffffffffffffffffffffffffffffffffffffff16815260200190815260200160002060000154600460008773ffffffffffffffffffffffffffffffffffffffff1673ffffffffffffffffffffffffffffffffffffffff168152602001908152602001600020600201546118c790919063ffffffff16565b600460008673ffffffffffffffffffffffffffffffffffffffff1673ffffffffffffffffffffffffffffffffffffffff16815260200190815260200160002060010181905550346005600082825401925050819055508373ffffffffffffffffffffffffffffffffffffffff167f363f315f930a17d1266b86a20d6dd34b1cfbc5a9db9f13a65d06a689c3a2af8a3485604051808381526020018281526020019250505060405180910390a250505050565b60046020528060005260406000206000915090508060000154908060010154908060020154905083565b600160009054906101000a900473ffffffffffffffffffffffffffffffffffffffff1681565b6000809054906101000a900473ffffffffffffffffffffffffffffffffffffffff1673ffffffffffffffffffffffffffffffffffffffff163373ffffffffffffffffffffffffffffffffffffffff1614151561179c57600080fd5b600073ffffffffffffffffffffffffffffffffffffffff168173ffffffffffffffffffffffffffffffffffffffff16141515156117d857600080fd5b80600260006101000a81548173ffffffffffffffffffffffffffffffffffffffff021916908373ffffffffffffffffffffffffffffffffffffffff16021790555050565b60055481565b60065481565b6000809054906101000a900473ffffffffffffffffffffffffffffffffffffffff1673ffffffffffffffffffffffffffffffffffffffff163373ffffffffffffffffffffffffffffffffffffffff1614151561188357600080fd5b61188c81611912565b50565b6000808314156118a257600090506118c1565b81830290508183828115156118b357fe5b041415156118bd57fe5b8090505b92915050565b600081838115156118d457fe5b04905092915050565b600081830190508281101515156118f057fe5b80905092915050565b600082821115151561190757fe5b818303905092915050565b600073ffffffffffffffffffffffffffffffffffffffff168173ffffffffffffffffffffffffffffffffffffffff161415151561194e57600080fd5b8073ffffffffffffffffffffffffffffffffffffffff166000809054906101000a900473ffffffffffffffffffffffffffffffffffffffff1673ffffffffffffffffffffffffffffffffffffffff167f8be0079c531659141344cd1fd0a4f28419497f9722a3daafe3b4186f6b6457e060405160405180910390a3806000806101000a81548173ffffffffffffffffffffffffffffffffffffffff021916908373ffffffffffffffffffffffffffffffffffffffff160217905550505600a165627a7a7230582099b3b393a23bb909a48737985dc9314d10ebb54d1e175c5ac4ebcafb8f5f1d880029608060405260008060146101000a81548160ff0219169083151502179055503480156200002b57600080fd5b5060405160c0806200345f833981018060405281019080805190602001909291908051906020019092919080519060200190929190805190602001909291908051906020019092919080519060200190929190505050336000806101000a81548173ffffffffffffffffffffffffffffffffffffffff021916908373ffffffffffffffffffffffffffffffffffffffff160217905550600073ffffffffffffffffffffffffffffffffffffffff168673ffffffffffffffffffffffffffffffffffffffff1614151515620000fe57600080fd5b60008260ff161015801562000116575060648260ff16105b15156200012257600080fd5b600073ffffffffffffffffffffffffffffffffffffffff168173ffffffffffffffffffffffffffffffffffffffff16141515156200015f57600080fd5b85600160006101000a81548173ffffffffffffffffffffffffffffffffffffffff021916908373ffffffffffffffffffffffffffffffffffffffff160217905550620001bc85858562000224640100000000026401000000009004565b81600360006101000a81548160ff021916908360ff16021790555080600460006101000a81548173ffffffffffffffffffffffffffffffffffffffff021916908373ffffffffffffffffffffffffffffffffffffffff160217905550505050505050620002f5565b428363ffffffff16101515156200023a57600080fd5b6000821115156200024a57600080fd5b600073ffffffffffffffffffffffffffffffffffffffff168173ffffffffffffffffffffffffffffffffffffffff16141515156200028757600080fd5b82600160146101000a81548163ffffffff021916908363ffffffff1602179055508160028190555080600360016101000a81548173ffffffffffffffffffffffffffffffffffffffff021916908373ffffffffffffffffffffffffffffffffffffffff160217905550505050565b61315a80620003056000396000f30060806040526004361061013e576000357c0100000000000000000000000000000000000000000000000000000000900463ffffffff1680630b97bc86146101485780630d544ffe1461017f5780630ee62c7714610202578063299a017c14610284578063313602d4146103c65780633baba4d7146103dd5780634090cb6414610408578063521b74991461045f5780635641f3c3146104bc578063715018a614610513578063792c02ea1461052a578063845ddcb2146105555780638abdf5aa146105c25780638da5cb5b146105f35780638edd6eb61461064a5780639bed31e4146106a1578063a035b1fe146106fe578063b60d428814610729578063d0febe4c14610780578063e89e4ed61461078a578063f12585f5146108e2578063f2fde38b14610964578063f9cbcef0146109a7578063fc0c546a14610a12575b610146610a69565b005b34801561015457600080fd5b5061015d610ed0565b604051808263ffffffff1663ffffffff16815260200191505060405180910390f35b34801561018b57600080fd5b50610200600480360381019080803590602001908201803590602001919091929391929390803590602001908201803590602001919091929391929390803590602001908201803590602001919091929391929390803590602001908201803590602001919091929391929390505050610ee6565b005b34801561020e57600080fd5b5061022d6004803603810190808035906020019092919050505061154b565b6040518080602001828103825283818151815260200191508051906020019060200280838360005b83811015610270578082015181840152602081019050610255565b505050509050019250505060405180910390f35b34801561029057600080fd5b506102996115e9565b604051808763ffffffff1663ffffffff1681526020018660ff1660ff1681526020018563ffffffff1663ffffffff1681526020018463ffffffff1663ffffffff1681526020018060200180602001838103835285818151815260200191508051906020019080838360005b8381101561031f578082015181840152602081019050610304565b50505050905090810190601f16801561034c5780820380516001836020036101000a031916815260200191505b50838103825284818151815260200191508051906020019080838360005b8381101561038557808201518184015260208101905061036a565b50505050905090810190601f1680156103b25780820380516001836020036101000a031916815260200191505b509850505050505050505060405180910390f35b3480156103d257600080fd5b506103db611bc1565b005b3480156103e957600080fd5b506103f2611e55565b6040518082815260200191505060405180910390f35b34801561041457600080fd5b5061041d611e62565b604051808273ffffffffffffffffffffffffffffffffffffffff1673ffffffffffffffffffffffffffffffffffffffff16815260200191505060405180910390f35b34801561046b57600080fd5b506104ba60048036038101908080359060200190929190803590602001908201803590602001919091929391929390803590602001908201803590602001919091929391929390505050611e8c565b005b3480156104c857600080fd5b506104d1611f75565b604051808273ffffffffffffffffffffffffffffffffffffffff1673ffffffffffffffffffffffffffffffffffffffff16815260200191505060405180910390f35b34801561051f57600080fd5b50610528611f9b565b005b34801561053657600080fd5b5061053f61209d565b6040518082815260200191505060405180910390f35b34801561056157600080fd5b50610580600480360381019080803590602001909291905050506120aa565b604051808463ffffffff1663ffffffff1681526020018360ff1660ff1681526020018263ffffffff1663ffffffff168152602001935050505060405180910390f35b3480156105ce57600080fd5b506105d7612110565b604051808260ff1660ff16815260200191505060405180910390f35b3480156105ff57600080fd5b50610608612123565b604051808273ffffffffffffffffffffffffffffffffffffffff1673ffffffffffffffffffffffffffffffffffffffff16815260200191505060405180910390f35b34801561065657600080fd5b5061065f612148565b604051808273ffffffffffffffffffffffffffffffffffffffff1673ffffffffffffffffffffffffffffffffffffffff16815260200191505060405180910390f35b3480156106ad57600080fd5b506106fc600480360381019080803563ffffffff16906020019092919080359060200190929190803573ffffffffffffffffffffffffffffffffffffffff169060200190929190505050612172565b005b34801561070a57600080fd5b506107136121dd565b6040518082815260200191505060405180910390f35b34801561073557600080fd5b5061073e6121e3565b604051808273ffffffffffffffffffffffffffffffffffffffff1673ffffffffffffffffffffffffffffffffffffffff16815260200191505060405180910390f35b610788610a69565b005b34801561079657600080fd5b506107b560048036038101908080359060200190929190505050612209565b604051808763ffffffff1663ffffffff1681526020018660ff1660ff1681526020018563ffffffff1663ffffffff1681526020018463ffffffff1663ffffffff1681526020018060200180602001838103835285818151815260200191508051906020019080838360005b8381101561083b578082015181840152602081019050610820565b50505050905090810190601f1680156108685780820380516001836020036101000a031916815260200191505b50838103825284818151815260200191508051906020019080838360005b838110156108a1578082015181840152602081019050610886565b50505050905090810190601f1680156108ce5780820380516001836020036101000a031916815260200191505b509850505050505050505060405180910390f35b3480156108ee57600080fd5b5061090d600480360381019080803590602001909291905050506123c1565b6040518080602001828103825283818151815260200191508051906020019060200280838360005b83811015610950578082015181840152602081019050610935565b505050509050019250505060405180910390f35b34801561097057600080fd5b506109a5600480360381019080803573ffffffffffffffffffffffffffffffffffffffff169060200190929190505050612439565b005b3480156109b357600080fd5b50610a106004803603810190808035906020019082018035906020019190919293919293908035906020019082018035906020019190919293919293908035906020019082018035906020019190919293919293905050506124a0565b005b348015610a1e57600080fd5b50610a27612895565b604051808273ffffffffffffffffffffffffffffffffffffffff1673ffffffffffffffffffffffffffffffffffffffff16815260200191505060405180910390f35b60008060008060008060149054906101000a900460ff16151515610a8c57600080fd5b6001600060146101000a81548160ff021916908315150217905550600034111515610ab657600080fd5b42600160149054906101000a900463ffffffff1663ffffffff1611151515610add57600080fd5b6000600580549050111515610af157600080fd5b610af96128bb565b94509450945060008560ff1611610b1257600254610b41565b610b406064610b328760640360ff16600254612a5790919063ffffffff16565b612a8f90919063ffffffff16565b5b9150610b816064610b7384610b658760640160ff1634612a5790919063ffffffff16565b612a8f90919063ffffffff16565b612a8f90919063ffffffff16565b9050600160009054906101000a900473ffffffffffffffffffffffffffffffffffffffff1673ffffffffffffffffffffffffffffffffffffffff16639d2e47773383876040518463ffffffff167c0100000000000000000000000000000000000000000000000000000000028152600401808473ffffffffffffffffffffffffffffffffffffffff1673ffffffffffffffffffffffffffffffffffffffff1681526020018381526020018263ffffffff1663ffffffff1681526020019350505050602060405180830381600087803b158015610c5c57600080fd5b505af1158015610c70573d6000803e3d6000fd5b505050506040513d6020811015610c8657600080fd5b81019080805190602001909291905050501515610ca257600080fd5b6000600360009054906101000a900460ff1660ff161115610d5e57600360019054906101000a900473ffffffffffffffffffffffffffffffffffffffff1673ffffffffffffffffffffffffffffffffffffffff166108fc610d316064610d23600360009054906101000a900460ff1660ff1634612a5790919063ffffffff16565b612a8f90919063ffffffff16565b9081150290604051600060405180830381858888f19350505050158015610d5c573d6000803e3d6000fd5b505b600460009054906101000a900473ffffffffffffffffffffffffffffffffffffffff1673ffffffffffffffffffffffffffffffffffffffff1663958799cb3073ffffffffffffffffffffffffffffffffffffffff1631620186a09033856040518563ffffffff167c0100000000000000000000000000000000000000000000000000000000028152600401808373ffffffffffffffffffffffffffffffffffffffff1673ffffffffffffffffffffffffffffffffffffffff168152602001828152602001925050506000604051808303818589803b158015610e3f57600080fd5b5088f1158015610e53573d6000803e3d6000fd5b5050505050503373ffffffffffffffffffffffffffffffffffffffff167fcd60aa75dea3072fbc07ae6d7d856b5dc5f4eee88854f5b4abf7b680ef8bc50f3483604051808381526020018281526020019250505060405180910390a260008060146101000a81548160ff0219169083151502179055505050505050565b600160149054906101000a900463ffffffff1681565b6000806060806000809054906101000a900473ffffffffffffffffffffffffffffffffffffffff1673ffffffffffffffffffffffffffffffffffffffff163373ffffffffffffffffffffffffffffffffffffffff16141515610f4757600080fd5b7fffffffffffffffffffffffffffffffffffffffffffffffffffffffffffffffff60ff168c8c905011151515610f7c57600080fd5b60038c8c9050111515610f8e57600080fd5b600060038d8d9050811515610f9f57fe5b06141515610fac57600080fd5b87879050610fc760028c8c9050612a5790919063ffffffff16565b141515610fd357600080fd5b8b8b9050610fee60038c8c9050612a5790919063ffffffff16565b141515610ffa57600080fd5b60028a8a905002868690501015151561101257600080fd5b600660006110209190612d16565b60009350600092505b8b8b905060ff168360ff16101561153d57428c8c8560ff16818110151561104c57fe5b9050602002013563ffffffff1663ffffffff1611151561106b57600080fd5b428c8c6001860160ff16818110151561108057fe5b9050602002013563ffffffff1663ffffffff1611151561109f57600080fd5b428c8c6002860160ff1681811015156110b457fe5b9050602002013563ffffffff1663ffffffff161115156110d357600080fd5b858590506111638989600160038860ff168115156110ed57fe5b040160ff1681811015156110fd57fe5b9050602002013563ffffffff1663ffffffff166111558b8b60038960ff1681151561112457fe5b0460ff16818110151561113357fe5b9050602002013563ffffffff1663ffffffff1688612aa590919063ffffffff16565b612aa590919063ffffffff16565b1115151561117057600080fd5b60648a8a60038660ff1681151561118357fe5b0460ff16818110151561119257fe5b9050602002013560ff1660ff161015156111ab57600080fd5b611227848989600260038860ff168115156111c257fe5b040260ff1681811015156111d257fe5b9050602002013563ffffffff1663ffffffff1688888080601f016020809104026020016040519081016040528093929190818152602001838380828437820191505050505050612ac19092919063ffffffff16565b91506112df8888600260038760ff1681151561123f57fe5b040260ff16818110151561124f57fe5b9050602002013563ffffffff1663ffffffff16850189896001600260038960ff1681151561127957fe5b04020160ff16818110151561128a57fe5b9050602002013563ffffffff1663ffffffff1688888080601f016020809104026020016040519081016040528093929190818152602001838380828437820191505050505050612ac19092919063ffffffff16565b9050600082511115156112f157600080fd5b6000815111151561130157600080fd5b600660c0604051908101604052808e8e8760ff16818110151561132057fe5b9050602002013563ffffffff1663ffffffff1681526020018c8c60038860ff1681151561134957fe5b0460ff16818110151561135857fe5b9050602002013560ff1660ff1681526020018e8e6001880160ff16818110151561137e57fe5b9050602002013563ffffffff1663ffffffff1681526020018e8e6002880160ff1681811015156113aa57fe5b9050602002013563ffffffff1663ffffffff168152602001848152602001838152509080600181540180825580915050906001820390600052602060002090600302016000909192909190915060008201518160000160006101000a81548163ffffffff021916908363ffffffff16021790555060208201518160000160046101000a81548160ff021916908360ff16021790555060408201518160000160056101000a81548163ffffffff021916908363ffffffff16021790555060608201518160000160096101000a81548163ffffffff021916908363ffffffff16021790555060808201518160010190805190602001906114a9929190612d3a565b5060a08201518160020190805190602001906114c6929190612d3a565b505050508787600160038660ff168115156114dd57fe5b040160ff1681811015156114ed57fe5b9050602002013563ffffffff16888860038660ff1681151561150b57fe5b0460ff16818110151561151a57fe5b9050602002013563ffffffff160163ffffffff1684019350600383019250611029565b505050505050505050505050565b606060058281548110151561155c57fe5b90600052602060002090600302016002018054806020026020016040519081016040528092919081815260200182805480156115dd57602002820191906000526020600020906000905b82829054906101000a900460ff1660ff16815260200190600101906020826000010492830192600103820291508084116115a65790505b50505050509050919050565b6000806000806060806115fa612dba565b6000806006805490501480611626575042600160149054906101000a900463ffffffff1663ffffffff16115b156116be5760008060008060006040519080825280601f01601f1916602001820160405280156116655781602001602082028038833980820191505090505b5060006040519080825280601f01601f19166020018201604052801561169a5781602001602082028038833980820191505090505b50859550849450839350829250819150809050975097509750975097509750611bb7565b60066001600680549050038154811015156116d557fe5b906000526020600020906003020160c060405190810160405290816000820160009054906101000a900463ffffffff1663ffffffff1663ffffffff1681526020016000820160049054906101000a900460ff1660ff1660ff1681526020016000820160059054906101000a900463ffffffff1663ffffffff1663ffffffff1681526020016000820160099054906101000a900463ffffffff1663ffffffff1663ffffffff168152602001600182018054600181600116156101000203166002900480601f0160208091040260200160405190810160405280929190818152602001828054600181600116156101000203166002900480156118175780601f106117ec57610100808354040283529160200191611817565b820191906000526020600020905b8154815290600101906020018083116117fa57829003601f168201915b50505050508152602001600282018054600181600116156101000203166002900480601f0160208091040260200160405190810160405280929190818152602001828054600181600116156101000203166002900480156118b95780601f1061188e576101008083540402835291602001916118b9565b820191906000526020600020905b81548152906001019060200180831161189c57829003601f168201915b505050505081525050915042826060015163ffffffff16101561190b57816000015182602001518360400151846060015185608001518660a00151819150809050975097509750975097509750611bb7565b600090505b600160068054905003811015611bb6574260068281548110151561193057fe5b906000526020600020906003020160000160099054906101000a900463ffffffff1663ffffffff16101515611ba95760068181548110151561196e57fe5b906000526020600020906003020160000160009054906101000a900463ffffffff1660068281548110151561199f57fe5b906000526020600020906003020160000160049054906101000a900460ff166006838154811015156119cd57fe5b906000526020600020906003020160000160059054906101000a900463ffffffff166006848154811015156119fe57fe5b906000526020600020906003020160000160099054906101000a900463ffffffff16600685815481101515611a2f57fe5b9060005260206000209060030201600101600686815481101515611a4f57fe5b9060005260206000209060030201600201818054600181600116156101000203166002900480601f016020809104026020016040519081016040528092919081815260200182805460018160011615610100020316600290048015611af55780601f10611aca57610100808354040283529160200191611af5565b820191906000526020600020905b815481529060010190602001808311611ad857829003601f168201915b50505050509150808054600181600116156101000203166002900480601f016020809104026020016040519081016040528092919081815260200182805460018160011615610100020316600290048015611b915780601f10611b6657610100808354040283529160200191611b91565b820191906000526020600020905b815481529060010190602001808311611b7457829003601f168201915b50505050509050975097509750975097509750611bb7565b8080600101915050611910565b5b5050909192939495565b6000809054906101000a900473ffffffffffffffffffffffffffffffffffffffff1673ffffffffffffffffffffffffffffffffffffffff163373ffffffffffffffffffffffffffffffffffffffff16141515611c1c57600080fd5b6000600580549050141515611c3057600080fd5b600160009054906101000a900473ffffffffffffffffffffffffffffffffffffffff1673ffffffffffffffffffffffffffffffffffffffff1663a9059cbb6000809054906101000a900473ffffffffffffffffffffffffffffffffffffffff16600160009054906101000a900473ffffffffffffffffffffffffffffffffffffffff1673ffffffffffffffffffffffffffffffffffffffff166370a08231306040518263ffffffff167c0100000000000000000000000000000000000000000000000000000000028152600401808273ffffffffffffffffffffffffffffffffffffffff1673ffffffffffffffffffffffffffffffffffffffff168152602001915050602060405180830381600087803b158015611d4d57600080fd5b505af1158015611d61573d6000803e3d6000fd5b505050506040513d6020811015611d7757600080fd5b81019080805190602001909291905050506040518363ffffffff167c0100000000000000000000000000000000000000000000000000000000028152600401808373ffffffffffffffffffffffffffffffffffffffff1673ffffffffffffffffffffffffffffffffffffffff16815260200182815260200192505050602060405180830381600087803b158015611e0d57600080fd5b505af1158015611e21573d6000803e3d6000fd5b505050506040513d6020811015611e3757600080fd5b81019080805190602001909291905050501515611e5357600080fd5b565b6000600680549050905090565b6000600160009054906101000a900473ffffffffffffffffffffffffffffffffffffffff16905090565b6000809054906101000a900473ffffffffffffffffffffffffffffffffffffffff1673ffffffffffffffffffffffffffffffffffffffff163373ffffffffffffffffffffffffffffffffffffffff16141515611ee757600080fd5b8181905084849050141515611efb57600080fd5b60058054905085101515611f0e57600080fd5b8383600587815481101515611f1f57fe5b90600052602060002090600302016001019190611f3d929190612e06565b508181600587815481101515611f4f57fe5b90600052602060002090600302016002019190611f6d929190612e53565b505050505050565b600360019054906101000a900473ffffffffffffffffffffffffffffffffffffffff1681565b6000809054906101000a900473ffffffffffffffffffffffffffffffffffffffff1673ffffffffffffffffffffffffffffffffffffffff163373ffffffffffffffffffffffffffffffffffffffff16141515611ff657600080fd5b6000809054906101000a900473ffffffffffffffffffffffffffffffffffffffff1673ffffffffffffffffffffffffffffffffffffffff167ff8df31144d9c2f0f6b59d69b8b98abd5459d07f2742c4df920b25aae33c6482060405160405180910390a260008060006101000a81548173ffffffffffffffffffffffffffffffffffffffff021916908373ffffffffffffffffffffffffffffffffffffffff160217905550565b6000600580549050905090565b6005818154811015156120b957fe5b90600052602060002090600302016000915090508060000160009054906101000a900463ffffffff16908060000160049054906101000a900460ff16908060000160059054906101000a900463ffffffff16905083565b600360009054906101000a900460ff1681565b6000809054906101000a900473ffffffffffffffffffffffffffffffffffffffff1681565b6000600460009054906101000a900473ffffffffffffffffffffffffffffffffffffffff16905090565b6000809054906101000a900473ffffffffffffffffffffffffffffffffffffffff1673ffffffffffffffffffffffffffffffffffffffff163373ffffffffffffffffffffffffffffffffffffffff161415156121cd57600080fd5b6121d8838383612b4e565b505050565b60025481565b600460009054906101000a900473ffffffffffffffffffffffffffffffffffffffff1681565b60068181548110151561221857fe5b90600052602060002090600302016000915090508060000160009054906101000a900463ffffffff16908060000160049054906101000a900460ff16908060000160059054906101000a900463ffffffff16908060000160099054906101000a900463ffffffff1690806001018054600181600116156101000203166002900480601f0160208091040260200160405190810160405280929190818152602001828054600181600116156101000203166002900480156123195780601f106122ee57610100808354040283529160200191612319565b820191906000526020600020905b8154815290600101906020018083116122fc57829003601f168201915b505050505090806002018054600181600116156101000203166002900480601f0160208091040260200160405190810160405280929190818152602001828054600181600116156101000203166002900480156123b75780601f1061238c576101008083540402835291602001916123b7565b820191906000526020600020905b81548152906001019060200180831161239a57829003601f168201915b5050505050905086565b60606005828154811015156123d257fe5b906000526020600020906003020160010180548060200260200160405190810160405280929190818152602001828054801561242d57602002820191906000526020600020905b815481526020019060010190808311612419575b50505050509050919050565b6000809054906101000a900473ffffffffffffffffffffffffffffffffffffffff1673ffffffffffffffffffffffffffffffffffffffff163373ffffffffffffffffffffffffffffffffffffffff1614151561249457600080fd5b61249d81612c1c565b50565b6000806000809054906101000a900473ffffffffffffffffffffffffffffffffffffffff1673ffffffffffffffffffffffffffffffffffffffff163373ffffffffffffffffffffffffffffffffffffffff161415156124fe57600080fd5b7fffffffffffffffffffffffffffffffffffffffffffffffffffffffffffffffff60ff16888890501115151561253357600080fd5b60008888905011151561254557600080fd5b858590508888905014151561255957600080fd5b838390508888905014151561256d57600080fd5b8787905091508160ff166005816125849190612efd565b50600090505b8160ff168160ff16101561285f57600086868360ff1681811015156125ab57fe5b9050602002013560ff1660ff16101580156125e35750606486868360ff1681811015156125d457fe5b9050602002013560ff1660ff16105b15156125ee57600080fd5b87878260ff1681811015156125ff57fe5b9050602002013563ffffffff1663ffffffff16600160149054906101000a900463ffffffff1663ffffffff1610151561263757600080fd5b6001820360ff168160ff16101561272f5787876001830160ff16818110151561265c57fe5b9050602002013563ffffffff1663ffffffff1688888360ff16818110151561268057fe5b9050602002013563ffffffff1663ffffffff1610151561272e576040517f08c379a00000000000000000000000000000000000000000000000000000000081526004018080602001828103825260228152602001807f53746167657320617265206e6f7420696e20686973746f726963616c206f726481526020017f657200000000000000000000000000000000000000000000000000000000000081525060400191505060405180910390fd5b5b87878260ff16818110151561274057fe5b9050602002013563ffffffff16600560018385030360ff1681548110151561276457fe5b906000526020600020906003020160000160006101000a81548163ffffffff021916908363ffffffff16021790555085858260ff1681811015156127a457fe5b9050602002013560ff16600560018385030360ff168154811015156127c557fe5b906000526020600020906003020160000160046101000a81548160ff021916908360ff16021790555083838260ff1681811015156127ff57fe5b9050602002013563ffffffff16600560018385030360ff1681548110151561282357fe5b906000526020600020906003020160000160056101000a81548163ffffffff021916908363ffffffff160217905550808060010191505061258a565b7f743961f4e677d1146fbf85d75565b1c5474fd083eb166f8b9595cf5d01a4d6e660405160405180910390a15050505050505050565b600160009054906101000a900473ffffffffffffffffffffffffffffffffffffffff1681565b600080600080600080600060058054905014156128eb576000806000829250819150809050955095509550612a4f565b600560016005805490500381548110151561290257fe5b90600052602060002090600302019250428360000160009054906101000a900463ffffffff1663ffffffff16101515612a2a5760009350600091506000836001018054905011156129f757600090505b60018360010180549050038110156129f65781341015801561298e5750826001018181548110151561298057fe5b906000526020600020015434105b156129cb5782600201818154811015156129a457fe5b90600052602060002090602091828204019190069054906101000a900460ff1693506129f6565b82600101818154811015156129dc57fe5b906000526020600020015491508080600101915050612952565b5b8260000160049054906101000a900460ff168360000160059054906101000a900463ffffffff1685955095509550612a4f565b6005805480919060019003612a3f9190612efd565b50612a486128bb565b9550955095505b505050909192565b600080831415612a6a5760009050612a89565b8183029050818382811515612a7b57fe5b04141515612a8557fe5b8090505b92915050565b60008183811515612a9c57fe5b04905092915050565b60008183019050828110151515612ab857fe5b80905092915050565b606080828401855110151515612ad657600080fd5b821560008114612af157604051915060208201604052612b42565b6040519150601f8416801560200281840101858101878315602002848b0101015b81831015612b2f5780518352602083019250602081019050612b12565b50868552601f19601f8301166040525050505b50809150509392505050565b428363ffffffff1610151515612b6357600080fd5b600082111515612b7257600080fd5b600073ffffffffffffffffffffffffffffffffffffffff168173ffffffffffffffffffffffffffffffffffffffff1614151515612bae57600080fd5b82600160146101000a81548163ffffffff021916908363ffffffff1602179055508160028190555080600360016101000a81548173ffffffffffffffffffffffffffffffffffffffff021916908373ffffffffffffffffffffffffffffffffffffffff160217905550505050565b600073ffffffffffffffffffffffffffffffffffffffff168173ffffffffffffffffffffffffffffffffffffffff1614151515612c5857600080fd5b8073ffffffffffffffffffffffffffffffffffffffff166000809054906101000a900473ffffffffffffffffffffffffffffffffffffffff1673ffffffffffffffffffffffffffffffffffffffff167f8be0079c531659141344cd1fd0a4f28419497f9722a3daafe3b4186f6b6457e060405160405180910390a3806000806101000a81548173ffffffffffffffffffffffffffffffffffffffff021916908373ffffffffffffffffffffffffffffffffffffffff16021790555050565b5080546000825560030290600052602060002090810190612d379190612f2f565b50565b828054600181600116156101000203166002900490600052602060002090601f016020900481019282601f10612d7b57805160ff1916838001178555612da9565b82800160010185558215612da9579182015b82811115612da8578251825591602001919060010190612d8d565b5b509050612db69190612fc7565b5090565b60c060405190810160405280600063ffffffff168152602001600060ff168152602001600063ffffffff168152602001600063ffffffff16815260200160608152602001606081525090565b828054828255906000526020600020908101928215612e42579160200282015b82811115612e41578235825591602001919060010190612e26565b5b509050612e4f9190612fc7565b5090565b82805482825590600052602060002090601f01602090048101928215612eec5791602002820160005b83821115612ebd57833560ff1683826101000a81548160ff021916908360ff1602179055509260200192600101602081600001049283019260010302612e7c565b8015612eea5782816101000a81549060ff0219169055600101602081600001049283019260010302612ebd565b505b509050612ef99190612fec565b5090565b815481835581811115612f2a57600302816003028360005260206000209182019101612f29919061301c565b5b505050565b612fc491905b80821115612fc057600080820160006101000a81549063ffffffff02191690556000820160046101000a81549060ff02191690556000820160056101000a81549063ffffffff02191690556000820160096101000a81549063ffffffff0219169055600182016000612fa7919061309d565b600282016000612fb7919061309d565b50600301612f35565b5090565b90565b612fe991905b80821115612fe5576000816000905550600101612fcd565b5090565b90565b61301991905b8082111561301557600081816101000a81549060ff021916905550600101612ff2565b5090565b90565b61309a91905b8082111561309657600080820160006101000a81549063ffffffff02191690556000820160046101000a81549060ff02191690556000820160056101000a81549063ffffffff021916905560018201600061307d91906130e5565b60028201600061308d9190613106565b50600301613022565b5090565b90565b50805460018160011615610100020316600290046000825580601f106130c357506130e2565b601f0160209004906000526020600020908101906130e19190612fc7565b5b50565b50805460008255906000526020600020908101906131039190612fc7565b50565b50805460008255601f01602090049060005260206000209081019061312b9190612fc7565b505600a165627a7a7230582062255d8d8713fae4e13c51230617ff693da5612323d6676594d962147f18b19b0029a165627a7a72305820b1f324239fd25c8148bff91aa83826263d7f6c3001dea9785f03446b99017ce40029",
  "source": "pragma solidity ^0.4.24;\n\nimport \"./W12Crowdsale.sol\";\nimport \"./W12Fund.sol\";\n\n\ncontract W12CrowdsaleFactory is IW12CrowdsaleFactory {\n\n    event CrowdsaleCreated(address indexed owner, address indexed token, uint32 startDate, address crowdsaleAddress, address fundAddress);\n\n    function createCrowdsale(\n        address wTokenAddress,\n        uint32 startDate,\n        uint price,\n        address serviceWallet,\n        uint8 serviceFee,\n        address swap,\n        address owner)\n        external returns (IW12Crowdsale result) {\n\n        W12Fund fund = new W12Fund();\n\n        result = new W12Crowdsale(WToken(wTokenAddress), startDate, price, serviceWallet, serviceFee, fund);\n        Ownable(result).transferOwnership(owner);\n\n        fund.setCrowdsale(result);\n        fund.setSwap(swap);\n        Ownable(fund).transferOwnership(owner);\n\n        emit CrowdsaleCreated(owner, wTokenAddress, startDate, result, fund);\n    }\n}\n",
  "sourcePath": "/c/Users/Mr.Hokid/projects/work/w12-product-contracts/contracts/W12CrowdsaleFactory.sol",
  "compiler": {
    "name": "solc",
    "version": "0.4.24+commit.e67f0147.Emscripten.clang"
  },
  "schemaVersion": "2.0.0",
  "updatedAt": "2018-07-24T12:18:21.796Z"
}