{
  "contractName": "W12CrowdsaleFactory",
  "abi": [
    {
      "inputs": [
        {
          "name": "_fundFactory",
          "type": "address"
        }
      ],
      "payable": false,
      "stateMutability": "nonpayable",
      "type": "constructor"
    },
    {
      "anonymous": false,
      "inputs": [
        {
          "indexed": true,
          "name": "owner",
          "type": "address"
        },
        {
          "indexed": true,
          "name": "token",
          "type": "address"
        },
        {
          "indexed": false,
          "name": "startDate",
          "type": "uint32"
        },
        {
          "indexed": false,
          "name": "crowdsaleAddress",
          "type": "address"
        },
        {
          "indexed": false,
          "name": "fundAddress",
          "type": "address"
        }
      ],
      "name": "CrowdsaleCreated",
      "type": "event"
    },
    {
      "constant": false,
      "inputs": [
        {
          "name": "tokenAddress",
          "type": "address"
        },
        {
          "name": "wTokenAddress",
          "type": "address"
        },
        {
          "name": "startDate",
          "type": "uint32"
        },
        {
          "name": "price",
          "type": "uint256"
        },
        {
          "name": "serviceWallet",
          "type": "address"
        },
        {
          "name": "serviceFee",
          "type": "uint256"
        },
        {
          "name": "WTokenSaleFeePercent",
          "type": "uint256"
        },
        {
          "name": "trancheFeePercent",
          "type": "uint256"
        },
        {
          "name": "swap",
          "type": "address"
        },
        {
          "name": "owner",
          "type": "address"
        }
      ],
      "name": "createCrowdsale",
      "outputs": [
        {
          "name": "result",
          "type": "address"
        }
      ],
      "payable": false,
      "stateMutability": "nonpayable",
      "type": "function"
    }
  ],
  "bytecode": "0x608060405234801561001057600080fd5b50604051602080614af683398101806040528101908080519060200190929190505050600073ffffffffffffffffffffffffffffffffffffffff168173ffffffffffffffffffffffffffffffffffffffff16141515156100d8576040517f08c379a00000000000000000000000000000000000000000000000000000000081526004018080602001828103825260188152602001807f466163746f72792061646472657373207265717569726564000000000000000081525060200191505060405180910390fd5b806000806101000a81548173ffffffffffffffffffffffffffffffffffffffff021916908373ffffffffffffffffffffffffffffffffffffffff160217905550506149ce806101286000396000f300608060405260043610610041576000357c0100000000000000000000000000000000000000000000000000000000900463ffffffff168063ed0f91a014610046575b600080fd5b34801561005257600080fd5b5061013f600480360381019080803573ffffffffffffffffffffffffffffffffffffffff169060200190929190803573ffffffffffffffffffffffffffffffffffffffff169060200190929190803563ffffffff16906020019092919080359060200190929190803573ffffffffffffffffffffffffffffffffffffffff169060200190929190803590602001909291908035906020019092919080359060200190929190803573ffffffffffffffffffffffffffffffffffffffff169060200190929190803573ffffffffffffffffffffffffffffffffffffffff169060200190929190505050610181565b604051808273ffffffffffffffffffffffffffffffffffffffff1673ffffffffffffffffffffffffffffffffffffffff16815260200191505060405180910390f35b6000806000809054906101000a900473ffffffffffffffffffffffffffffffffffffffff1673ffffffffffffffffffffffffffffffffffffffff166317444626858a886040518463ffffffff167c0100000000000000000000000000000000000000000000000000000000028152600401808473ffffffffffffffffffffffffffffffffffffffff1673ffffffffffffffffffffffffffffffffffffffff1681526020018373ffffffffffffffffffffffffffffffffffffffff1673ffffffffffffffffffffffffffffffffffffffff1681526020018281526020019350505050602060405180830381600087803b15801561027c57600080fd5b505af1158015610290573d6000803e3d6000fd5b505050506040513d60208110156102a657600080fd5b810190808051906020019092919050505090508b8b8c73ffffffffffffffffffffffffffffffffffffffff1663313ce5676040518163ffffffff167c0100000000000000000000000000000000000000000000000000000000028152600401602060405180830381600087803b15801561031f57600080fd5b505af1158015610333573d6000803e3d6000fd5b505050506040513d602081101561034957600080fd5b81019080805190602001909291905050508c8c8c898d8d896103696107bd565b808b73ffffffffffffffffffffffffffffffffffffffff1673ffffffffffffffffffffffffffffffffffffffff1681526020018a73ffffffffffffffffffffffffffffffffffffffff1673ffffffffffffffffffffffffffffffffffffffff1681526020018960ff1681526020018863ffffffff1663ffffffff1681526020018781526020018673ffffffffffffffffffffffffffffffffffffffff1673ffffffffffffffffffffffffffffffffffffffff1681526020018573ffffffffffffffffffffffffffffffffffffffff1673ffffffffffffffffffffffffffffffffffffffff1681526020018481526020018381526020018273ffffffffffffffffffffffffffffffffffffffff1673ffffffffffffffffffffffffffffffffffffffff1681526020019a5050505050505050505050604051809103906000f0801580156104b9573d6000803e3d6000fd5b5091508173ffffffffffffffffffffffffffffffffffffffff1663f2fde38b846040518263ffffffff167c0100000000000000000000000000000000000000000000000000000000028152600401808273ffffffffffffffffffffffffffffffffffffffff1673ffffffffffffffffffffffffffffffffffffffff168152602001915050600060405180830381600087803b15801561055757600080fd5b505af115801561056b573d6000803e3d6000fd5b505050508073ffffffffffffffffffffffffffffffffffffffff1663483a20b2836040518263ffffffff167c0100000000000000000000000000000000000000000000000000000000028152600401808273ffffffffffffffffffffffffffffffffffffffff1673ffffffffffffffffffffffffffffffffffffffff168152602001915050600060405180830381600087803b15801561060a57600080fd5b505af115801561061e573d6000803e3d6000fd5b505050508073ffffffffffffffffffffffffffffffffffffffff1663f2fde38b846040518263ffffffff167c0100000000000000000000000000000000000000000000000000000000028152600401808273ffffffffffffffffffffffffffffffffffffffff1673ffffffffffffffffffffffffffffffffffffffff168152602001915050600060405180830381600087803b1580156106bd57600080fd5b505af11580156106d1573d6000803e3d6000fd5b505050508a73ffffffffffffffffffffffffffffffffffffffff168373ffffffffffffffffffffffffffffffffffffffff167fed25eb23596fb8771d2e1e79182ae4c1e2c0e9d7f8718b8e52c92a7ecd154c8c8c8585604051808463ffffffff1663ffffffff1681526020018373ffffffffffffffffffffffffffffffffffffffff1673ffffffffffffffffffffffffffffffffffffffff1681526020018273ffffffffffffffffffffffffffffffffffffffff1673ffffffffffffffffffffffffffffffffffffffff168152602001935050505060405180910390a3509a9950505050505050505050565b6040516141d5806107ce833901905600608060405260008060146101000a81548160ff0219169083151502179055503480156200002b57600080fd5b5060405161014080620041d583398101806040528101908080519060200190929190805190602001909291908051906020019092919080519060200190929190805190602001909291908051906020019092919080519060200190929190805190602001909291908051906020019092919080519060200190929190505050336000806101000a81548173ffffffffffffffffffffffffffffffffffffffff021916908373ffffffffffffffffffffffffffffffffffffffff160217905550600073ffffffffffffffffffffffffffffffffffffffff168973ffffffffffffffffffffffffffffffffffffffff16141515156200012757600080fd5b620001468362000392640100000000026200387a176401000000009004565b801562000171575060646200016f84620003ae6401000000000262003c7f176401000000009004565b105b15156200017d57600080fd5b6200019c8262000392640100000000026200387a176401000000009004565b8015620001c757506064620001c583620003ae6401000000000262003c7f176401000000009004565b105b1515620001d357600080fd5b600073ffffffffffffffffffffffffffffffffffffffff168173ffffffffffffffffffffffffffffffffffffffff16141515156200021057600080fd5b600073ffffffffffffffffffffffffffffffffffffffff168473ffffffffffffffffffffffffffffffffffffffff16141515156200024d57600080fd5b88600160006101000a81548173ffffffffffffffffffffffffffffffffffffffff021916908373ffffffffffffffffffffffffffffffffffffffff16021790555089600260006101000a81548173ffffffffffffffffffffffffffffffffffffffff021916908373ffffffffffffffffffffffffffffffffffffffff16021790555087600381905550620002f287878762000401640100000000026401000000009004565b8260068190555083600960006101000a81548173ffffffffffffffffffffffffffffffffffffffff021916908373ffffffffffffffffffffffffffffffffffffffff1602179055508160078190555080600a60006101000a81548173ffffffffffffffffffffffffffffffffffffffff021916908373ffffffffffffffffffffffffffffffffffffffff16021790555050505050505050505050620004e9565b6000808210158015620003a757506127108211155b9050919050565b6000620003ca8262000392640100000000026401000000009004565b1515620003d657600080fd5b620003fa606483620004d264010000000002620036c4179091906401000000009004565b9050919050565b428363ffffffff16101515156200041757600080fd5b6000821115156200042757600080fd5b600073ffffffffffffffffffffffffffffffffffffffff168173ffffffffffffffffffffffffffffffffffffffff16141515156200046457600080fd5b82600460006101000a81548163ffffffff021916908363ffffffff1602179055508160058190555080600860006101000a81548173ffffffffffffffffffffffffffffffffffffffff021916908373ffffffffffffffffffffffffffffffffffffffff160217905550505050565b60008183811515620004e057fe5b04905092915050565b613cdc80620004f96000396000f3006080604052600436106101a1576000357c0100000000000000000000000000000000000000000000000000000000900463ffffffff1680630b97bc86146101ab5780630d544ffe146101e25780630ee62c771461026557806313096a41146102e75780632442e1cb1461033e578063299a017c146104965780632c9a4bab146105d85780632fbe599014610643578063313602d41461066e5780633baba4d7146106855780634090cb64146106b0578063521b7499146107075780635641f3c314610764578063715018a6146107bb57806372e6a881146107d2578063792c02ea1461081f5780638119c0651461084a578063845ddcb2146108a15780638abdf5aa146109215780638da5cb5b1461094c5780638edd6eb6146109a35780639bed31e4146109fa578063a035b1fe14610a57578063a4fd6f5614610a82578063b135648814610ab1578063b60d428814610ae8578063d0febe4c14610b3f578063d6d65f3d14610b49578063e89e4ed614610b74578063eedbe31d14610ccc578063f12585f514610d4c578063f2fde38b14610dce578063fc0c546a14610e11575b6101a9610e68565b005b3480156101b757600080fd5b506101c06116a8565b604051808263ffffffff1663ffffffff16815260200191505060405180910390f35b3480156101ee57600080fd5b506102636004803603810190808035906020019082018035906020019190919293919293908035906020019082018035906020019190919293919293908035906020019082018035906020019190919293919293908035906020019082018035906020019190919293919293905050506116be565b005b34801561027157600080fd5b5061029060048036038101908080359060200190929190505050611d08565b6040518080602001828103825283818151815260200191508051906020019060200280838360005b838110156102d35780820151818401526020810190506102b8565b505050509050019250505060405180910390f35b3480156102f357600080fd5b506102fc611da6565b604051808273ffffffffffffffffffffffffffffffffffffffff1673ffffffffffffffffffffffffffffffffffffffff16815260200191505060405180910390f35b34801561034a57600080fd5b5061036960048036038101908080359060200190929190505050611dcc565b604051808763ffffffff1663ffffffff1681526020018660ff1660ff1681526020018563ffffffff1663ffffffff1681526020018463ffffffff1663ffffffff1681526020018060200180602001838103835285818151815260200191508051906020019080838360005b838110156103ef5780820151818401526020810190506103d4565b50505050905090810190601f16801561041c5780820380516001836020036101000a031916815260200191505b50838103825284818151815260200191508051906020019080838360005b8381101561045557808201518184015260208101905061043a565b50505050905090810190601f1680156104825780820380516001836020036101000a031916815260200191505b509850505050505050505060405180910390f35b3480156104a257600080fd5b506104ab612023565b604051808763ffffffff1663ffffffff1681526020018660ff1660ff1681526020018563ffffffff1663ffffffff1681526020018463ffffffff1663ffffffff1681526020018060200180602001838103835285818151815260200191508051906020019080838360005b83811015610531578082015181840152602081019050610516565b50505050905090810190601f16801561055e5780820380516001836020036101000a031916815260200191505b50838103825284818151815260200191508051906020019080838360005b8381101561059757808201518184015260208101905061057c565b50505050905090810190601f1680156105c45780820380516001836020036101000a031916815260200191505b509850505050505050505060405180910390f35b3480156105e457600080fd5b50610641600480360381019080803590602001908201803590602001919091929391929390803590602001908201803590602001919091929391929390803590602001908201803590602001919091929391929390505050612056565b005b34801561064f57600080fd5b5061065861282b565b6040518082815260200191505060405180910390f35b34801561067a57600080fd5b50610683612831565b005b34801561069157600080fd5b5061069a612ac4565b6040518082815260200191505060405180910390f35b3480156106bc57600080fd5b506106c5612ad1565b604051808273ffffffffffffffffffffffffffffffffffffffff1673ffffffffffffffffffffffffffffffffffffffff16815260200191505060405180910390f35b34801561071357600080fd5b5061076260048036038101908080359060200190929190803590602001908201803590602001919091929391929390803590602001908201803590602001919091929391929390505050612afb565b005b34801561077057600080fd5b50610779612c62565b604051808273ffffffffffffffffffffffffffffffffffffffff1673ffffffffffffffffffffffffffffffffffffffff16815260200191505060405180910390f35b3480156107c757600080fd5b506107d0612c88565b005b3480156107de57600080fd5b506107fd60048036038101908080359060200190929190505050612d8a565b604051808263ffffffff1663ffffffff16815260200191505060405180910390f35b34801561082b57600080fd5b50610834612dc3565b6040518082815260200191505060405180910390f35b34801561085657600080fd5b5061085f612dd0565b604051808273ffffffffffffffffffffffffffffffffffffffff1673ffffffffffffffffffffffffffffffffffffffff16815260200191505060405180910390f35b3480156108ad57600080fd5b506108cc60048036038101908080359060200190929190505050612df6565b604051808563ffffffff1663ffffffff1681526020018463ffffffff1663ffffffff1681526020018360ff1660ff1681526020018263ffffffff1663ffffffff16815260200194505050505060405180910390f35b34801561092d57600080fd5b50610936612e72565b6040518082815260200191505060405180910390f35b34801561095857600080fd5b50610961612e78565b604051808273ffffffffffffffffffffffffffffffffffffffff1673ffffffffffffffffffffffffffffffffffffffff16815260200191505060405180910390f35b3480156109af57600080fd5b506109b8612e9d565b604051808273ffffffffffffffffffffffffffffffffffffffff1673ffffffffffffffffffffffffffffffffffffffff16815260200191505060405180910390f35b348015610a0657600080fd5b50610a55600480360381019080803563ffffffff16906020019092919080359060200190929190803573ffffffffffffffffffffffffffffffffffffffff169060200190929190505050612ec7565b005b348015610a6357600080fd5b50610a6c612f58565b6040518082815260200191505060405180910390f35b348015610a8e57600080fd5b50610a97612f5e565b604051808215151515815260200191505060405180910390f35b348015610abd57600080fd5b50610ac6612fb5565b604051808263ffffffff1663ffffffff16815260200191505060405180910390f35b348015610af457600080fd5b50610afd613008565b604051808273ffffffffffffffffffffffffffffffffffffffff1673ffffffffffffffffffffffffffffffffffffffff16815260200191505060405180910390f35b610b47610e68565b005b348015610b5557600080fd5b50610b5e61302e565b6040518082815260200191505060405180910390f35b348015610b8057600080fd5b50610b9f600480360381019080803590602001909291905050506130ac565b604051808763ffffffff1663ffffffff1681526020018660ff1660ff1681526020018563ffffffff1663ffffffff1681526020018463ffffffff1663ffffffff1681526020018060200180602001838103835285818151815260200191508051906020019080838360005b83811015610c25578082015181840152602081019050610c0a565b50505050905090810190601f168015610c525780820380516001836020036101000a031916815260200191505b50838103825284818151815260200191508051906020019080838360005b83811015610c8b578082015181840152602081019050610c70565b50505050905090810190601f168015610cb85780820380516001836020036101000a031916815260200191505b509850505050505050505060405180910390f35b348015610cd857600080fd5b50610ce1613264565b604051808560ff1660ff1681526020018463ffffffff1663ffffffff1681526020018360ff1660ff16815260200182600260200280838360005b83811015610d36578082015181840152602081019050610d1b565b5050505090500194505050505060405180910390f35b348015610d5857600080fd5b50610d7760048036038101908080359060200190929190505050613499565b6040518080602001828103825283818151815260200191508051906020019060200280838360005b83811015610dba578082015181840152602081019050610d9f565b505050509050019250505060405180910390f35b348015610dda57600080fd5b50610e0f600480360381019080803573ffffffffffffffffffffffffffffffffffffffff169060200190929190505050613511565b005b348015610e1d57600080fd5b50610e26613666565b604051808273ffffffffffffffffffffffffffffffffffffffff1673ffffffffffffffffffffffffffffffffffffffff16815260200191505060405180910390f35b6000806000610e75613895565b60008060008060149054906101000a900460ff16151515610e9557600080fd5b6001600060146101000a81548160ff021916908315150217905550600034111515610ebf57600080fd5b42600460009054906101000a900463ffffffff1663ffffffff1611151515610ee657600080fd5b610eee612f5e565b151515610efa57600080fd5b6000600b80549050111515610f0e57600080fd5b610f16613264565b96509650965096506000600b805490501415610f78573373ffffffffffffffffffffffffffffffffffffffff166108fc349081150290604051600060405180830381858888f19350505050158015610f72573d6000803e3d6000fd5b50611685565b42846000600281101515610f8857fe5b602002015163ffffffff1611158015610fb9575042846001600281101515610fac57fe5b602002015163ffffffff16115b151561102d576040517f08c379a00000000000000000000000000000000000000000000000000000000081526004018080602001828103825260158152602001807f537461676520776173206e6f742073746172746564000000000000000000000081525060200191505060405180910390fd5b60008760ff16116110405760055461106f565b61106e60646110608960640360ff1660055461368c90919063ffffffff16565b6136c490919063ffffffff16565b5b92506110b6600260035403600a0a6110a88561109a8960640160ff163461368c90919063ffffffff16565b6136c490919063ffffffff16565b61368c90919063ffffffff16565b91506000600754111561138b576110d8600754836136da90919063ffffffff16565b9050600260009054906101000a900473ffffffffffffffffffffffffffffffffffffffff1673ffffffffffffffffffffffffffffffffffffffff166323b872dd600960009054906101000a900473ffffffffffffffffffffffffffffffffffffffff16600860009054906101000a900473ffffffffffffffffffffffffffffffffffffffff16846040518463ffffffff167c0100000000000000000000000000000000000000000000000000000000028152600401808473ffffffffffffffffffffffffffffffffffffffff1673ffffffffffffffffffffffffffffffffffffffff1681526020018373ffffffffffffffffffffffffffffffffffffffff1673ffffffffffffffffffffffffffffffffffffffff1681526020018281526020019350505050602060405180830381600087803b15801561121757600080fd5b505af115801561122b573d6000803e3d6000fd5b505050506040513d602081101561124157600080fd5b8101908080519060200190929190505050151561125d57600080fd5b600160009054906101000a900473ffffffffffffffffffffffffffffffffffffffff1673ffffffffffffffffffffffffffffffffffffffff1663a9059cbb600960009054906101000a900473ffffffffffffffffffffffffffffffffffffffff16836040518363ffffffff167c0100000000000000000000000000000000000000000000000000000000028152600401808373ffffffffffffffffffffffffffffffffffffffff1673ffffffffffffffffffffffffffffffffffffffff16815260200182815260200192505050602060405180830381600087803b15801561134457600080fd5b505af1158015611358573d6000803e3d6000fd5b505050506040513d602081101561136e57600080fd5b8101908080519060200190929190505050151561138a57600080fd5b5b600160009054906101000a900473ffffffffffffffffffffffffffffffffffffffff1673ffffffffffffffffffffffffffffffffffffffff16639d2e47773384896040518463ffffffff167c0100000000000000000000000000000000000000000000000000000000028152600401808473ffffffffffffffffffffffffffffffffffffffff1673ffffffffffffffffffffffffffffffffffffffff1681526020018381526020018263ffffffff1663ffffffff1681526020019350505050602060405180830381600087803b15801561146457600080fd5b505af1158015611478573d6000803e3d6000fd5b505050506040513d602081101561148e57600080fd5b810190808051906020019092919050505015156114aa57600080fd5b6000600654111561153357600860009054906101000a900473ffffffffffffffffffffffffffffffffffffffff1673ffffffffffffffffffffffffffffffffffffffff166108fc611506600654346136da90919063ffffffff16565b9081150290604051600060405180830381858888f19350505050158015611531573d6000803e3d6000fd5b505b600a60009054906101000a900473ffffffffffffffffffffffffffffffffffffffff1673ffffffffffffffffffffffffffffffffffffffff1663958799cb3073ffffffffffffffffffffffffffffffffffffffff1631620186a09033866040518563ffffffff167c0100000000000000000000000000000000000000000000000000000000028152600401808373ffffffffffffffffffffffffffffffffffffffff1673ffffffffffffffffffffffffffffffffffffffff168152602001828152602001925050506000604051808303818589803b15801561161457600080fd5b5088f1158015611628573d6000803e3d6000fd5b5050505050503373ffffffffffffffffffffffffffffffffffffffff167fcd60aa75dea3072fbc07ae6d7d856b5dc5f4eee88854f5b4abf7b680ef8bc50f3484604051808381526020018281526020019250505060405180910390a25b60008060146101000a81548160ff02191690831515021790555050505050505050565b600460009054906101000a900463ffffffff1681565b60008060006060806000809054906101000a900473ffffffffffffffffffffffffffffffffffffffff1673ffffffffffffffffffffffffffffffffffffffff163373ffffffffffffffffffffffffffffffffffffffff1614151561172157600080fd5b42600460009054906101000a900463ffffffff1663ffffffff1611151561174757600080fd5b7fffffffffffffffffffffffffffffffffffffffffffffffffffffffffffffffff60ff168d8d90501115151561177c57600080fd5b60038d8d90501015151561178f57600080fd5b600060038e8e90508115156117a057fe5b061415156117ad57600080fd5b888890506117c860028d8d905061368c90919063ffffffff16565b1415156117d457600080fd5b8c8c90506117ef60038d8d905061368c90919063ffffffff16565b1415156117fb57600080fd5b60028b8b905002878790501015151561181357600080fd5b6000945060009350600092505b8c8c905060ff168360ff161015611cd557428d8d8560ff16818110151561184357fe5b9050602002013563ffffffff1663ffffffff1611151561186257600080fd5b8c8c8460ff16818110151561187357fe5b9050602002013563ffffffff1663ffffffff168d8d6001860160ff16818110151561189a57fe5b9050602002013563ffffffff1663ffffffff16101515156118ba57600080fd5b8c8c6001850160ff1681811015156118ce57fe5b9050602002013563ffffffff1663ffffffff168d8d6002860160ff1681811015156118f557fe5b9050602002013563ffffffff1663ffffffff161015151561191557600080fd5b611991858a8a600260038860ff1681151561192c57fe5b040260ff16818110151561193c57fe5b9050602002013563ffffffff1663ffffffff1689898080601f01602080910402602001604051908101604052809392919081815260200183838082843782019150505050505061371f9092919063ffffffff16565b9150611a498989600260038760ff168115156119a957fe5b040260ff1681811015156119b957fe5b9050602002013563ffffffff1663ffffffff1686018a8a6001600260038960ff168115156119e357fe5b04020160ff1681811015156119f457fe5b9050602002013563ffffffff1663ffffffff1689898080601f01602080910402602001604051908101604052809392919081815260200183838082843782019150505050505061371f9092919063ffffffff16565b905060008251111515611a5b57600080fd5b60008151111515611a6b57600080fd5b600c60c0604051908101604052808f8f8760ff168181101515611a8a57fe5b9050602002013563ffffffff1663ffffffff1681526020018d8d60038860ff16811515611ab357fe5b0460ff168181101515611ac257fe5b9050602002013560ff1660ff1681526020018f8f6001880160ff168181101515611ae857fe5b9050602002013563ffffffff1663ffffffff1681526020018f8f6002880160ff168181101515611b1457fe5b9050602002013563ffffffff1663ffffffff168152602001848152602001838152509080600181540180825580915050906001820390600052602060002090600302016000909192909190915060008201518160000160006101000a81548163ffffffff021916908363ffffffff16021790555060208201518160000160046101000a81548160ff021916908360ff16021790555060408201518160000160056101000a81548163ffffffff021916908363ffffffff16021790555060608201518160000160096101000a81548163ffffffff021916908363ffffffff1602179055506080820151816001019080519060200190611c139291906138b7565b5060a0820151816002019080519060200190611c309291906138b7565b505050508888600160038660ff16811515611c4757fe5b040160ff168181101515611c5757fe5b9050602002013563ffffffff16898960038660ff16811515611c7557fe5b0460ff168181101515611c8457fe5b9050602002013563ffffffff160163ffffffff16850194508a8a60038560ff16811515611cad57fe5b0460ff168181101515611cbc57fe5b9050602002013560ff1684019350600383019250611820565b8c8c600d9190611ce6929190613937565b5060648460ff16141515611cf957600080fd5b50505050505050505050505050565b6060600b82815481101515611d1957fe5b9060005260206000209060030201600201805480602002602001604051908101604052809291908181526020018280548015611d9a57602002820191906000526020600020906000905b82829054906101000a900460ff1660ff1681526020019060010190602082600001049283019260010382029150808411611d635790505b50505050509050919050565b600260009054906101000a900473ffffffffffffffffffffffffffffffffffffffff1681565b600080600080606080600c87815481101515611de457fe5b906000526020600020906003020160000160009054906101000a900463ffffffff16600c88815481101515611e1557fe5b906000526020600020906003020160000160049054906101000a900460ff16600c89815481101515611e4357fe5b906000526020600020906003020160000160059054906101000a900463ffffffff16600c8a815481101515611e7457fe5b906000526020600020906003020160000160099054906101000a900463ffffffff16600c8b815481101515611ea557fe5b9060005260206000209060030201600101600c8c815481101515611ec557fe5b9060005260206000209060030201600201818054600181600116156101000203166002900480601f016020809104026020016040519081016040528092919081815260200182805460018160011615610100020316600290048015611f6b5780601f10611f4057610100808354040283529160200191611f6b565b820191906000526020600020905b815481529060010190602001808311611f4e57829003601f168201915b50505050509150808054600181600116156101000203166002900480601f0160208091040260200160405190810160405280929190818152602001828054600181600116156101000203166002900480156120075780601f10611fdc57610100808354040283529160200191612007565b820191906000526020600020905b815481529060010190602001808311611fea57829003601f168201915b5050505050905095509550955095509550955091939550919395565b600080600080606080600061203661302e565b905061204181611dcc565b96509650965096509650965050909192939495565b6000806000809054906101000a900473ffffffffffffffffffffffffffffffffffffffff1673ffffffffffffffffffffffffffffffffffffffff163373ffffffffffffffffffffffffffffffffffffffff161415156120b457600080fd5b42600460009054906101000a900463ffffffff1663ffffffff161115156120da57600080fd5b7fffffffffffffffffffffffffffffffffffffffffffffffffffffffffffffffff60ff16888890501115151561210f57600080fd5b60008888905011151561212157600080fd5b858590508888905014151561213557600080fd5b838390508888905014151561214957600080fd5b8787905091508160ff16600b8161216091906139ed565b50600090505b8160ff168160ff1610156127f557600086868360ff16818110151561218757fe5b9050602002013560ff1660ff16101580156121bf5750606486868360ff1681811015156121b057fe5b9050602002013560ff1660ff16105b1515612259576040517f08c379a000000000000000000000000000000000000000000000000000000000815260040180806020018281038252602f8152602001807f537461676520646973636f756e74206973206e6f7420696e20616c6c6f77656481526020017f2072616e6765205b302c2031303029000000000000000000000000000000000081525060400191505060405180910390fd5b87878260ff16818110151561226a57fe5b905060400201600060028110151561227e57fe5b602002013563ffffffff1663ffffffff16600460009054906101000a900463ffffffff1663ffffffff1611151515612344576040517f08c379a00000000000000000000000000000000000000000000000000000000081526004018080602001828103825260308152602001807f53746167652073746172742064617465206d7573742062652067742063726f7781526020017f6473616c6520737461727420646174650000000000000000000000000000000081525060400191505060405180910390fd5b87878260ff16818110151561235557fe5b905060400201600160028110151561236957fe5b602002013563ffffffff1663ffffffff16600460009054906101000a900463ffffffff1663ffffffff1610151561242e576040517f08c379a000000000000000000000000000000000000000000000000000000000815260040180806020018281038252602e8152602001807f537461676520656e642064617465206d7573742062652067742063726f77647381526020017f616c65207374617274206461746500000000000000000000000000000000000081525060400191505060405180910390fd5b87878260ff16818110151561243f57fe5b905060400201600160028110151561245357fe5b602002013563ffffffff1663ffffffff1688888360ff16818110151561247557fe5b905060400201600060028110151561248957fe5b602002013563ffffffff1663ffffffff16101515612535576040517f08c379a00000000000000000000000000000000000000000000000000000000081526004018080602001828103825260248152602001807f53746167652073746172742064617465206d75737420626520677420656e642081526020017f646174650000000000000000000000000000000000000000000000000000000081525060400191505060405180910390fd5b6001820360ff168160ff1610156126515787876001830160ff16818110151561255a57fe5b905060400201600060028110151561256e57fe5b602002013563ffffffff1663ffffffff1688888360ff16818110151561259057fe5b90506040020160016002811015156125a457fe5b602002013563ffffffff1663ffffffff16101515612650576040517f08c379a00000000000000000000000000000000000000000000000000000000081526004018080602001828103825260228152602001807f53746167657320617265206e6f7420696e20686973746f726963616c206f726481526020017f657200000000000000000000000000000000000000000000000000000000000081525060400191505060405180910390fd5b5b87878260ff16818110151561266257fe5b905060400201600060028110151561267657fe5b602002013563ffffffff16600b8260ff1681548110151561269357fe5b906000526020600020906003020160000160006101000a81548163ffffffff021916908363ffffffff16021790555087878260ff1681811015156126d357fe5b90506040020160016002811015156126e757fe5b602002013563ffffffff16600b8260ff1681548110151561270457fe5b906000526020600020906003020160000160046101000a81548163ffffffff021916908363ffffffff16021790555085858260ff16818110151561274457fe5b9050602002013560ff16600b8260ff1681548110151561276057fe5b906000526020600020906003020160000160086101000a81548160ff021916908360ff16021790555083838260ff16818110151561279a57fe5b9050602002013563ffffffff16600b8260ff168154811015156127b957fe5b906000526020600020906003020160000160096101000a81548163ffffffff021916908363ffffffff1602179055508080600101915050612166565b7f743961f4e677d1146fbf85d75565b1c5474fd083eb166f8b9595cf5d01a4d6e660405160405180910390a15050505050505050565b60075481565b6000809054906101000a900473ffffffffffffffffffffffffffffffffffffffff1673ffffffffffffffffffffffffffffffffffffffff163373ffffffffffffffffffffffffffffffffffffffff1614151561288c57600080fd5b612894612f5e565b151561289f57600080fd5b600160009054906101000a900473ffffffffffffffffffffffffffffffffffffffff1673ffffffffffffffffffffffffffffffffffffffff1663a9059cbb6000809054906101000a900473ffffffffffffffffffffffffffffffffffffffff16600160009054906101000a900473ffffffffffffffffffffffffffffffffffffffff1673ffffffffffffffffffffffffffffffffffffffff166370a08231306040518263ffffffff167c0100000000000000000000000000000000000000000000000000000000028152600401808273ffffffffffffffffffffffffffffffffffffffff1673ffffffffffffffffffffffffffffffffffffffff168152602001915050602060405180830381600087803b1580156129bc57600080fd5b505af11580156129d0573d6000803e3d6000fd5b505050506040513d60208110156129e657600080fd5b81019080805190602001909291905050506040518363ffffffff167c0100000000000000000000000000000000000000000000000000000000028152600401808373ffffffffffffffffffffffffffffffffffffffff1673ffffffffffffffffffffffffffffffffffffffff16815260200182815260200192505050602060405180830381600087803b158015612a7c57600080fd5b505af1158015612a90573d6000803e3d6000fd5b505050506040513d6020811015612aa657600080fd5b81019080805190602001909291905050501515612ac257600080fd5b565b6000600c80549050905090565b6000600160009054906101000a900473ffffffffffffffffffffffffffffffffffffffff16905090565b6000809054906101000a900473ffffffffffffffffffffffffffffffffffffffff1673ffffffffffffffffffffffffffffffffffffffff163373ffffffffffffffffffffffffffffffffffffffff16141515612b5657600080fd5b42600460009054906101000a900463ffffffff1663ffffffff16111515612b7c57600080fd5b8181905084849050141515612b9057600080fd5b600b8054905085101515612ba357600080fd5b600b85815481101515612bb257fe5b90600052602060002090600302016001016000612bcf9190613a1f565b600b85815481101515612bde57fe5b90600052602060002090600302016002016000612bfb9190613a40565b8383600b87815481101515612c0c57fe5b90600052602060002090600302016001019190612c2a929190613a68565b508181600b87815481101515612c3c57fe5b90600052602060002090600302016002019190612c5a929190613ab5565b505050505050565b600860009054906101000a900473ffffffffffffffffffffffffffffffffffffffff1681565b6000809054906101000a900473ffffffffffffffffffffffffffffffffffffffff1673ffffffffffffffffffffffffffffffffffffffff163373ffffffffffffffffffffffffffffffffffffffff16141515612ce357600080fd5b6000809054906101000a900473ffffffffffffffffffffffffffffffffffffffff1673ffffffffffffffffffffffffffffffffffffffff167ff8df31144d9c2f0f6b59d69b8b98abd5459d07f2742c4df920b25aae33c6482060405160405180910390a260008060006101000a81548173ffffffffffffffffffffffffffffffffffffffff021916908373ffffffffffffffffffffffffffffffffffffffff160217905550565b600d81815481101515612d9957fe5b9060005260206000209060089182820401919006600402915054906101000a900463ffffffff1681565b6000600b80549050905090565b600960009054906101000a900473ffffffffffffffffffffffffffffffffffffffff1681565b600b81815481101515612e0557fe5b90600052602060002090600302016000915090508060000160009054906101000a900463ffffffff16908060000160049054906101000a900463ffffffff16908060000160089054906101000a900460ff16908060000160099054906101000a900463ffffffff16905084565b60065481565b6000809054906101000a900473ffffffffffffffffffffffffffffffffffffffff1681565b6000600a60009054906101000a900473ffffffffffffffffffffffffffffffffffffffff16905090565b6000809054906101000a900473ffffffffffffffffffffffffffffffffffffffff1673ffffffffffffffffffffffffffffffffffffffff163373ffffffffffffffffffffffffffffffffffffffff16141515612f2257600080fd5b42600460009054906101000a900463ffffffff1663ffffffff16111515612f4857600080fd5b612f538383836137ac565b505050565b60055481565b600080600b805490501480612fb0575042600b6001600b8054905003815481101515612f8657fe5b906000526020600020906003020160000160049054906101000a900463ffffffff1663ffffffff16105b905090565b600080600b80549050111515612fca57600080fd5b600b6001600b8054905003815481101515612fe157fe5b906000526020600020906003020160000160049054906101000a900463ffffffff16905090565b600a60009054906101000a900473ffffffffffffffffffffffffffffffffffffffff1681565b600080600c805490509050600081141561304757600080fd5b5b60018103821080156130965750600d6003830281548110151561306757fe5b90600052602060002090600891828204019190066004029054906101000a900463ffffffff1663ffffffff1642115b156130a8578180600101925050613048565b5090565b600c818154811015156130bb57fe5b90600052602060002090600302016000915090508060000160009054906101000a900463ffffffff16908060000160049054906101000a900460ff16908060000160059054906101000a900463ffffffff16908060000160099054906101000a900463ffffffff1690806001018054600181600116156101000203166002900480601f0160208091040260200160405190810160405280929190818152602001828054600181600116156101000203166002900480156131bc5780601f10613191576101008083540402835291602001916131bc565b820191906000526020600020905b81548152906001019060200180831161319f57829003601f168201915b505050505090806002018054600181600116156101000203166002900480601f01602080910402602001604051908101604052809291908181526020018280546001816001161561010002031660029004801561325a5780601f1061322f5761010080835404028352916020019161325a565b820191906000526020600020905b81548152906001019060200180831161323d57829003601f168201915b5050505050905086565b6000806000613271613895565b600080600080600093505b600b8054905084101561344957600b8481548110151561329857fe5b90600052602060002090600302019250428360000160009054906101000a900463ffffffff1663ffffffff16111580156132eb5750428360000160049054906101000a900463ffffffff1663ffffffff16115b1561343c5760009550600091506000836001018054905011156133b257600090505b60018360010180549050038110156133b1578134101580156133495750826001018181548110151561333b57fe5b906000526020600020015434105b1561338657826002018181548110151561335f57fe5b90600052602060002090602091828204019190069054906101000a900460ff1695506133b1565b826001018181548110151561339757fe5b90600052602060002001549150808060010191505061330d565b5b8260000160089054906101000a900460ff168360000160099054906101000a900463ffffffff168760408051908101604052808760000160009054906101000a900463ffffffff1663ffffffff1663ffffffff1681526020018760000160049054906101000a900463ffffffff1663ffffffff1663ffffffff16815250975097509750975061348f565b838060010194505061327c565b60008060006040805190810160405280600063ffffffff1663ffffffff168152602001600063ffffffff1663ffffffff1681525083935082925081915097509750975097505b5050505090919293565b6060600b828154811015156134aa57fe5b906000526020600020906003020160010180548060200260200160405190810160405280929190818152602001828054801561350557602002820191906000526020600020905b8154815260200190600101908083116134f1575b50505050509050919050565b6000809054906101000a900473ffffffffffffffffffffffffffffffffffffffff1673ffffffffffffffffffffffffffffffffffffffff163373ffffffffffffffffffffffffffffffffffffffff1614151561356c57600080fd5b600073ffffffffffffffffffffffffffffffffffffffff168173ffffffffffffffffffffffffffffffffffffffff16141515156135a857600080fd5b8073ffffffffffffffffffffffffffffffffffffffff166000809054906101000a900473ffffffffffffffffffffffffffffffffffffffff1673ffffffffffffffffffffffffffffffffffffffff167f8be0079c531659141344cd1fd0a4f28419497f9722a3daafe3b4186f6b6457e060405160405180910390a3806000806101000a81548173ffffffffffffffffffffffffffffffffffffffff021916908373ffffffffffffffffffffffffffffffffffffffff16021790555050565b600160009054906101000a900473ffffffffffffffffffffffffffffffffffffffff1681565b60008083141561369f57600090506136be565b81830290508183828115156136b057fe5b041415156136ba57fe5b8090505b92915050565b600081838115156136d157fe5b04905092915050565b60006136e58261387a565b15156136f057600080fd5b613717612710613709848661368c90919063ffffffff16565b6136c490919063ffffffff16565b905092915050565b60608082840185511015151561373457600080fd5b82156000811461374f576040519150602082016040526137a0565b6040519150601f8416801560200281840101858101878315602002848b0101015b8183101561378d5780518352602083019250602081019050613770565b50868552601f19601f8301166040525050505b50809150509392505050565b428363ffffffff16101515156137c157600080fd5b6000821115156137d057600080fd5b600073ffffffffffffffffffffffffffffffffffffffff168173ffffffffffffffffffffffffffffffffffffffff161415151561380c57600080fd5b82600460006101000a81548163ffffffff021916908363ffffffff1602179055508160058190555080600860006101000a81548173ffffffffffffffffffffffffffffffffffffffff021916908373ffffffffffffffffffffffffffffffffffffffff160217905550505050565b600080821015801561388e57506127108211155b9050919050565b6040805190810160405280600290602082028038833980820191505090505090565b828054600181600116156101000203166002900490600052602060002090601f016020900481019282601f106138f857805160ff1916838001178555613926565b82800160010185558215613926579182015b8281111561392557825182559160200191906001019061390a565b5b5090506139339190613b5f565b5090565b828054828255906000526020600020906007016008900481019282156139dc5791602002820160005b838211156139aa57833563ffffffff1683826101000a81548163ffffffff021916908363ffffffff1602179055509260200192600401602081600301049283019260010302613960565b80156139da5782816101000a81549063ffffffff02191690556004016020816003010492830192600103026139aa565b505b5090506139e99190613b84565b5090565b815481835581811115613a1a57600302816003028360005260206000209182019101613a199190613bb7565b5b505050565b5080546000825590600052602060002090810190613a3d9190613b5f565b50565b50805460008255601f016020900490600052602060002090810190613a659190613b5f565b50565b828054828255906000526020600020908101928215613aa4579160200282015b82811115613aa3578235825591602001919060010190613a88565b5b509050613ab19190613b5f565b5090565b82805482825590600052602060002090601f01602090048101928215613b4e5791602002820160005b83821115613b1f57833560ff1683826101000a81548160ff021916908360ff1602179055509260200192600101602081600001049283019260010302613ade565b8015613b4c5782816101000a81549060ff0219169055600101602081600001049283019260010302613b1f565b505b509050613b5b9190613c4f565b5090565b613b8191905b80821115613b7d576000816000905550600101613b65565b5090565b90565b613bb491905b80821115613bb057600081816101000a81549063ffffffff021916905550600101613b8a565b5090565b90565b613c4c91905b80821115613c4857600080820160006101000a81549063ffffffff02191690556000820160046101000a81549063ffffffff02191690556000820160086101000a81549060ff02191690556000820160096101000a81549063ffffffff0219169055600182016000613c2f9190613a1f565b600282016000613c3f9190613a40565b50600301613bbd565b5090565b90565b613c7c91905b80821115613c7857600081816101000a81549060ff021916905550600101613c55565b5090565b90565b6000613c8a8261387a565b1515613c9557600080fd5b613ca96064836136c490919063ffffffff16565b90509190505600a165627a7a72305820cdea2844ebdd4e13a5a1830a3fc02117f965f10470e82bfdee87da03ad6738460029a165627a7a72305820a54207f80b5f21b9c77c4eb192c16416f8eb6b476d1dbc1b4384cad5266e3dbc0029",
  "source": "pragma solidity ^0.4.24;\n\nimport \"./interfaces/IW12CrowdsaleFactory.sol\";\nimport \"./interfaces/IW12FundFactory.sol\";\nimport \"./W12Crowdsale.sol\";\n\n\ncontract W12CrowdsaleFactory is IW12CrowdsaleFactory {\n    IW12FundFactory private fundFactory;\n\n    event CrowdsaleCreated(address indexed owner, address indexed token, uint32 startDate, address crowdsaleAddress, address fundAddress);\n\n    constructor(IW12FundFactory _fundFactory) public {\n        require(_fundFactory != address(0), \"Factory address required\");\n\n        fundFactory = _fundFactory;\n    }\n\n    function createCrowdsale(\n        address tokenAddress,\n        address wTokenAddress,\n        uint32 startDate,\n        uint price,\n        address serviceWallet,\n        uint serviceFee,\n        uint WTokenSaleFeePercent,\n        uint trancheFeePercent,\n        address swap,\n        address owner\n    )\n        external returns (IW12Crowdsale result)\n    {\n        IW12Fund fund = fundFactory.createFund(swap, serviceWallet, trancheFeePercent);\n\n        result = new W12Crowdsale(\n            tokenAddress,\n            wTokenAddress,\n            DetailedERC20(wTokenAddress).decimals(),\n            startDate,\n            price,\n            serviceWallet,\n            swap,\n            serviceFee,\n            WTokenSaleFeePercent,\n            fund\n        );\n\n        result.transferOwnership(owner);\n\n        fund.setCrowdsale(result);\n        fund.transferOwnership(owner);\n\n        emit CrowdsaleCreated(owner, wTokenAddress, startDate, address(result), fund);\n    }\n}\n",
  "sourcePath": "/Projects/w12-new/contracts/W12CrowdsaleFactory.sol",
  "compiler": {
    "name": "solc",
    "version": "0.4.24+commit.e67f0147.Emscripten.clang"
  },
  "schemaVersion": "2.0.1",
  "updatedAt": "2018-08-23T16:51:48.743Z"
}