{
  "contractName": "W12CrowdsaleStub",
  "abi": [
    {
      "constant": false,
      "inputs": [
        {
          "name": "dates",
          "type": "uint32[]"
        },
        {
          "name": "tranchePercents",
          "type": "uint8[]"
        },
        {
          "name": "offsets",
          "type": "uint32[]"
        },
        {
          "name": "namesAndDescriptions",
          "type": "bytes"
        }
      ],
      "name": "setMilestones",
      "outputs": [],
      "payable": false,
      "stateMutability": "nonpayable",
      "type": "function"
    },
    {
      "constant": true,
      "inputs": [
        {
          "name": "stageNumber",
          "type": "uint256"
        }
      ],
      "name": "getStageVolumeBonuses",
      "outputs": [
        {
          "name": "",
          "type": "uint8[]"
        }
      ],
      "payable": false,
      "stateMutability": "view",
      "type": "function"
    },
    {
      "constant": true,
      "inputs": [],
      "name": "originToken",
      "outputs": [
        {
          "name": "",
          "type": "address"
        }
      ],
      "payable": false,
      "stateMutability": "view",
      "type": "function"
    },
    {
      "constant": true,
      "inputs": [
        {
          "name": "value",
          "type": "uint256"
        }
      ],
      "name": "getSaleVolumeBonus",
      "outputs": [
        {
          "name": "bonus",
          "type": "uint256"
        }
      ],
      "payable": false,
      "stateMutability": "view",
      "type": "function"
    },
    {
      "constant": false,
      "inputs": [
        {
          "name": "_price",
          "type": "uint256"
        },
        {
          "name": "_serviceWallet",
          "type": "address"
        }
      ],
      "name": "setParameters",
      "outputs": [],
      "payable": false,
      "stateMutability": "nonpayable",
      "type": "function"
    },
    {
      "constant": true,
      "inputs": [
        {
          "name": "index",
          "type": "uint256"
        }
      ],
      "name": "getMilestone",
      "outputs": [
        {
          "name": "",
          "type": "uint32"
        },
        {
          "name": "",
          "type": "uint8"
        },
        {
          "name": "",
          "type": "uint32"
        },
        {
          "name": "",
          "type": "uint32"
        },
        {
          "name": "",
          "type": "bytes"
        },
        {
          "name": "",
          "type": "bytes"
        }
      ],
      "payable": false,
      "stateMutability": "view",
      "type": "function"
    },
    {
      "constant": true,
      "inputs": [],
      "name": "getCurrentMilestone",
      "outputs": [
        {
          "name": "",
          "type": "uint32"
        },
        {
          "name": "",
          "type": "uint8"
        },
        {
          "name": "",
          "type": "uint32"
        },
        {
          "name": "",
          "type": "uint32"
        },
        {
          "name": "",
          "type": "bytes"
        },
        {
          "name": "",
          "type": "bytes"
        }
      ],
      "payable": false,
      "stateMutability": "view",
      "type": "function"
    },
    {
      "constant": false,
      "inputs": [
        {
          "name": "dates",
          "type": "uint32[2][]"
        },
        {
          "name": "stage_discounts",
          "type": "uint8[]"
        },
        {
          "name": "stage_vestings",
          "type": "uint32[]"
        }
      ],
      "name": "setStages",
      "outputs": [],
      "payable": false,
      "stateMutability": "nonpayable",
      "type": "function"
    },
    {
      "constant": true,
      "inputs": [],
      "name": "WTokenSaleFeePercent",
      "outputs": [
        {
          "name": "",
          "type": "uint256"
        }
      ],
      "payable": false,
      "stateMutability": "view",
      "type": "function"
    },
    {
      "constant": false,
      "inputs": [],
      "name": "claimRemainingTokens",
      "outputs": [],
      "payable": false,
      "stateMutability": "nonpayable",
      "type": "function"
    },
    {
      "constant": true,
      "inputs": [],
      "name": "milestonesLength",
      "outputs": [
        {
          "name": "",
          "type": "uint256"
        }
      ],
      "payable": false,
      "stateMutability": "view",
      "type": "function"
    },
    {
      "constant": true,
      "inputs": [],
      "name": "getWToken",
      "outputs": [
        {
          "name": "",
          "type": "address"
        }
      ],
      "payable": false,
      "stateMutability": "view",
      "type": "function"
    },
    {
      "constant": false,
      "inputs": [
        {
          "name": "stage",
          "type": "uint256"
        },
        {
          "name": "volumeBoundaries",
          "type": "uint256[]"
        },
        {
          "name": "volumeBonuses",
          "type": "uint8[]"
        }
      ],
      "name": "setStageVolumeBonuses",
      "outputs": [],
      "payable": false,
      "stateMutability": "nonpayable",
      "type": "function"
    },
    {
      "constant": true,
      "inputs": [],
      "name": "serviceWallet",
      "outputs": [
        {
          "name": "",
          "type": "address"
        }
      ],
      "payable": false,
      "stateMutability": "view",
      "type": "function"
    },
    {
      "constant": true,
      "inputs": [],
      "name": "isSaleActive",
      "outputs": [
        {
          "name": "",
          "type": "bool"
        }
      ],
      "payable": false,
      "stateMutability": "view",
      "type": "function"
    },
    {
      "constant": false,
      "inputs": [],
      "name": "renounceOwnership",
      "outputs": [],
      "payable": false,
      "stateMutability": "nonpayable",
      "type": "function"
    },
    {
      "constant": true,
      "inputs": [
        {
          "name": "",
          "type": "uint256"
        }
      ],
      "name": "milestoneDates",
      "outputs": [
        {
          "name": "",
          "type": "uint32"
        }
      ],
      "payable": false,
      "stateMutability": "view",
      "type": "function"
    },
    {
      "constant": true,
      "inputs": [],
      "name": "stagesLength",
      "outputs": [
        {
          "name": "",
          "type": "uint256"
        }
      ],
      "payable": false,
      "stateMutability": "view",
      "type": "function"
    },
    {
      "constant": true,
      "inputs": [],
      "name": "swap",
      "outputs": [
        {
          "name": "",
          "type": "address"
        }
      ],
      "payable": false,
      "stateMutability": "view",
      "type": "function"
    },
    {
      "constant": true,
      "inputs": [
        {
          "name": "",
          "type": "uint256"
        }
      ],
      "name": "stages",
      "outputs": [
        {
          "name": "startDate",
          "type": "uint32"
        },
        {
          "name": "endDate",
          "type": "uint32"
        },
        {
          "name": "discount",
          "type": "uint8"
        },
        {
          "name": "vesting",
          "type": "uint32"
        }
      ],
      "payable": false,
      "stateMutability": "view",
      "type": "function"
    },
    {
      "constant": true,
      "inputs": [],
      "name": "serviceFee",
      "outputs": [
        {
          "name": "",
          "type": "uint256"
        }
      ],
      "payable": false,
      "stateMutability": "view",
      "type": "function"
    },
    {
      "constant": true,
      "inputs": [],
      "name": "owner",
      "outputs": [
        {
          "name": "",
          "type": "address"
        }
      ],
      "payable": false,
      "stateMutability": "view",
      "type": "function"
    },
    {
      "constant": true,
      "inputs": [],
      "name": "getFund",
      "outputs": [
        {
          "name": "",
          "type": "address"
        }
      ],
      "payable": false,
      "stateMutability": "view",
      "type": "function"
    },
    {
      "constant": true,
      "inputs": [],
      "name": "price",
      "outputs": [
        {
          "name": "",
          "type": "uint256"
        }
      ],
      "payable": false,
      "stateMutability": "view",
      "type": "function"
    },
    {
      "constant": true,
      "inputs": [],
      "name": "isEnded",
      "outputs": [
        {
          "name": "",
          "type": "bool"
        }
      ],
      "payable": false,
      "stateMutability": "view",
      "type": "function"
    },
    {
      "constant": true,
      "inputs": [],
      "name": "getEndDate",
      "outputs": [
        {
          "name": "",
          "type": "uint32"
        }
      ],
      "payable": false,
      "stateMutability": "view",
      "type": "function"
    },
    {
      "constant": true,
      "inputs": [],
      "name": "fund",
      "outputs": [
        {
          "name": "",
          "type": "address"
        }
      ],
      "payable": false,
      "stateMutability": "view",
      "type": "function"
    },
    {
      "constant": false,
      "inputs": [],
      "name": "buyTokens",
      "outputs": [],
      "payable": true,
      "stateMutability": "payable",
      "type": "function"
    },
    {
      "constant": true,
      "inputs": [],
      "name": "getCurrentMilestoneIndex",
      "outputs": [
        {
          "name": "index",
          "type": "uint256"
        }
      ],
      "payable": false,
      "stateMutability": "view",
      "type": "function"
    },
    {
      "constant": true,
      "inputs": [],
      "name": "getCurrentStageIndex",
      "outputs": [
        {
          "name": "index",
          "type": "uint256"
        },
        {
          "name": "found",
          "type": "bool"
        }
      ],
      "payable": false,
      "stateMutability": "view",
      "type": "function"
    },
    {
      "constant": true,
      "inputs": [
        {
          "name": "",
          "type": "uint256"
        }
      ],
      "name": "milestones",
      "outputs": [
        {
          "name": "endDate",
          "type": "uint32"
        },
        {
          "name": "tranchePercent",
          "type": "uint8"
        },
        {
          "name": "voteEndDate",
          "type": "uint32"
        },
        {
          "name": "withdrawalWindow",
          "type": "uint32"
        },
        {
          "name": "name",
          "type": "bytes"
        },
        {
          "name": "description",
          "type": "bytes"
        }
      ],
      "payable": false,
      "stateMutability": "view",
      "type": "function"
    },
    {
      "constant": true,
      "inputs": [
        {
          "name": "stageNumber",
          "type": "uint256"
        }
      ],
      "name": "getStageVolumeBoundaries",
      "outputs": [
        {
          "name": "",
          "type": "uint256[]"
        }
      ],
      "payable": false,
      "stateMutability": "view",
      "type": "function"
    },
    {
      "constant": false,
      "inputs": [
        {
          "name": "newOwner",
          "type": "address"
        }
      ],
      "name": "transferOwnership",
      "outputs": [],
      "payable": false,
      "stateMutability": "nonpayable",
      "type": "function"
    },
    {
      "constant": true,
      "inputs": [],
      "name": "token",
      "outputs": [
        {
          "name": "",
          "type": "address"
        }
      ],
      "payable": false,
      "stateMutability": "view",
      "type": "function"
    },
    {
      "inputs": [
        {
          "name": "_originToken",
          "type": "address"
        },
        {
          "name": "_token",
          "type": "address"
        },
        {
          "name": "_tokenDecimals",
          "type": "uint256"
        },
        {
          "name": "_price",
          "type": "uint256"
        },
        {
          "name": "_serviceWallet",
          "type": "address"
        },
        {
          "name": "_swap",
          "type": "address"
        },
        {
          "name": "_serviceFee",
          "type": "uint256"
        },
        {
          "name": "_WTokenSaleFeePercent",
          "type": "uint256"
        },
        {
          "name": "_fund",
          "type": "address"
        }
      ],
      "payable": false,
      "stateMutability": "nonpayable",
      "type": "constructor"
    },
    {
      "payable": true,
      "stateMutability": "payable",
      "type": "fallback"
    },
    {
      "anonymous": false,
      "inputs": [
        {
          "indexed": true,
          "name": "buyer",
          "type": "address"
        },
        {
          "indexed": false,
          "name": "amountPaid",
          "type": "uint256"
        },
        {
          "indexed": false,
          "name": "tokensBought",
          "type": "uint256"
        },
        {
          "indexed": false,
          "name": "change",
          "type": "uint256"
        }
      ],
      "name": "TokenPurchase",
      "type": "event"
    },
    {
      "anonymous": false,
      "inputs": [],
      "name": "StagesUpdated",
      "type": "event"
    },
    {
      "anonymous": false,
      "inputs": [],
      "name": "MilestonesSet",
      "type": "event"
    },
    {
      "anonymous": false,
      "inputs": [
        {
          "indexed": false,
          "name": "value",
          "type": "uint256"
        }
      ],
      "name": "debug",
      "type": "event"
    },
    {
      "anonymous": false,
      "inputs": [
        {
          "indexed": true,
          "name": "previousOwner",
          "type": "address"
        }
      ],
      "name": "OwnershipRenounced",
      "type": "event"
    },
    {
      "anonymous": false,
      "inputs": [
        {
          "indexed": true,
          "name": "previousOwner",
          "type": "address"
        },
        {
          "indexed": true,
          "name": "newOwner",
          "type": "address"
        }
      ],
      "name": "OwnershipTransferred",
      "type": "event"
    },
    {
      "constant": false,
      "inputs": [
        {
          "name": "to",
          "type": "address"
        },
        {
          "name": "amount",
          "type": "uint256"
        }
      ],
      "name": "_outTokens",
      "outputs": [
        {
          "name": "",
          "type": "bool"
        }
      ],
      "payable": false,
      "stateMutability": "nonpayable",
      "type": "function"
    },
    {
      "constant": false,
      "inputs": [
        {
          "name": "_WTokenSaleFeePercent",
          "type": "uint256"
        }
      ],
      "name": "_setState",
      "outputs": [],
      "payable": false,
      "stateMutability": "nonpayable",
      "type": "function"
    }
  ],
  "bytecode": "0x608060405260008060146101000a81548160ff0219169083151502179055503480156200002b57600080fd5b506040516101208062004745833981018060405281019080805190602001909291908051906020019092919080519060200190929190805190602001909291908051906020019092919080519060200190929190805190602001909291908051906020019092919080519060200190929190505050888888888888888888336000806101000a81548173ffffffffffffffffffffffffffffffffffffffff021916908373ffffffffffffffffffffffffffffffffffffffff160217905550600073ffffffffffffffffffffffffffffffffffffffff168873ffffffffffffffffffffffffffffffffffffffff16141515156200012657600080fd5b6200014583620003986401000000000262003e3e176401000000009004565b801562000170575060646200016e84620003b46401000000000262004221176401000000009004565b105b15156200017c57600080fd5b6200019b82620003986401000000000262003e3e176401000000009004565b8015620001c657506064620001c483620003b46401000000000262004221176401000000009004565b105b1515620001d257600080fd5b600073ffffffffffffffffffffffffffffffffffffffff168173ffffffffffffffffffffffffffffffffffffffff16141515156200020f57600080fd5b600073ffffffffffffffffffffffffffffffffffffffff168473ffffffffffffffffffffffffffffffffffffffff16141515156200024c57600080fd5b87600160006101000a81548173ffffffffffffffffffffffffffffffffffffffff021916908373ffffffffffffffffffffffffffffffffffffffff16021790555088600260006101000a81548173ffffffffffffffffffffffffffffffffffffffff021916908373ffffffffffffffffffffffffffffffffffffffff16021790555086600381905550620002f0868662000407640100000000026401000000009004565b8260058190555083600860006101000a81548173ffffffffffffffffffffffffffffffffffffffff021916908373ffffffffffffffffffffffffffffffffffffffff1602179055508160068190555080600960006101000a81548173ffffffffffffffffffffffffffffffffffffffff021916908373ffffffffffffffffffffffffffffffffffffffff160217905550505050505050505050505050505050505050620004b7565b6000808210158015620003ad57506127108211155b9050919050565b6000620003d08262000398640100000000026401000000009004565b1515620003dc57600080fd5b62000400606483620004a06401000000000262003e28179091906401000000009004565b9050919050565b6000821115156200041757600080fd5b600073ffffffffffffffffffffffffffffffffffffffff168173ffffffffffffffffffffffffffffffffffffffff16141515156200045457600080fd5b8160048190555080600760006101000a81548173ffffffffffffffffffffffffffffffffffffffff021916908373ffffffffffffffffffffffffffffffffffffffff1602179055505050565b60008183811515620004ae57fe5b04905092915050565b61427e80620004c76000396000f3006080604052600436106101c2576000357c0100000000000000000000000000000000000000000000000000000000900463ffffffff1680630d544ffe146101cc5780630ee62c771461024f57806313096a41146102d15780631aecc19f14610328578063208853c91461038d57806323d840f5146103ce5780632442e1cb1461041b578063299a017c146105735780632c9a4bab146106b55780632fbe599014610720578063313602d41461074b5780633baba4d7146107625780634090cb641461078d578063521b7499146107e45780635641f3c314610841578063564566a814610898578063715018a6146108c757806372e6a881146108de578063792c02ea1461092b5780638119c06514610956578063845ddcb2146109ad5780638abdf5aa14610a2d5780638da5cb5b14610a585780638edd6eb614610aaf578063a035b1fe14610b06578063a4fd6f5614610b31578063b135648814610b60578063b60d428814610b97578063ca7348a314610bee578063d0febe4c14610c1b578063d6d65f3d14610c25578063daa4cf8814610c50578063e89e4ed614610c86578063f12585f514610dde578063f2fde38b14610e60578063fc0c546a14610ea3575b6101ca610efa565b005b3480156101d857600080fd5b5061024d60048036038101908080359060200190820180359060200191909192939192939080359060200190820180359060200191909192939192939080359060200190820180359060200191909192939192939080359060200190820180359060200191909192939192939050505061169f565b005b34801561025b57600080fd5b5061027a60048036038101908080359060200190929190505050611f13565b6040518080602001828103825283818151815260200191508051906020019060200280838360005b838110156102bd5780820151818401526020810190506102a2565b505050509050019250505060405180910390f35b3480156102dd57600080fd5b506102e6611fb1565b604051808273ffffffffffffffffffffffffffffffffffffffff1673ffffffffffffffffffffffffffffffffffffffff16815260200191505060405180910390f35b34801561033457600080fd5b50610373600480360381019080803573ffffffffffffffffffffffffffffffffffffffff16906020019092919080359060200190929190505050611fd7565b604051808215151515815260200191505060405180910390f35b34801561039957600080fd5b506103b8600480360381019080803590602001909291905050506120e1565b6040518082815260200191505060405180910390f35b3480156103da57600080fd5b5061041960048036038101908080359060200190929190803573ffffffffffffffffffffffffffffffffffffffff1690602001909291905050506121dd565b005b34801561042757600080fd5b506104466004803603810190808035906020019092919050505061229a565b604051808763ffffffff1663ffffffff1681526020018660ff1660ff1681526020018563ffffffff1663ffffffff1681526020018463ffffffff1663ffffffff1681526020018060200180602001838103835285818151815260200191508051906020019080838360005b838110156104cc5780820151818401526020810190506104b1565b50505050905090810190601f1680156104f95780820380516001836020036101000a031916815260200191505b50838103825284818151815260200191508051906020019080838360005b83811015610532578082015181840152602081019050610517565b50505050905090810190601f16801561055f5780820380516001836020036101000a031916815260200191505b509850505050505050505060405180910390f35b34801561057f57600080fd5b506105886124f1565b604051808763ffffffff1663ffffffff1681526020018660ff1660ff1681526020018563ffffffff1663ffffffff1681526020018463ffffffff1663ffffffff1681526020018060200180602001838103835285818151815260200191508051906020019080838360005b8381101561060e5780820151818401526020810190506105f3565b50505050905090810190601f16801561063b5780820380516001836020036101000a031916815260200191505b50838103825284818151815260200191508051906020019080838360005b83811015610674578082015181840152602081019050610659565b50505050905090810190601f1680156106a15780820380516001836020036101000a031916815260200191505b509850505050505050505060405180910390f35b3480156106c157600080fd5b5061071e600480360381019080803590602001908201803590602001919091929391929390803590602001908201803590602001919091929391929390803590602001908201803590602001919091929391929390505050612524565b005b34801561072c57600080fd5b50610735612cac565b6040518082815260200191505060405180910390f35b34801561075757600080fd5b50610760612cb2565b005b34801561076e57600080fd5b50610777612f45565b6040518082815260200191505060405180910390f35b34801561079957600080fd5b506107a2612f52565b604051808273ffffffffffffffffffffffffffffffffffffffff1673ffffffffffffffffffffffffffffffffffffffff16815260200191505060405180910390f35b3480156107f057600080fd5b5061083f60048036038101908080359060200190929190803590602001908201803590602001919091929391929390803590602001908201803590602001919091929391929390505050612f7c565b005b34801561084d57600080fd5b50610856613203565b604051808273ffffffffffffffffffffffffffffffffffffffff1673ffffffffffffffffffffffffffffffffffffffff16815260200191505060405180910390f35b3480156108a457600080fd5b506108ad613229565b604051808215151515815260200191505060405180910390f35b3480156108d357600080fd5b506108dc6132cd565b005b3480156108ea57600080fd5b50610909600480360381019080803590602001909291905050506133cf565b604051808263ffffffff1663ffffffff16815260200191505060405180910390f35b34801561093757600080fd5b50610940613408565b6040518082815260200191505060405180910390f35b34801561096257600080fd5b5061096b613415565b604051808273ffffffffffffffffffffffffffffffffffffffff1673ffffffffffffffffffffffffffffffffffffffff16815260200191505060405180910390f35b3480156109b957600080fd5b506109d86004803603810190808035906020019092919050505061343b565b604051808563ffffffff1663ffffffff1681526020018463ffffffff1663ffffffff1681526020018360ff1660ff1681526020018263ffffffff1663ffffffff16815260200194505050505060405180910390f35b348015610a3957600080fd5b50610a426134b7565b6040518082815260200191505060405180910390f35b348015610a6457600080fd5b50610a6d6134bd565b604051808273ffffffffffffffffffffffffffffffffffffffff1673ffffffffffffffffffffffffffffffffffffffff16815260200191505060405180910390f35b348015610abb57600080fd5b50610ac46134e2565b604051808273ffffffffffffffffffffffffffffffffffffffff1673ffffffffffffffffffffffffffffffffffffffff16815260200191505060405180910390f35b348015610b1257600080fd5b50610b1b61350c565b6040518082815260200191505060405180910390f35b348015610b3d57600080fd5b50610b46613512565b604051808215151515815260200191505060405180910390f35b348015610b6c57600080fd5b50610b75613569565b604051808263ffffffff1663ffffffff16815260200191505060405180910390f35b348015610ba357600080fd5b50610bac6135bc565b604051808273ffffffffffffffffffffffffffffffffffffffff1673ffffffffffffffffffffffffffffffffffffffff16815260200191505060405180910390f35b348015610bfa57600080fd5b50610c19600480360381019080803590602001909291905050506135e2565b005b610c23610efa565b005b348015610c3157600080fd5b50610c3a6135ec565b6040518082815260200191505060405180910390f35b348015610c5c57600080fd5b50610c6561366a565b60405180838152602001821515151581526020019250505060405180910390f35b348015610c9257600080fd5b50610cb160048036038101908080359060200190929190505050613713565b604051808763ffffffff1663ffffffff1681526020018660ff1660ff1681526020018563ffffffff1663ffffffff1681526020018463ffffffff1663ffffffff1681526020018060200180602001838103835285818151815260200191508051906020019080838360005b83811015610d37578082015181840152602081019050610d1c565b50505050905090810190601f168015610d645780820380516001836020036101000a031916815260200191505b50838103825284818151815260200191508051906020019080838360005b83811015610d9d578082015181840152602081019050610d82565b50505050905090810190601f168015610dca5780820380516001836020036101000a031916815260200191505b509850505050505050505060405180910390f35b348015610dea57600080fd5b50610e09600480360381019080803590602001909291905050506138cb565b6040518080602001828103825283818151815260200191508051906020019060200280838360005b83811015610e4c578082015181840152602081019050610e31565b505050509050019250505060405180910390f35b348015610e6c57600080fd5b50610ea1600480360381019080803573ffffffffffffffffffffffffffffffffffffffff169060200190929190505050613943565b005b348015610eaf57600080fd5b50610eb8613a98565b604051808273ffffffffffffffffffffffffffffffffffffffff1673ffffffffffffffffffffffffffffffffffffffff16815260200191505060405180910390f35b600080600080600080600080600060149054906101000a900460ff16151515610f2257600080fd5b6001600060146101000a81548160ff021916908315150217905550610f45613229565b1515610fb9576040517f08c379a00000000000000000000000000000000000000000000000000000000081526004018080602001828103825260178152602001807f53616c65206973206e6f7420737461727465642079657400000000000000000081525060200191505060405180910390fd5b600034111515610fc857600080fd5b610fd061366a565b509750600a88815481101515610fe257fe5b906000526020600020906003020160000160089054906101000a900460ff1660ff169650600a8881548110151561101557fe5b906000526020600020906003020160000160099054906101000a900463ffffffff169550611042346120e1565b945061104f348887613abe565b50935093509350600060065411156113295761107660065485613c8790919063ffffffff16565b9050600260009054906101000a900473ffffffffffffffffffffffffffffffffffffffff1673ffffffffffffffffffffffffffffffffffffffff166323b872dd600860009054906101000a900473ffffffffffffffffffffffffffffffffffffffff16600760009054906101000a900473ffffffffffffffffffffffffffffffffffffffff16846040518463ffffffff167c0100000000000000000000000000000000000000000000000000000000028152600401808473ffffffffffffffffffffffffffffffffffffffff1673ffffffffffffffffffffffffffffffffffffffff1681526020018373ffffffffffffffffffffffffffffffffffffffff1673ffffffffffffffffffffffffffffffffffffffff1681526020018281526020019350505050602060405180830381600087803b1580156111b557600080fd5b505af11580156111c9573d6000803e3d6000fd5b505050506040513d60208110156111df57600080fd5b810190808051906020019092919050505015156111fb57600080fd5b600160009054906101000a900473ffffffffffffffffffffffffffffffffffffffff1673ffffffffffffffffffffffffffffffffffffffff1663a9059cbb600860009054906101000a900473ffffffffffffffffffffffffffffffffffffffff16836040518363ffffffff167c0100000000000000000000000000000000000000000000000000000000028152600401808373ffffffffffffffffffffffffffffffffffffffff1673ffffffffffffffffffffffffffffffffffffffff16815260200182815260200192505050602060405180830381600087803b1580156112e257600080fd5b505af11580156112f6573d6000803e3d6000fd5b505050506040513d602081101561130c57600080fd5b8101908080519060200190929190505050151561132857600080fd5b5b600160009054906101000a900473ffffffffffffffffffffffffffffffffffffffff1673ffffffffffffffffffffffffffffffffffffffff16639d2e47773386896040518463ffffffff167c0100000000000000000000000000000000000000000000000000000000028152600401808473ffffffffffffffffffffffffffffffffffffffff1673ffffffffffffffffffffffffffffffffffffffff1681526020018381526020018263ffffffff1663ffffffff1681526020019350505050602060405180830381600087803b15801561140257600080fd5b505af1158015611416573d6000803e3d6000fd5b505050506040513d602081101561142c57600080fd5b8101908080519060200190929190505050151561144857600080fd5b6000821115611499573373ffffffffffffffffffffffffffffffffffffffff166108fc839081150290604051600060405180830381858888f19350505050158015611497573d6000803e3d6000fd5b505b6000600554111561152257600760009054906101000a900473ffffffffffffffffffffffffffffffffffffffff1673ffffffffffffffffffffffffffffffffffffffff166108fc6114f560055486613c8790919063ffffffff16565b9081150290604051600060405180830381858888f19350505050158015611520573d6000803e3d6000fd5b505b600960009054906101000a900473ffffffffffffffffffffffffffffffffffffffff1673ffffffffffffffffffffffffffffffffffffffff1663958799cb3073ffffffffffffffffffffffffffffffffffffffff1631620186a09033886040518563ffffffff167c0100000000000000000000000000000000000000000000000000000000028152600401808373ffffffffffffffffffffffffffffffffffffffff1673ffffffffffffffffffffffffffffffffffffffff168152602001828152602001925050506000604051808303818589803b15801561160357600080fd5b5088f1158015611617573d6000803e3d6000fd5b5050505050503373ffffffffffffffffffffffffffffffffffffffff167f347f5f0051b895093800553e6e78ef332849e2552639a4f5ffe66535788ae07884868560405180848152602001838152602001828152602001935050505060405180910390a260008060146101000a81548160ff0219169083151502179055505050505050505050565b60008060006060806000809054906101000a900473ffffffffffffffffffffffffffffffffffffffff1673ffffffffffffffffffffffffffffffffffffffff163373ffffffffffffffffffffffffffffffffffffffff1614151561170257600080fd5b6000600a8054905011156117565742600a600081548110151561172157fe5b906000526020600020906003020160000160009054906101000a900463ffffffff1663ffffffff1611151561175557600080fd5b5b7fffffffffffffffffffffffffffffffffffffffffffffffffffffffffffffffff60ff168d8d90501115151561178b57600080fd5b60038d8d90501015151561179e57600080fd5b600060038e8e90508115156117af57fe5b061415156117bc57600080fd5b888890506117d760028d8d9050613ccc90919063ffffffff16565b1415156117e357600080fd5b8c8c90506117fe60038d8d9050613ccc90919063ffffffff16565b14151561180a57600080fd5b60028b8b905002878790501015151561182257600080fd5b6000600a80549050111561192d578c8c6000818110151561183f57fe5b9050602002013563ffffffff1663ffffffff16600a6001600a805490500381548110151561186957fe5b906000526020600020906003020160000160049054906101000a900463ffffffff1663ffffffff1610151561192c576040517f08c379a00000000000000000000000000000000000000000000000000000000081526004018080602001828103825260358152602001807f4669727374206d696c6573746f6e6520656e6444617465206d7573742062652081526020017f6774206c61737420737461676520656e6444617465000000000000000000000081525060400191505060405180910390fd5b5b6000945060009350600092505b8c8c905060ff168360ff161015611ee057428d8d8560ff16818110151561195d57fe5b9050602002013563ffffffff1663ffffffff1611151561197c57600080fd5b8c8c8460ff16818110151561198d57fe5b9050602002013563ffffffff1663ffffffff168d8d6001860160ff1681811015156119b457fe5b9050602002013563ffffffff1663ffffffff161115156119d357600080fd5b8c8c6001850160ff1681811015156119e757fe5b9050602002013563ffffffff1663ffffffff168d8d6002860160ff168181101515611a0e57fe5b9050602002013563ffffffff1663ffffffff16111515611a2d57600080fd5b60008360ff161115611b20578c8c8460ff168181101515611a4a57fe5b9050602002013563ffffffff1663ffffffff168d8d6001860360ff168181101515611a7157fe5b9050602002013563ffffffff1663ffffffff16101515611b1f576040517f08c379a00000000000000000000000000000000000000000000000000000000081526004018080602001828103825260298152602001807f4d696c6573746f6e65206461746573206973206e6f7420696e20617363656e6481526020017f696e67206f72646572000000000000000000000000000000000000000000000081525060400191505060405180910390fd5b5b611b9c858a8a600260038860ff16811515611b3757fe5b040260ff168181101515611b4757fe5b9050602002013563ffffffff1663ffffffff1689898080601f016020809104026020016040519081016040528093929190818152602001838380828437820191505050505050613d049092919063ffffffff16565b9150611c548989600260038760ff16811515611bb457fe5b040260ff168181101515611bc457fe5b9050602002013563ffffffff1663ffffffff1686018a8a6001600260038960ff16811515611bee57fe5b04020160ff168181101515611bff57fe5b9050602002013563ffffffff1663ffffffff1689898080601f016020809104026020016040519081016040528093929190818152602001838380828437820191505050505050613d049092919063ffffffff16565b905060008251111515611c6657600080fd5b60008151111515611c7657600080fd5b600b60c0604051908101604052808f8f8760ff168181101515611c9557fe5b9050602002013563ffffffff1663ffffffff1681526020018d8d60038860ff16811515611cbe57fe5b0460ff168181101515611ccd57fe5b9050602002013560ff1660ff1681526020018f8f6001880160ff168181101515611cf357fe5b9050602002013563ffffffff1663ffffffff1681526020018f8f6002880160ff168181101515611d1f57fe5b9050602002013563ffffffff1663ffffffff168152602001848152602001838152509080600181540180825580915050906001820390600052602060002090600302016000909192909190915060008201518160000160006101000a81548163ffffffff021916908363ffffffff16021790555060208201518160000160046101000a81548160ff021916908360ff16021790555060408201518160000160056101000a81548163ffffffff021916908363ffffffff16021790555060608201518160000160096101000a81548163ffffffff021916908363ffffffff1602179055506080820151816001019080519060200190611e1e929190613e59565b5060a0820151816002019080519060200190611e3b929190613e59565b505050508888600160038660ff16811515611e5257fe5b040160ff168181101515611e6257fe5b9050602002013563ffffffff16898960038660ff16811515611e8057fe5b0460ff168181101515611e8f57fe5b9050602002013563ffffffff160163ffffffff16850194508a8a60038560ff16811515611eb857fe5b0460ff168181101515611ec757fe5b9050602002013560ff168401935060038301925061193a565b8c8c600c9190611ef1929190613ed9565b5060648460ff16141515611f0457600080fd5b50505050505050505050505050565b6060600a82815481101515611f2457fe5b9060005260206000209060030201600201805480602002602001604051908101604052809291908181526020018280548015611fa557602002820191906000526020600020906000905b82829054906101000a900460ff1660ff1681526020019060010190602082600001049283019260010382029150808411611f6e5790505b50505050509050919050565b600260009054906101000a900473ffffffffffffffffffffffffffffffffffffffff1681565b6000600160009054906101000a900473ffffffffffffffffffffffffffffffffffffffff1673ffffffffffffffffffffffffffffffffffffffff1663a9059cbb84846040518363ffffffff167c0100000000000000000000000000000000000000000000000000000000028152600401808373ffffffffffffffffffffffffffffffffffffffff1673ffffffffffffffffffffffffffffffffffffffff16815260200182815260200192505050602060405180830381600087803b15801561209e57600080fd5b505af11580156120b2573d6000803e3d6000fd5b505050506040513d60208110156120c857600080fd5b8101908080519060200190929190505050905092915050565b6000806000806000806120f261366a565b9450945083151561210657600095506121d3565b600a8181548110151561211557fe5b9060005260206000209060030201925060009150600090505b82600101805490508110156121d2578187101580156121675750826001018181548110151561215957fe5b906000526020600020015487105b156121a757826002018181548110151561217d57fe5b90600052602060002090602091828204019190069054906101000a900460ff1660ff1695506121d2565b82600101818154811015156121b857fe5b90600052602060002001549150808060010191505061212e565b5b5050505050919050565b6000809054906101000a900473ffffffffffffffffffffffffffffffffffffffff1673ffffffffffffffffffffffffffffffffffffffff163373ffffffffffffffffffffffffffffffffffffffff1614151561223857600080fd5b6000600a80549050111561228c5742600a600081548110151561225757fe5b906000526020600020906003020160000160009054906101000a900463ffffffff1663ffffffff1611151561228b57600080fd5b5b6122968282613d91565b5050565b600080600080606080600b878154811015156122b257fe5b906000526020600020906003020160000160009054906101000a900463ffffffff16600b888154811015156122e357fe5b906000526020600020906003020160000160049054906101000a900460ff16600b8981548110151561231157fe5b906000526020600020906003020160000160059054906101000a900463ffffffff16600b8a81548110151561234257fe5b906000526020600020906003020160000160099054906101000a900463ffffffff16600b8b81548110151561237357fe5b9060005260206000209060030201600101600b8c81548110151561239357fe5b9060005260206000209060030201600201818054600181600116156101000203166002900480601f0160208091040260200160405190810160405280929190818152602001828054600181600116156101000203166002900480156124395780601f1061240e57610100808354040283529160200191612439565b820191906000526020600020905b81548152906001019060200180831161241c57829003601f168201915b50505050509150808054600181600116156101000203166002900480601f0160208091040260200160405190810160405280929190818152602001828054600181600116156101000203166002900480156124d55780601f106124aa576101008083540402835291602001916124d5565b820191906000526020600020905b8154815290600101906020018083116124b857829003601f168201915b5050505050905095509550955095509550955091939550919395565b60008060008060608060006125046135ec565b905061250f8161229a565b96509650965096509650965050909192939495565b6000806000809054906101000a900473ffffffffffffffffffffffffffffffffffffffff1673ffffffffffffffffffffffffffffffffffffffff163373ffffffffffffffffffffffffffffffffffffffff1614151561258257600080fd5b6000600a8054905011156125d65742600a60008154811015156125a157fe5b906000526020600020906003020160000160009054906101000a900463ffffffff1663ffffffff161115156125d557600080fd5b5b7fffffffffffffffffffffffffffffffffffffffffffffffffffffffffffffffff60ff16888890501115151561260b57600080fd5b60008888905011151561261d57600080fd5b858590508888905014151561263157600080fd5b838390508888905014151561264557600080fd5b6000600b80549050111561276057878760018a8a905003818110151561266757fe5b905060400201600160028110151561267b57fe5b602002013563ffffffff1663ffffffff16600b600081548110151561269c57fe5b906000526020600020906003020160000160009054906101000a900463ffffffff1663ffffffff1611151561275f576040517f08c379a00000000000000000000000000000000000000000000000000000000081526004018080602001828103825260358152602001807f4c61737420737461676520656e6444617465206d757374206265206c7420666981526020017f727374206d696c6573746f6e6520656e6444617465000000000000000000000081525060400191505060405180910390fd5b5b8787905091508160ff16600a816127779190613f8f565b50600090505b8160ff168160ff161015612c7657600086868360ff16818110151561279e57fe5b9050602002013560ff1660ff16101580156127d65750606486868360ff1681811015156127c757fe5b9050602002013560ff1660ff16105b1515612870576040517f08c379a000000000000000000000000000000000000000000000000000000000815260040180806020018281038252602f8152602001807f537461676520646973636f756e74206973206e6f7420696e20616c6c6f77656481526020017f2072616e6765205b302c2031303029000000000000000000000000000000000081525060400191505060405180910390fd5b4288888360ff16818110151561288257fe5b905060400201600060028110151561289657fe5b602002013563ffffffff1663ffffffff161115156128b357600080fd5b87878260ff1681811015156128c457fe5b90506040020160016002811015156128d857fe5b602002013563ffffffff1663ffffffff1688888360ff1681811015156128fa57fe5b905060400201600060028110151561290e57fe5b602002013563ffffffff1663ffffffff161015156129ba576040517f08c379a00000000000000000000000000000000000000000000000000000000081526004018080602001828103825260248152602001807f53746167652073746172742064617465206d75737420626520677420656e642081526020017f646174650000000000000000000000000000000000000000000000000000000081525060400191505060405180910390fd5b60008160ff161115612ad25787878260ff1681811015156129d757fe5b90506040020160006002811015156129eb57fe5b602002013563ffffffff1663ffffffff1688886001840360ff168181101515612a1057fe5b9050604002016001600281101515612a2457fe5b602002013563ffffffff1663ffffffff1611151515612ad1576040517f08c379a00000000000000000000000000000000000000000000000000000000081526004018080602001828103825260228152602001807f53746167657320617265206e6f7420696e20686973746f726963616c206f726481526020017f657200000000000000000000000000000000000000000000000000000000000081525060400191505060405180910390fd5b5b87878260ff168181101515612ae357fe5b9050604002016000600281101515612af757fe5b602002013563ffffffff16600a8260ff16815481101515612b1457fe5b906000526020600020906003020160000160006101000a81548163ffffffff021916908363ffffffff16021790555087878260ff168181101515612b5457fe5b9050604002016001600281101515612b6857fe5b602002013563ffffffff16600a8260ff16815481101515612b8557fe5b906000526020600020906003020160000160046101000a81548163ffffffff021916908363ffffffff16021790555085858260ff168181101515612bc557fe5b9050602002013560ff16600a8260ff16815481101515612be157fe5b906000526020600020906003020160000160086101000a81548160ff021916908360ff16021790555083838260ff168181101515612c1b57fe5b9050602002013563ffffffff16600a8260ff16815481101515612c3a57fe5b906000526020600020906003020160000160096101000a81548163ffffffff021916908363ffffffff160217905550808060010191505061277d565b7f743961f4e677d1146fbf85d75565b1c5474fd083eb166f8b9595cf5d01a4d6e660405160405180910390a15050505050505050565b60065481565b6000809054906101000a900473ffffffffffffffffffffffffffffffffffffffff1673ffffffffffffffffffffffffffffffffffffffff163373ffffffffffffffffffffffffffffffffffffffff16141515612d0d57600080fd5b612d15613512565b1515612d2057600080fd5b600160009054906101000a900473ffffffffffffffffffffffffffffffffffffffff1673ffffffffffffffffffffffffffffffffffffffff1663a9059cbb6000809054906101000a900473ffffffffffffffffffffffffffffffffffffffff16600160009054906101000a900473ffffffffffffffffffffffffffffffffffffffff1673ffffffffffffffffffffffffffffffffffffffff166370a08231306040518263ffffffff167c0100000000000000000000000000000000000000000000000000000000028152600401808273ffffffffffffffffffffffffffffffffffffffff1673ffffffffffffffffffffffffffffffffffffffff168152602001915050602060405180830381600087803b158015612e3d57600080fd5b505af1158015612e51573d6000803e3d6000fd5b505050506040513d6020811015612e6757600080fd5b81019080805190602001909291905050506040518363ffffffff167c0100000000000000000000000000000000000000000000000000000000028152600401808373ffffffffffffffffffffffffffffffffffffffff1673ffffffffffffffffffffffffffffffffffffffff16815260200182815260200192505050602060405180830381600087803b158015612efd57600080fd5b505af1158015612f11573d6000803e3d6000fd5b505050506040513d6020811015612f2757600080fd5b81019080805190602001909291905050501515612f4357600080fd5b565b6000600b80549050905090565b6000600160009054906101000a900473ffffffffffffffffffffffffffffffffffffffff16905090565b60008060009054906101000a900473ffffffffffffffffffffffffffffffffffffffff1673ffffffffffffffffffffffffffffffffffffffff163373ffffffffffffffffffffffffffffffffffffffff16141515612fd957600080fd5b6000600a80549050111561302d5742600a6000815481101515612ff857fe5b906000526020600020906003020160000160009054906101000a900463ffffffff1663ffffffff1611151561302c57600080fd5b5b828290508585905014151561304157600080fd5b600a805490508610151561305457600080fd5b600090505b8484905081101561314357600081111561313657848482818110151561307b57fe5b90506020020135858560018403818110151561309357fe5b90506020020135101515613135576040517f08c379a000000000000000000000000000000000000000000000000000000000815260040180806020018281038252602c8152602001807f566f6c756d6520626f756e646172696573206d75737420626520696e2061736381526020017f656e64696e67206f72646572000000000000000000000000000000000000000081525060400191505060405180910390fd5b5b8080600101915050613059565b600a8681548110151561315257fe5b9060005260206000209060030201600101600061316f9190613fc1565b600a8681548110151561317e57fe5b9060005260206000209060030201600201600061319b9190613fe2565b8484600a888154811015156131ac57fe5b906000526020600020906003020160010191906131ca92919061400a565b508282600a888154811015156131dc57fe5b906000526020600020906003020160020191906131fa929190614057565b50505050505050565b600760009054906101000a900473ffffffffffffffffffffffffffffffffffffffff1681565b600080600061323661366a565b9150915080151561324a57600092506132c8565b42600a8381548110151561325a57fe5b906000526020600020906003020160000160009054906101000a900463ffffffff1663ffffffff16111580156132c5575042600a8381548110151561329b57fe5b906000526020600020906003020160000160049054906101000a900463ffffffff1663ffffffff16115b92505b505090565b6000809054906101000a900473ffffffffffffffffffffffffffffffffffffffff1673ffffffffffffffffffffffffffffffffffffffff163373ffffffffffffffffffffffffffffffffffffffff1614151561332857600080fd5b6000809054906101000a900473ffffffffffffffffffffffffffffffffffffffff1673ffffffffffffffffffffffffffffffffffffffff167ff8df31144d9c2f0f6b59d69b8b98abd5459d07f2742c4df920b25aae33c6482060405160405180910390a260008060006101000a81548173ffffffffffffffffffffffffffffffffffffffff021916908373ffffffffffffffffffffffffffffffffffffffff160217905550565b600c818154811015156133de57fe5b9060005260206000209060089182820401919006600402915054906101000a900463ffffffff1681565b6000600a80549050905090565b600860009054906101000a900473ffffffffffffffffffffffffffffffffffffffff1681565b600a8181548110151561344a57fe5b90600052602060002090600302016000915090508060000160009054906101000a900463ffffffff16908060000160049054906101000a900463ffffffff16908060000160089054906101000a900460ff16908060000160099054906101000a900463ffffffff16905084565b60055481565b6000809054906101000a900473ffffffffffffffffffffffffffffffffffffffff1681565b6000600960009054906101000a900473ffffffffffffffffffffffffffffffffffffffff16905090565b60045481565b600080600a805490501480613564575042600a6001600a805490500381548110151561353a57fe5b906000526020600020906003020160000160049054906101000a900463ffffffff1663ffffffff16105b905090565b600080600a8054905011151561357e57600080fd5b600a6001600a805490500381548110151561359557fe5b906000526020600020906003020160000160049054906101000a900463ffffffff16905090565b600960009054906101000a900473ffffffffffffffffffffffffffffffffffffffff1681565b8060068190555050565b600080600b805490509050600081141561360557600080fd5b5b60018103821080156136545750600c6003830281548110151561362557fe5b90600052602060002090600891828204019190066004029054906101000a900463ffffffff1663ffffffff1642115b15613666578180600101925050613606565b5090565b600080600080600091505b600a8054905082101561370257600a8281548110151561369157fe5b90600052602060002090600302019050428160000160009054906101000a900463ffffffff1663ffffffff16111580156136e45750428160000160049054906101000a900463ffffffff1663ffffffff16115b156136f5578160019350935061370d565b8180600101925050613675565b600080819150935093505b50509091565b600b8181548110151561372257fe5b90600052602060002090600302016000915090508060000160009054906101000a900463ffffffff16908060000160049054906101000a900460ff16908060000160059054906101000a900463ffffffff16908060000160099054906101000a900463ffffffff1690806001018054600181600116156101000203166002900480601f0160208091040260200160405190810160405280929190818152602001828054600181600116156101000203166002900480156138235780601f106137f857610100808354040283529160200191613823565b820191906000526020600020905b81548152906001019060200180831161380657829003601f168201915b505050505090806002018054600181600116156101000203166002900480601f0160208091040260200160405190810160405280929190818152602001828054600181600116156101000203166002900480156138c15780601f10613896576101008083540402835291602001916138c1565b820191906000526020600020905b8154815290600101906020018083116138a457829003601f168201915b5050505050905086565b6060600a828154811015156138dc57fe5b906000526020600020906003020160010180548060200260200160405190810160405280929190818152602001828054801561393757602002820191906000526020600020905b815481526020019060010190808311613923575b50505050509050919050565b6000809054906101000a900473ffffffffffffffffffffffffffffffffffffffff1673ffffffffffffffffffffffffffffffffffffffff163373ffffffffffffffffffffffffffffffffffffffff1614151561399e57600080fd5b600073ffffffffffffffffffffffffffffffffffffffff168173ffffffffffffffffffffffffffffffffffffffff16141515156139da57600080fd5b8073ffffffffffffffffffffffffffffffffffffffff166000809054906101000a900473ffffffffffffffffffffffffffffffffffffffff1673ffffffffffffffffffffffffffffffffffffffff167f8be0079c531659141344cd1fd0a4f28419497f9722a3daafe3b4186f6b6457e060405160405180910390a3806000806101000a81548173ffffffffffffffffffffffffffffffffffffffff021916908373ffffffffffffffffffffffffffffffffffffffff16021790555050565b600160009054906101000a900473ffffffffffffffffffffffffffffffffffffffff1681565b600080600080600087935060008711613ad957600454613b05565b613b046064613af689606403600454613ccc90919063ffffffff16565b613e2890919063ffffffff16565b5b9150613b49600260035403600a0a613b3b84613b2d8a6064018d613ccc90919063ffffffff16565b613e2890919063ffffffff16565b613ccc90919063ffffffff16565b9450600160009054906101000a900473ffffffffffffffffffffffffffffffffffffffff1673ffffffffffffffffffffffffffffffffffffffff166370a08231306040518263ffffffff167c0100000000000000000000000000000000000000000000000000000000028152600401808273ffffffffffffffffffffffffffffffffffffffff1673ffffffffffffffffffffffffffffffffffffffff168152602001915050602060405180830381600087803b158015613c0857600080fd5b505af1158015613c1c573d6000803e3d6000fd5b505050506040513d6020811015613c3257600080fd5b8101908080519060200190929190505050905084811015613c7d57613c7285613c64838b613ccc90919063ffffffff16565b613e2890919063ffffffff16565b935083880392508094505b5093509350935093565b6000613c9282613e3e565b1515613c9d57600080fd5b613cc4612710613cb68486613ccc90919063ffffffff16565b613e2890919063ffffffff16565b905092915050565b600080831415613cdf5760009050613cfe565b8183029050818382811515613cf057fe5b04141515613cfa57fe5b8090505b92915050565b606080828401855110151515613d1957600080fd5b821560008114613d3457604051915060208201604052613d85565b6040519150601f8416801560200281840101858101878315602002848b0101015b81831015613d725780518352602083019250602081019050613d55565b50868552601f19601f8301166040525050505b50809150509392505050565b600082111515613da057600080fd5b600073ffffffffffffffffffffffffffffffffffffffff168173ffffffffffffffffffffffffffffffffffffffff1614151515613ddc57600080fd5b8160048190555080600760006101000a81548173ffffffffffffffffffffffffffffffffffffffff021916908373ffffffffffffffffffffffffffffffffffffffff1602179055505050565b60008183811515613e3557fe5b04905092915050565b6000808210158015613e5257506127108211155b9050919050565b828054600181600116156101000203166002900490600052602060002090601f016020900481019282601f10613e9a57805160ff1916838001178555613ec8565b82800160010185558215613ec8579182015b82811115613ec7578251825591602001919060010190613eac565b5b509050613ed59190614101565b5090565b82805482825590600052602060002090600701600890048101928215613f7e5791602002820160005b83821115613f4c57833563ffffffff1683826101000a81548163ffffffff021916908363ffffffff1602179055509260200192600401602081600301049283019260010302613f02565b8015613f7c5782816101000a81549063ffffffff0219169055600401602081600301049283019260010302613f4c565b505b509050613f8b9190614126565b5090565b815481835581811115613fbc57600302816003028360005260206000209182019101613fbb9190614159565b5b505050565b5080546000825590600052602060002090810190613fdf9190614101565b50565b50805460008255601f0160209004906000526020600020908101906140079190614101565b50565b828054828255906000526020600020908101928215614046579160200282015b8281111561404557823582559160200191906001019061402a565b5b5090506140539190614101565b5090565b82805482825590600052602060002090601f016020900481019282156140f05791602002820160005b838211156140c157833560ff1683826101000a81548160ff021916908360ff1602179055509260200192600101602081600001049283019260010302614080565b80156140ee5782816101000a81549060ff02191690556001016020816000010492830192600103026140c1565b505b5090506140fd91906141f1565b5090565b61412391905b8082111561411f576000816000905550600101614107565b5090565b90565b61415691905b8082111561415257600081816101000a81549063ffffffff02191690555060010161412c565b5090565b90565b6141ee91905b808211156141ea57600080820160006101000a81549063ffffffff02191690556000820160046101000a81549063ffffffff02191690556000820160086101000a81549060ff02191690556000820160096101000a81549063ffffffff02191690556001820160006141d19190613fc1565b6002820160006141e19190613fe2565b5060030161415f565b5090565b90565b61421e91905b8082111561421a57600081816101000a81549060ff0219169055506001016141f7565b5090565b90565b600061422c82613e3e565b151561423757600080fd5b61424b606483613e2890919063ffffffff16565b90509190505600a165627a7a72305820807e2bafd15c8e08ec24aad3f7d425c42341671e7f801e40224cfe70b3fa962e0029",
  "source": "pragma solidity ^0.4.24;\n\nimport \"./W12Crowdsale.sol\";\n\n\ncontract W12CrowdsaleStub is W12Crowdsale {\n    constructor (\n        address _originToken,\n        address _token,\n        uint _tokenDecimals,\n        uint _price,\n        address _serviceWallet,\n        address _swap,\n        uint _serviceFee,\n        uint _WTokenSaleFeePercent,\n        IW12Fund _fund\n    )\n        W12Crowdsale(\n            _originToken,\n             _token,\n             _tokenDecimals,\n             _price,\n             _serviceWallet,\n             _swap,\n             _serviceFee,\n            _WTokenSaleFeePercent,\n             _fund\n        ) public\n    {}\n\n    function _outTokens(address to, uint amount) external returns (bool) {\n        return token.transfer(to, amount);\n    }\n\n    function _setState(uint _WTokenSaleFeePercent) external {\n        WTokenSaleFeePercent = _WTokenSaleFeePercent;\n    }\n}\n",
  "sourcePath": "/Projects/w12-new/contracts/W12CrowdsaleStub.sol",
  "compiler": {
    "name": "solc",
    "version": "0.4.24+commit.e67f0147.Emscripten.clang"
  },
  "schemaVersion": "2.0.1",
  "updatedAt": "2018-08-24T22:22:14.911Z"
}