{
  "contractName": "W12CrowdsaleFactory",
  "abi": [
    {
      "inputs": [
        {
          "name": "_fundFactory",
          "type": "address"
        }
      ],
      "payable": false,
      "stateMutability": "nonpayable",
      "type": "constructor"
    },
    {
      "anonymous": false,
      "inputs": [
        {
          "indexed": true,
          "name": "owner",
          "type": "address"
        },
        {
          "indexed": true,
          "name": "token",
          "type": "address"
        },
        {
          "indexed": false,
          "name": "startDate",
          "type": "uint32"
        },
        {
          "indexed": false,
          "name": "crowdsaleAddress",
          "type": "address"
        },
        {
          "indexed": false,
          "name": "fundAddress",
          "type": "address"
        }
      ],
      "name": "CrowdsaleCreated",
      "type": "event"
    },
    {
      "constant": false,
      "inputs": [
        {
          "name": "wTokenAddress",
          "type": "address"
        },
        {
          "name": "startDate",
          "type": "uint32"
        },
        {
          "name": "price",
          "type": "uint256"
        },
        {
          "name": "serviceWallet",
          "type": "address"
        },
        {
          "name": "serviceFee",
          "type": "uint256"
        },
        {
          "name": "swap",
          "type": "address"
        },
        {
          "name": "owner",
          "type": "address"
        }
      ],
      "name": "createCrowdsale",
      "outputs": [
        {
          "name": "result",
          "type": "address"
        }
      ],
      "payable": false,
      "stateMutability": "nonpayable",
      "type": "function"
    }
  ],
  "bytecode": "0x608060405234801561001057600080fd5b506040516020806144b483398101806040528101908080519060200190929190505050600073ffffffffffffffffffffffffffffffffffffffff168173ffffffffffffffffffffffffffffffffffffffff16141515156100d8576040517f08c379a00000000000000000000000000000000000000000000000000000000081526004018080602001828103825260188152602001807f466163746f72792061646472657373207265717569726564000000000000000081525060200191505060405180910390fd5b806000806101000a81548173ffffffffffffffffffffffffffffffffffffffff021916908373ffffffffffffffffffffffffffffffffffffffff1602179055505061438c806101286000396000f300608060405260043610610041576000357c0100000000000000000000000000000000000000000000000000000000900463ffffffff168063881b5f1814610046575b600080fd5b34801561005257600080fd5b5061010b600480360381019080803573ffffffffffffffffffffffffffffffffffffffff169060200190929190803563ffffffff16906020019092919080359060200190929190803573ffffffffffffffffffffffffffffffffffffffff16906020019092919080359060200190929190803573ffffffffffffffffffffffffffffffffffffffff169060200190929190803573ffffffffffffffffffffffffffffffffffffffff16906020019092919050505061014d565b604051808273ffffffffffffffffffffffffffffffffffffffff1673ffffffffffffffffffffffffffffffffffffffff16815260200191505060405180910390f35b6000806000809054906101000a900473ffffffffffffffffffffffffffffffffffffffff1673ffffffffffffffffffffffffffffffffffffffff1663d7772da2856040518263ffffffff167c0100000000000000000000000000000000000000000000000000000000028152600401808273ffffffffffffffffffffffffffffffffffffffff1673ffffffffffffffffffffffffffffffffffffffff168152602001915050602060405180830381600087803b15801561020c57600080fd5b505af1158015610220573d6000803e3d6000fd5b505050506040513d602081101561023657600080fd5b81019080805190602001909291905050509050888973ffffffffffffffffffffffffffffffffffffffff1663313ce5676040518163ffffffff167c0100000000000000000000000000000000000000000000000000000000028152600401602060405180830381600087803b1580156102ae57600080fd5b505af11580156102c2573d6000803e3d6000fd5b505050506040513d60208110156102d857600080fd5b810190808051906020019092919050505089898989866102f66106db565b808873ffffffffffffffffffffffffffffffffffffffff1673ffffffffffffffffffffffffffffffffffffffff1681526020018760ff1681526020018663ffffffff1663ffffffff1681526020018581526020018473ffffffffffffffffffffffffffffffffffffffff1673ffffffffffffffffffffffffffffffffffffffff1681526020018381526020018273ffffffffffffffffffffffffffffffffffffffff1673ffffffffffffffffffffffffffffffffffffffff168152602001975050505050505050604051809103906000f0801580156103d9573d6000803e3d6000fd5b5091508173ffffffffffffffffffffffffffffffffffffffff1663f2fde38b846040518263ffffffff167c0100000000000000000000000000000000000000000000000000000000028152600401808273ffffffffffffffffffffffffffffffffffffffff1673ffffffffffffffffffffffffffffffffffffffff168152602001915050600060405180830381600087803b15801561047757600080fd5b505af115801561048b573d6000803e3d6000fd5b505050508073ffffffffffffffffffffffffffffffffffffffff1663483a20b2836040518263ffffffff167c0100000000000000000000000000000000000000000000000000000000028152600401808273ffffffffffffffffffffffffffffffffffffffff1673ffffffffffffffffffffffffffffffffffffffff168152602001915050600060405180830381600087803b15801561052a57600080fd5b505af115801561053e573d6000803e3d6000fd5b505050508073ffffffffffffffffffffffffffffffffffffffff1663f2fde38b846040518263ffffffff167c0100000000000000000000000000000000000000000000000000000000028152600401808273ffffffffffffffffffffffffffffffffffffffff1673ffffffffffffffffffffffffffffffffffffffff168152602001915050600060405180830381600087803b1580156105dd57600080fd5b505af11580156105f1573d6000803e3d6000fd5b505050508873ffffffffffffffffffffffffffffffffffffffff168373ffffffffffffffffffffffffffffffffffffffff167fed25eb23596fb8771d2e1e79182ae4c1e2c0e9d7f8718b8e52c92a7ecd154c8c8a600085604051808463ffffffff1663ffffffff1681526020018373ffffffffffffffffffffffffffffffffffffffff1673ffffffffffffffffffffffffffffffffffffffff1681526020018273ffffffffffffffffffffffffffffffffffffffff1673ffffffffffffffffffffffffffffffffffffffff168152602001935050505060405180910390a350979650505050505050565b604051613c75806106ec833901905600608060405260008060146101000a81548160ff0219169083151502179055503480156200002b57600080fd5b5060405160e08062003c7583398101806040528101908080519060200190929190805190602001909291908051906020019092919080519060200190929190805190602001909291908051906020019092919080519060200190929190505050336000806101000a81548173ffffffffffffffffffffffffffffffffffffffff021916908373ffffffffffffffffffffffffffffffffffffffff160217905550600073ffffffffffffffffffffffffffffffffffffffff168773ffffffffffffffffffffffffffffffffffffffff16141515156200010857600080fd5b6200012782620002546401000000000262003458176401000000009004565b80156200015257506064620001508362000270640100000000026200385d176401000000009004565b105b15156200015e57600080fd5b600073ffffffffffffffffffffffffffffffffffffffff168173ffffffffffffffffffffffffffffffffffffffff16141515156200019b57600080fd5b86600160006101000a81548173ffffffffffffffffffffffffffffffffffffffff021916908373ffffffffffffffffffffffffffffffffffffffff16021790555085600281905550620001ff858585620002c3640100000000026401000000009004565b8160058190555080600760006101000a81548173ffffffffffffffffffffffffffffffffffffffff021916908373ffffffffffffffffffffffffffffffffffffffff16021790555050505050505050620003ab565b60008082101580156200026957506127108211155b9050919050565b60006200028c8262000254640100000000026401000000009004565b15156200029857600080fd5b620002bc6064836200039464010000000002620032a2179091906401000000009004565b9050919050565b428363ffffffff1610151515620002d957600080fd5b600082111515620002e957600080fd5b600073ffffffffffffffffffffffffffffffffffffffff168173ffffffffffffffffffffffffffffffffffffffff16141515156200032657600080fd5b82600360006101000a81548163ffffffff021916908363ffffffff1602179055508160048190555080600660006101000a81548173ffffffffffffffffffffffffffffffffffffffff021916908373ffffffffffffffffffffffffffffffffffffffff160217905550505050565b60008183811515620003a257fe5b04905092915050565b6138ba80620003bb6000396000f300608060405260043610610180576000357c0100000000000000000000000000000000000000000000000000000000900463ffffffff1680630b97bc861461018a5780630d544ffe146101c15780630ee62c77146102445780632442e1cb146102c6578063299a017c1461041e5780632c9a4bab14610560578063313602d4146105cb5780633baba4d7146105e25780634090cb641461060d578063521b7499146106645780635641f3c3146106c1578063715018a61461071857806372e6a8811461072f578063792c02ea1461077c578063845ddcb2146107a75780638abdf5aa146108275780638da5cb5b146108525780638edd6eb6146108a95780639bed31e414610900578063a035b1fe1461095d578063a4fd6f5614610988578063b1356488146109b7578063b60d4288146109ee578063d0febe4c14610a45578063d6d65f3d14610a4f578063e89e4ed614610a7a578063eedbe31d14610bd2578063f12585f514610c52578063f2fde38b14610cd4578063fc0c546a14610d17575b610188610d6e565b005b34801561019657600080fd5b5061019f6112d8565b604051808263ffffffff1663ffffffff16815260200191505060405180910390f35b3480156101cd57600080fd5b506102426004803603810190808035906020019082018035906020019190919293919293908035906020019082018035906020019190919293919293908035906020019082018035906020019190919293919293908035906020019082018035906020019190919293919293905050506112ee565b005b34801561025057600080fd5b5061026f60048036038101908080359060200190929190505050611938565b6040518080602001828103825283818151815260200191508051906020019060200280838360005b838110156102b2578082015181840152602081019050610297565b505050509050019250505060405180910390f35b3480156102d257600080fd5b506102f1600480360381019080803590602001909291905050506119d6565b604051808763ffffffff1663ffffffff1681526020018660ff1660ff1681526020018563ffffffff1663ffffffff1681526020018463ffffffff1663ffffffff1681526020018060200180602001838103835285818151815260200191508051906020019080838360005b8381101561037757808201518184015260208101905061035c565b50505050905090810190601f1680156103a45780820380516001836020036101000a031916815260200191505b50838103825284818151815260200191508051906020019080838360005b838110156103dd5780820151818401526020810190506103c2565b50505050905090810190601f16801561040a5780820380516001836020036101000a031916815260200191505b509850505050505050505060405180910390f35b34801561042a57600080fd5b50610433611c2d565b604051808763ffffffff1663ffffffff1681526020018660ff1660ff1681526020018563ffffffff1663ffffffff1681526020018463ffffffff1663ffffffff1681526020018060200180602001838103835285818151815260200191508051906020019080838360005b838110156104b957808201518184015260208101905061049e565b50505050905090810190601f1680156104e65780820380516001836020036101000a031916815260200191505b50838103825284818151815260200191508051906020019080838360005b8381101561051f578082015181840152602081019050610504565b50505050905090810190601f16801561054c5780820380516001836020036101000a031916815260200191505b509850505050505050505060405180910390f35b34801561056c57600080fd5b506105c9600480360381019080803590602001908201803590602001919091929391929390803590602001908201803590602001919091929391929390803590602001908201803590602001919091929391929390505050611c60565b005b3480156105d757600080fd5b506105e0612435565b005b3480156105ee57600080fd5b506105f76126c8565b6040518082815260200191505060405180910390f35b34801561061957600080fd5b506106226126d5565b604051808273ffffffffffffffffffffffffffffffffffffffff1673ffffffffffffffffffffffffffffffffffffffff16815260200191505060405180910390f35b34801561067057600080fd5b506106bf600480360381019080803590602001909291908035906020019082018035906020019190919293919293908035906020019082018035906020019190919293919293905050506126ff565b005b3480156106cd57600080fd5b506106d6612866565b604051808273ffffffffffffffffffffffffffffffffffffffff1673ffffffffffffffffffffffffffffffffffffffff16815260200191505060405180910390f35b34801561072457600080fd5b5061072d61288c565b005b34801561073b57600080fd5b5061075a6004803603810190808035906020019092919050505061298e565b604051808263ffffffff1663ffffffff16815260200191505060405180910390f35b34801561078857600080fd5b506107916129c7565b6040518082815260200191505060405180910390f35b3480156107b357600080fd5b506107d2600480360381019080803590602001909291905050506129d4565b604051808563ffffffff1663ffffffff1681526020018463ffffffff1663ffffffff1681526020018360ff1660ff1681526020018263ffffffff1663ffffffff16815260200194505050505060405180910390f35b34801561083357600080fd5b5061083c612a50565b6040518082815260200191505060405180910390f35b34801561085e57600080fd5b50610867612a56565b604051808273ffffffffffffffffffffffffffffffffffffffff1673ffffffffffffffffffffffffffffffffffffffff16815260200191505060405180910390f35b3480156108b557600080fd5b506108be612a7b565b604051808273ffffffffffffffffffffffffffffffffffffffff1673ffffffffffffffffffffffffffffffffffffffff16815260200191505060405180910390f35b34801561090c57600080fd5b5061095b600480360381019080803563ffffffff16906020019092919080359060200190929190803573ffffffffffffffffffffffffffffffffffffffff169060200190929190505050612aa5565b005b34801561096957600080fd5b50610972612b36565b6040518082815260200191505060405180910390f35b34801561099457600080fd5b5061099d612b3c565b604051808215151515815260200191505060405180910390f35b3480156109c357600080fd5b506109cc612b93565b604051808263ffffffff1663ffffffff16815260200191505060405180910390f35b3480156109fa57600080fd5b50610a03612be6565b604051808273ffffffffffffffffffffffffffffffffffffffff1673ffffffffffffffffffffffffffffffffffffffff16815260200191505060405180910390f35b610a4d610d6e565b005b348015610a5b57600080fd5b50610a64612c0c565b6040518082815260200191505060405180910390f35b348015610a8657600080fd5b50610aa560048036038101908080359060200190929190505050612c8a565b604051808763ffffffff1663ffffffff1681526020018660ff1660ff1681526020018563ffffffff1663ffffffff1681526020018463ffffffff1663ffffffff1681526020018060200180602001838103835285818151815260200191508051906020019080838360005b83811015610b2b578082015181840152602081019050610b10565b50505050905090810190601f168015610b585780820380516001836020036101000a031916815260200191505b50838103825284818151815260200191508051906020019080838360005b83811015610b91578082015181840152602081019050610b76565b50505050905090810190601f168015610bbe5780820380516001836020036101000a031916815260200191505b509850505050505050505060405180910390f35b348015610bde57600080fd5b50610be7612e42565b604051808560ff1660ff1681526020018463ffffffff1663ffffffff1681526020018360ff1660ff16815260200182600260200280838360005b83811015610c3c578082015181840152602081019050610c21565b5050505090500194505050505060405180910390f35b348015610c5e57600080fd5b50610c7d60048036038101908080359060200190929190505050613077565b6040518080602001828103825283818151815260200191508051906020019060200280838360005b83811015610cc0578082015181840152602081019050610ca5565b505050509050019250505060405180910390f35b348015610ce057600080fd5b50610d15600480360381019080803573ffffffffffffffffffffffffffffffffffffffff1690602001909291905050506130ef565b005b348015610d2357600080fd5b50610d2c613244565b604051808273ffffffffffffffffffffffffffffffffffffffff1673ffffffffffffffffffffffffffffffffffffffff16815260200191505060405180910390f35b6000806000610d7b613473565b600080600060149054906101000a900460ff16151515610d9a57600080fd5b6001600060146101000a81548160ff021916908315150217905550600034111515610dc457600080fd5b42600360009054906101000a900463ffffffff1663ffffffff1611151515610deb57600080fd5b610df3612b3c565b151515610dff57600080fd5b6000600880549050111515610e1357600080fd5b610e1b612e42565b955095509550955060006008805490501415610e7d573373ffffffffffffffffffffffffffffffffffffffff166108fc349081150290604051600060405180830381858888f19350505050158015610e77573d6000803e3d6000fd5b506112b6565b42836000600281101515610e8d57fe5b602002015163ffffffff1611158015610ebe575042836001600281101515610eb157fe5b602002015163ffffffff16115b1515610f32576040517f08c379a00000000000000000000000000000000000000000000000000000000081526004018080602001828103825260158152602001807f537461676520776173206e6f742073746172746564000000000000000000000081525060200191505060405180910390fd5b60008660ff1611610f4557600454610f74565b610f736064610f658860640360ff1660045461326a90919063ffffffff16565b6132a290919063ffffffff16565b5b9150610fba6002805403600a0a610fac84610f9e8860640160ff163461326a90919063ffffffff16565b6132a290919063ffffffff16565b61326a90919063ffffffff16565b9050600160009054906101000a900473ffffffffffffffffffffffffffffffffffffffff1673ffffffffffffffffffffffffffffffffffffffff16639d2e47773383886040518463ffffffff167c0100000000000000000000000000000000000000000000000000000000028152600401808473ffffffffffffffffffffffffffffffffffffffff1673ffffffffffffffffffffffffffffffffffffffff1681526020018381526020018263ffffffff1663ffffffff1681526020019350505050602060405180830381600087803b15801561109557600080fd5b505af11580156110a9573d6000803e3d6000fd5b505050506040513d60208110156110bf57600080fd5b810190808051906020019092919050505015156110db57600080fd5b6000600554111561116457600660009054906101000a900473ffffffffffffffffffffffffffffffffffffffff1673ffffffffffffffffffffffffffffffffffffffff166108fc611137600554346132b890919063ffffffff16565b9081150290604051600060405180830381858888f19350505050158015611162573d6000803e3d6000fd5b505b600760009054906101000a900473ffffffffffffffffffffffffffffffffffffffff1673ffffffffffffffffffffffffffffffffffffffff1663958799cb3073ffffffffffffffffffffffffffffffffffffffff1631620186a09033856040518563ffffffff167c0100000000000000000000000000000000000000000000000000000000028152600401808373ffffffffffffffffffffffffffffffffffffffff1673ffffffffffffffffffffffffffffffffffffffff168152602001828152602001925050506000604051808303818589803b15801561124557600080fd5b5088f1158015611259573d6000803e3d6000fd5b5050505050503373ffffffffffffffffffffffffffffffffffffffff167fcd60aa75dea3072fbc07ae6d7d856b5dc5f4eee88854f5b4abf7b680ef8bc50f3483604051808381526020018281526020019250505060405180910390a25b60008060146101000a81548160ff021916908315150217905550505050505050565b600360009054906101000a900463ffffffff1681565b60008060006060806000809054906101000a900473ffffffffffffffffffffffffffffffffffffffff1673ffffffffffffffffffffffffffffffffffffffff163373ffffffffffffffffffffffffffffffffffffffff1614151561135157600080fd5b42600360009054906101000a900463ffffffff1663ffffffff1611151561137757600080fd5b7fffffffffffffffffffffffffffffffffffffffffffffffffffffffffffffffff60ff168d8d9050111515156113ac57600080fd5b60038d8d9050101515156113bf57600080fd5b600060038e8e90508115156113d057fe5b061415156113dd57600080fd5b888890506113f860028d8d905061326a90919063ffffffff16565b14151561140457600080fd5b8c8c905061141f60038d8d905061326a90919063ffffffff16565b14151561142b57600080fd5b60028b8b905002878790501015151561144357600080fd5b6000945060009350600092505b8c8c905060ff168360ff16101561190557428d8d8560ff16818110151561147357fe5b9050602002013563ffffffff1663ffffffff1611151561149257600080fd5b8c8c8460ff1681811015156114a357fe5b9050602002013563ffffffff1663ffffffff168d8d6001860160ff1681811015156114ca57fe5b9050602002013563ffffffff1663ffffffff16101515156114ea57600080fd5b8c8c6001850160ff1681811015156114fe57fe5b9050602002013563ffffffff1663ffffffff168d8d6002860160ff16818110151561152557fe5b9050602002013563ffffffff1663ffffffff161015151561154557600080fd5b6115c1858a8a600260038860ff1681151561155c57fe5b040260ff16818110151561156c57fe5b9050602002013563ffffffff1663ffffffff1689898080601f0160208091040260200160405190810160405280939291908181526020018383808284378201915050505050506132fd9092919063ffffffff16565b91506116798989600260038760ff168115156115d957fe5b040260ff1681811015156115e957fe5b9050602002013563ffffffff1663ffffffff1686018a8a6001600260038960ff1681151561161357fe5b04020160ff16818110151561162457fe5b9050602002013563ffffffff1663ffffffff1689898080601f0160208091040260200160405190810160405280939291908181526020018383808284378201915050505050506132fd9092919063ffffffff16565b90506000825111151561168b57600080fd5b6000815111151561169b57600080fd5b600960c0604051908101604052808f8f8760ff1681811015156116ba57fe5b9050602002013563ffffffff1663ffffffff1681526020018d8d60038860ff168115156116e357fe5b0460ff1681811015156116f257fe5b9050602002013560ff1660ff1681526020018f8f6001880160ff16818110151561171857fe5b9050602002013563ffffffff1663ffffffff1681526020018f8f6002880160ff16818110151561174457fe5b9050602002013563ffffffff1663ffffffff168152602001848152602001838152509080600181540180825580915050906001820390600052602060002090600302016000909192909190915060008201518160000160006101000a81548163ffffffff021916908363ffffffff16021790555060208201518160000160046101000a81548160ff021916908360ff16021790555060408201518160000160056101000a81548163ffffffff021916908363ffffffff16021790555060608201518160000160096101000a81548163ffffffff021916908363ffffffff1602179055506080820151816001019080519060200190611843929190613495565b5060a0820151816002019080519060200190611860929190613495565b505050508888600160038660ff1681151561187757fe5b040160ff16818110151561188757fe5b9050602002013563ffffffff16898960038660ff168115156118a557fe5b0460ff1681811015156118b457fe5b9050602002013563ffffffff160163ffffffff16850194508a8a60038560ff168115156118dd57fe5b0460ff1681811015156118ec57fe5b9050602002013560ff1684019350600383019250611450565b8c8c600a9190611916929190613515565b5060648460ff1614151561192957600080fd5b50505050505050505050505050565b606060088281548110151561194957fe5b90600052602060002090600302016002018054806020026020016040519081016040528092919081815260200182805480156119ca57602002820191906000526020600020906000905b82829054906101000a900460ff1660ff16815260200190600101906020826000010492830192600103820291508084116119935790505b50505050509050919050565b6000806000806060806009878154811015156119ee57fe5b906000526020600020906003020160000160009054906101000a900463ffffffff16600988815481101515611a1f57fe5b906000526020600020906003020160000160049054906101000a900460ff16600989815481101515611a4d57fe5b906000526020600020906003020160000160059054906101000a900463ffffffff1660098a815481101515611a7e57fe5b906000526020600020906003020160000160099054906101000a900463ffffffff1660098b815481101515611aaf57fe5b906000526020600020906003020160010160098c815481101515611acf57fe5b9060005260206000209060030201600201818054600181600116156101000203166002900480601f016020809104026020016040519081016040528092919081815260200182805460018160011615610100020316600290048015611b755780601f10611b4a57610100808354040283529160200191611b75565b820191906000526020600020905b815481529060010190602001808311611b5857829003601f168201915b50505050509150808054600181600116156101000203166002900480601f016020809104026020016040519081016040528092919081815260200182805460018160011615610100020316600290048015611c115780601f10611be657610100808354040283529160200191611c11565b820191906000526020600020905b815481529060010190602001808311611bf457829003601f168201915b5050505050905095509550955095509550955091939550919395565b6000806000806060806000611c40612c0c565b9050611c4b816119d6565b96509650965096509650965050909192939495565b6000806000809054906101000a900473ffffffffffffffffffffffffffffffffffffffff1673ffffffffffffffffffffffffffffffffffffffff163373ffffffffffffffffffffffffffffffffffffffff16141515611cbe57600080fd5b42600360009054906101000a900463ffffffff1663ffffffff16111515611ce457600080fd5b7fffffffffffffffffffffffffffffffffffffffffffffffffffffffffffffffff60ff168888905011151515611d1957600080fd5b600088889050111515611d2b57600080fd5b8585905088889050141515611d3f57600080fd5b8383905088889050141515611d5357600080fd5b8787905091508160ff16600881611d6a91906135cb565b50600090505b8160ff168160ff1610156123ff57600086868360ff168181101515611d9157fe5b9050602002013560ff1660ff1610158015611dc95750606486868360ff168181101515611dba57fe5b9050602002013560ff1660ff16105b1515611e63576040517f08c379a000000000000000000000000000000000000000000000000000000000815260040180806020018281038252602f8152602001807f537461676520646973636f756e74206973206e6f7420696e20616c6c6f77656481526020017f2072616e6765205b302c2031303029000000000000000000000000000000000081525060400191505060405180910390fd5b87878260ff168181101515611e7457fe5b9050604002016000600281101515611e8857fe5b602002013563ffffffff1663ffffffff16600360009054906101000a900463ffffffff1663ffffffff1611151515611f4e576040517f08c379a00000000000000000000000000000000000000000000000000000000081526004018080602001828103825260308152602001807f53746167652073746172742064617465206d7573742062652067742063726f7781526020017f6473616c6520737461727420646174650000000000000000000000000000000081525060400191505060405180910390fd5b87878260ff168181101515611f5f57fe5b9050604002016001600281101515611f7357fe5b602002013563ffffffff1663ffffffff16600360009054906101000a900463ffffffff1663ffffffff16101515612038576040517f08c379a000000000000000000000000000000000000000000000000000000000815260040180806020018281038252602e8152602001807f537461676520656e642064617465206d7573742062652067742063726f77647381526020017f616c65207374617274206461746500000000000000000000000000000000000081525060400191505060405180910390fd5b87878260ff16818110151561204957fe5b905060400201600160028110151561205d57fe5b602002013563ffffffff1663ffffffff1688888360ff16818110151561207f57fe5b905060400201600060028110151561209357fe5b602002013563ffffffff1663ffffffff1610151561213f576040517f08c379a00000000000000000000000000000000000000000000000000000000081526004018080602001828103825260248152602001807f53746167652073746172742064617465206d75737420626520677420656e642081526020017f646174650000000000000000000000000000000000000000000000000000000081525060400191505060405180910390fd5b6001820360ff168160ff16101561225b5787876001830160ff16818110151561216457fe5b905060400201600060028110151561217857fe5b602002013563ffffffff1663ffffffff1688888360ff16818110151561219a57fe5b90506040020160016002811015156121ae57fe5b602002013563ffffffff1663ffffffff1610151561225a576040517f08c379a00000000000000000000000000000000000000000000000000000000081526004018080602001828103825260228152602001807f53746167657320617265206e6f7420696e20686973746f726963616c206f726481526020017f657200000000000000000000000000000000000000000000000000000000000081525060400191505060405180910390fd5b5b87878260ff16818110151561226c57fe5b905060400201600060028110151561228057fe5b602002013563ffffffff1660088260ff1681548110151561229d57fe5b906000526020600020906003020160000160006101000a81548163ffffffff021916908363ffffffff16021790555087878260ff1681811015156122dd57fe5b90506040020160016002811015156122f157fe5b602002013563ffffffff1660088260ff1681548110151561230e57fe5b906000526020600020906003020160000160046101000a81548163ffffffff021916908363ffffffff16021790555085858260ff16818110151561234e57fe5b9050602002013560ff1660088260ff1681548110151561236a57fe5b906000526020600020906003020160000160086101000a81548160ff021916908360ff16021790555083838260ff1681811015156123a457fe5b9050602002013563ffffffff1660088260ff168154811015156123c357fe5b906000526020600020906003020160000160096101000a81548163ffffffff021916908363ffffffff1602179055508080600101915050611d70565b7f743961f4e677d1146fbf85d75565b1c5474fd083eb166f8b9595cf5d01a4d6e660405160405180910390a15050505050505050565b6000809054906101000a900473ffffffffffffffffffffffffffffffffffffffff1673ffffffffffffffffffffffffffffffffffffffff163373ffffffffffffffffffffffffffffffffffffffff1614151561249057600080fd5b612498612b3c565b15156124a357600080fd5b600160009054906101000a900473ffffffffffffffffffffffffffffffffffffffff1673ffffffffffffffffffffffffffffffffffffffff1663a9059cbb6000809054906101000a900473ffffffffffffffffffffffffffffffffffffffff16600160009054906101000a900473ffffffffffffffffffffffffffffffffffffffff1673ffffffffffffffffffffffffffffffffffffffff166370a08231306040518263ffffffff167c0100000000000000000000000000000000000000000000000000000000028152600401808273ffffffffffffffffffffffffffffffffffffffff1673ffffffffffffffffffffffffffffffffffffffff168152602001915050602060405180830381600087803b1580156125c057600080fd5b505af11580156125d4573d6000803e3d6000fd5b505050506040513d60208110156125ea57600080fd5b81019080805190602001909291905050506040518363ffffffff167c0100000000000000000000000000000000000000000000000000000000028152600401808373ffffffffffffffffffffffffffffffffffffffff1673ffffffffffffffffffffffffffffffffffffffff16815260200182815260200192505050602060405180830381600087803b15801561268057600080fd5b505af1158015612694573d6000803e3d6000fd5b505050506040513d60208110156126aa57600080fd5b810190808051906020019092919050505015156126c657600080fd5b565b6000600980549050905090565b6000600160009054906101000a900473ffffffffffffffffffffffffffffffffffffffff16905090565b6000809054906101000a900473ffffffffffffffffffffffffffffffffffffffff1673ffffffffffffffffffffffffffffffffffffffff163373ffffffffffffffffffffffffffffffffffffffff1614151561275a57600080fd5b42600360009054906101000a900463ffffffff1663ffffffff1611151561278057600080fd5b818190508484905014151561279457600080fd5b600880549050851015156127a757600080fd5b6008858154811015156127b657fe5b906000526020600020906003020160010160006127d391906135fd565b6008858154811015156127e257fe5b906000526020600020906003020160020160006127ff919061361e565b838360088781548110151561281057fe5b9060005260206000209060030201600101919061282e929190613646565b50818160088781548110151561284057fe5b9060005260206000209060030201600201919061285e929190613693565b505050505050565b600660009054906101000a900473ffffffffffffffffffffffffffffffffffffffff1681565b6000809054906101000a900473ffffffffffffffffffffffffffffffffffffffff1673ffffffffffffffffffffffffffffffffffffffff163373ffffffffffffffffffffffffffffffffffffffff161415156128e757600080fd5b6000809054906101000a900473ffffffffffffffffffffffffffffffffffffffff1673ffffffffffffffffffffffffffffffffffffffff167ff8df31144d9c2f0f6b59d69b8b98abd5459d07f2742c4df920b25aae33c6482060405160405180910390a260008060006101000a81548173ffffffffffffffffffffffffffffffffffffffff021916908373ffffffffffffffffffffffffffffffffffffffff160217905550565b600a8181548110151561299d57fe5b9060005260206000209060089182820401919006600402915054906101000a900463ffffffff1681565b6000600880549050905090565b6008818154811015156129e357fe5b90600052602060002090600302016000915090508060000160009054906101000a900463ffffffff16908060000160049054906101000a900463ffffffff16908060000160089054906101000a900460ff16908060000160099054906101000a900463ffffffff16905084565b60055481565b6000809054906101000a900473ffffffffffffffffffffffffffffffffffffffff1681565b6000600760009054906101000a900473ffffffffffffffffffffffffffffffffffffffff16905090565b6000809054906101000a900473ffffffffffffffffffffffffffffffffffffffff1673ffffffffffffffffffffffffffffffffffffffff163373ffffffffffffffffffffffffffffffffffffffff16141515612b0057600080fd5b42600360009054906101000a900463ffffffff1663ffffffff16111515612b2657600080fd5b612b3183838361338a565b505050565b60045481565b6000806008805490501480612b8e5750426008600160088054905003815481101515612b6457fe5b906000526020600020906003020160000160049054906101000a900463ffffffff1663ffffffff16105b905090565b600080600880549050111515612ba857600080fd5b6008600160088054905003815481101515612bbf57fe5b906000526020600020906003020160000160049054906101000a900463ffffffff16905090565b600760009054906101000a900473ffffffffffffffffffffffffffffffffffffffff1681565b60008060098054905090506000811415612c2557600080fd5b5b6001810382108015612c745750600a60038302815481101515612c4557fe5b90600052602060002090600891828204019190066004029054906101000a900463ffffffff1663ffffffff1642115b15612c86578180600101925050612c26565b5090565b600981815481101515612c9957fe5b90600052602060002090600302016000915090508060000160009054906101000a900463ffffffff16908060000160049054906101000a900460ff16908060000160059054906101000a900463ffffffff16908060000160099054906101000a900463ffffffff1690806001018054600181600116156101000203166002900480601f016020809104026020016040519081016040528092919081815260200182805460018160011615610100020316600290048015612d9a5780601f10612d6f57610100808354040283529160200191612d9a565b820191906000526020600020905b815481529060010190602001808311612d7d57829003601f168201915b505050505090806002018054600181600116156101000203166002900480601f016020809104026020016040519081016040528092919081815260200182805460018160011615610100020316600290048015612e385780601f10612e0d57610100808354040283529160200191612e38565b820191906000526020600020905b815481529060010190602001808311612e1b57829003601f168201915b5050505050905086565b6000806000612e4f613473565b600080600080600093505b60088054905084101561302757600884815481101515612e7657fe5b90600052602060002090600302019250428360000160009054906101000a900463ffffffff1663ffffffff1611158015612ec95750428360000160049054906101000a900463ffffffff1663ffffffff16115b1561301a576000955060009150600083600101805490501115612f9057600090505b6001836001018054905003811015612f8f57813410158015612f2757508260010181815481101515612f1957fe5b906000526020600020015434105b15612f64578260020181815481101515612f3d57fe5b90600052602060002090602091828204019190069054906101000a900460ff169550612f8f565b8260010181815481101515612f7557fe5b906000526020600020015491508080600101915050612eeb565b5b8260000160089054906101000a900460ff168360000160099054906101000a900463ffffffff168760408051908101604052808760000160009054906101000a900463ffffffff1663ffffffff1663ffffffff1681526020018760000160049054906101000a900463ffffffff1663ffffffff1663ffffffff16815250975097509750975061306d565b8380600101945050612e5a565b60008060006040805190810160405280600063ffffffff1663ffffffff168152602001600063ffffffff1663ffffffff1681525083935082925081915097509750975097505b5050505090919293565b606060088281548110151561308857fe5b90600052602060002090600302016001018054806020026020016040519081016040528092919081815260200182805480156130e357602002820191906000526020600020905b8154815260200190600101908083116130cf575b50505050509050919050565b6000809054906101000a900473ffffffffffffffffffffffffffffffffffffffff1673ffffffffffffffffffffffffffffffffffffffff163373ffffffffffffffffffffffffffffffffffffffff1614151561314a57600080fd5b600073ffffffffffffffffffffffffffffffffffffffff168173ffffffffffffffffffffffffffffffffffffffff161415151561318657600080fd5b8073ffffffffffffffffffffffffffffffffffffffff166000809054906101000a900473ffffffffffffffffffffffffffffffffffffffff1673ffffffffffffffffffffffffffffffffffffffff167f8be0079c531659141344cd1fd0a4f28419497f9722a3daafe3b4186f6b6457e060405160405180910390a3806000806101000a81548173ffffffffffffffffffffffffffffffffffffffff021916908373ffffffffffffffffffffffffffffffffffffffff16021790555050565b600160009054906101000a900473ffffffffffffffffffffffffffffffffffffffff1681565b60008083141561327d576000905061329c565b818302905081838281151561328e57fe5b0414151561329857fe5b8090505b92915050565b600081838115156132af57fe5b04905092915050565b60006132c382613458565b15156132ce57600080fd5b6132f56127106132e7848661326a90919063ffffffff16565b6132a290919063ffffffff16565b905092915050565b60608082840185511015151561331257600080fd5b82156000811461332d5760405191506020820160405261337e565b6040519150601f8416801560200281840101858101878315602002848b0101015b8183101561336b578051835260208301925060208101905061334e565b50868552601f19601f8301166040525050505b50809150509392505050565b428363ffffffff161015151561339f57600080fd5b6000821115156133ae57600080fd5b600073ffffffffffffffffffffffffffffffffffffffff168173ffffffffffffffffffffffffffffffffffffffff16141515156133ea57600080fd5b82600360006101000a81548163ffffffff021916908363ffffffff1602179055508160048190555080600660006101000a81548173ffffffffffffffffffffffffffffffffffffffff021916908373ffffffffffffffffffffffffffffffffffffffff160217905550505050565b600080821015801561346c57506127108211155b9050919050565b6040805190810160405280600290602082028038833980820191505090505090565b828054600181600116156101000203166002900490600052602060002090601f016020900481019282601f106134d657805160ff1916838001178555613504565b82800160010185558215613504579182015b828111156135035782518255916020019190600101906134e8565b5b509050613511919061373d565b5090565b828054828255906000526020600020906007016008900481019282156135ba5791602002820160005b8382111561358857833563ffffffff1683826101000a81548163ffffffff021916908363ffffffff160217905550926020019260040160208160030104928301926001030261353e565b80156135b85782816101000a81549063ffffffff0219169055600401602081600301049283019260010302613588565b505b5090506135c79190613762565b5090565b8154818355818111156135f8576003028160030283600052602060002091820191016135f79190613795565b5b505050565b508054600082559060005260206000209081019061361b919061373d565b50565b50805460008255601f016020900490600052602060002090810190613643919061373d565b50565b828054828255906000526020600020908101928215613682579160200282015b82811115613681578235825591602001919060010190613666565b5b50905061368f919061373d565b5090565b82805482825590600052602060002090601f0160209004810192821561372c5791602002820160005b838211156136fd57833560ff1683826101000a81548160ff021916908360ff16021790555092602001926001016020816000010492830192600103026136bc565b801561372a5782816101000a81549060ff02191690556001016020816000010492830192600103026136fd565b505b509050613739919061382d565b5090565b61375f91905b8082111561375b576000816000905550600101613743565b5090565b90565b61379291905b8082111561378e57600081816101000a81549063ffffffff021916905550600101613768565b5090565b90565b61382a91905b8082111561382657600080820160006101000a81549063ffffffff02191690556000820160046101000a81549063ffffffff02191690556000820160086101000a81549060ff02191690556000820160096101000a81549063ffffffff021916905560018201600061380d91906135fd565b60028201600061381d919061361e565b5060030161379b565b5090565b90565b61385a91905b8082111561385657600081816101000a81549060ff021916905550600101613833565b5090565b90565b600061386882613458565b151561387357600080fd5b6138876064836132a290919063ffffffff16565b90509190505600a165627a7a723058205ed10fe2ed7912a5f439b181a4d1c0cf968abe896a78bb2a12b1f533485ac1f60029a165627a7a7230582018c6b5655c69c994908f29ee88abd58fea5cf17fe9ab63d258a73f6a2d74d43a0029",
  "source": "pragma solidity ^0.4.24;\n\nimport \"./interfaces/IW12CrowdsaleFactory.sol\";\nimport \"./interfaces/IW12FundFactory.sol\";\nimport \"./W12Crowdsale.sol\";\n\n\ncontract W12CrowdsaleFactory is IW12CrowdsaleFactory {\n    IW12FundFactory private fundFactory;\n\n    event CrowdsaleCreated(address indexed owner, address indexed token, uint32 startDate, address crowdsaleAddress, address fundAddress);\n\n    constructor(IW12FundFactory _fundFactory) public {\n        require(_fundFactory != address(0), \"Factory address required\");\n\n        fundFactory = _fundFactory;\n    }\n\n    function createCrowdsale(address wTokenAddress, uint32 startDate, uint price, address serviceWallet, uint serviceFee, address swap, address owner)\n        external returns (IW12Crowdsale result) {\n        IW12Fund fund = fundFactory.createFund(swap);\n\n        result = new W12Crowdsale(wTokenAddress, DetailedERC20(wTokenAddress).decimals(), startDate, price, serviceWallet, serviceFee, fund);\n        result.transferOwnership(owner);\n\n        fund.setCrowdsale(result);\n        fund.transferOwnership(owner);\n\n        emit CrowdsaleCreated(owner, wTokenAddress, startDate, address(0), fund);\n    }\n}\n",
  "sourcePath": "/Projects/w12-new/contracts/W12CrowdsaleFactory.sol",
  "compiler": {
    "name": "solc",
    "version": "0.4.24+commit.e67f0147.Emscripten.clang"
  },
  "schemaVersion": "2.0.1",
  "updatedAt": "2018-08-22T13:13:40.932Z"
}