{
  "contractName": "W12CrowdsaleStub",
  "abi": [
    {
      "constant": true,
      "inputs": [
        {
          "name": "stageNumber",
          "type": "uint256"
        }
      ],
      "name": "getStageVolumeBonuses",
      "outputs": [
        {
          "name": "",
          "type": "uint256[]"
        }
      ],
      "payable": false,
      "stateMutability": "view",
      "type": "function"
    },
    {
      "constant": true,
      "inputs": [],
      "name": "originToken",
      "outputs": [
        {
          "name": "",
          "type": "address"
        }
      ],
      "payable": false,
      "stateMutability": "view",
      "type": "function"
    },
    {
      "constant": true,
      "inputs": [],
      "name": "getLastMilestoneIndex",
      "outputs": [
        {
          "name": "index",
          "type": "uint256"
        },
        {
          "name": "found",
          "type": "bool"
        }
      ],
      "payable": false,
      "stateMutability": "view",
      "type": "function"
    },
    {
      "constant": true,
      "inputs": [
        {
          "name": "value",
          "type": "uint256"
        }
      ],
      "name": "getSaleVolumeBonus",
      "outputs": [
        {
          "name": "bonus",
          "type": "uint256"
        }
      ],
      "payable": false,
      "stateMutability": "view",
      "type": "function"
    },
    {
      "constant": true,
      "inputs": [
        {
          "name": "index",
          "type": "uint256"
        }
      ],
      "name": "getMilestone",
      "outputs": [
        {
          "name": "",
          "type": "uint32"
        },
        {
          "name": "",
          "type": "uint256"
        },
        {
          "name": "",
          "type": "uint32"
        },
        {
          "name": "",
          "type": "uint32"
        },
        {
          "name": "",
          "type": "bytes"
        },
        {
          "name": "",
          "type": "bytes"
        }
      ],
      "payable": false,
      "stateMutability": "view",
      "type": "function"
    },
    {
      "constant": true,
      "inputs": [
        {
          "name": "index",
          "type": "uint256"
        }
      ],
      "name": "getStage",
      "outputs": [
        {
          "name": "",
          "type": "uint32"
        },
        {
          "name": "",
          "type": "uint32"
        },
        {
          "name": "",
          "type": "uint256"
        },
        {
          "name": "",
          "type": "uint32"
        },
        {
          "name": "",
          "type": "uint256[]"
        },
        {
          "name": "",
          "type": "uint256[]"
        }
      ],
      "payable": false,
      "stateMutability": "view",
      "type": "function"
    },
    {
      "constant": true,
      "inputs": [],
      "name": "WTokenSaleFeePercent",
      "outputs": [
        {
          "name": "",
          "type": "uint256"
        }
      ],
      "payable": false,
      "stateMutability": "view",
      "type": "function"
    },
    {
      "constant": false,
      "inputs": [],
      "name": "claimRemainingTokens",
      "outputs": [],
      "payable": false,
      "stateMutability": "nonpayable",
      "type": "function"
    },
    {
      "constant": true,
      "inputs": [],
      "name": "milestonesLength",
      "outputs": [
        {
          "name": "",
          "type": "uint256"
        }
      ],
      "payable": false,
      "stateMutability": "view",
      "type": "function"
    },
    {
      "constant": true,
      "inputs": [],
      "name": "getWToken",
      "outputs": [
        {
          "name": "",
          "type": "address"
        }
      ],
      "payable": false,
      "stateMutability": "view",
      "type": "function"
    },
    {
      "constant": false,
      "inputs": [
        {
          "name": "dates",
          "type": "uint32[2][]"
        },
        {
          "name": "stage_discounts",
          "type": "uint256[]"
        },
        {
          "name": "stage_vestings",
          "type": "uint32[]"
        }
      ],
      "name": "setStages",
      "outputs": [],
      "payable": false,
      "stateMutability": "nonpayable",
      "type": "function"
    },
    {
      "constant": true,
      "inputs": [],
      "name": "serviceWallet",
      "outputs": [
        {
          "name": "",
          "type": "address"
        }
      ],
      "payable": false,
      "stateMutability": "view",
      "type": "function"
    },
    {
      "constant": true,
      "inputs": [],
      "name": "isSaleActive",
      "outputs": [
        {
          "name": "",
          "type": "bool"
        }
      ],
      "payable": false,
      "stateMutability": "view",
      "type": "function"
    },
    {
      "constant": false,
      "inputs": [],
      "name": "renounceOwnership",
      "outputs": [],
      "payable": false,
      "stateMutability": "nonpayable",
      "type": "function"
    },
    {
      "constant": true,
      "inputs": [
        {
          "name": "",
          "type": "uint256"
        }
      ],
      "name": "milestoneDates",
      "outputs": [
        {
          "name": "",
          "type": "uint32"
        }
      ],
      "payable": false,
      "stateMutability": "view",
      "type": "function"
    },
    {
      "constant": true,
      "inputs": [],
      "name": "stagesLength",
      "outputs": [
        {
          "name": "",
          "type": "uint256"
        }
      ],
      "payable": false,
      "stateMutability": "view",
      "type": "function"
    },
    {
      "constant": true,
      "inputs": [],
      "name": "swap",
      "outputs": [
        {
          "name": "",
          "type": "address"
        }
      ],
      "payable": false,
      "stateMutability": "view",
      "type": "function"
    },
    {
      "constant": true,
      "inputs": [
        {
          "name": "",
          "type": "uint256"
        }
      ],
      "name": "stages",
      "outputs": [
        {
          "name": "startDate",
          "type": "uint32"
        },
        {
          "name": "endDate",
          "type": "uint32"
        },
        {
          "name": "discount",
          "type": "uint256"
        },
        {
          "name": "vesting",
          "type": "uint32"
        }
      ],
      "payable": false,
      "stateMutability": "view",
      "type": "function"
    },
    {
      "constant": true,
      "inputs": [],
      "name": "serviceFee",
      "outputs": [
        {
          "name": "",
          "type": "uint256"
        }
      ],
      "payable": false,
      "stateMutability": "view",
      "type": "function"
    },
    {
      "constant": true,
      "inputs": [],
      "name": "owner",
      "outputs": [
        {
          "name": "",
          "type": "address"
        }
      ],
      "payable": false,
      "stateMutability": "view",
      "type": "function"
    },
    {
      "constant": true,
      "inputs": [],
      "name": "getFund",
      "outputs": [
        {
          "name": "",
          "type": "address"
        }
      ],
      "payable": false,
      "stateMutability": "view",
      "type": "function"
    },
    {
      "constant": true,
      "inputs": [],
      "name": "price",
      "outputs": [
        {
          "name": "",
          "type": "uint256"
        }
      ],
      "payable": false,
      "stateMutability": "view",
      "type": "function"
    },
    {
      "constant": true,
      "inputs": [],
      "name": "isEnded",
      "outputs": [
        {
          "name": "",
          "type": "bool"
        }
      ],
      "payable": false,
      "stateMutability": "view",
      "type": "function"
    },
    {
      "constant": true,
      "inputs": [],
      "name": "getEndDate",
      "outputs": [
        {
          "name": "",
          "type": "uint32"
        }
      ],
      "payable": false,
      "stateMutability": "view",
      "type": "function"
    },
    {
      "constant": true,
      "inputs": [],
      "name": "fund",
      "outputs": [
        {
          "name": "",
          "type": "address"
        }
      ],
      "payable": false,
      "stateMutability": "view",
      "type": "function"
    },
    {
      "constant": false,
      "inputs": [
        {
          "name": "stage",
          "type": "uint256"
        },
        {
          "name": "volumeBoundaries",
          "type": "uint256[]"
        },
        {
          "name": "volumeBonuses",
          "type": "uint256[]"
        }
      ],
      "name": "setStageVolumeBonuses",
      "outputs": [],
      "payable": false,
      "stateMutability": "nonpayable",
      "type": "function"
    },
    {
      "constant": false,
      "inputs": [],
      "name": "buyTokens",
      "outputs": [],
      "payable": true,
      "stateMutability": "payable",
      "type": "function"
    },
    {
      "constant": true,
      "inputs": [],
      "name": "getCurrentMilestoneIndex",
      "outputs": [
        {
          "name": "index",
          "type": "uint256"
        },
        {
          "name": "found",
          "type": "bool"
        }
      ],
      "payable": false,
      "stateMutability": "view",
      "type": "function"
    },
    {
      "constant": true,
      "inputs": [],
      "name": "getCurrentStageIndex",
      "outputs": [
        {
          "name": "index",
          "type": "uint256"
        },
        {
          "name": "found",
          "type": "bool"
        }
      ],
      "payable": false,
      "stateMutability": "view",
      "type": "function"
    },
    {
      "constant": false,
      "inputs": [
        {
          "name": "dates",
          "type": "uint32[]"
        },
        {
          "name": "tranchePercents",
          "type": "uint256[]"
        },
        {
          "name": "offsets",
          "type": "uint32[]"
        },
        {
          "name": "namesAndDescriptions",
          "type": "bytes"
        }
      ],
      "name": "setMilestones",
      "outputs": [],
      "payable": false,
      "stateMutability": "nonpayable",
      "type": "function"
    },
    {
      "constant": true,
      "inputs": [
        {
          "name": "",
          "type": "uint256"
        }
      ],
      "name": "milestones",
      "outputs": [
        {
          "name": "endDate",
          "type": "uint32"
        },
        {
          "name": "tranchePercent",
          "type": "uint256"
        },
        {
          "name": "voteEndDate",
          "type": "uint32"
        },
        {
          "name": "withdrawalWindow",
          "type": "uint32"
        },
        {
          "name": "name",
          "type": "bytes"
        },
        {
          "name": "description",
          "type": "bytes"
        }
      ],
      "payable": false,
      "stateMutability": "view",
      "type": "function"
    },
    {
      "constant": false,
      "inputs": [
        {
          "name": "_price",
          "type": "uint256"
        }
      ],
      "name": "setParameters",
      "outputs": [],
      "payable": false,
      "stateMutability": "nonpayable",
      "type": "function"
    },
    {
      "constant": true,
      "inputs": [
        {
          "name": "stageNumber",
          "type": "uint256"
        }
      ],
      "name": "getStageVolumeBoundaries",
      "outputs": [
        {
          "name": "",
          "type": "uint256[]"
        }
      ],
      "payable": false,
      "stateMutability": "view",
      "type": "function"
    },
    {
      "constant": false,
      "inputs": [
        {
          "name": "_newOwner",
          "type": "address"
        }
      ],
      "name": "transferOwnership",
      "outputs": [],
      "payable": false,
      "stateMutability": "nonpayable",
      "type": "function"
    },
    {
      "constant": true,
      "inputs": [],
      "name": "token",
      "outputs": [
        {
          "name": "",
          "type": "address"
        }
      ],
      "payable": false,
      "stateMutability": "view",
      "type": "function"
    },
    {
      "inputs": [
        {
          "name": "_originToken",
          "type": "address"
        },
        {
          "name": "_token",
          "type": "address"
        },
        {
          "name": "_price",
          "type": "uint256"
        },
        {
          "name": "_serviceWallet",
          "type": "address"
        },
        {
          "name": "_swap",
          "type": "address"
        },
        {
          "name": "_serviceFee",
          "type": "uint256"
        },
        {
          "name": "_WTokenSaleFeePercent",
          "type": "uint256"
        },
        {
          "name": "_fund",
          "type": "address"
        }
      ],
      "payable": false,
      "stateMutability": "nonpayable",
      "type": "constructor"
    },
    {
      "payable": true,
      "stateMutability": "payable",
      "type": "fallback"
    },
    {
      "anonymous": false,
      "inputs": [
        {
          "indexed": true,
          "name": "buyer",
          "type": "address"
        },
        {
          "indexed": false,
          "name": "amountPaid",
          "type": "uint256"
        },
        {
          "indexed": false,
          "name": "tokensBought",
          "type": "uint256"
        },
        {
          "indexed": false,
          "name": "change",
          "type": "uint256"
        }
      ],
      "name": "TokenPurchase",
      "type": "event"
    },
    {
      "anonymous": false,
      "inputs": [],
      "name": "StagesUpdated",
      "type": "event"
    },
    {
      "anonymous": false,
      "inputs": [
        {
          "indexed": false,
          "name": "index",
          "type": "uint256"
        }
      ],
      "name": "StageUpdated",
      "type": "event"
    },
    {
      "anonymous": false,
      "inputs": [],
      "name": "MilestonesUpdated",
      "type": "event"
    },
    {
      "anonymous": false,
      "inputs": [
        {
          "indexed": true,
          "name": "owner",
          "type": "address"
        },
        {
          "indexed": false,
          "name": "amount",
          "type": "uint256"
        }
      ],
      "name": "UnsoldTokenReturned",
      "type": "event"
    },
    {
      "anonymous": false,
      "inputs": [
        {
          "indexed": false,
          "name": "value",
          "type": "uint256"
        }
      ],
      "name": "debug",
      "type": "event"
    },
    {
      "anonymous": false,
      "inputs": [
        {
          "indexed": true,
          "name": "previousOwner",
          "type": "address"
        }
      ],
      "name": "OwnershipRenounced",
      "type": "event"
    },
    {
      "anonymous": false,
      "inputs": [
        {
          "indexed": true,
          "name": "previousOwner",
          "type": "address"
        },
        {
          "indexed": true,
          "name": "newOwner",
          "type": "address"
        }
      ],
      "name": "OwnershipTransferred",
      "type": "event"
    },
    {
      "constant": false,
      "inputs": [
        {
          "name": "to",
          "type": "address"
        },
        {
          "name": "amount",
          "type": "uint256"
        }
      ],
      "name": "_outTokens",
      "outputs": [
        {
          "name": "",
          "type": "bool"
        }
      ],
      "payable": false,
      "stateMutability": "nonpayable",
      "type": "function"
    },
    {
      "constant": false,
      "inputs": [
        {
          "name": "_WTokenSaleFeePercent",
          "type": "uint256"
        }
      ],
      "name": "_setState",
      "outputs": [],
      "payable": false,
      "stateMutability": "nonpayable",
      "type": "function"
    }
  ],
  "bytecode": "0x6080604052600180553480156200001557600080fd5b50604051610100806200500e83398101806040528101908080519060200190929190805190602001909291908051906020019092919080519060200190929190805190602001909291908051906020019092919080519060200190929190805190602001909291905050508787878787878787336000806101000a81548173ffffffffffffffffffffffffffffffffffffffff021916908373ffffffffffffffffffffffffffffffffffffffff160217905550600073ffffffffffffffffffffffffffffffffffffffff168773ffffffffffffffffffffffffffffffffffffffff16141515156200010557600080fd5b62000124836200036e640100000000026200435c176401000000009004565b80156200014f575060646200014d84620003b86401000000000262004383176401000000009004565b105b15156200015b57600080fd5b6200017a826200036e640100000000026200435c176401000000009004565b8015620001a557506064620001a383620003b86401000000000262004383176401000000009004565b105b1515620001b157600080fd5b600073ffffffffffffffffffffffffffffffffffffffff168173ffffffffffffffffffffffffffffffffffffffff1614151515620001ee57600080fd5b600073ffffffffffffffffffffffffffffffffffffffff168473ffffffffffffffffffffffffffffffffffffffff16141515156200022b57600080fd5b86600260006101000a81548173ffffffffffffffffffffffffffffffffffffffff021916908373ffffffffffffffffffffffffffffffffffffffff16021790555087600360006101000a81548173ffffffffffffffffffffffffffffffffffffffff021916908373ffffffffffffffffffffffffffffffffffffffff160217905550620002c8868662000425640100000000026401000000009004565b8260058190555083600860006101000a81548173ffffffffffffffffffffffffffffffffffffffff021916908373ffffffffffffffffffffffffffffffffffffffff1602179055508160068190555080600960006101000a81548173ffffffffffffffffffffffffffffffffffffffff021916908373ffffffffffffffffffffffffffffffffffffffff1602179055505050505050505050505050505050505062000541565b600062000389620004be640100000000026401000000009004565b8210158015620003b15750620003ad620004c6640100000000026401000000009004565b8211155b9050919050565b6000620003d4826200036e640100000000026401000000009004565b1515620003e057600080fd5b6200041e620003fd620004e9640100000000026401000000009004565b600a0a83620004f26401000000000262004619179091906401000000009004565b9050919050565b6000821115156200043557600080fd5b600073ffffffffffffffffffffffffffffffffffffffff168173ffffffffffffffffffffffffffffffffffffffff16141515156200047257600080fd5b8160048190555080600760006101000a81548173ffffffffffffffffffffffffffffffffffffffff021916908373ffffffffffffffffffffffffffffffffffffffff1602179055505050565b600080905090565b6000620004e16200051e640100000000026401000000009004565b600a0a905090565b60006002905090565b6000806000831115156200050557600080fd5b82848115156200051157fe5b0490508091505092915050565b600062000539620004e9640100000000026401000000009004565b600201905090565b614abd80620005516000396000f3006080604052600436106101cd576000357c0100000000000000000000000000000000000000000000000000000000900463ffffffff1680630ee62c77146101d757806313096a411461025957806314f66d34146102b05780631aecc19f146102e6578063208853c91461034b5780632442e1cb1461038c5780632e325020146104de5780632fbe5990146105e8578063313602d4146106135780633baba4d71461062a5780634090cb64146106555780634b9b5fab146106ac5780635641f3c314610717578063564566a81461076e578063715018a61461079d57806372e6a881146107b4578063792c02ea146108015780638119c0651461082c578063845ddcb2146108835780638abdf5aa146108fd5780638da5cb5b146109285780638edd6eb61461097f578063a035b1fe146109d6578063a4fd6f5614610a01578063b135648814610a30578063b60d428814610a67578063ca7348a314610abe578063ce48bf2214610aeb578063d0febe4c14610b48578063d6d65f3d14610b52578063daa4cf8814610b88578063dda71ebe14610bbe578063e89e4ed614610c41578063e93b054014610d93578063f12585f514610dc0578063f2fde38b14610e42578063fc0c546a14610e85575b6101d5610edc565b005b3480156101e357600080fd5b5061020260048036038101908080359060200190929190505050611648565b6040518080602001828103825283818151815260200191508051906020019060200280838360005b8381101561024557808201518184015260208101905061022a565b505050509050019250505060405180910390f35b34801561026557600080fd5b5061026e6116c0565b604051808273ffffffffffffffffffffffffffffffffffffffff1673ffffffffffffffffffffffffffffffffffffffff16815260200191505060405180910390f35b3480156102bc57600080fd5b506102c56116e6565b60405180838152602001821515151581526020019250505060405180910390f35b3480156102f257600080fd5b50610331600480360381019080803573ffffffffffffffffffffffffffffffffffffffff16906020019092919080359060200190929190505050611721565b604051808215151515815260200191505060405180910390f35b34801561035757600080fd5b506103766004803603810190808035906020019092919050505061182b565b6040518082815260200191505060405180910390f35b34801561039857600080fd5b506103b7600480360381019080803590602001909291905050506118e5565b604051808763ffffffff1663ffffffff1681526020018681526020018563ffffffff1663ffffffff1681526020018463ffffffff1663ffffffff1681526020018060200180602001838103835285818151815260200191508051906020019080838360005b8381101561043757808201518184015260208101905061041c565b50505050905090810190601f1680156104645780820380516001836020036101000a031916815260200191505b50838103825284818151815260200191508051906020019080838360005b8381101561049d578082015181840152602081019050610482565b50505050905090810190601f1680156104ca5780820380516001836020036101000a031916815260200191505b509850505050505050505060405180910390f35b3480156104ea57600080fd5b5061050960048036038101908080359060200190929190505050611b2f565b604051808763ffffffff1663ffffffff1681526020018663ffffffff1663ffffffff1681526020018581526020018463ffffffff1663ffffffff1681526020018060200180602001838103835285818151815260200191508051906020019060200280838360005b8381101561058c578082015181840152602081019050610571565b50505050905001838103825284818151815260200191508051906020019060200280838360005b838110156105ce5780820151818401526020810190506105b3565b505050509050019850505050505050505060405180910390f35b3480156105f457600080fd5b506105fd611ce5565b6040518082815260200191505060405180910390f35b34801561061f57600080fd5b50610628611ceb565b005b34801561063657600080fd5b5061063f611ff3565b6040518082815260200191505060405180910390f35b34801561066157600080fd5b5061066a612000565b604051808273ffffffffffffffffffffffffffffffffffffffff1673ffffffffffffffffffffffffffffffffffffffff16815260200191505060405180910390f35b3480156106b857600080fd5b5061071560048036038101908080359060200190820180359060200191909192939192939080359060200190820180359060200191909192939192939080359060200190820180359060200191909192939192939050505061202a565b005b34801561072357600080fd5b5061072c612832565b604051808273ffffffffffffffffffffffffffffffffffffffff1673ffffffffffffffffffffffffffffffffffffffff16815260200191505060405180910390f35b34801561077a57600080fd5b50610783612858565b604051808215151515815260200191505060405180910390f35b3480156107a957600080fd5b506107b261286d565b005b3480156107c057600080fd5b506107df6004803603810190808035906020019092919050505061296f565b604051808263ffffffff1663ffffffff16815260200191505060405180910390f35b34801561080d57600080fd5b506108166129a8565b6040518082815260200191505060405180910390f35b34801561083857600080fd5b506108416129b5565b604051808273ffffffffffffffffffffffffffffffffffffffff1673ffffffffffffffffffffffffffffffffffffffff16815260200191505060405180910390f35b34801561088f57600080fd5b506108ae600480360381019080803590602001909291905050506129db565b604051808563ffffffff1663ffffffff1681526020018463ffffffff1663ffffffff1681526020018381526020018263ffffffff1663ffffffff16815260200194505050505060405180910390f35b34801561090957600080fd5b50610912612a4a565b6040518082815260200191505060405180910390f35b34801561093457600080fd5b5061093d612a50565b604051808273ffffffffffffffffffffffffffffffffffffffff1673ffffffffffffffffffffffffffffffffffffffff16815260200191505060405180910390f35b34801561098b57600080fd5b50610994612a75565b604051808273ffffffffffffffffffffffffffffffffffffffff1673ffffffffffffffffffffffffffffffffffffffff16815260200191505060405180910390f35b3480156109e257600080fd5b506109eb612a9f565b6040518082815260200191505060405180910390f35b348015610a0d57600080fd5b50610a16612aa5565b604051808215151515815260200191505060405180910390f35b348015610a3c57600080fd5b50610a45612afc565b604051808263ffffffff1663ffffffff16815260200191505060405180910390f35b348015610a7357600080fd5b50610a7c612b4f565b604051808273ffffffffffffffffffffffffffffffffffffffff1673ffffffffffffffffffffffffffffffffffffffff16815260200191505060405180910390f35b348015610aca57600080fd5b50610ae960048036038101908080359060200190929190505050612b75565b005b348015610af757600080fd5b50610b4660048036038101908080359060200190929190803590602001908201803590602001919091929391929390803590602001908201803590602001919091929391929390505050612b7f565b005b610b50610edc565b005b348015610b5e57600080fd5b50610b67612f1c565b60405180838152602001821515151581526020019250505060405180910390f35b348015610b9457600080fd5b50610b9d612fb9565b60405180838152602001821515151581526020019250505060405180910390f35b348015610bca57600080fd5b50610c3f600480360381019080803590602001908201803590602001919091929391929390803590602001908201803590602001919091929391929390803590602001908201803590602001919091929391929390803590602001908201803590602001919091929391929390505050613062565b005b348015610c4d57600080fd5b50610c6c60048036038101908080359060200190929190505050613a5d565b604051808763ffffffff1663ffffffff1681526020018681526020018563ffffffff1663ffffffff1681526020018463ffffffff1663ffffffff1681526020018060200180602001838103835285818151815260200191508051906020019080838360005b83811015610cec578082015181840152602081019050610cd1565b50505050905090810190601f168015610d195780820380516001836020036101000a031916815260200191505b50838103825284818151815260200191508051906020019080838360005b83811015610d52578082015181840152602081019050610d37565b50505050905090810190601f168015610d7f5780820380516001836020036101000a031916815260200191505b509850505050505050505060405180910390f35b348015610d9f57600080fd5b50610dbe60048036038101908080359060200190929190505050613c08565b005b348015610dcc57600080fd5b50610deb60048036038101908080359060200190929190505050613ce6565b6040518080602001828103825283818151815260200191508051906020019060200280838360005b83811015610e2e578082015181840152602081019050610e13565b505050509050019250505060405180910390f35b348015610e4e57600080fd5b50610e83600480360381019080803573ffffffffffffffffffffffffffffffffffffffff169060200190929190505050613d5e565b005b348015610e9157600080fd5b50610e9a613dc5565b604051808273ffffffffffffffffffffffffffffffffffffffff1673ffffffffffffffffffffffffffffffffffffffff16815260200191505060405180910390f35b6000806000806000806000806000600180600082825401925050819055506001549050610f07612858565b1515610f7b576040517f08c379a00000000000000000000000000000000000000000000000000000000081526004018080602001828103825260178152602001807f53616c65206973206e6f7420737461727465642079657400000000000000000081525060200191505060405180910390fd5b600034111515610f8a57600080fd5b610f92612fb9565b509850600a89815481101515610fa457fe5b9060005260206000209060050201600101549750600a89815481101515610fc757fe5b906000526020600020906005020160020160009054906101000a900463ffffffff169650610ff43461182b565b9550611001348988613deb565b50945094509450600060065411156112db576110286006548661431290919063ffffffff16565b9150600360009054906101000a900473ffffffffffffffffffffffffffffffffffffffff1673ffffffffffffffffffffffffffffffffffffffff166323b872dd600860009054906101000a900473ffffffffffffffffffffffffffffffffffffffff16600760009054906101000a900473ffffffffffffffffffffffffffffffffffffffff16856040518463ffffffff167c0100000000000000000000000000000000000000000000000000000000028152600401808473ffffffffffffffffffffffffffffffffffffffff1673ffffffffffffffffffffffffffffffffffffffff1681526020018373ffffffffffffffffffffffffffffffffffffffff1673ffffffffffffffffffffffffffffffffffffffff1681526020018281526020019350505050602060405180830381600087803b15801561116757600080fd5b505af115801561117b573d6000803e3d6000fd5b505050506040513d602081101561119157600080fd5b810190808051906020019092919050505015156111ad57600080fd5b600260009054906101000a900473ffffffffffffffffffffffffffffffffffffffff1673ffffffffffffffffffffffffffffffffffffffff1663a9059cbb600860009054906101000a900473ffffffffffffffffffffffffffffffffffffffff16846040518363ffffffff167c0100000000000000000000000000000000000000000000000000000000028152600401808373ffffffffffffffffffffffffffffffffffffffff1673ffffffffffffffffffffffffffffffffffffffff16815260200182815260200192505050602060405180830381600087803b15801561129457600080fd5b505af11580156112a8573d6000803e3d6000fd5b505050506040513d60208110156112be57600080fd5b810190808051906020019092919050505015156112da57600080fd5b5b600260009054906101000a900473ffffffffffffffffffffffffffffffffffffffff1673ffffffffffffffffffffffffffffffffffffffff16639d2e477733878a6040518463ffffffff167c0100000000000000000000000000000000000000000000000000000000028152600401808473ffffffffffffffffffffffffffffffffffffffff1673ffffffffffffffffffffffffffffffffffffffff1681526020018381526020018263ffffffff1663ffffffff1681526020019350505050602060405180830381600087803b1580156113b457600080fd5b505af11580156113c8573d6000803e3d6000fd5b505050506040513d60208110156113de57600080fd5b810190808051906020019092919050505015156113fa57600080fd5b600083111561144b573373ffffffffffffffffffffffffffffffffffffffff166108fc849081150290604051600060405180830381858888f19350505050158015611449573d6000803e3d6000fd5b505b600060055411156114d457600760009054906101000a900473ffffffffffffffffffffffffffffffffffffffff1673ffffffffffffffffffffffffffffffffffffffff166108fc6114a76005548761431290919063ffffffff16565b9081150290604051600060405180830381858888f193505050501580156114d2573d6000803e3d6000fd5b505b600960009054906101000a900473ffffffffffffffffffffffffffffffffffffffff1673ffffffffffffffffffffffffffffffffffffffff1663958799cb3073ffffffffffffffffffffffffffffffffffffffff1631620186a09033896040518563ffffffff167c0100000000000000000000000000000000000000000000000000000000028152600401808373ffffffffffffffffffffffffffffffffffffffff1673ffffffffffffffffffffffffffffffffffffffff168152602001828152602001925050506000604051808303818589803b1580156115b557600080fd5b5088f11580156115c9573d6000803e3d6000fd5b5050505050503373ffffffffffffffffffffffffffffffffffffffff167f347f5f0051b895093800553e6e78ef332849e2552639a4f5ffe66535788ae07885878660405180848152602001838152602001828152602001935050505060405180910390a26001548114151561163d57600080fd5b505050505050505050565b6060600a8281548110151561165957fe5b90600052602060002090600502016004018054806020026020016040519081016040528092919081815260200182805480156116b457602002820191906000526020600020905b8154815260200190600101908083116116a0575b50505050509050919050565b600360009054906101000a900473ffffffffffffffffffffffffffffffffffffffff1681565b6000806000600b80549050905060008114806117075750611705612aa5565b155b156117115761171c565b600191506001810392505b509091565b6000600260009054906101000a900473ffffffffffffffffffffffffffffffffffffffff1673ffffffffffffffffffffffffffffffffffffffff1663a9059cbb84846040518363ffffffff167c0100000000000000000000000000000000000000000000000000000000028152600401808373ffffffffffffffffffffffffffffffffffffffff1673ffffffffffffffffffffffffffffffffffffffff16815260200182815260200192505050602060405180830381600087803b1580156117e857600080fd5b505af11580156117fc573d6000803e3d6000fd5b505050506040513d602081101561181257600080fd5b8101908080519060200190929190505050905092915050565b600080600080600061183b612fb9565b9350935082151561184f57600094506118dc565b600a8481548110151561185e57fe5b90600052602060002090600502019150600090505b81600301805490508110156118db57816003018181548110151561189357fe5b9060005260206000200154861015156118c95781600401818154811015156118b757fe5b906000526020600020015494506118ce565b6118db565b8080600101915050611873565b5b50505050919050565b600080600080606080600b878154811015156118fd57fe5b906000526020600020906005020160000160009054906101000a900463ffffffff16600b8881548110151561192e57fe5b906000526020600020906005020160010154600b8981548110151561194f57fe5b906000526020600020906005020160020160009054906101000a900463ffffffff16600b8a81548110151561198057fe5b906000526020600020906005020160020160049054906101000a900463ffffffff16600b8b8154811015156119b157fe5b9060005260206000209060050201600301600b8c8154811015156119d157fe5b9060005260206000209060050201600401818054600181600116156101000203166002900480601f016020809104026020016040519081016040528092919081815260200182805460018160011615610100020316600290048015611a775780601f10611a4c57610100808354040283529160200191611a77565b820191906000526020600020905b815481529060010190602001808311611a5a57829003601f168201915b50505050509150808054600181600116156101000203166002900480601f016020809104026020016040519081016040528092919081815260200182805460018160011615610100020316600290048015611b135780601f10611ae857610100808354040283529160200191611b13565b820191906000526020600020905b815481529060010190602001808311611af657829003601f168201915b5050505050905095509550955095509550955091939550919395565b600080600080606080600a87815481101515611b4757fe5b906000526020600020906005020160000160009054906101000a900463ffffffff16600a88815481101515611b7857fe5b906000526020600020906005020160000160049054906101000a900463ffffffff16600a89815481101515611ba957fe5b906000526020600020906005020160010154600a8a815481101515611bca57fe5b906000526020600020906005020160020160009054906101000a900463ffffffff16600a8b815481101515611bfb57fe5b9060005260206000209060050201600301600a8c815481101515611c1b57fe5b906000526020600020906005020160040181805480602002602001604051908101604052809291908181526020018280548015611c7757602002820191906000526020600020905b815481526020019060010190808311611c63575b5050505050915080805480602002602001604051908101604052809291908181526020018280548015611cc957602002820191906000526020600020905b815481526020019060010190808311611cb5575b5050505050905095509550955095509550955091939550919395565b60065481565b60008060009054906101000a900473ffffffffffffffffffffffffffffffffffffffff1673ffffffffffffffffffffffffffffffffffffffff163373ffffffffffffffffffffffffffffffffffffffff16141515611d4857600080fd5b611d50612aa5565b1515611d5b57600080fd5b600260009054906101000a900473ffffffffffffffffffffffffffffffffffffffff1673ffffffffffffffffffffffffffffffffffffffff166370a08231306040518263ffffffff167c0100000000000000000000000000000000000000000000000000000000028152600401808273ffffffffffffffffffffffffffffffffffffffff1673ffffffffffffffffffffffffffffffffffffffff168152602001915050602060405180830381600087803b158015611e1857600080fd5b505af1158015611e2c573d6000803e3d6000fd5b505050506040513d6020811015611e4257600080fd5b81019080805190602001909291905050509050600260009054906101000a900473ffffffffffffffffffffffffffffffffffffffff1673ffffffffffffffffffffffffffffffffffffffff1663a9059cbb6000809054906101000a900473ffffffffffffffffffffffffffffffffffffffff16836040518363ffffffff167c0100000000000000000000000000000000000000000000000000000000028152600401808373ffffffffffffffffffffffffffffffffffffffff1673ffffffffffffffffffffffffffffffffffffffff16815260200182815260200192505050602060405180830381600087803b158015611f3b57600080fd5b505af1158015611f4f573d6000803e3d6000fd5b505050506040513d6020811015611f6557600080fd5b81019080805190602001909291905050501515611f8157600080fd5b6000809054906101000a900473ffffffffffffffffffffffffffffffffffffffff1673ffffffffffffffffffffffffffffffffffffffff167f26ffb867a6b19bc0240d4e732ed6cfb0f0b6d93143a99cfb24ba5873308861f8826040518082815260200191505060405180910390a250565b6000600b80549050905090565b6000600260009054906101000a900473ffffffffffffffffffffffffffffffffffffffff16905090565b6000806000809054906101000a900473ffffffffffffffffffffffffffffffffffffffff1673ffffffffffffffffffffffffffffffffffffffff163373ffffffffffffffffffffffffffffffffffffffff1614151561208857600080fd5b6000600a8054905011156120dc5742600a60008154811015156120a757fe5b906000526020600020906005020160000160009054906101000a900463ffffffff1663ffffffff161115156120db57600080fd5b5b7fffffffffffffffffffffffffffffffffffffffffffffffffffffffffffffffff60ff16888890501115151561211157600080fd5b60008888905011151561212357600080fd5b858590508888905014151561213757600080fd5b838390508888905014151561214b57600080fd5b6000600b80549050111561226657878760018a8a905003818110151561216d57fe5b905060400201600160028110151561218157fe5b602002013563ffffffff1663ffffffff16600b60008154811015156121a257fe5b906000526020600020906005020160000160009054906101000a900463ffffffff1663ffffffff16111515612265576040517f08c379a000000000000000000000000000000000000000000000000000000000815260040180806020018281038252603c8152602001807f4c61737420737461676520656e6444617465206d757374206265206c6573732081526020017f7468616e206669727374206d696c6573746f6e6520656e64446174650000000081525060400191505060405180910390fd5b5b878790509150600a600061227a9190614678565b600090505b8160ff168160ff1610156127fc576122ad86868360ff1681811015156122a157fe5b9050602002013561435c565b80156122d8575060646122d687878460ff1681811015156122ca57fe5b90506020020135614383565b105b1515612372576040517f08c379a00000000000000000000000000000000000000000000000000000000081526004018080602001828103825260318152602001807f537461676520646973636f756e74206973206e6f7420696e20616c6c6f77656481526020017f2072616e6765205b302c2039392e39392900000000000000000000000000000081525060400191505060405180910390fd5b4288888360ff16818110151561238457fe5b905060400201600060028110151561239857fe5b602002013563ffffffff1663ffffffff161115156123b557600080fd5b87878260ff1681811015156123c657fe5b90506040020160016002811015156123da57fe5b602002013563ffffffff1663ffffffff1688888360ff1681811015156123fc57fe5b905060400201600060028110151561241057fe5b602002013563ffffffff1663ffffffff161015156124bc576040517f08c379a00000000000000000000000000000000000000000000000000000000081526004018080602001828103825260248152602001807f53746167652073746172742064617465206d75737420626520677420656e642081526020017f646174650000000000000000000000000000000000000000000000000000000081525060400191505060405180910390fd5b60008160ff1611156125d45787878260ff1681811015156124d957fe5b90506040020160006002811015156124ed57fe5b602002013563ffffffff1663ffffffff1688886001840360ff16818110151561251257fe5b905060400201600160028110151561252657fe5b602002013563ffffffff1663ffffffff16111515156125d3576040517f08c379a00000000000000000000000000000000000000000000000000000000081526004018080602001828103825260228152602001807f53746167657320617265206e6f7420696e20686973746f726963616c206f726481526020017f657200000000000000000000000000000000000000000000000000000000000081525060400191505060405180910390fd5b5b600a60c0604051908101604052808a8a8560ff1681811015156125f357fe5b905060400201600060028110151561260757fe5b602002013563ffffffff1663ffffffff1681526020018a8a8560ff16818110151561262e57fe5b905060400201600160028110151561264257fe5b602002013563ffffffff1663ffffffff16815260200188888560ff16818110151561266957fe5b90506020020135815260200186868560ff16818110151561268657fe5b9050602002013563ffffffff1663ffffffff16815260200160006040519080825280602002602001820160405280156126ce5781602001602082028038833980820191505090505b50815260200160006040519080825280602002602001820160405280156127045781602001602082028038833980820191505090505b508152509080600181540180825580915050906001820390600052602060002090600502016000909192909190915060008201518160000160006101000a81548163ffffffff021916908363ffffffff16021790555060208201518160000160046101000a81548163ffffffff021916908363ffffffff1602179055506040820151816001015560608201518160020160006101000a81548163ffffffff021916908363ffffffff16021790555060808201518160030190805190602001906127ce92919061469c565b5060a08201518160040190805190602001906127eb92919061469c565b50505050808060010191505061227f565b7f743961f4e677d1146fbf85d75565b1c5474fd083eb166f8b9595cf5d01a4d6e660405160405180910390a15050505050505050565b600760009054906101000a900473ffffffffffffffffffffffffffffffffffffffff1681565b600080612863612fb9565b9150508091505090565b6000809054906101000a900473ffffffffffffffffffffffffffffffffffffffff1673ffffffffffffffffffffffffffffffffffffffff163373ffffffffffffffffffffffffffffffffffffffff161415156128c857600080fd5b6000809054906101000a900473ffffffffffffffffffffffffffffffffffffffff1673ffffffffffffffffffffffffffffffffffffffff167ff8df31144d9c2f0f6b59d69b8b98abd5459d07f2742c4df920b25aae33c6482060405160405180910390a260008060006101000a81548173ffffffffffffffffffffffffffffffffffffffff021916908373ffffffffffffffffffffffffffffffffffffffff160217905550565b600c8181548110151561297e57fe5b9060005260206000209060089182820401919006600402915054906101000a900463ffffffff1681565b6000600a80549050905090565b600860009054906101000a900473ffffffffffffffffffffffffffffffffffffffff1681565b600a818154811015156129ea57fe5b90600052602060002090600502016000915090508060000160009054906101000a900463ffffffff16908060000160049054906101000a900463ffffffff16908060010154908060020160009054906101000a900463ffffffff16905084565b60055481565b6000809054906101000a900473ffffffffffffffffffffffffffffffffffffffff1681565b6000600960009054906101000a900473ffffffffffffffffffffffffffffffffffffffff16905090565b60045481565b600080600a805490501480612af7575042600a6001600a8054905003815481101515612acd57fe5b906000526020600020906005020160000160049054906101000a900463ffffffff1663ffffffff16105b905090565b600080600a80549050111515612b1157600080fd5b600a6001600a8054905003815481101515612b2857fe5b906000526020600020906005020160000160049054906101000a900463ffffffff16905090565b600960009054906101000a900473ffffffffffffffffffffffffffffffffffffffff1681565b8060068190555050565b60008060009054906101000a900473ffffffffffffffffffffffffffffffffffffffff1673ffffffffffffffffffffffffffffffffffffffff163373ffffffffffffffffffffffffffffffffffffffff16141515612bdc57600080fd5b6000600a805490501115612c305742600a6000815481101515612bfb57fe5b906000526020600020906005020160000160009054906101000a900463ffffffff1663ffffffff16111515612c2f57600080fd5b5b8282905085859050141515612c4457600080fd5b600a8054905086101515612c5757600080fd5b600090505b84849050811015612e2557612c848383838181101515612c7857fe5b9050602002013561435c565b8015612cac57506064612caa8484848181101515612c9e57fe5b90506020020135614383565b105b1515612d46576040517f08c379a00000000000000000000000000000000000000000000000000000000081526004018080602001828103825260308152602001807f426f6e75732070657263656e74206973206e6f7420696e20616c6c6f7765642081526020017f72616e6765205b302c2039392e3939290000000000000000000000000000000081525060400191505060405180910390fd5b6000811115612e18578484828181101515612d5d57fe5b905060200201358585600184038181101515612d7557fe5b90506020020135101515612e17576040517f08c379a000000000000000000000000000000000000000000000000000000000815260040180806020018281038252602c8152602001807f566f6c756d6520626f756e646172696573206d75737420626520696e2061736381526020017f656e64696e67206f72646572000000000000000000000000000000000000000081525060400191505060405180910390fd5b5b8080600101915050612c5c565b600a86815481101515612e3457fe5b90600052602060002090600502016003016000612e5191906146e9565b600a86815481101515612e6057fe5b90600052602060002090600502016004016000612e7d91906146e9565b8484600a88815481101515612e8e57fe5b90600052602060002090600502016003019190612eac92919061470a565b508282600a88815481101515612ebe57fe5b90600052602060002090600502016004019190612edc92919061470a565b507f34cf54504fd39ab670a54acbb37f686c5bd25e6eedfa39889cba899d360bc7d9866040518082815260200191505060405180910390a1505050505050565b6000806000600b8054905090506000811480612f3d5750612f3b612aa5565b155b15612f4757612fb4565b600191505b6001810383108015612fa15750600c60016003600186010203815481101515612f7157fe5b90600052602060002090600891828204019190066004029054906101000a900463ffffffff1663ffffffff164210155b15612fb3578280600101935050612f4c565b5b509091565b600080600080600091505b600a8054905082101561305157600a82815481101515612fe057fe5b90600052602060002090600502019050428160000160009054906101000a900463ffffffff1663ffffffff16111580156130335750428160000160049054906101000a900463ffffffff1663ffffffff16115b15613044578160019350935061305c565b8180600101925050612fc4565b600080819150935093505b50509091565b60008060006060806000809054906101000a900473ffffffffffffffffffffffffffffffffffffffff1673ffffffffffffffffffffffffffffffffffffffff163373ffffffffffffffffffffffffffffffffffffffff161415156130c557600080fd5b6000600a8054905011156131195742600a60008154811015156130e457fe5b906000526020600020906005020160000160009054906101000a900463ffffffff1663ffffffff1611151561311857600080fd5b5b7fffffffffffffffffffffffffffffffffffffffffffffffffffffffffffffffff60ff168d8d90501115151561314e57600080fd5b60038d8d90501015151561316157600080fd5b600060038e8e905081151561317257fe5b0614151561317f57600080fd5b8888905061319a60028d8d90506143bd90919063ffffffff16565b1415156131a657600080fd5b8c8c90506131c160038d8d90506143bd90919063ffffffff16565b1415156131cd57600080fd5b60028b8b90500287879050101515156131e557600080fd5b6000600a8054905011156132f0578c8c6000818110151561320257fe5b9050602002013563ffffffff1663ffffffff16600a6001600a805490500381548110151561322c57fe5b906000526020600020906005020160000160049054906101000a900463ffffffff1663ffffffff161015156132ef576040517f08c379a000000000000000000000000000000000000000000000000000000000815260040180806020018281038252603f8152602001807f4669727374206d696c6573746f6e6520656e6444617465206d7573742062652081526020017f67726561746572207468616e206c61737420737461676520656e64446174650081525060400191505060405180910390fd5b5b600b60006132fe9190614757565b600c600061330c919061477b565b8c8c600c919061331d9291906147a3565b506000945060009350600092505b8c8c905060ff168360ff16101561397a576133b8858a8a600260038860ff1681151561335357fe5b040260ff16818110151561336357fe5b9050602002013563ffffffff1663ffffffff1689898080601f0160208091040260200160405190810160405280939291908181526020018383808284378201915050505050506143fb9092919063ffffffff16565b91506134708989600260038760ff168115156133d057fe5b040260ff1681811015156133e057fe5b9050602002013563ffffffff1663ffffffff1686018a8a6001600260038960ff1681151561340a57fe5b04020160ff16818110151561341b57fe5b9050602002013563ffffffff1663ffffffff1689898080601f0160208091040260200160405190810160405280939291908181526020018383808284378201915050505050506143fb9092919063ffffffff16565b9050428d8d8560ff16818110151561348457fe5b9050602002013563ffffffff1663ffffffff161115156134a357600080fd5b8c8c8460ff1681811015156134b457fe5b9050602002013563ffffffff1663ffffffff168d8d6001860160ff1681811015156134db57fe5b9050602002013563ffffffff1663ffffffff161115156134fa57600080fd5b8c8c6001850160ff16818110151561350e57fe5b9050602002013563ffffffff1663ffffffff168d8d6002860160ff16818110151561353557fe5b9050602002013563ffffffff1663ffffffff1611151561355457600080fd5b6000825111151561356457600080fd5b6000815111151561357457600080fd5b6135a38b8b60038660ff1681151561358857fe5b0460ff16818110151561359757fe5b9050602002013561435c565b151561363d576040517f08c379a00000000000000000000000000000000000000000000000000000000081526004018080602001828103825260308152602001807f5472616e6368652070657263656e74206973206e6f7420696e20616c6c6f776581526020017f642072616e6765205b302c20313030290000000000000000000000000000000081525060400191505060405180910390fd5b60008360ff161115613730578c8c8460ff16818110151561365a57fe5b9050602002013563ffffffff1663ffffffff168d8d6001860360ff16818110151561368157fe5b9050602002013563ffffffff1663ffffffff1610151561372f576040517f08c379a00000000000000000000000000000000000000000000000000000000081526004018080602001828103825260298152602001807f4d696c6573746f6e65206461746573206973206e6f7420696e20617363656e6481526020017f696e67206f72646572000000000000000000000000000000000000000000000081525060400191505060405180910390fd5b5b600b60c0604051908101604052808f8f8760ff16818110151561374f57fe5b9050602002013563ffffffff1663ffffffff1681526020018d8d60038860ff1681151561377857fe5b0460ff16818110151561378757fe5b9050602002013581526020018f8f6001880160ff1681811015156137a757fe5b9050602002013563ffffffff1663ffffffff1681526020018f8f6002880160ff1681811015156137d357fe5b9050602002013563ffffffff1663ffffffff168152602001848152602001838152509080600181540180825580915050906001820390600052602060002090600502016000909192909190915060008201518160000160006101000a81548163ffffffff021916908363ffffffff1602179055506020820151816001015560408201518160020160006101000a81548163ffffffff021916908363ffffffff16021790555060608201518160020160046101000a81548163ffffffff021916908363ffffffff16021790555060808201518160030190805190602001906138bb929190614859565b5060a08201518160040190805190602001906138d8929190614859565b505050508888600160038660ff168115156138ef57fe5b040160ff1681811015156138ff57fe5b9050602002013563ffffffff16898960038660ff1681151561391d57fe5b0460ff16818110151561392c57fe5b9050602002013563ffffffff160163ffffffff16850194508a8a60038560ff1681151561395557fe5b0460ff16818110151561396457fe5b905060200201358401935060038301925061332b565b73__Percent_______________________________63d49d51816040518163ffffffff167c010000000000000000000000000000000000000000000000000000000002815260040160206040518083038186803b1580156139da57600080fd5b505af41580156139ee573d6000803e3d6000fd5b505050506040513d6020811015613a0457600080fd5b810190808051906020019092919050505084141515613a2257600080fd5b7f56d9a2e016027a3725bf162ef2779c8b28d4dbec97c679cfba02dbb31a34c7ca60405160405180910390a150505050505050505050505050565b600b81815481101515613a6c57fe5b90600052602060002090600502016000915090508060000160009054906101000a900463ffffffff16908060010154908060020160009054906101000a900463ffffffff16908060020160049054906101000a900463ffffffff1690806003018054600181600116156101000203166002900480601f016020809104026020016040519081016040528092919081815260200182805460018160011615610100020316600290048015613b605780601f10613b3557610100808354040283529160200191613b60565b820191906000526020600020905b815481529060010190602001808311613b4357829003601f168201915b505050505090806004018054600181600116156101000203166002900480601f016020809104026020016040519081016040528092919081815260200182805460018160011615610100020316600290048015613bfe5780601f10613bd357610100808354040283529160200191613bfe565b820191906000526020600020905b815481529060010190602001808311613be157829003601f168201915b5050505050905086565b6000809054906101000a900473ffffffffffffffffffffffffffffffffffffffff1673ffffffffffffffffffffffffffffffffffffffff163373ffffffffffffffffffffffffffffffffffffffff16141515613c6357600080fd5b6000600a805490501115613cb75742600a6000815481101515613c8257fe5b906000526020600020906005020160000160009054906101000a900463ffffffff1663ffffffff16111515613cb657600080fd5b5b613ce381600760009054906101000a900473ffffffffffffffffffffffffffffffffffffffff16614488565b50565b6060600a82815481101515613cf757fe5b9060005260206000209060050201600301805480602002602001604051908101604052809291908181526020018280548015613d5257602002820191906000526020600020905b815481526020019060010190808311613d3e575b50505050509050919050565b6000809054906101000a900473ffffffffffffffffffffffffffffffffffffffff1673ffffffffffffffffffffffffffffffffffffffff163373ffffffffffffffffffffffffffffffffffffffff16141515613db957600080fd5b613dc28161451f565b50565b600260009054906101000a900473ffffffffffffffffffffffffffffffffffffffff1681565b6000806000806000879350600260009054906101000a900473ffffffffffffffffffffffffffffffffffffffff1673ffffffffffffffffffffffffffffffffffffffff166370a08231306040518263ffffffff167c0100000000000000000000000000000000000000000000000000000000028152600401808273ffffffffffffffffffffffffffffffffffffffff1673ffffffffffffffffffffffffffffffffffffffff168152602001915050602060405180830381600087803b158015613eb357600080fd5b505af1158015613ec7573d6000803e3d6000fd5b505050506040513d6020811015613edd57600080fd5b81019080805190602001909291905050509050600260009054906101000a900473ffffffffffffffffffffffffffffffffffffffff1673ffffffffffffffffffffffffffffffffffffffff1663313ce5676040518163ffffffff167c0100000000000000000000000000000000000000000000000000000000028152600401602060405180830381600087803b158015613f7657600080fd5b505af1158015613f8a573d6000803e3d6000fd5b505050506040513d6020811015613fa057600080fd5b810190808051906020019092919050505060ff16600a0a8110151515613fc557600080fd5b60008711613fd557600454614087565b6140868773__Percent_______________________________63d49d51816040518163ffffffff167c010000000000000000000000000000000000000000000000000000000002815260040160206040518083038186803b15801561403957600080fd5b505af415801561404d573d6000803e3d6000fd5b505050506040513d602081101561406357600080fd5b81019080805190602001909291905050500360045461431290919063ffffffff16565b5b91506142ce73__Percent_______________________________63d49d51816040518163ffffffff167c010000000000000000000000000000000000000000000000000000000002815260040160206040518083038186803b1580156140ec57600080fd5b505af4158015614100573d6000803e3d6000fd5b505050506040513d602081101561411657600080fd5b81019080805190602001909291905050506142c0846142b2600260009054906101000a900473ffffffffffffffffffffffffffffffffffffffff1673ffffffffffffffffffffffffffffffffffffffff1663313ce5676040518163ffffffff167c0100000000000000000000000000000000000000000000000000000000028152600401602060405180830381600087803b1580156141b457600080fd5b505af11580156141c8573d6000803e3d6000fd5b505050506040513d60208110156141de57600080fd5b810190808051906020019092919050505060ff16600a0a6142a48c73__Percent_______________________________63d49d51816040518163ffffffff167c010000000000000000000000000000000000000000000000000000000002815260040160206040518083038186803b15801561425957600080fd5b505af415801561426d573d6000803e3d6000fd5b505050506040513d602081101561428357600080fd5b8101908080519060200190929190505050018f6143bd90919063ffffffff16565b6143bd90919063ffffffff16565b61461990919063ffffffff16565b61461990919063ffffffff16565b945084811015614308576142fd856142ef838b6143bd90919063ffffffff16565b61461990919063ffffffff16565b935083880392508094505b5093509350935093565b600061431d8261435c565b151561432857600080fd5b614354614333614643565b61434684866143bd90919063ffffffff16565b61461990919063ffffffff16565b905092915050565b6000614366614655565b821015801561437c5750614378614643565b8211155b9050919050565b600061438e8261435c565b151561439957600080fd5b6143b66143a461465d565b600a0a8361461990919063ffffffff16565b9050919050565b60008060008414156143d257600091506143f4565b82840290508284828115156143e357fe5b041415156143f057600080fd5b8091505b5092915050565b60608082840185511015151561441057600080fd5b82156000811461442b5760405191506020820160405261447c565b6040519150601f8416801560200281840101858101878315602002848b0101015b81831015614469578051835260208301925060208101905061444c565b50868552601f19601f8301166040525050505b50809150509392505050565b60008211151561449757600080fd5b600073ffffffffffffffffffffffffffffffffffffffff168173ffffffffffffffffffffffffffffffffffffffff16141515156144d357600080fd5b8160048190555080600760006101000a81548173ffffffffffffffffffffffffffffffffffffffff021916908373ffffffffffffffffffffffffffffffffffffffff1602179055505050565b600073ffffffffffffffffffffffffffffffffffffffff168173ffffffffffffffffffffffffffffffffffffffff161415151561455b57600080fd5b8073ffffffffffffffffffffffffffffffffffffffff166000809054906101000a900473ffffffffffffffffffffffffffffffffffffffff1673ffffffffffffffffffffffffffffffffffffffff167f8be0079c531659141344cd1fd0a4f28419497f9722a3daafe3b4186f6b6457e060405160405180910390a3806000806101000a81548173ffffffffffffffffffffffffffffffffffffffff021916908373ffffffffffffffffffffffffffffffffffffffff16021790555050565b60008060008311151561462b57600080fd5b828481151561463657fe5b0490508091505092915050565b600061464d614666565b600a0a905090565b600080905090565b60006002905090565b600061467061465d565b600201905090565b508054600082556005029060005260206000209081019061469991906148d9565b50565b8280548282559060005260206000209081019282156146d8579160200282015b828111156146d75782518255916020019190600101906146bc565b5b5090506146e59190614965565b5090565b50805460008255906000526020600020908101906147079190614965565b50565b828054828255906000526020600020908101928215614746579160200282015b8281111561474557823582559160200191906001019061472a565b5b5090506147539190614965565b5090565b5080546000825560050290600052602060002090810190614778919061498a565b50565b5080546000825560070160089004906000526020600020908101906147a09190614965565b50565b828054828255906000526020600020906007016008900481019282156148485791602002820160005b8382111561481657833563ffffffff1683826101000a81548163ffffffff021916908363ffffffff16021790555092602001926004016020816003010492830192600103026147cc565b80156148465782816101000a81549063ffffffff0219169055600401602081600301049283019260010302614816565b505b5090506148559190614a16565b5090565b828054600181600116156101000203166002900490600052602060002090601f016020900481019282601f1061489a57805160ff19168380011785556148c8565b828001600101855582156148c8579182015b828111156148c75782518255916020019190600101906148ac565b5b5090506148d59190614965565b5090565b61496291905b8082111561495e57600080820160006101000a81549063ffffffff02191690556000820160046101000a81549063ffffffff021916905560018201600090556002820160006101000a81549063ffffffff021916905560038201600061494591906146e9565b60048201600061495591906146e9565b506005016148df565b5090565b90565b61498791905b8082111561498357600081600090555060010161496b565b5090565b90565b614a1391905b80821115614a0f57600080820160006101000a81549063ffffffff021916905560018201600090556002820160006101000a81549063ffffffff02191690556002820160046101000a81549063ffffffff02191690556003820160006149f69190614a49565b600482016000614a069190614a49565b50600501614990565b5090565b90565b614a4691905b80821115614a4257600081816101000a81549063ffffffff021916905550600101614a1c565b5090565b90565b50805460018160011615610100020316600290046000825580601f10614a6f5750614a8e565b601f016020900490600052602060002090810190614a8d9190614965565b5b505600a165627a7a72305820a763e020083dab38e5aacd34942f07fa5a8918e9d9e07c23f2ddf980007f348f0029",
  "source": "pragma solidity ^0.4.24;\n\nimport \"./W12Crowdsale.sol\";\n\n\ncontract W12CrowdsaleStub is W12Crowdsale {\n    constructor (\n        address _originToken,\n        address _token,\n        uint _price,\n        address _serviceWallet,\n        address _swap,\n        uint _serviceFee,\n        uint _WTokenSaleFeePercent,\n        IW12Fund _fund\n    )\n        W12Crowdsale(\n            _originToken,\n             _token,\n             _price,\n             _serviceWallet,\n             _swap,\n             _serviceFee,\n            _WTokenSaleFeePercent,\n             _fund\n        ) public\n    {}\n\n    function _outTokens(address to, uint amount) external returns (bool) {\n        return token.transfer(to, amount);\n    }\n\n    function _setState(uint _WTokenSaleFeePercent) external {\n        WTokenSaleFeePercent = _WTokenSaleFeePercent;\n    }\n}\n",
  "sourcePath": "/Projects/w12-new/contracts/W12CrowdsaleStub.sol",
  "compiler": {
    "name": "solc",
    "version": "0.4.24+commit.e67f0147.Emscripten.clang"
  },
  "schemaVersion": "2.0.1",
  "updatedAt": "2018-09-17T15:36:05.719Z"
}