{
  "contractName": "W12Crowdsale",
  "abi": [
    {
      "constant": true,
      "inputs": [],
      "name": "originToken",
      "outputs": [
        {
          "name": "",
          "type": "address"
        }
      ],
      "payable": false,
      "stateMutability": "view",
      "type": "function"
    },
    {
      "constant": true,
      "inputs": [],
      "name": "WTokenSaleFeePercent",
      "outputs": [
        {
          "name": "",
          "type": "uint256"
        }
      ],
      "payable": false,
      "stateMutability": "view",
      "type": "function"
    },
    {
      "constant": true,
      "inputs": [],
      "name": "serviceWallet",
      "outputs": [
        {
          "name": "",
          "type": "address"
        }
      ],
      "payable": false,
      "stateMutability": "view",
      "type": "function"
    },
    {
      "constant": false,
      "inputs": [],
      "name": "renounceOwnership",
      "outputs": [],
      "payable": false,
      "stateMutability": "nonpayable",
      "type": "function"
    },
    {
      "constant": true,
      "inputs": [
        {
          "name": "",
          "type": "uint256"
        }
      ],
      "name": "milestoneDates",
      "outputs": [
        {
          "name": "",
          "type": "uint32"
        }
      ],
      "payable": false,
      "stateMutability": "view",
      "type": "function"
    },
    {
      "constant": true,
      "inputs": [],
      "name": "swap",
      "outputs": [
        {
          "name": "",
          "type": "address"
        }
      ],
      "payable": false,
      "stateMutability": "view",
      "type": "function"
    },
    {
      "constant": true,
      "inputs": [
        {
          "name": "",
          "type": "uint256"
        }
      ],
      "name": "stages",
      "outputs": [
        {
          "name": "startDate",
          "type": "uint32"
        },
        {
          "name": "endDate",
          "type": "uint32"
        },
        {
          "name": "discount",
          "type": "uint256"
        },
        {
          "name": "vesting",
          "type": "uint32"
        }
      ],
      "payable": false,
      "stateMutability": "view",
      "type": "function"
    },
    {
      "constant": true,
      "inputs": [],
      "name": "serviceFee",
      "outputs": [
        {
          "name": "",
          "type": "uint256"
        }
      ],
      "payable": false,
      "stateMutability": "view",
      "type": "function"
    },
    {
      "constant": true,
      "inputs": [],
      "name": "owner",
      "outputs": [
        {
          "name": "",
          "type": "address"
        }
      ],
      "payable": false,
      "stateMutability": "view",
      "type": "function"
    },
    {
      "constant": true,
      "inputs": [],
      "name": "price",
      "outputs": [
        {
          "name": "",
          "type": "uint256"
        }
      ],
      "payable": false,
      "stateMutability": "view",
      "type": "function"
    },
    {
      "constant": true,
      "inputs": [],
      "name": "fund",
      "outputs": [
        {
          "name": "",
          "type": "address"
        }
      ],
      "payable": false,
      "stateMutability": "view",
      "type": "function"
    },
    {
      "constant": true,
      "inputs": [
        {
          "name": "",
          "type": "uint256"
        }
      ],
      "name": "milestones",
      "outputs": [
        {
          "name": "endDate",
          "type": "uint32"
        },
        {
          "name": "tranchePercent",
          "type": "uint256"
        },
        {
          "name": "voteEndDate",
          "type": "uint32"
        },
        {
          "name": "withdrawalWindow",
          "type": "uint32"
        },
        {
          "name": "name",
          "type": "bytes"
        },
        {
          "name": "description",
          "type": "bytes"
        }
      ],
      "payable": false,
      "stateMutability": "view",
      "type": "function"
    },
    {
      "constant": false,
      "inputs": [
        {
          "name": "_newOwner",
          "type": "address"
        }
      ],
      "name": "transferOwnership",
      "outputs": [],
      "payable": false,
      "stateMutability": "nonpayable",
      "type": "function"
    },
    {
      "constant": true,
      "inputs": [],
      "name": "token",
      "outputs": [
        {
          "name": "",
          "type": "address"
        }
      ],
      "payable": false,
      "stateMutability": "view",
      "type": "function"
    },
    {
      "inputs": [
        {
          "name": "_originToken",
          "type": "address"
        },
        {
          "name": "_token",
          "type": "address"
        },
        {
          "name": "_price",
          "type": "uint256"
        },
        {
          "name": "_serviceWallet",
          "type": "address"
        },
        {
          "name": "_swap",
          "type": "address"
        },
        {
          "name": "_serviceFee",
          "type": "uint256"
        },
        {
          "name": "_WTokenSaleFeePercent",
          "type": "uint256"
        },
        {
          "name": "_fund",
          "type": "address"
        }
      ],
      "payable": false,
      "stateMutability": "nonpayable",
      "type": "constructor"
    },
    {
      "payable": true,
      "stateMutability": "payable",
      "type": "fallback"
    },
    {
      "anonymous": false,
      "inputs": [
        {
          "indexed": true,
          "name": "buyer",
          "type": "address"
        },
        {
          "indexed": false,
          "name": "amountPaid",
          "type": "uint256"
        },
        {
          "indexed": false,
          "name": "tokensBought",
          "type": "uint256"
        },
        {
          "indexed": false,
          "name": "change",
          "type": "uint256"
        }
      ],
      "name": "TokenPurchase",
      "type": "event"
    },
    {
      "anonymous": false,
      "inputs": [],
      "name": "StagesUpdated",
      "type": "event"
    },
    {
      "anonymous": false,
      "inputs": [
        {
          "indexed": false,
          "name": "index",
          "type": "uint256"
        }
      ],
      "name": "StageUpdated",
      "type": "event"
    },
    {
      "anonymous": false,
      "inputs": [],
      "name": "MilestonesUpdated",
      "type": "event"
    },
    {
      "anonymous": false,
      "inputs": [
        {
          "indexed": true,
          "name": "owner",
          "type": "address"
        },
        {
          "indexed": false,
          "name": "amount",
          "type": "uint256"
        }
      ],
      "name": "UnsoldTokenReturned",
      "type": "event"
    },
    {
      "anonymous": false,
      "inputs": [
        {
          "indexed": false,
          "name": "value",
          "type": "uint256"
        }
      ],
      "name": "debug",
      "type": "event"
    },
    {
      "anonymous": false,
      "inputs": [
        {
          "indexed": true,
          "name": "previousOwner",
          "type": "address"
        }
      ],
      "name": "OwnershipRenounced",
      "type": "event"
    },
    {
      "anonymous": false,
      "inputs": [
        {
          "indexed": true,
          "name": "previousOwner",
          "type": "address"
        },
        {
          "indexed": true,
          "name": "newOwner",
          "type": "address"
        }
      ],
      "name": "OwnershipTransferred",
      "type": "event"
    },
    {
      "constant": true,
      "inputs": [],
      "name": "stagesLength",
      "outputs": [
        {
          "name": "",
          "type": "uint256"
        }
      ],
      "payable": false,
      "stateMutability": "view",
      "type": "function"
    },
    {
      "constant": true,
      "inputs": [],
      "name": "milestonesLength",
      "outputs": [
        {
          "name": "",
          "type": "uint256"
        }
      ],
      "payable": false,
      "stateMutability": "view",
      "type": "function"
    },
    {
      "constant": true,
      "inputs": [
        {
          "name": "index",
          "type": "uint256"
        }
      ],
      "name": "getMilestone",
      "outputs": [
        {
          "name": "",
          "type": "uint32"
        },
        {
          "name": "",
          "type": "uint256"
        },
        {
          "name": "",
          "type": "uint32"
        },
        {
          "name": "",
          "type": "uint32"
        },
        {
          "name": "",
          "type": "bytes"
        },
        {
          "name": "",
          "type": "bytes"
        }
      ],
      "payable": false,
      "stateMutability": "view",
      "type": "function"
    },
    {
      "constant": true,
      "inputs": [
        {
          "name": "index",
          "type": "uint256"
        }
      ],
      "name": "getStage",
      "outputs": [
        {
          "name": "",
          "type": "uint32"
        },
        {
          "name": "",
          "type": "uint32"
        },
        {
          "name": "",
          "type": "uint256"
        },
        {
          "name": "",
          "type": "uint32"
        },
        {
          "name": "",
          "type": "uint256[]"
        },
        {
          "name": "",
          "type": "uint256[]"
        }
      ],
      "payable": false,
      "stateMutability": "view",
      "type": "function"
    },
    {
      "constant": true,
      "inputs": [
        {
          "name": "stageNumber",
          "type": "uint256"
        }
      ],
      "name": "getStageVolumeBoundaries",
      "outputs": [
        {
          "name": "",
          "type": "uint256[]"
        }
      ],
      "payable": false,
      "stateMutability": "view",
      "type": "function"
    },
    {
      "constant": true,
      "inputs": [
        {
          "name": "stageNumber",
          "type": "uint256"
        }
      ],
      "name": "getStageVolumeBonuses",
      "outputs": [
        {
          "name": "",
          "type": "uint256[]"
        }
      ],
      "payable": false,
      "stateMutability": "view",
      "type": "function"
    },
    {
      "constant": true,
      "inputs": [],
      "name": "getEndDate",
      "outputs": [
        {
          "name": "",
          "type": "uint32"
        }
      ],
      "payable": false,
      "stateMutability": "view",
      "type": "function"
    },
    {
      "constant": true,
      "inputs": [],
      "name": "getCurrentMilestoneIndex",
      "outputs": [
        {
          "name": "index",
          "type": "uint256"
        },
        {
          "name": "found",
          "type": "bool"
        }
      ],
      "payable": false,
      "stateMutability": "view",
      "type": "function"
    },
    {
      "constant": true,
      "inputs": [],
      "name": "getLastMilestoneIndex",
      "outputs": [
        {
          "name": "index",
          "type": "uint256"
        },
        {
          "name": "found",
          "type": "bool"
        }
      ],
      "payable": false,
      "stateMutability": "view",
      "type": "function"
    },
    {
      "constant": false,
      "inputs": [
        {
          "name": "_price",
          "type": "uint256"
        }
      ],
      "name": "setParameters",
      "outputs": [],
      "payable": false,
      "stateMutability": "nonpayable",
      "type": "function"
    },
    {
      "constant": false,
      "inputs": [
        {
          "name": "dates",
          "type": "uint32[2][]"
        },
        {
          "name": "stage_discounts",
          "type": "uint256[]"
        },
        {
          "name": "stage_vestings",
          "type": "uint32[]"
        }
      ],
      "name": "setStages",
      "outputs": [],
      "payable": false,
      "stateMutability": "nonpayable",
      "type": "function"
    },
    {
      "constant": false,
      "inputs": [
        {
          "name": "stage",
          "type": "uint256"
        },
        {
          "name": "volumeBoundaries",
          "type": "uint256[]"
        },
        {
          "name": "volumeBonuses",
          "type": "uint256[]"
        }
      ],
      "name": "setStageVolumeBonuses",
      "outputs": [],
      "payable": false,
      "stateMutability": "nonpayable",
      "type": "function"
    },
    {
      "constant": false,
      "inputs": [
        {
          "name": "dates",
          "type": "uint32[]"
        },
        {
          "name": "tranchePercents",
          "type": "uint256[]"
        },
        {
          "name": "offsets",
          "type": "uint32[]"
        },
        {
          "name": "namesAndDescriptions",
          "type": "bytes"
        }
      ],
      "name": "setMilestones",
      "outputs": [],
      "payable": false,
      "stateMutability": "nonpayable",
      "type": "function"
    },
    {
      "constant": false,
      "inputs": [],
      "name": "buyTokens",
      "outputs": [],
      "payable": true,
      "stateMutability": "payable",
      "type": "function"
    },
    {
      "constant": true,
      "inputs": [],
      "name": "getWToken",
      "outputs": [
        {
          "name": "",
          "type": "address"
        }
      ],
      "payable": false,
      "stateMutability": "view",
      "type": "function"
    },
    {
      "constant": true,
      "inputs": [],
      "name": "getFund",
      "outputs": [
        {
          "name": "",
          "type": "address"
        }
      ],
      "payable": false,
      "stateMutability": "view",
      "type": "function"
    },
    {
      "constant": true,
      "inputs": [
        {
          "name": "value",
          "type": "uint256"
        }
      ],
      "name": "getSaleVolumeBonus",
      "outputs": [
        {
          "name": "bonus",
          "type": "uint256"
        }
      ],
      "payable": false,
      "stateMutability": "view",
      "type": "function"
    },
    {
      "constant": true,
      "inputs": [],
      "name": "getCurrentStageIndex",
      "outputs": [
        {
          "name": "index",
          "type": "uint256"
        },
        {
          "name": "found",
          "type": "bool"
        }
      ],
      "payable": false,
      "stateMutability": "view",
      "type": "function"
    },
    {
      "constant": false,
      "inputs": [],
      "name": "claimRemainingTokens",
      "outputs": [],
      "payable": false,
      "stateMutability": "nonpayable",
      "type": "function"
    },
    {
      "constant": true,
      "inputs": [],
      "name": "isEnded",
      "outputs": [
        {
          "name": "",
          "type": "bool"
        }
      ],
      "payable": false,
      "stateMutability": "view",
      "type": "function"
    },
    {
      "constant": true,
      "inputs": [],
      "name": "isSaleActive",
      "outputs": [
        {
          "name": "",
          "type": "bool"
        }
      ],
      "payable": false,
      "stateMutability": "view",
      "type": "function"
    }
  ],
  "bytecode": "0x6080604052600180553480156200001557600080fd5b506040516101008062004e428339810180604052810190808051906020019092919080519060200190929190805190602001909291908051906020019092919080519060200190929190805190602001909291908051906020019092919080519060200190929190505050336000806101000a81548173ffffffffffffffffffffffffffffffffffffffff021916908373ffffffffffffffffffffffffffffffffffffffff160217905550600073ffffffffffffffffffffffffffffffffffffffff168773ffffffffffffffffffffffffffffffffffffffff1614151515620000fd57600080fd5b6200011c836200035e64010000000002620041a0176401000000009004565b801562000147575060646200014584620003a864010000000002620041c7176401000000009004565b105b15156200015357600080fd5b62000172826200035e64010000000002620041a0176401000000009004565b80156200019d575060646200019b83620003a864010000000002620041c7176401000000009004565b105b1515620001a957600080fd5b600073ffffffffffffffffffffffffffffffffffffffff168173ffffffffffffffffffffffffffffffffffffffff1614151515620001e657600080fd5b600073ffffffffffffffffffffffffffffffffffffffff168473ffffffffffffffffffffffffffffffffffffffff16141515156200022357600080fd5b86600260006101000a81548173ffffffffffffffffffffffffffffffffffffffff021916908373ffffffffffffffffffffffffffffffffffffffff16021790555087600360006101000a81548173ffffffffffffffffffffffffffffffffffffffff021916908373ffffffffffffffffffffffffffffffffffffffff160217905550620002c0868662000415640100000000026401000000009004565b8260058190555083600860006101000a81548173ffffffffffffffffffffffffffffffffffffffff021916908373ffffffffffffffffffffffffffffffffffffffff1602179055508160068190555080600960006101000a81548173ffffffffffffffffffffffffffffffffffffffff021916908373ffffffffffffffffffffffffffffffffffffffff160217905550505050505050505062000531565b600062000379620004ae640100000000026401000000009004565b8210158015620003a157506200039d620004b6640100000000026401000000009004565b8211155b9050919050565b6000620003c4826200035e640100000000026401000000009004565b1515620003d057600080fd5b6200040e620003ed620004d9640100000000026401000000009004565b600a0a83620004e2640100000000026200445d179091906401000000009004565b9050919050565b6000821115156200042557600080fd5b600073ffffffffffffffffffffffffffffffffffffffff168173ffffffffffffffffffffffffffffffffffffffff16141515156200046257600080fd5b8160048190555080600760006101000a81548173ffffffffffffffffffffffffffffffffffffffff021916908373ffffffffffffffffffffffffffffffffffffffff1602179055505050565b600080905090565b6000620004d16200050e640100000000026401000000009004565b600a0a905090565b60006002905090565b600080600083111515620004f557600080fd5b82848115156200050157fe5b0490508091505092915050565b600062000529620004d9640100000000026401000000009004565b600201905090565b61490180620005416000396000f3006080604052600436106101b7576000357c0100000000000000000000000000000000000000000000000000000000900463ffffffff1680630ee62c77146101c157806313096a411461024357806314f66d341461029a578063208853c9146102d05780632442e1cb146103115780632e325020146104635780632fbe59901461056d578063313602d4146105985780633baba4d7146105af5780634090cb64146105da5780634b9b5fab146106315780635641f3c31461069c578063564566a8146106f3578063715018a61461072257806372e6a88114610739578063792c02ea146107865780638119c065146107b1578063845ddcb2146108085780638abdf5aa146108825780638da5cb5b146108ad5780638edd6eb614610904578063a035b1fe1461095b578063a4fd6f5614610986578063b1356488146109b5578063b60d4288146109ec578063ce48bf2214610a43578063d0febe4c14610aa0578063d6d65f3d14610aaa578063daa4cf8814610ae0578063dda71ebe14610b16578063e89e4ed614610b99578063e93b054014610ceb578063f12585f514610d18578063f2fde38b14610d9a578063fc0c546a14610ddd575b6101bf610e34565b005b3480156101cd57600080fd5b506101ec600480360381019080803590602001909291905050506115a0565b6040518080602001828103825283818151815260200191508051906020019060200280838360005b8381101561022f578082015181840152602081019050610214565b505050509050019250505060405180910390f35b34801561024f57600080fd5b50610258611618565b604051808273ffffffffffffffffffffffffffffffffffffffff1673ffffffffffffffffffffffffffffffffffffffff16815260200191505060405180910390f35b3480156102a657600080fd5b506102af61163e565b60405180838152602001821515151581526020019250505060405180910390f35b3480156102dc57600080fd5b506102fb60048036038101908080359060200190929190505050611679565b6040518082815260200191505060405180910390f35b34801561031d57600080fd5b5061033c60048036038101908080359060200190929190505050611733565b604051808763ffffffff1663ffffffff1681526020018681526020018563ffffffff1663ffffffff1681526020018463ffffffff1663ffffffff1681526020018060200180602001838103835285818151815260200191508051906020019080838360005b838110156103bc5780820151818401526020810190506103a1565b50505050905090810190601f1680156103e95780820380516001836020036101000a031916815260200191505b50838103825284818151815260200191508051906020019080838360005b83811015610422578082015181840152602081019050610407565b50505050905090810190601f16801561044f5780820380516001836020036101000a031916815260200191505b509850505050505050505060405180910390f35b34801561046f57600080fd5b5061048e6004803603810190808035906020019092919050505061197d565b604051808763ffffffff1663ffffffff1681526020018663ffffffff1663ffffffff1681526020018581526020018463ffffffff1663ffffffff1681526020018060200180602001838103835285818151815260200191508051906020019060200280838360005b838110156105115780820151818401526020810190506104f6565b50505050905001838103825284818151815260200191508051906020019060200280838360005b83811015610553578082015181840152602081019050610538565b505050509050019850505050505050505060405180910390f35b34801561057957600080fd5b50610582611b33565b6040518082815260200191505060405180910390f35b3480156105a457600080fd5b506105ad611b39565b005b3480156105bb57600080fd5b506105c4611e41565b6040518082815260200191505060405180910390f35b3480156105e657600080fd5b506105ef611e4e565b604051808273ffffffffffffffffffffffffffffffffffffffff1673ffffffffffffffffffffffffffffffffffffffff16815260200191505060405180910390f35b34801561063d57600080fd5b5061069a600480360381019080803590602001908201803590602001919091929391929390803590602001908201803590602001919091929391929390803590602001908201803590602001919091929391929390505050611e78565b005b3480156106a857600080fd5b506106b1612680565b604051808273ffffffffffffffffffffffffffffffffffffffff1673ffffffffffffffffffffffffffffffffffffffff16815260200191505060405180910390f35b3480156106ff57600080fd5b506107086126a6565b604051808215151515815260200191505060405180910390f35b34801561072e57600080fd5b506107376126bb565b005b34801561074557600080fd5b50610764600480360381019080803590602001909291905050506127bd565b604051808263ffffffff1663ffffffff16815260200191505060405180910390f35b34801561079257600080fd5b5061079b6127f6565b6040518082815260200191505060405180910390f35b3480156107bd57600080fd5b506107c6612803565b604051808273ffffffffffffffffffffffffffffffffffffffff1673ffffffffffffffffffffffffffffffffffffffff16815260200191505060405180910390f35b34801561081457600080fd5b5061083360048036038101908080359060200190929190505050612829565b604051808563ffffffff1663ffffffff1681526020018463ffffffff1663ffffffff1681526020018381526020018263ffffffff1663ffffffff16815260200194505050505060405180910390f35b34801561088e57600080fd5b50610897612898565b6040518082815260200191505060405180910390f35b3480156108b957600080fd5b506108c261289e565b604051808273ffffffffffffffffffffffffffffffffffffffff1673ffffffffffffffffffffffffffffffffffffffff16815260200191505060405180910390f35b34801561091057600080fd5b506109196128c3565b604051808273ffffffffffffffffffffffffffffffffffffffff1673ffffffffffffffffffffffffffffffffffffffff16815260200191505060405180910390f35b34801561096757600080fd5b506109706128ed565b6040518082815260200191505060405180910390f35b34801561099257600080fd5b5061099b6128f3565b604051808215151515815260200191505060405180910390f35b3480156109c157600080fd5b506109ca61294a565b604051808263ffffffff1663ffffffff16815260200191505060405180910390f35b3480156109f857600080fd5b50610a0161299d565b604051808273ffffffffffffffffffffffffffffffffffffffff1673ffffffffffffffffffffffffffffffffffffffff16815260200191505060405180910390f35b348015610a4f57600080fd5b50610a9e600480360381019080803590602001909291908035906020019082018035906020019190919293919293908035906020019082018035906020019190919293919293905050506129c3565b005b610aa8610e34565b005b348015610ab657600080fd5b50610abf612d60565b60405180838152602001821515151581526020019250505060405180910390f35b348015610aec57600080fd5b50610af5612dfd565b60405180838152602001821515151581526020019250505060405180910390f35b348015610b2257600080fd5b50610b97600480360381019080803590602001908201803590602001919091929391929390803590602001908201803590602001919091929391929390803590602001908201803590602001919091929391929390803590602001908201803590602001919091929391929390505050612ea6565b005b348015610ba557600080fd5b50610bc4600480360381019080803590602001909291905050506138a1565b604051808763ffffffff1663ffffffff1681526020018681526020018563ffffffff1663ffffffff1681526020018463ffffffff1663ffffffff1681526020018060200180602001838103835285818151815260200191508051906020019080838360005b83811015610c44578082015181840152602081019050610c29565b50505050905090810190601f168015610c715780820380516001836020036101000a031916815260200191505b50838103825284818151815260200191508051906020019080838360005b83811015610caa578082015181840152602081019050610c8f565b50505050905090810190601f168015610cd75780820380516001836020036101000a031916815260200191505b509850505050505050505060405180910390f35b348015610cf757600080fd5b50610d1660048036038101908080359060200190929190505050613a4c565b005b348015610d2457600080fd5b50610d4360048036038101908080359060200190929190505050613b2a565b6040518080602001828103825283818151815260200191508051906020019060200280838360005b83811015610d86578082015181840152602081019050610d6b565b505050509050019250505060405180910390f35b348015610da657600080fd5b50610ddb600480360381019080803573ffffffffffffffffffffffffffffffffffffffff169060200190929190505050613ba2565b005b348015610de957600080fd5b50610df2613c09565b604051808273ffffffffffffffffffffffffffffffffffffffff1673ffffffffffffffffffffffffffffffffffffffff16815260200191505060405180910390f35b6000806000806000806000806000600180600082825401925050819055506001549050610e5f6126a6565b1515610ed3576040517f08c379a00000000000000000000000000000000000000000000000000000000081526004018080602001828103825260178152602001807f53616c65206973206e6f7420737461727465642079657400000000000000000081525060200191505060405180910390fd5b600034111515610ee257600080fd5b610eea612dfd565b509850600a89815481101515610efc57fe5b9060005260206000209060050201600101549750600a89815481101515610f1f57fe5b906000526020600020906005020160020160009054906101000a900463ffffffff169650610f4c34611679565b9550610f59348988613c2f565b509450945094506000600654111561123357610f806006548661415690919063ffffffff16565b9150600360009054906101000a900473ffffffffffffffffffffffffffffffffffffffff1673ffffffffffffffffffffffffffffffffffffffff166323b872dd600860009054906101000a900473ffffffffffffffffffffffffffffffffffffffff16600760009054906101000a900473ffffffffffffffffffffffffffffffffffffffff16856040518463ffffffff167c0100000000000000000000000000000000000000000000000000000000028152600401808473ffffffffffffffffffffffffffffffffffffffff1673ffffffffffffffffffffffffffffffffffffffff1681526020018373ffffffffffffffffffffffffffffffffffffffff1673ffffffffffffffffffffffffffffffffffffffff1681526020018281526020019350505050602060405180830381600087803b1580156110bf57600080fd5b505af11580156110d3573d6000803e3d6000fd5b505050506040513d60208110156110e957600080fd5b8101908080519060200190929190505050151561110557600080fd5b600260009054906101000a900473ffffffffffffffffffffffffffffffffffffffff1673ffffffffffffffffffffffffffffffffffffffff1663a9059cbb600860009054906101000a900473ffffffffffffffffffffffffffffffffffffffff16846040518363ffffffff167c0100000000000000000000000000000000000000000000000000000000028152600401808373ffffffffffffffffffffffffffffffffffffffff1673ffffffffffffffffffffffffffffffffffffffff16815260200182815260200192505050602060405180830381600087803b1580156111ec57600080fd5b505af1158015611200573d6000803e3d6000fd5b505050506040513d602081101561121657600080fd5b8101908080519060200190929190505050151561123257600080fd5b5b600260009054906101000a900473ffffffffffffffffffffffffffffffffffffffff1673ffffffffffffffffffffffffffffffffffffffff16639d2e477733878a6040518463ffffffff167c0100000000000000000000000000000000000000000000000000000000028152600401808473ffffffffffffffffffffffffffffffffffffffff1673ffffffffffffffffffffffffffffffffffffffff1681526020018381526020018263ffffffff1663ffffffff1681526020019350505050602060405180830381600087803b15801561130c57600080fd5b505af1158015611320573d6000803e3d6000fd5b505050506040513d602081101561133657600080fd5b8101908080519060200190929190505050151561135257600080fd5b60008311156113a3573373ffffffffffffffffffffffffffffffffffffffff166108fc849081150290604051600060405180830381858888f193505050501580156113a1573d6000803e3d6000fd5b505b6000600554111561142c57600760009054906101000a900473ffffffffffffffffffffffffffffffffffffffff1673ffffffffffffffffffffffffffffffffffffffff166108fc6113ff6005548761415690919063ffffffff16565b9081150290604051600060405180830381858888f1935050505015801561142a573d6000803e3d6000fd5b505b600960009054906101000a900473ffffffffffffffffffffffffffffffffffffffff1673ffffffffffffffffffffffffffffffffffffffff1663958799cb3073ffffffffffffffffffffffffffffffffffffffff1631620186a09033896040518563ffffffff167c0100000000000000000000000000000000000000000000000000000000028152600401808373ffffffffffffffffffffffffffffffffffffffff1673ffffffffffffffffffffffffffffffffffffffff168152602001828152602001925050506000604051808303818589803b15801561150d57600080fd5b5088f1158015611521573d6000803e3d6000fd5b5050505050503373ffffffffffffffffffffffffffffffffffffffff167f347f5f0051b895093800553e6e78ef332849e2552639a4f5ffe66535788ae07885878660405180848152602001838152602001828152602001935050505060405180910390a26001548114151561159557600080fd5b505050505050505050565b6060600a828154811015156115b157fe5b906000526020600020906005020160040180548060200260200160405190810160405280929190818152602001828054801561160c57602002820191906000526020600020905b8154815260200190600101908083116115f8575b50505050509050919050565b600360009054906101000a900473ffffffffffffffffffffffffffffffffffffffff1681565b6000806000600b805490509050600081148061165f575061165d6128f3565b155b1561166957611674565b600191506001810392505b509091565b6000806000806000611689612dfd565b9350935082151561169d576000945061172a565b600a848154811015156116ac57fe5b90600052602060002090600502019150600090505b81600301805490508110156117295781600301818154811015156116e157fe5b90600052602060002001548610151561171757816004018181548110151561170557fe5b9060005260206000200154945061171c565b611729565b80806001019150506116c1565b5b50505050919050565b600080600080606080600b8781548110151561174b57fe5b906000526020600020906005020160000160009054906101000a900463ffffffff16600b8881548110151561177c57fe5b906000526020600020906005020160010154600b8981548110151561179d57fe5b906000526020600020906005020160020160009054906101000a900463ffffffff16600b8a8154811015156117ce57fe5b906000526020600020906005020160020160049054906101000a900463ffffffff16600b8b8154811015156117ff57fe5b9060005260206000209060050201600301600b8c81548110151561181f57fe5b9060005260206000209060050201600401818054600181600116156101000203166002900480601f0160208091040260200160405190810160405280929190818152602001828054600181600116156101000203166002900480156118c55780601f1061189a576101008083540402835291602001916118c5565b820191906000526020600020905b8154815290600101906020018083116118a857829003601f168201915b50505050509150808054600181600116156101000203166002900480601f0160208091040260200160405190810160405280929190818152602001828054600181600116156101000203166002900480156119615780601f1061193657610100808354040283529160200191611961565b820191906000526020600020905b81548152906001019060200180831161194457829003601f168201915b5050505050905095509550955095509550955091939550919395565b600080600080606080600a8781548110151561199557fe5b906000526020600020906005020160000160009054906101000a900463ffffffff16600a888154811015156119c657fe5b906000526020600020906005020160000160049054906101000a900463ffffffff16600a898154811015156119f757fe5b906000526020600020906005020160010154600a8a815481101515611a1857fe5b906000526020600020906005020160020160009054906101000a900463ffffffff16600a8b815481101515611a4957fe5b9060005260206000209060050201600301600a8c815481101515611a6957fe5b906000526020600020906005020160040181805480602002602001604051908101604052809291908181526020018280548015611ac557602002820191906000526020600020905b815481526020019060010190808311611ab1575b5050505050915080805480602002602001604051908101604052809291908181526020018280548015611b1757602002820191906000526020600020905b815481526020019060010190808311611b03575b5050505050905095509550955095509550955091939550919395565b60065481565b60008060009054906101000a900473ffffffffffffffffffffffffffffffffffffffff1673ffffffffffffffffffffffffffffffffffffffff163373ffffffffffffffffffffffffffffffffffffffff16141515611b9657600080fd5b611b9e6128f3565b1515611ba957600080fd5b600260009054906101000a900473ffffffffffffffffffffffffffffffffffffffff1673ffffffffffffffffffffffffffffffffffffffff166370a08231306040518263ffffffff167c0100000000000000000000000000000000000000000000000000000000028152600401808273ffffffffffffffffffffffffffffffffffffffff1673ffffffffffffffffffffffffffffffffffffffff168152602001915050602060405180830381600087803b158015611c6657600080fd5b505af1158015611c7a573d6000803e3d6000fd5b505050506040513d6020811015611c9057600080fd5b81019080805190602001909291905050509050600260009054906101000a900473ffffffffffffffffffffffffffffffffffffffff1673ffffffffffffffffffffffffffffffffffffffff1663a9059cbb6000809054906101000a900473ffffffffffffffffffffffffffffffffffffffff16836040518363ffffffff167c0100000000000000000000000000000000000000000000000000000000028152600401808373ffffffffffffffffffffffffffffffffffffffff1673ffffffffffffffffffffffffffffffffffffffff16815260200182815260200192505050602060405180830381600087803b158015611d8957600080fd5b505af1158015611d9d573d6000803e3d6000fd5b505050506040513d6020811015611db357600080fd5b81019080805190602001909291905050501515611dcf57600080fd5b6000809054906101000a900473ffffffffffffffffffffffffffffffffffffffff1673ffffffffffffffffffffffffffffffffffffffff167f26ffb867a6b19bc0240d4e732ed6cfb0f0b6d93143a99cfb24ba5873308861f8826040518082815260200191505060405180910390a250565b6000600b80549050905090565b6000600260009054906101000a900473ffffffffffffffffffffffffffffffffffffffff16905090565b6000806000809054906101000a900473ffffffffffffffffffffffffffffffffffffffff1673ffffffffffffffffffffffffffffffffffffffff163373ffffffffffffffffffffffffffffffffffffffff16141515611ed657600080fd5b6000600a805490501115611f2a5742600a6000815481101515611ef557fe5b906000526020600020906005020160000160009054906101000a900463ffffffff1663ffffffff16111515611f2957600080fd5b5b7fffffffffffffffffffffffffffffffffffffffffffffffffffffffffffffffff60ff168888905011151515611f5f57600080fd5b600088889050111515611f7157600080fd5b8585905088889050141515611f8557600080fd5b8383905088889050141515611f9957600080fd5b6000600b8054905011156120b457878760018a8a9050038181101515611fbb57fe5b9050604002016001600281101515611fcf57fe5b602002013563ffffffff1663ffffffff16600b6000815481101515611ff057fe5b906000526020600020906005020160000160009054906101000a900463ffffffff1663ffffffff161115156120b3576040517f08c379a000000000000000000000000000000000000000000000000000000000815260040180806020018281038252603c8152602001807f4c61737420737461676520656e6444617465206d757374206265206c6573732081526020017f7468616e206669727374206d696c6573746f6e6520656e64446174650000000081525060400191505060405180910390fd5b5b878790509150600a60006120c891906144bc565b600090505b8160ff168160ff16101561264a576120fb86868360ff1681811015156120ef57fe5b905060200201356141a0565b80156121265750606461212487878460ff16818110151561211857fe5b905060200201356141c7565b105b15156121c0576040517f08c379a00000000000000000000000000000000000000000000000000000000081526004018080602001828103825260318152602001807f537461676520646973636f756e74206973206e6f7420696e20616c6c6f77656481526020017f2072616e6765205b302c2039392e39392900000000000000000000000000000081525060400191505060405180910390fd5b4288888360ff1681811015156121d257fe5b90506040020160006002811015156121e657fe5b602002013563ffffffff1663ffffffff1611151561220357600080fd5b87878260ff16818110151561221457fe5b905060400201600160028110151561222857fe5b602002013563ffffffff1663ffffffff1688888360ff16818110151561224a57fe5b905060400201600060028110151561225e57fe5b602002013563ffffffff1663ffffffff1610151561230a576040517f08c379a00000000000000000000000000000000000000000000000000000000081526004018080602001828103825260248152602001807f53746167652073746172742064617465206d75737420626520677420656e642081526020017f646174650000000000000000000000000000000000000000000000000000000081525060400191505060405180910390fd5b60008160ff1611156124225787878260ff16818110151561232757fe5b905060400201600060028110151561233b57fe5b602002013563ffffffff1663ffffffff1688886001840360ff16818110151561236057fe5b905060400201600160028110151561237457fe5b602002013563ffffffff1663ffffffff1611151515612421576040517f08c379a00000000000000000000000000000000000000000000000000000000081526004018080602001828103825260228152602001807f53746167657320617265206e6f7420696e20686973746f726963616c206f726481526020017f657200000000000000000000000000000000000000000000000000000000000081525060400191505060405180910390fd5b5b600a60c0604051908101604052808a8a8560ff16818110151561244157fe5b905060400201600060028110151561245557fe5b602002013563ffffffff1663ffffffff1681526020018a8a8560ff16818110151561247c57fe5b905060400201600160028110151561249057fe5b602002013563ffffffff1663ffffffff16815260200188888560ff1681811015156124b757fe5b90506020020135815260200186868560ff1681811015156124d457fe5b9050602002013563ffffffff1663ffffffff168152602001600060405190808252806020026020018201604052801561251c5781602001602082028038833980820191505090505b50815260200160006040519080825280602002602001820160405280156125525781602001602082028038833980820191505090505b508152509080600181540180825580915050906001820390600052602060002090600502016000909192909190915060008201518160000160006101000a81548163ffffffff021916908363ffffffff16021790555060208201518160000160046101000a81548163ffffffff021916908363ffffffff1602179055506040820151816001015560608201518160020160006101000a81548163ffffffff021916908363ffffffff160217905550608082015181600301908051906020019061261c9291906144e0565b5060a08201518160040190805190602001906126399291906144e0565b5050505080806001019150506120cd565b7f743961f4e677d1146fbf85d75565b1c5474fd083eb166f8b9595cf5d01a4d6e660405160405180910390a15050505050505050565b600760009054906101000a900473ffffffffffffffffffffffffffffffffffffffff1681565b6000806126b1612dfd565b9150508091505090565b6000809054906101000a900473ffffffffffffffffffffffffffffffffffffffff1673ffffffffffffffffffffffffffffffffffffffff163373ffffffffffffffffffffffffffffffffffffffff1614151561271657600080fd5b6000809054906101000a900473ffffffffffffffffffffffffffffffffffffffff1673ffffffffffffffffffffffffffffffffffffffff167ff8df31144d9c2f0f6b59d69b8b98abd5459d07f2742c4df920b25aae33c6482060405160405180910390a260008060006101000a81548173ffffffffffffffffffffffffffffffffffffffff021916908373ffffffffffffffffffffffffffffffffffffffff160217905550565b600c818154811015156127cc57fe5b9060005260206000209060089182820401919006600402915054906101000a900463ffffffff1681565b6000600a80549050905090565b600860009054906101000a900473ffffffffffffffffffffffffffffffffffffffff1681565b600a8181548110151561283857fe5b90600052602060002090600502016000915090508060000160009054906101000a900463ffffffff16908060000160049054906101000a900463ffffffff16908060010154908060020160009054906101000a900463ffffffff16905084565b60055481565b6000809054906101000a900473ffffffffffffffffffffffffffffffffffffffff1681565b6000600960009054906101000a900473ffffffffffffffffffffffffffffffffffffffff16905090565b60045481565b600080600a805490501480612945575042600a6001600a805490500381548110151561291b57fe5b906000526020600020906005020160000160049054906101000a900463ffffffff1663ffffffff16105b905090565b600080600a8054905011151561295f57600080fd5b600a6001600a805490500381548110151561297657fe5b906000526020600020906005020160000160049054906101000a900463ffffffff16905090565b600960009054906101000a900473ffffffffffffffffffffffffffffffffffffffff1681565b60008060009054906101000a900473ffffffffffffffffffffffffffffffffffffffff1673ffffffffffffffffffffffffffffffffffffffff163373ffffffffffffffffffffffffffffffffffffffff16141515612a2057600080fd5b6000600a805490501115612a745742600a6000815481101515612a3f57fe5b906000526020600020906005020160000160009054906101000a900463ffffffff1663ffffffff16111515612a7357600080fd5b5b8282905085859050141515612a8857600080fd5b600a8054905086101515612a9b57600080fd5b600090505b84849050811015612c6957612ac88383838181101515612abc57fe5b905060200201356141a0565b8015612af057506064612aee8484848181101515612ae257fe5b905060200201356141c7565b105b1515612b8a576040517f08c379a00000000000000000000000000000000000000000000000000000000081526004018080602001828103825260308152602001807f426f6e75732070657263656e74206973206e6f7420696e20616c6c6f7765642081526020017f72616e6765205b302c2039392e3939290000000000000000000000000000000081525060400191505060405180910390fd5b6000811115612c5c578484828181101515612ba157fe5b905060200201358585600184038181101515612bb957fe5b90506020020135101515612c5b576040517f08c379a000000000000000000000000000000000000000000000000000000000815260040180806020018281038252602c8152602001807f566f6c756d6520626f756e646172696573206d75737420626520696e2061736381526020017f656e64696e67206f72646572000000000000000000000000000000000000000081525060400191505060405180910390fd5b5b8080600101915050612aa0565b600a86815481101515612c7857fe5b90600052602060002090600502016003016000612c95919061452d565b600a86815481101515612ca457fe5b90600052602060002090600502016004016000612cc1919061452d565b8484600a88815481101515612cd257fe5b90600052602060002090600502016003019190612cf092919061454e565b508282600a88815481101515612d0257fe5b90600052602060002090600502016004019190612d2092919061454e565b507f34cf54504fd39ab670a54acbb37f686c5bd25e6eedfa39889cba899d360bc7d9866040518082815260200191505060405180910390a1505050505050565b6000806000600b8054905090506000811480612d815750612d7f6128f3565b155b15612d8b57612df8565b600191505b6001810383108015612de55750600c60016003600186010203815481101515612db557fe5b90600052602060002090600891828204019190066004029054906101000a900463ffffffff1663ffffffff164210155b15612df7578280600101935050612d90565b5b509091565b600080600080600091505b600a80549050821015612e9557600a82815481101515612e2457fe5b90600052602060002090600502019050428160000160009054906101000a900463ffffffff1663ffffffff1611158015612e775750428160000160049054906101000a900463ffffffff1663ffffffff16115b15612e885781600193509350612ea0565b8180600101925050612e08565b600080819150935093505b50509091565b60008060006060806000809054906101000a900473ffffffffffffffffffffffffffffffffffffffff1673ffffffffffffffffffffffffffffffffffffffff163373ffffffffffffffffffffffffffffffffffffffff16141515612f0957600080fd5b6000600a805490501115612f5d5742600a6000815481101515612f2857fe5b906000526020600020906005020160000160009054906101000a900463ffffffff1663ffffffff16111515612f5c57600080fd5b5b7fffffffffffffffffffffffffffffffffffffffffffffffffffffffffffffffff60ff168d8d905011151515612f9257600080fd5b60038d8d905010151515612fa557600080fd5b600060038e8e9050811515612fb657fe5b06141515612fc357600080fd5b88889050612fde60028d8d905061420190919063ffffffff16565b141515612fea57600080fd5b8c8c905061300560038d8d905061420190919063ffffffff16565b14151561301157600080fd5b60028b8b905002878790501015151561302957600080fd5b6000600a805490501115613134578c8c6000818110151561304657fe5b9050602002013563ffffffff1663ffffffff16600a6001600a805490500381548110151561307057fe5b906000526020600020906005020160000160049054906101000a900463ffffffff1663ffffffff16101515613133576040517f08c379a000000000000000000000000000000000000000000000000000000000815260040180806020018281038252603f8152602001807f4669727374206d696c6573746f6e6520656e6444617465206d7573742062652081526020017f67726561746572207468616e206c61737420737461676520656e64446174650081525060400191505060405180910390fd5b5b600b6000613142919061459b565b600c600061315091906145bf565b8c8c600c91906131619291906145e7565b506000945060009350600092505b8c8c905060ff168360ff1610156137be576131fc858a8a600260038860ff1681151561319757fe5b040260ff1681811015156131a757fe5b9050602002013563ffffffff1663ffffffff1689898080601f01602080910402602001604051908101604052809392919081815260200183838082843782019150505050505061423f9092919063ffffffff16565b91506132b48989600260038760ff1681151561321457fe5b040260ff16818110151561322457fe5b9050602002013563ffffffff1663ffffffff1686018a8a6001600260038960ff1681151561324e57fe5b04020160ff16818110151561325f57fe5b9050602002013563ffffffff1663ffffffff1689898080601f01602080910402602001604051908101604052809392919081815260200183838082843782019150505050505061423f9092919063ffffffff16565b9050428d8d8560ff1681811015156132c857fe5b9050602002013563ffffffff1663ffffffff161115156132e757600080fd5b8c8c8460ff1681811015156132f857fe5b9050602002013563ffffffff1663ffffffff168d8d6001860160ff16818110151561331f57fe5b9050602002013563ffffffff1663ffffffff1611151561333e57600080fd5b8c8c6001850160ff16818110151561335257fe5b9050602002013563ffffffff1663ffffffff168d8d6002860160ff16818110151561337957fe5b9050602002013563ffffffff1663ffffffff1611151561339857600080fd5b600082511115156133a857600080fd5b600081511115156133b857600080fd5b6133e78b8b60038660ff168115156133cc57fe5b0460ff1681811015156133db57fe5b905060200201356141a0565b1515613481576040517f08c379a00000000000000000000000000000000000000000000000000000000081526004018080602001828103825260308152602001807f5472616e6368652070657263656e74206973206e6f7420696e20616c6c6f776581526020017f642072616e6765205b302c20313030290000000000000000000000000000000081525060400191505060405180910390fd5b60008360ff161115613574578c8c8460ff16818110151561349e57fe5b9050602002013563ffffffff1663ffffffff168d8d6001860360ff1681811015156134c557fe5b9050602002013563ffffffff1663ffffffff16101515613573576040517f08c379a00000000000000000000000000000000000000000000000000000000081526004018080602001828103825260298152602001807f4d696c6573746f6e65206461746573206973206e6f7420696e20617363656e6481526020017f696e67206f72646572000000000000000000000000000000000000000000000081525060400191505060405180910390fd5b5b600b60c0604051908101604052808f8f8760ff16818110151561359357fe5b9050602002013563ffffffff1663ffffffff1681526020018d8d60038860ff168115156135bc57fe5b0460ff1681811015156135cb57fe5b9050602002013581526020018f8f6001880160ff1681811015156135eb57fe5b9050602002013563ffffffff1663ffffffff1681526020018f8f6002880160ff16818110151561361757fe5b9050602002013563ffffffff1663ffffffff168152602001848152602001838152509080600181540180825580915050906001820390600052602060002090600502016000909192909190915060008201518160000160006101000a81548163ffffffff021916908363ffffffff1602179055506020820151816001015560408201518160020160006101000a81548163ffffffff021916908363ffffffff16021790555060608201518160020160046101000a81548163ffffffff021916908363ffffffff16021790555060808201518160030190805190602001906136ff92919061469d565b5060a082015181600401908051906020019061371c92919061469d565b505050508888600160038660ff1681151561373357fe5b040160ff16818110151561374357fe5b9050602002013563ffffffff16898960038660ff1681151561376157fe5b0460ff16818110151561377057fe5b9050602002013563ffffffff160163ffffffff16850194508a8a60038560ff1681151561379957fe5b0460ff1681811015156137a857fe5b905060200201358401935060038301925061316f565b73__Percent_______________________________63d49d51816040518163ffffffff167c010000000000000000000000000000000000000000000000000000000002815260040160206040518083038186803b15801561381e57600080fd5b505af4158015613832573d6000803e3d6000fd5b505050506040513d602081101561384857600080fd5b81019080805190602001909291905050508414151561386657600080fd5b7f56d9a2e016027a3725bf162ef2779c8b28d4dbec97c679cfba02dbb31a34c7ca60405160405180910390a150505050505050505050505050565b600b818154811015156138b057fe5b90600052602060002090600502016000915090508060000160009054906101000a900463ffffffff16908060010154908060020160009054906101000a900463ffffffff16908060020160049054906101000a900463ffffffff1690806003018054600181600116156101000203166002900480601f0160208091040260200160405190810160405280929190818152602001828054600181600116156101000203166002900480156139a45780601f10613979576101008083540402835291602001916139a4565b820191906000526020600020905b81548152906001019060200180831161398757829003601f168201915b505050505090806004018054600181600116156101000203166002900480601f016020809104026020016040519081016040528092919081815260200182805460018160011615610100020316600290048015613a425780601f10613a1757610100808354040283529160200191613a42565b820191906000526020600020905b815481529060010190602001808311613a2557829003601f168201915b5050505050905086565b6000809054906101000a900473ffffffffffffffffffffffffffffffffffffffff1673ffffffffffffffffffffffffffffffffffffffff163373ffffffffffffffffffffffffffffffffffffffff16141515613aa757600080fd5b6000600a805490501115613afb5742600a6000815481101515613ac657fe5b906000526020600020906005020160000160009054906101000a900463ffffffff1663ffffffff16111515613afa57600080fd5b5b613b2781600760009054906101000a900473ffffffffffffffffffffffffffffffffffffffff166142cc565b50565b6060600a82815481101515613b3b57fe5b9060005260206000209060050201600301805480602002602001604051908101604052809291908181526020018280548015613b9657602002820191906000526020600020905b815481526020019060010190808311613b82575b50505050509050919050565b6000809054906101000a900473ffffffffffffffffffffffffffffffffffffffff1673ffffffffffffffffffffffffffffffffffffffff163373ffffffffffffffffffffffffffffffffffffffff16141515613bfd57600080fd5b613c0681614363565b50565b600260009054906101000a900473ffffffffffffffffffffffffffffffffffffffff1681565b6000806000806000879350600260009054906101000a900473ffffffffffffffffffffffffffffffffffffffff1673ffffffffffffffffffffffffffffffffffffffff166370a08231306040518263ffffffff167c0100000000000000000000000000000000000000000000000000000000028152600401808273ffffffffffffffffffffffffffffffffffffffff1673ffffffffffffffffffffffffffffffffffffffff168152602001915050602060405180830381600087803b158015613cf757600080fd5b505af1158015613d0b573d6000803e3d6000fd5b505050506040513d6020811015613d2157600080fd5b81019080805190602001909291905050509050600260009054906101000a900473ffffffffffffffffffffffffffffffffffffffff1673ffffffffffffffffffffffffffffffffffffffff1663313ce5676040518163ffffffff167c0100000000000000000000000000000000000000000000000000000000028152600401602060405180830381600087803b158015613dba57600080fd5b505af1158015613dce573d6000803e3d6000fd5b505050506040513d6020811015613de457600080fd5b810190808051906020019092919050505060ff16600a0a8110151515613e0957600080fd5b60008711613e1957600454613ecb565b613eca8773__Percent_______________________________63d49d51816040518163ffffffff167c010000000000000000000000000000000000000000000000000000000002815260040160206040518083038186803b158015613e7d57600080fd5b505af4158015613e91573d6000803e3d6000fd5b505050506040513d6020811015613ea757600080fd5b81019080805190602001909291905050500360045461415690919063ffffffff16565b5b915061411273__Percent_______________________________63d49d51816040518163ffffffff167c010000000000000000000000000000000000000000000000000000000002815260040160206040518083038186803b158015613f3057600080fd5b505af4158015613f44573d6000803e3d6000fd5b505050506040513d6020811015613f5a57600080fd5b8101908080519060200190929190505050614104846140f6600260009054906101000a900473ffffffffffffffffffffffffffffffffffffffff1673ffffffffffffffffffffffffffffffffffffffff1663313ce5676040518163ffffffff167c0100000000000000000000000000000000000000000000000000000000028152600401602060405180830381600087803b158015613ff857600080fd5b505af115801561400c573d6000803e3d6000fd5b505050506040513d602081101561402257600080fd5b810190808051906020019092919050505060ff16600a0a6140e88c73__Percent_______________________________63d49d51816040518163ffffffff167c010000000000000000000000000000000000000000000000000000000002815260040160206040518083038186803b15801561409d57600080fd5b505af41580156140b1573d6000803e3d6000fd5b505050506040513d60208110156140c757600080fd5b8101908080519060200190929190505050018f61420190919063ffffffff16565b61420190919063ffffffff16565b61445d90919063ffffffff16565b61445d90919063ffffffff16565b94508481101561414c5761414185614133838b61420190919063ffffffff16565b61445d90919063ffffffff16565b935083880392508094505b5093509350935093565b6000614161826141a0565b151561416c57600080fd5b614198614177614487565b61418a848661420190919063ffffffff16565b61445d90919063ffffffff16565b905092915050565b60006141aa614499565b82101580156141c057506141bc614487565b8211155b9050919050565b60006141d2826141a0565b15156141dd57600080fd5b6141fa6141e86144a1565b600a0a8361445d90919063ffffffff16565b9050919050565b60008060008414156142165760009150614238565b828402905082848281151561422757fe5b0414151561423457600080fd5b8091505b5092915050565b60608082840185511015151561425457600080fd5b82156000811461426f576040519150602082016040526142c0565b6040519150601f8416801560200281840101858101878315602002848b0101015b818310156142ad5780518352602083019250602081019050614290565b50868552601f19601f8301166040525050505b50809150509392505050565b6000821115156142db57600080fd5b600073ffffffffffffffffffffffffffffffffffffffff168173ffffffffffffffffffffffffffffffffffffffff161415151561431757600080fd5b8160048190555080600760006101000a81548173ffffffffffffffffffffffffffffffffffffffff021916908373ffffffffffffffffffffffffffffffffffffffff1602179055505050565b600073ffffffffffffffffffffffffffffffffffffffff168173ffffffffffffffffffffffffffffffffffffffff161415151561439f57600080fd5b8073ffffffffffffffffffffffffffffffffffffffff166000809054906101000a900473ffffffffffffffffffffffffffffffffffffffff1673ffffffffffffffffffffffffffffffffffffffff167f8be0079c531659141344cd1fd0a4f28419497f9722a3daafe3b4186f6b6457e060405160405180910390a3806000806101000a81548173ffffffffffffffffffffffffffffffffffffffff021916908373ffffffffffffffffffffffffffffffffffffffff16021790555050565b60008060008311151561446f57600080fd5b828481151561447a57fe5b0490508091505092915050565b60006144916144aa565b600a0a905090565b600080905090565b60006002905090565b60006144b46144a1565b600201905090565b50805460008255600502906000526020600020908101906144dd919061471d565b50565b82805482825590600052602060002090810192821561451c579160200282015b8281111561451b578251825591602001919060010190614500565b5b50905061452991906147a9565b5090565b508054600082559060005260206000209081019061454b91906147a9565b50565b82805482825590600052602060002090810192821561458a579160200282015b8281111561458957823582559160200191906001019061456e565b5b50905061459791906147a9565b5090565b50805460008255600502906000526020600020908101906145bc91906147ce565b50565b5080546000825560070160089004906000526020600020908101906145e491906147a9565b50565b8280548282559060005260206000209060070160089004810192821561468c5791602002820160005b8382111561465a57833563ffffffff1683826101000a81548163ffffffff021916908363ffffffff1602179055509260200192600401602081600301049283019260010302614610565b801561468a5782816101000a81549063ffffffff021916905560040160208160030104928301926001030261465a565b505b509050614699919061485a565b5090565b828054600181600116156101000203166002900490600052602060002090601f016020900481019282601f106146de57805160ff191683800117855561470c565b8280016001018555821561470c579182015b8281111561470b5782518255916020019190600101906146f0565b5b50905061471991906147a9565b5090565b6147a691905b808211156147a257600080820160006101000a81549063ffffffff02191690556000820160046101000a81549063ffffffff021916905560018201600090556002820160006101000a81549063ffffffff0219169055600382016000614789919061452d565b600482016000614799919061452d565b50600501614723565b5090565b90565b6147cb91905b808211156147c75760008160009055506001016147af565b5090565b90565b61485791905b8082111561485357600080820160006101000a81549063ffffffff021916905560018201600090556002820160006101000a81549063ffffffff02191690556002820160046101000a81549063ffffffff021916905560038201600061483a919061488d565b60048201600061484a919061488d565b506005016147d4565b5090565b90565b61488a91905b8082111561488657600081816101000a81549063ffffffff021916905550600101614860565b5090565b90565b50805460018160011615610100020316600290046000825580601f106148b357506148d2565b601f0160209004906000526020600020908101906148d191906147a9565b5b505600a165627a7a72305820f1a942a407d291230cf8b27e4b1e35c29ee3d53b8772e740ef422503db859dd90029",
  "source": "pragma solidity ^0.4.24;\n\nimport \"../openzeppelin-solidity/contracts/ownership/Ownable.sol\";\nimport \"../openzeppelin-solidity/contracts/ReentrancyGuard.sol\";\nimport \"../openzeppelin-solidity/contracts/math/SafeMath.sol\";\nimport \"../solidity-bytes-utils/contracts/BytesLib.sol\";\nimport \"./interfaces/IW12Crowdsale.sol\";\nimport \"../openzeppelin-solidity/contracts/token/ERC20/ERC20.sol\";\nimport \"./interfaces/IW12Fund.sol\";\nimport \"./libs/Percent.sol\";\n\ncontract W12Crowdsale is IW12Crowdsale, Ownable, ReentrancyGuard {\n    using SafeMath for uint;\n    using Percent for uint;\n    using BytesLib for bytes;\n\n    struct Stage {\n        uint32 startDate;\n        uint32 endDate;\n        uint discount;\n        uint32 vesting;\n        uint[] volumeBoundaries;\n        uint[] volumeBonuses;\n    }\n\n    struct Milestone {\n        uint32 endDate;\n        uint  tranchePercent;\n        uint32 voteEndDate;\n        uint32 withdrawalWindow;\n        bytes name;\n        bytes description;\n    }\n\n    WToken public token;\n    ERC20 public originToken;\n    uint public price;\n    uint public serviceFee;\n    uint public WTokenSaleFeePercent;\n    address public serviceWallet;\n    address public swap;\n    IW12Fund public fund;\n\n    Stage[] public stages;\n    Milestone[] public milestones;\n    uint32[] public milestoneDates;\n\n    event TokenPurchase(address indexed buyer, uint amountPaid, uint tokensBought, uint change);\n    event StagesUpdated();\n    event StageUpdated(uint index);\n    event MilestonesUpdated();\n    event UnsoldTokenReturned(address indexed owner, uint amount);\n\n    event debug(uint value);\n\n    constructor (\n        address _originToken,\n        address _token,\n        uint _price,\n        address _serviceWallet,\n        address _swap,\n        uint _serviceFee,\n        uint _WTokenSaleFeePercent,\n        IW12Fund _fund\n    )\n        public\n    {\n        require(_token != address(0));\n        require(_serviceFee.isPercent() && _serviceFee.fromPercent() < 100);\n        require(_WTokenSaleFeePercent.isPercent() && _WTokenSaleFeePercent.fromPercent() < 100);\n        require(_fund != address(0));\n        require(_swap != address(0));\n\n        token = WToken(_token);\n        originToken = ERC20(_originToken);\n\n        __setParameters(_price, _serviceWallet);\n        serviceFee = _serviceFee;\n        swap = _swap;\n        WTokenSaleFeePercent = _WTokenSaleFeePercent;\n        fund = _fund;\n    }\n\n    function stagesLength() external view returns (uint) {\n        return stages.length;\n    }\n\n    function milestonesLength() external view returns (uint) {\n        return milestones.length;\n    }\n\n    function getMilestone(uint index) public view returns (uint32, uint, uint32, uint32, bytes, bytes) {\n        return (\n            milestones[index].endDate,\n            milestones[index].tranchePercent,\n            milestones[index].voteEndDate,\n            milestones[index].withdrawalWindow,\n            milestones[index].name,\n            milestones[index].description\n        );\n    }\n\n    function getStage(uint index) public view returns (uint32, uint32, uint, uint32, uint[], uint[]) {\n        return (\n            stages[index].startDate,\n            stages[index].endDate,\n            stages[index].discount,\n            stages[index].vesting,\n            stages[index].volumeBoundaries,\n            stages[index].volumeBonuses\n        );\n    }\n\n    function getStageVolumeBoundaries(uint stageNumber) external view returns (uint[]) {\n        return stages[stageNumber].volumeBoundaries;\n    }\n\n    function getStageVolumeBonuses(uint stageNumber) external view returns (uint[]) {\n        return stages[stageNumber].volumeBonuses;\n    }\n\n    function getEndDate() external view returns (uint32) {\n        require(stages.length > 0);\n\n        return stages[stages.length - 1].endDate;\n    }\n\n    // returns last milestone index if completely ended or active milestone at now\n    function getCurrentMilestoneIndex() public view returns (uint index, bool found) {\n        uint milestonesCount = milestones.length;\n\n        if(milestonesCount == 0 || !isEnded()) return;\n\n        found = true;\n\n        // from withdrawalWindow begins next milestone\n        while(index < milestonesCount - 1 && now >= milestoneDates[(index + 1) * 3 - 1])\n            index++;\n    }\n\n    function getLastMilestoneIndex() public view returns (uint index, bool found) {\n        uint milestonesCount = milestones.length;\n\n        if (milestonesCount == 0 || !isEnded()) return;\n\n        found = true;\n        index = milestonesCount - 1;\n    }\n\n    function __setParameters(uint _price, address _serviceWallet) internal {\n        require(_price > 0);\n        require(_serviceWallet != address(0));\n\n        price = _price;\n        serviceWallet = _serviceWallet;\n    }\n\n    function setParameters(uint _price) external onlyOwner beforeSaleStart {\n        __setParameters(_price, serviceWallet);\n    }\n\n    function setStages(uint32[2][] dates, uint[] stage_discounts, uint32[] stage_vestings) external onlyOwner beforeSaleStart {\n        require(dates.length <= uint8(-1));\n        require(dates.length > 0);\n        require(dates.length == stage_discounts.length);\n        require(dates.length == stage_vestings.length);\n\n        if (milestones.length > 0) {\n            require(milestones[0].endDate > dates[dates.length - 1][1], \"Last stage endDate must be less than first milestone endDate\");\n        }\n\n        uint8 stagesCount = uint8(dates.length);\n\n        delete stages;\n\n        for(uint8 i = 0; i < stagesCount; i++) {\n            require(stage_discounts[i].isPercent() && stage_discounts[i].fromPercent() < 100, \"Stage discount is not in allowed range [0, 99.99)\");\n            require(dates[i][0] > now);\n            require(dates[i][0] < dates[i][1], \"Stage start date must be gt end date\");\n\n            if (i > 0) {\n                require(dates[i - 1][1] <= dates[i][0], \"Stages are not in historical order\");\n            }\n\n            stages.push(Stage({\n                startDate: dates[i][0],\n                endDate: dates[i][1],\n                discount: stage_discounts[i],\n                vesting: stage_vestings[i],\n                volumeBoundaries: new uint[](0),\n                volumeBonuses: new uint[](0)\n            }));\n        }\n\n        emit StagesUpdated();\n    }\n\n    function setStageVolumeBonuses(uint stage, uint[] volumeBoundaries, uint[] volumeBonuses) external onlyOwner beforeSaleStart {\n        require(volumeBoundaries.length == volumeBonuses.length);\n        require(stage < stages.length);\n\n        for(uint i = 0; i < volumeBoundaries.length; i++) {\n            require(volumeBonuses[i].isPercent() && volumeBonuses[i].fromPercent() < 100, \"Bonus percent is not in allowed range [0, 99.99)\");\n\n            if (i > 0) {\n                require(volumeBoundaries[i - 1] < volumeBoundaries[i], \"Volume boundaries must be in ascending order\");\n            }\n        }\n\n        delete stages[stage].volumeBoundaries;\n        delete stages[stage].volumeBonuses;\n\n        stages[stage].volumeBoundaries = volumeBoundaries;\n        stages[stage].volumeBonuses = volumeBonuses;\n\n        emit StageUpdated(stage);\n    }\n\n    function setMilestones(\n        uint32[] dates,\n        uint[] tranchePercents,\n        uint32[] offsets,\n        bytes namesAndDescriptions\n    )\n        external onlyOwner beforeSaleStart\n    {\n        require(dates.length <= uint8(- 1));\n        require(dates.length >= 3);\n        require(dates.length % 3 == 0);\n        require(tranchePercents.length.mul(2) == offsets.length);\n        require(tranchePercents.length.mul(3) == dates.length);\n        require(namesAndDescriptions.length >= tranchePercents.length * 2);\n\n        if (stages.length > 0) {\n            require(\n                stages[stages.length - 1].endDate < dates[0],\n                \"First milestone endDate must be greater than last stage endDate\"\n            );\n        }\n\n        delete milestones;\n        delete milestoneDates;\n\n        milestoneDates = dates;\n\n        uint offset = 0;\n        uint totalPercents = 0;\n\n        for(uint8 i = 0; i < uint8(dates.length); i += 3) {\n            bytes memory name = namesAndDescriptions.slice(offset, offsets[i / 3 * 2]);\n            bytes memory description = namesAndDescriptions.slice(offset + offsets[i / 3 * 2], offsets[i / 3 * 2 + 1]);\n\n            require(dates[i] > now);\n            require(dates[i + 1] > dates[i]);\n            require(dates[i + 2] > dates[i + 1]);\n            require(name.length > 0);\n            require(description.length > 0);\n            require(\n                tranchePercents[i / 3].isPercent(),\n                \"Tranche percent is not in allowed range [0, 100)\"\n            );\n\n            if (i > 0) {\n                require(dates[i - 1] < dates[i], \"Milestone dates is not in ascending order\");\n            }\n\n            milestones.push(Milestone({\n                endDate: dates[i],\n                tranchePercent: tranchePercents[i / 3],\n                voteEndDate: dates[i + 1],\n                withdrawalWindow: dates[i + 2],\n                name: name,\n                description: description\n            }));\n\n            offset += offsets[i / 3] + offsets[i / 3 + 1];\n            totalPercents += tranchePercents[i / 3];\n        }\n\n        require(totalPercents == Percent.MAX());\n\n        emit MilestonesUpdated();\n    }\n\n    function buyTokens() payable public nonReentrant onlyWhenSaleActive {\n        require(msg.value > 0);\n\n        (uint index, ) = getCurrentStageIndex();\n\n        uint discount = stages[index].discount;\n        uint32 vesting = stages[index].vesting;\n        uint volumeBonus = getSaleVolumeBonus(msg.value);\n\n        (uint tokenAmount, uint weiCost, uint change, ) = _purchaseOrder(msg.value, discount, volumeBonus);\n\n        if (WTokenSaleFeePercent > 0) {\n            uint tokensFee = tokenAmount.percent(WTokenSaleFeePercent);\n\n            require(originToken.transferFrom(swap, serviceWallet, tokensFee));\n            require(token.transfer(swap, tokensFee));\n        }\n\n        require(token.vestingTransfer(msg.sender, tokenAmount, vesting));\n\n        if (change > 0) {\n            msg.sender.transfer(change);\n        }\n\n        if(serviceFee > 0)\n            serviceWallet.transfer(weiCost.percent(serviceFee));\n\n        fund.recordPurchase.value(address(this).balance).gas(100000)(msg.sender, tokenAmount);\n\n        emit TokenPurchase(msg.sender, weiCost, tokenAmount, change);\n    }\n\n    function _purchaseOrder(uint _wei, uint discount, uint volumeBonus)\n        internal view returns (uint tokens, uint weiCost, uint change, uint actualPrice)\n    {\n        weiCost = _wei;\n\n        uint balance = token.balanceOf(address(this));\n\n        require(balance >= 10 ** uint(token.decimals()));\n\n        actualPrice = discount > 0\n            ? price.percent(Percent.MAX() - discount)\n            : price;\n\n        tokens = _wei\n            .mul(Percent.MAX() + volumeBonus)\n            .mul(10 ** uint(token.decimals()))\n            .div(actualPrice)\n            .div(Percent.MAX());\n\n        if (balance < tokens) {\n            weiCost = _wei\n                .mul(balance)\n                .div(tokens);\n            change = _wei - weiCost;\n            tokens = balance;\n        }\n    }\n\n    function getWToken() external view returns(WToken) {\n        return token;\n    }\n\n    function getFund() external view returns(IW12Fund) {\n        return fund;\n    }\n\n    function getSaleVolumeBonus(uint value) public view returns(uint bonus) {\n        (uint index, bool found) = getCurrentStageIndex();\n\n        if (!found) return 0;\n\n        Stage storage stage = stages[index];\n\n        for(uint i = 0; i < stage.volumeBoundaries.length; i++) {\n            if (value >= stage.volumeBoundaries[i]) {\n                bonus = stage.volumeBonuses[i];\n            } else {\n                break;\n            }\n        }\n    }\n\n    function getCurrentStageIndex() public view returns (uint index, bool found) {\n        for(uint i = 0; i < stages.length; i++) {\n            Stage storage stage = stages[i];\n\n            if (stage.startDate <= now && stage.endDate > now) {\n                return (i, true);\n            }\n        }\n\n        return (0, false);\n    }\n\n    function claimRemainingTokens() external onlyOwner {\n        require(isEnded());\n\n        uint amount = token.balanceOf(address(this));\n\n        require(token.transfer(owner, amount));\n\n        emit UnsoldTokenReturned(owner, amount);\n    }\n\n    function isEnded() public view returns (bool) {\n        return stages.length == 0 || stages[stages.length - 1].endDate < now;\n    }\n\n    function isSaleActive() public view returns (bool) {\n        (, bool found) = getCurrentStageIndex();\n\n        return found;\n    }\n\n    function() payable external {\n        buyTokens();\n    }\n\n    modifier beforeSaleStart() {\n        if (stages.length > 0) {\n            require(stages[0].startDate > now);\n        }\n\n        _;\n    }\n\n    modifier onlyWhenSaleActive() {\n        require(isSaleActive(), \"Sale is not started yet\");\n\n        _;\n    }\n}\n",
  "sourcePath": "/Projects/w12-new/contracts/W12Crowdsale.sol",
  "compiler": {
    "name": "solc",
    "version": "0.4.24+commit.e67f0147.Emscripten.clang"
  },
  "schemaVersion": "2.0.1",
  "updatedAt": "2018-09-17T15:36:05.707Z"
}