{
  "contractName": "W12CrowdsaleStub",
  "abi": [
    {
      "constant": false,
      "inputs": [
        {
          "name": "dates",
          "type": "uint32[]"
        },
        {
          "name": "tranchePercents",
          "type": "uint8[]"
        },
        {
          "name": "offsets",
          "type": "uint32[]"
        },
        {
          "name": "namesAndDescriptions",
          "type": "bytes"
        }
      ],
      "name": "setMilestones",
      "outputs": [],
      "payable": false,
      "stateMutability": "nonpayable",
      "type": "function"
    },
    {
      "constant": true,
      "inputs": [
        {
          "name": "stageNumber",
          "type": "uint256"
        }
      ],
      "name": "getStageVolumeBonuses",
      "outputs": [
        {
          "name": "",
          "type": "uint8[]"
        }
      ],
      "payable": false,
      "stateMutability": "view",
      "type": "function"
    },
    {
      "constant": true,
      "inputs": [],
      "name": "originToken",
      "outputs": [
        {
          "name": "",
          "type": "address"
        }
      ],
      "payable": false,
      "stateMutability": "view",
      "type": "function"
    },
    {
      "constant": true,
      "inputs": [
        {
          "name": "value",
          "type": "uint256"
        }
      ],
      "name": "getSaleVolumeBonus",
      "outputs": [
        {
          "name": "bonus",
          "type": "uint256"
        }
      ],
      "payable": false,
      "stateMutability": "view",
      "type": "function"
    },
    {
      "constant": true,
      "inputs": [
        {
          "name": "index",
          "type": "uint256"
        }
      ],
      "name": "getMilestone",
      "outputs": [
        {
          "name": "",
          "type": "uint32"
        },
        {
          "name": "",
          "type": "uint8"
        },
        {
          "name": "",
          "type": "uint32"
        },
        {
          "name": "",
          "type": "uint32"
        },
        {
          "name": "",
          "type": "bytes"
        },
        {
          "name": "",
          "type": "bytes"
        }
      ],
      "payable": false,
      "stateMutability": "view",
      "type": "function"
    },
    {
      "constant": true,
      "inputs": [],
      "name": "getCurrentMilestone",
      "outputs": [
        {
          "name": "",
          "type": "uint32"
        },
        {
          "name": "",
          "type": "uint8"
        },
        {
          "name": "",
          "type": "uint32"
        },
        {
          "name": "",
          "type": "uint32"
        },
        {
          "name": "",
          "type": "bytes"
        },
        {
          "name": "",
          "type": "bytes"
        }
      ],
      "payable": false,
      "stateMutability": "view",
      "type": "function"
    },
    {
      "constant": false,
      "inputs": [
        {
          "name": "dates",
          "type": "uint32[2][]"
        },
        {
          "name": "stage_discounts",
          "type": "uint8[]"
        },
        {
          "name": "stage_vestings",
          "type": "uint32[]"
        }
      ],
      "name": "setStages",
      "outputs": [],
      "payable": false,
      "stateMutability": "nonpayable",
      "type": "function"
    },
    {
      "constant": true,
      "inputs": [],
      "name": "WTokenSaleFeePercent",
      "outputs": [
        {
          "name": "",
          "type": "uint256"
        }
      ],
      "payable": false,
      "stateMutability": "view",
      "type": "function"
    },
    {
      "constant": false,
      "inputs": [],
      "name": "claimRemainingTokens",
      "outputs": [],
      "payable": false,
      "stateMutability": "nonpayable",
      "type": "function"
    },
    {
      "constant": true,
      "inputs": [],
      "name": "milestonesLength",
      "outputs": [
        {
          "name": "",
          "type": "uint256"
        }
      ],
      "payable": false,
      "stateMutability": "view",
      "type": "function"
    },
    {
      "constant": true,
      "inputs": [],
      "name": "getWToken",
      "outputs": [
        {
          "name": "",
          "type": "address"
        }
      ],
      "payable": false,
      "stateMutability": "view",
      "type": "function"
    },
    {
      "constant": false,
      "inputs": [
        {
          "name": "stage",
          "type": "uint256"
        },
        {
          "name": "volumeBoundaries",
          "type": "uint256[]"
        },
        {
          "name": "volumeBonuses",
          "type": "uint8[]"
        }
      ],
      "name": "setStageVolumeBonuses",
      "outputs": [],
      "payable": false,
      "stateMutability": "nonpayable",
      "type": "function"
    },
    {
      "constant": true,
      "inputs": [],
      "name": "serviceWallet",
      "outputs": [
        {
          "name": "",
          "type": "address"
        }
      ],
      "payable": false,
      "stateMutability": "view",
      "type": "function"
    },
    {
      "constant": true,
      "inputs": [],
      "name": "isSaleActive",
      "outputs": [
        {
          "name": "",
          "type": "bool"
        }
      ],
      "payable": false,
      "stateMutability": "view",
      "type": "function"
    },
    {
      "constant": false,
      "inputs": [],
      "name": "renounceOwnership",
      "outputs": [],
      "payable": false,
      "stateMutability": "nonpayable",
      "type": "function"
    },
    {
      "constant": true,
      "inputs": [
        {
          "name": "",
          "type": "uint256"
        }
      ],
      "name": "milestoneDates",
      "outputs": [
        {
          "name": "",
          "type": "uint32"
        }
      ],
      "payable": false,
      "stateMutability": "view",
      "type": "function"
    },
    {
      "constant": true,
      "inputs": [],
      "name": "stagesLength",
      "outputs": [
        {
          "name": "",
          "type": "uint256"
        }
      ],
      "payable": false,
      "stateMutability": "view",
      "type": "function"
    },
    {
      "constant": true,
      "inputs": [],
      "name": "swap",
      "outputs": [
        {
          "name": "",
          "type": "address"
        }
      ],
      "payable": false,
      "stateMutability": "view",
      "type": "function"
    },
    {
      "constant": true,
      "inputs": [
        {
          "name": "",
          "type": "uint256"
        }
      ],
      "name": "stages",
      "outputs": [
        {
          "name": "startDate",
          "type": "uint32"
        },
        {
          "name": "endDate",
          "type": "uint32"
        },
        {
          "name": "discount",
          "type": "uint8"
        },
        {
          "name": "vesting",
          "type": "uint32"
        }
      ],
      "payable": false,
      "stateMutability": "view",
      "type": "function"
    },
    {
      "constant": true,
      "inputs": [],
      "name": "serviceFee",
      "outputs": [
        {
          "name": "",
          "type": "uint256"
        }
      ],
      "payable": false,
      "stateMutability": "view",
      "type": "function"
    },
    {
      "constant": true,
      "inputs": [],
      "name": "owner",
      "outputs": [
        {
          "name": "",
          "type": "address"
        }
      ],
      "payable": false,
      "stateMutability": "view",
      "type": "function"
    },
    {
      "constant": true,
      "inputs": [],
      "name": "getFund",
      "outputs": [
        {
          "name": "",
          "type": "address"
        }
      ],
      "payable": false,
      "stateMutability": "view",
      "type": "function"
    },
    {
      "constant": true,
      "inputs": [],
      "name": "price",
      "outputs": [
        {
          "name": "",
          "type": "uint256"
        }
      ],
      "payable": false,
      "stateMutability": "view",
      "type": "function"
    },
    {
      "constant": true,
      "inputs": [],
      "name": "isEnded",
      "outputs": [
        {
          "name": "",
          "type": "bool"
        }
      ],
      "payable": false,
      "stateMutability": "view",
      "type": "function"
    },
    {
      "constant": true,
      "inputs": [],
      "name": "getEndDate",
      "outputs": [
        {
          "name": "",
          "type": "uint32"
        }
      ],
      "payable": false,
      "stateMutability": "view",
      "type": "function"
    },
    {
      "constant": true,
      "inputs": [],
      "name": "fund",
      "outputs": [
        {
          "name": "",
          "type": "address"
        }
      ],
      "payable": false,
      "stateMutability": "view",
      "type": "function"
    },
    {
      "constant": false,
      "inputs": [],
      "name": "buyTokens",
      "outputs": [],
      "payable": true,
      "stateMutability": "payable",
      "type": "function"
    },
    {
      "constant": true,
      "inputs": [],
      "name": "getCurrentMilestoneIndex",
      "outputs": [
        {
          "name": "index",
          "type": "uint256"
        }
      ],
      "payable": false,
      "stateMutability": "view",
      "type": "function"
    },
    {
      "constant": true,
      "inputs": [],
      "name": "getCurrentStageIndex",
      "outputs": [
        {
          "name": "index",
          "type": "uint256"
        },
        {
          "name": "found",
          "type": "bool"
        }
      ],
      "payable": false,
      "stateMutability": "view",
      "type": "function"
    },
    {
      "constant": true,
      "inputs": [
        {
          "name": "",
          "type": "uint256"
        }
      ],
      "name": "milestones",
      "outputs": [
        {
          "name": "endDate",
          "type": "uint32"
        },
        {
          "name": "tranchePercent",
          "type": "uint8"
        },
        {
          "name": "voteEndDate",
          "type": "uint32"
        },
        {
          "name": "withdrawalWindow",
          "type": "uint32"
        },
        {
          "name": "name",
          "type": "bytes"
        },
        {
          "name": "description",
          "type": "bytes"
        }
      ],
      "payable": false,
      "stateMutability": "view",
      "type": "function"
    },
    {
      "constant": false,
      "inputs": [
        {
          "name": "_price",
          "type": "uint256"
        }
      ],
      "name": "setParameters",
      "outputs": [],
      "payable": false,
      "stateMutability": "nonpayable",
      "type": "function"
    },
    {
      "constant": true,
      "inputs": [
        {
          "name": "stageNumber",
          "type": "uint256"
        }
      ],
      "name": "getStageVolumeBoundaries",
      "outputs": [
        {
          "name": "",
          "type": "uint256[]"
        }
      ],
      "payable": false,
      "stateMutability": "view",
      "type": "function"
    },
    {
      "constant": false,
      "inputs": [
        {
          "name": "newOwner",
          "type": "address"
        }
      ],
      "name": "transferOwnership",
      "outputs": [],
      "payable": false,
      "stateMutability": "nonpayable",
      "type": "function"
    },
    {
      "constant": true,
      "inputs": [],
      "name": "token",
      "outputs": [
        {
          "name": "",
          "type": "address"
        }
      ],
      "payable": false,
      "stateMutability": "view",
      "type": "function"
    },
    {
      "inputs": [
        {
          "name": "_originToken",
          "type": "address"
        },
        {
          "name": "_token",
          "type": "address"
        },
        {
          "name": "_tokenDecimals",
          "type": "uint256"
        },
        {
          "name": "_price",
          "type": "uint256"
        },
        {
          "name": "_serviceWallet",
          "type": "address"
        },
        {
          "name": "_swap",
          "type": "address"
        },
        {
          "name": "_serviceFee",
          "type": "uint256"
        },
        {
          "name": "_WTokenSaleFeePercent",
          "type": "uint256"
        },
        {
          "name": "_fund",
          "type": "address"
        }
      ],
      "payable": false,
      "stateMutability": "nonpayable",
      "type": "constructor"
    },
    {
      "payable": true,
      "stateMutability": "payable",
      "type": "fallback"
    },
    {
      "anonymous": false,
      "inputs": [
        {
          "indexed": true,
          "name": "buyer",
          "type": "address"
        },
        {
          "indexed": false,
          "name": "amountPaid",
          "type": "uint256"
        },
        {
          "indexed": false,
          "name": "tokensBought",
          "type": "uint256"
        },
        {
          "indexed": false,
          "name": "change",
          "type": "uint256"
        }
      ],
      "name": "TokenPurchase",
      "type": "event"
    },
    {
      "anonymous": false,
      "inputs": [],
      "name": "StagesUpdated",
      "type": "event"
    },
    {
      "anonymous": false,
      "inputs": [],
      "name": "MilestonesSet",
      "type": "event"
    },
    {
      "anonymous": false,
      "inputs": [
        {
          "indexed": true,
          "name": "owner",
          "type": "address"
        },
        {
          "indexed": false,
          "name": "amount",
          "type": "uint256"
        }
      ],
      "name": "UnsoldTokenReturned",
      "type": "event"
    },
    {
      "anonymous": false,
      "inputs": [
        {
          "indexed": false,
          "name": "value",
          "type": "uint256"
        }
      ],
      "name": "debug",
      "type": "event"
    },
    {
      "anonymous": false,
      "inputs": [
        {
          "indexed": true,
          "name": "previousOwner",
          "type": "address"
        }
      ],
      "name": "OwnershipRenounced",
      "type": "event"
    },
    {
      "anonymous": false,
      "inputs": [
        {
          "indexed": true,
          "name": "previousOwner",
          "type": "address"
        },
        {
          "indexed": true,
          "name": "newOwner",
          "type": "address"
        }
      ],
      "name": "OwnershipTransferred",
      "type": "event"
    },
    {
      "constant": false,
      "inputs": [
        {
          "name": "to",
          "type": "address"
        },
        {
          "name": "amount",
          "type": "uint256"
        }
      ],
      "name": "_outTokens",
      "outputs": [
        {
          "name": "",
          "type": "bool"
        }
      ],
      "payable": false,
      "stateMutability": "nonpayable",
      "type": "function"
    },
    {
      "constant": false,
      "inputs": [
        {
          "name": "_WTokenSaleFeePercent",
          "type": "uint256"
        }
      ],
      "name": "_setState",
      "outputs": [],
      "payable": false,
      "stateMutability": "nonpayable",
      "type": "function"
    }
  ],
  "bytecode": "0x608060405260008060146101000a81548160ff0219169083151502179055503480156200002b57600080fd5b5060405161012080620047a5833981018060405281019080805190602001909291908051906020019092919080519060200190929190805190602001909291908051906020019092919080519060200190929190805190602001909291908051906020019092919080519060200190929190505050888888888888888888336000806101000a81548173ffffffffffffffffffffffffffffffffffffffff021916908373ffffffffffffffffffffffffffffffffffffffff160217905550600073ffffffffffffffffffffffffffffffffffffffff168873ffffffffffffffffffffffffffffffffffffffff16141515156200012657600080fd5b6200014583620003986401000000000262003e9e176401000000009004565b801562000170575060646200016e84620003b46401000000000262004281176401000000009004565b105b15156200017c57600080fd5b6200019b82620003986401000000000262003e9e176401000000009004565b8015620001c657506064620001c483620003b46401000000000262004281176401000000009004565b105b1515620001d257600080fd5b600073ffffffffffffffffffffffffffffffffffffffff168173ffffffffffffffffffffffffffffffffffffffff16141515156200020f57600080fd5b600073ffffffffffffffffffffffffffffffffffffffff168473ffffffffffffffffffffffffffffffffffffffff16141515156200024c57600080fd5b87600160006101000a81548173ffffffffffffffffffffffffffffffffffffffff021916908373ffffffffffffffffffffffffffffffffffffffff16021790555088600260006101000a81548173ffffffffffffffffffffffffffffffffffffffff021916908373ffffffffffffffffffffffffffffffffffffffff16021790555086600381905550620002f0868662000407640100000000026401000000009004565b8260058190555083600860006101000a81548173ffffffffffffffffffffffffffffffffffffffff021916908373ffffffffffffffffffffffffffffffffffffffff1602179055508160068190555080600960006101000a81548173ffffffffffffffffffffffffffffffffffffffff021916908373ffffffffffffffffffffffffffffffffffffffff160217905550505050505050505050505050505050505050620004b7565b6000808210158015620003ad57506127108211155b9050919050565b6000620003d08262000398640100000000026401000000009004565b1515620003dc57600080fd5b62000400606483620004a06401000000000262003e88179091906401000000009004565b9050919050565b6000821115156200041757600080fd5b600073ffffffffffffffffffffffffffffffffffffffff168173ffffffffffffffffffffffffffffffffffffffff16141515156200045457600080fd5b8160048190555080600760006101000a81548173ffffffffffffffffffffffffffffffffffffffff021916908373ffffffffffffffffffffffffffffffffffffffff1602179055505050565b60008183811515620004ae57fe5b04905092915050565b6142de80620004c76000396000f3006080604052600436106101c2576000357c0100000000000000000000000000000000000000000000000000000000900463ffffffff1680630d544ffe146101cc5780630ee62c771461024f57806313096a41146102d15780631aecc19f14610328578063208853c91461038d5780632442e1cb146103ce578063299a017c146105265780632c9a4bab146106685780632fbe5990146106d3578063313602d4146106fe5780633baba4d7146107155780634090cb6414610740578063521b7499146107975780635641f3c3146107f4578063564566a81461084b578063715018a61461087a57806372e6a88114610891578063792c02ea146108de5780638119c06514610909578063845ddcb2146109605780638abdf5aa146109e05780638da5cb5b14610a0b5780638edd6eb614610a62578063a035b1fe14610ab9578063a4fd6f5614610ae4578063b135648814610b13578063b60d428814610b4a578063ca7348a314610ba1578063d0febe4c14610bce578063d6d65f3d14610bd8578063daa4cf8814610c03578063e89e4ed614610c39578063e93b054014610d91578063f12585f514610dbe578063f2fde38b14610e40578063fc0c546a14610e83575b6101ca610eda565b005b3480156101d857600080fd5b5061024d60048036038101908080359060200190820180359060200191909192939192939080359060200190820180359060200191909192939192939080359060200190820180359060200191909192939192939080359060200190820180359060200191909192939192939050505061167f565b005b34801561025b57600080fd5b5061027a60048036038101908080359060200190929190505050611ef3565b6040518080602001828103825283818151815260200191508051906020019060200280838360005b838110156102bd5780820151818401526020810190506102a2565b505050509050019250505060405180910390f35b3480156102dd57600080fd5b506102e6611f91565b604051808273ffffffffffffffffffffffffffffffffffffffff1673ffffffffffffffffffffffffffffffffffffffff16815260200191505060405180910390f35b34801561033457600080fd5b50610373600480360381019080803573ffffffffffffffffffffffffffffffffffffffff16906020019092919080359060200190929190505050611fb7565b604051808215151515815260200191505060405180910390f35b34801561039957600080fd5b506103b8600480360381019080803590602001909291905050506120c1565b6040518082815260200191505060405180910390f35b3480156103da57600080fd5b506103f960048036038101908080359060200190929190505050612193565b604051808763ffffffff1663ffffffff1681526020018660ff1660ff1681526020018563ffffffff1663ffffffff1681526020018463ffffffff1663ffffffff1681526020018060200180602001838103835285818151815260200191508051906020019080838360005b8381101561047f578082015181840152602081019050610464565b50505050905090810190601f1680156104ac5780820380516001836020036101000a031916815260200191505b50838103825284818151815260200191508051906020019080838360005b838110156104e55780820151818401526020810190506104ca565b50505050905090810190601f1680156105125780820380516001836020036101000a031916815260200191505b509850505050505050505060405180910390f35b34801561053257600080fd5b5061053b6123ea565b604051808763ffffffff1663ffffffff1681526020018660ff1660ff1681526020018563ffffffff1663ffffffff1681526020018463ffffffff1663ffffffff1681526020018060200180602001838103835285818151815260200191508051906020019080838360005b838110156105c15780820151818401526020810190506105a6565b50505050905090810190601f1680156105ee5780820380516001836020036101000a031916815260200191505b50838103825284818151815260200191508051906020019080838360005b8381101561062757808201518184015260208101905061060c565b50505050905090810190601f1680156106545780820380516001836020036101000a031916815260200191505b509850505050505050505060405180910390f35b34801561067457600080fd5b506106d160048036038101908080359060200190820180359060200191909192939192939080359060200190820180359060200191909192939192939080359060200190820180359060200191909192939192939050505061241d565b005b3480156106df57600080fd5b506106e8612ba5565b6040518082815260200191505060405180910390f35b34801561070a57600080fd5b50610713612bab565b005b34801561072157600080fd5b5061072a612eb3565b6040518082815260200191505060405180910390f35b34801561074c57600080fd5b50610755612ec0565b604051808273ffffffffffffffffffffffffffffffffffffffff1673ffffffffffffffffffffffffffffffffffffffff16815260200191505060405180910390f35b3480156107a357600080fd5b506107f260048036038101908080359060200190929190803590602001908201803590602001919091929391929390803590602001908201803590602001919091929391929390505050612eea565b005b34801561080057600080fd5b50610809613171565b604051808273ffffffffffffffffffffffffffffffffffffffff1673ffffffffffffffffffffffffffffffffffffffff16815260200191505060405180910390f35b34801561085757600080fd5b50610860613197565b604051808215151515815260200191505060405180910390f35b34801561088657600080fd5b5061088f61323b565b005b34801561089d57600080fd5b506108bc6004803603810190808035906020019092919050505061333d565b604051808263ffffffff1663ffffffff16815260200191505060405180910390f35b3480156108ea57600080fd5b506108f3613376565b6040518082815260200191505060405180910390f35b34801561091557600080fd5b5061091e613383565b604051808273ffffffffffffffffffffffffffffffffffffffff1673ffffffffffffffffffffffffffffffffffffffff16815260200191505060405180910390f35b34801561096c57600080fd5b5061098b600480360381019080803590602001909291905050506133a9565b604051808563ffffffff1663ffffffff1681526020018463ffffffff1663ffffffff1681526020018360ff1660ff1681526020018263ffffffff1663ffffffff16815260200194505050505060405180910390f35b3480156109ec57600080fd5b506109f5613425565b6040518082815260200191505060405180910390f35b348015610a1757600080fd5b50610a2061342b565b604051808273ffffffffffffffffffffffffffffffffffffffff1673ffffffffffffffffffffffffffffffffffffffff16815260200191505060405180910390f35b348015610a6e57600080fd5b50610a77613450565b604051808273ffffffffffffffffffffffffffffffffffffffff1673ffffffffffffffffffffffffffffffffffffffff16815260200191505060405180910390f35b348015610ac557600080fd5b50610ace61347a565b6040518082815260200191505060405180910390f35b348015610af057600080fd5b50610af9613480565b604051808215151515815260200191505060405180910390f35b348015610b1f57600080fd5b50610b286134d7565b604051808263ffffffff1663ffffffff16815260200191505060405180910390f35b348015610b5657600080fd5b50610b5f61352a565b604051808273ffffffffffffffffffffffffffffffffffffffff1673ffffffffffffffffffffffffffffffffffffffff16815260200191505060405180910390f35b348015610bad57600080fd5b50610bcc60048036038101908080359060200190929190505050613550565b005b610bd6610eda565b005b348015610be457600080fd5b50610bed61355a565b6040518082815260200191505060405180910390f35b348015610c0f57600080fd5b50610c186135d8565b60405180838152602001821515151581526020019250505060405180910390f35b348015610c4557600080fd5b50610c6460048036038101908080359060200190929190505050613681565b604051808763ffffffff1663ffffffff1681526020018660ff1660ff1681526020018563ffffffff1663ffffffff1681526020018463ffffffff1663ffffffff1681526020018060200180602001838103835285818151815260200191508051906020019080838360005b83811015610cea578082015181840152602081019050610ccf565b50505050905090810190601f168015610d175780820380516001836020036101000a031916815260200191505b50838103825284818151815260200191508051906020019080838360005b83811015610d50578082015181840152602081019050610d35565b50505050905090810190601f168015610d7d5780820380516001836020036101000a031916815260200191505b509850505050505050505060405180910390f35b348015610d9d57600080fd5b50610dbc60048036038101908080359060200190929190505050613839565b005b348015610dca57600080fd5b50610de960048036038101908080359060200190929190505050613917565b6040518080602001828103825283818151815260200191508051906020019060200280838360005b83811015610e2c578082015181840152602081019050610e11565b505050509050019250505060405180910390f35b348015610e4c57600080fd5b50610e81600480360381019080803573ffffffffffffffffffffffffffffffffffffffff16906020019092919050505061398f565b005b348015610e8f57600080fd5b50610e98613ae4565b604051808273ffffffffffffffffffffffffffffffffffffffff1673ffffffffffffffffffffffffffffffffffffffff16815260200191505060405180910390f35b600080600080600080600080600060149054906101000a900460ff16151515610f0257600080fd5b6001600060146101000a81548160ff021916908315150217905550610f25613197565b1515610f99576040517f08c379a00000000000000000000000000000000000000000000000000000000081526004018080602001828103825260178152602001807f53616c65206973206e6f7420737461727465642079657400000000000000000081525060200191505060405180910390fd5b600034111515610fa857600080fd5b610fb06135d8565b509750600a88815481101515610fc257fe5b906000526020600020906003020160000160089054906101000a900460ff1660ff169650600a88815481101515610ff557fe5b906000526020600020906003020160000160099054906101000a900463ffffffff169550611022346120c1565b945061102f348887613b0a565b50935093509350600060065411156113095761105660065485613ce790919063ffffffff16565b9050600260009054906101000a900473ffffffffffffffffffffffffffffffffffffffff1673ffffffffffffffffffffffffffffffffffffffff166323b872dd600860009054906101000a900473ffffffffffffffffffffffffffffffffffffffff16600760009054906101000a900473ffffffffffffffffffffffffffffffffffffffff16846040518463ffffffff167c0100000000000000000000000000000000000000000000000000000000028152600401808473ffffffffffffffffffffffffffffffffffffffff1673ffffffffffffffffffffffffffffffffffffffff1681526020018373ffffffffffffffffffffffffffffffffffffffff1673ffffffffffffffffffffffffffffffffffffffff1681526020018281526020019350505050602060405180830381600087803b15801561119557600080fd5b505af11580156111a9573d6000803e3d6000fd5b505050506040513d60208110156111bf57600080fd5b810190808051906020019092919050505015156111db57600080fd5b600160009054906101000a900473ffffffffffffffffffffffffffffffffffffffff1673ffffffffffffffffffffffffffffffffffffffff1663a9059cbb600860009054906101000a900473ffffffffffffffffffffffffffffffffffffffff16836040518363ffffffff167c0100000000000000000000000000000000000000000000000000000000028152600401808373ffffffffffffffffffffffffffffffffffffffff1673ffffffffffffffffffffffffffffffffffffffff16815260200182815260200192505050602060405180830381600087803b1580156112c257600080fd5b505af11580156112d6573d6000803e3d6000fd5b505050506040513d60208110156112ec57600080fd5b8101908080519060200190929190505050151561130857600080fd5b5b600160009054906101000a900473ffffffffffffffffffffffffffffffffffffffff1673ffffffffffffffffffffffffffffffffffffffff16639d2e47773386896040518463ffffffff167c0100000000000000000000000000000000000000000000000000000000028152600401808473ffffffffffffffffffffffffffffffffffffffff1673ffffffffffffffffffffffffffffffffffffffff1681526020018381526020018263ffffffff1663ffffffff1681526020019350505050602060405180830381600087803b1580156113e257600080fd5b505af11580156113f6573d6000803e3d6000fd5b505050506040513d602081101561140c57600080fd5b8101908080519060200190929190505050151561142857600080fd5b6000821115611479573373ffffffffffffffffffffffffffffffffffffffff166108fc839081150290604051600060405180830381858888f19350505050158015611477573d6000803e3d6000fd5b505b6000600554111561150257600760009054906101000a900473ffffffffffffffffffffffffffffffffffffffff1673ffffffffffffffffffffffffffffffffffffffff166108fc6114d560055486613ce790919063ffffffff16565b9081150290604051600060405180830381858888f19350505050158015611500573d6000803e3d6000fd5b505b600960009054906101000a900473ffffffffffffffffffffffffffffffffffffffff1673ffffffffffffffffffffffffffffffffffffffff1663958799cb3073ffffffffffffffffffffffffffffffffffffffff1631620186a09033886040518563ffffffff167c0100000000000000000000000000000000000000000000000000000000028152600401808373ffffffffffffffffffffffffffffffffffffffff1673ffffffffffffffffffffffffffffffffffffffff168152602001828152602001925050506000604051808303818589803b1580156115e357600080fd5b5088f11580156115f7573d6000803e3d6000fd5b5050505050503373ffffffffffffffffffffffffffffffffffffffff167f347f5f0051b895093800553e6e78ef332849e2552639a4f5ffe66535788ae07884868560405180848152602001838152602001828152602001935050505060405180910390a260008060146101000a81548160ff0219169083151502179055505050505050505050565b60008060006060806000809054906101000a900473ffffffffffffffffffffffffffffffffffffffff1673ffffffffffffffffffffffffffffffffffffffff163373ffffffffffffffffffffffffffffffffffffffff161415156116e257600080fd5b6000600a8054905011156117365742600a600081548110151561170157fe5b906000526020600020906003020160000160009054906101000a900463ffffffff1663ffffffff1611151561173557600080fd5b5b7fffffffffffffffffffffffffffffffffffffffffffffffffffffffffffffffff60ff168d8d90501115151561176b57600080fd5b60038d8d90501015151561177e57600080fd5b600060038e8e905081151561178f57fe5b0614151561179c57600080fd5b888890506117b760028d8d9050613d2c90919063ffffffff16565b1415156117c357600080fd5b8c8c90506117de60038d8d9050613d2c90919063ffffffff16565b1415156117ea57600080fd5b60028b8b905002878790501015151561180257600080fd5b6000600a80549050111561190d578c8c6000818110151561181f57fe5b9050602002013563ffffffff1663ffffffff16600a6001600a805490500381548110151561184957fe5b906000526020600020906003020160000160049054906101000a900463ffffffff1663ffffffff1610151561190c576040517f08c379a00000000000000000000000000000000000000000000000000000000081526004018080602001828103825260358152602001807f4669727374206d696c6573746f6e6520656e6444617465206d7573742062652081526020017f6774206c61737420737461676520656e6444617465000000000000000000000081525060400191505060405180910390fd5b5b6000945060009350600092505b8c8c905060ff168360ff161015611ec057428d8d8560ff16818110151561193d57fe5b9050602002013563ffffffff1663ffffffff1611151561195c57600080fd5b8c8c8460ff16818110151561196d57fe5b9050602002013563ffffffff1663ffffffff168d8d6001860160ff16818110151561199457fe5b9050602002013563ffffffff1663ffffffff161115156119b357600080fd5b8c8c6001850160ff1681811015156119c757fe5b9050602002013563ffffffff1663ffffffff168d8d6002860160ff1681811015156119ee57fe5b9050602002013563ffffffff1663ffffffff16111515611a0d57600080fd5b60008360ff161115611b00578c8c8460ff168181101515611a2a57fe5b9050602002013563ffffffff1663ffffffff168d8d6001860360ff168181101515611a5157fe5b9050602002013563ffffffff1663ffffffff16101515611aff576040517f08c379a00000000000000000000000000000000000000000000000000000000081526004018080602001828103825260298152602001807f4d696c6573746f6e65206461746573206973206e6f7420696e20617363656e6481526020017f696e67206f72646572000000000000000000000000000000000000000000000081525060400191505060405180910390fd5b5b611b7c858a8a600260038860ff16811515611b1757fe5b040260ff168181101515611b2757fe5b9050602002013563ffffffff1663ffffffff1689898080601f016020809104026020016040519081016040528093929190818152602001838380828437820191505050505050613d649092919063ffffffff16565b9150611c348989600260038760ff16811515611b9457fe5b040260ff168181101515611ba457fe5b9050602002013563ffffffff1663ffffffff1686018a8a6001600260038960ff16811515611bce57fe5b04020160ff168181101515611bdf57fe5b9050602002013563ffffffff1663ffffffff1689898080601f016020809104026020016040519081016040528093929190818152602001838380828437820191505050505050613d649092919063ffffffff16565b905060008251111515611c4657600080fd5b60008151111515611c5657600080fd5b600b60c0604051908101604052808f8f8760ff168181101515611c7557fe5b9050602002013563ffffffff1663ffffffff1681526020018d8d60038860ff16811515611c9e57fe5b0460ff168181101515611cad57fe5b9050602002013560ff1660ff1681526020018f8f6001880160ff168181101515611cd357fe5b9050602002013563ffffffff1663ffffffff1681526020018f8f6002880160ff168181101515611cff57fe5b9050602002013563ffffffff1663ffffffff168152602001848152602001838152509080600181540180825580915050906001820390600052602060002090600302016000909192909190915060008201518160000160006101000a81548163ffffffff021916908363ffffffff16021790555060208201518160000160046101000a81548160ff021916908360ff16021790555060408201518160000160056101000a81548163ffffffff021916908363ffffffff16021790555060608201518160000160096101000a81548163ffffffff021916908363ffffffff1602179055506080820151816001019080519060200190611dfe929190613eb9565b5060a0820151816002019080519060200190611e1b929190613eb9565b505050508888600160038660ff16811515611e3257fe5b040160ff168181101515611e4257fe5b9050602002013563ffffffff16898960038660ff16811515611e6057fe5b0460ff168181101515611e6f57fe5b9050602002013563ffffffff160163ffffffff16850194508a8a60038560ff16811515611e9857fe5b0460ff168181101515611ea757fe5b9050602002013560ff168401935060038301925061191a565b8c8c600c9190611ed1929190613f39565b5060648460ff16141515611ee457600080fd5b50505050505050505050505050565b6060600a82815481101515611f0457fe5b9060005260206000209060030201600201805480602002602001604051908101604052809291908181526020018280548015611f8557602002820191906000526020600020906000905b82829054906101000a900460ff1660ff1681526020019060010190602082600001049283019260010382029150808411611f4e5790505b50505050509050919050565b600260009054906101000a900473ffffffffffffffffffffffffffffffffffffffff1681565b6000600160009054906101000a900473ffffffffffffffffffffffffffffffffffffffff1673ffffffffffffffffffffffffffffffffffffffff1663a9059cbb84846040518363ffffffff167c0100000000000000000000000000000000000000000000000000000000028152600401808373ffffffffffffffffffffffffffffffffffffffff1673ffffffffffffffffffffffffffffffffffffffff16815260200182815260200192505050602060405180830381600087803b15801561207e57600080fd5b505af1158015612092573d6000803e3d6000fd5b505050506040513d60208110156120a857600080fd5b8101908080519060200190929190505050905092915050565b60008060008060006120d16135d8565b935093508215156120e5576000945061218a565b600a818154811015156120f457fe5b90600052602060002090600302019150600090505b816001018054905081101561218957816001018181548110151561212957fe5b90600052602060002001548610151561217757816002018181548110151561214d57fe5b90600052602060002090602091828204019190069054906101000a900460ff1660ff16945061217c565b612189565b8080600101915050612109565b5b50505050919050565b600080600080606080600b878154811015156121ab57fe5b906000526020600020906003020160000160009054906101000a900463ffffffff16600b888154811015156121dc57fe5b906000526020600020906003020160000160049054906101000a900460ff16600b8981548110151561220a57fe5b906000526020600020906003020160000160059054906101000a900463ffffffff16600b8a81548110151561223b57fe5b906000526020600020906003020160000160099054906101000a900463ffffffff16600b8b81548110151561226c57fe5b9060005260206000209060030201600101600b8c81548110151561228c57fe5b9060005260206000209060030201600201818054600181600116156101000203166002900480601f0160208091040260200160405190810160405280929190818152602001828054600181600116156101000203166002900480156123325780601f1061230757610100808354040283529160200191612332565b820191906000526020600020905b81548152906001019060200180831161231557829003601f168201915b50505050509150808054600181600116156101000203166002900480601f0160208091040260200160405190810160405280929190818152602001828054600181600116156101000203166002900480156123ce5780601f106123a3576101008083540402835291602001916123ce565b820191906000526020600020905b8154815290600101906020018083116123b157829003601f168201915b5050505050905095509550955095509550955091939550919395565b60008060008060608060006123fd61355a565b905061240881612193565b96509650965096509650965050909192939495565b6000806000809054906101000a900473ffffffffffffffffffffffffffffffffffffffff1673ffffffffffffffffffffffffffffffffffffffff163373ffffffffffffffffffffffffffffffffffffffff1614151561247b57600080fd5b6000600a8054905011156124cf5742600a600081548110151561249a57fe5b906000526020600020906003020160000160009054906101000a900463ffffffff1663ffffffff161115156124ce57600080fd5b5b7fffffffffffffffffffffffffffffffffffffffffffffffffffffffffffffffff60ff16888890501115151561250457600080fd5b60008888905011151561251657600080fd5b858590508888905014151561252a57600080fd5b838390508888905014151561253e57600080fd5b6000600b80549050111561265957878760018a8a905003818110151561256057fe5b905060400201600160028110151561257457fe5b602002013563ffffffff1663ffffffff16600b600081548110151561259557fe5b906000526020600020906003020160000160009054906101000a900463ffffffff1663ffffffff16111515612658576040517f08c379a00000000000000000000000000000000000000000000000000000000081526004018080602001828103825260358152602001807f4c61737420737461676520656e6444617465206d757374206265206c7420666981526020017f727374206d696c6573746f6e6520656e6444617465000000000000000000000081525060400191505060405180910390fd5b5b8787905091508160ff16600a816126709190613fef565b50600090505b8160ff168160ff161015612b6f57600086868360ff16818110151561269757fe5b9050602002013560ff1660ff16101580156126cf5750606486868360ff1681811015156126c057fe5b9050602002013560ff1660ff16105b1515612769576040517f08c379a000000000000000000000000000000000000000000000000000000000815260040180806020018281038252602f8152602001807f537461676520646973636f756e74206973206e6f7420696e20616c6c6f77656481526020017f2072616e6765205b302c2031303029000000000000000000000000000000000081525060400191505060405180910390fd5b4288888360ff16818110151561277b57fe5b905060400201600060028110151561278f57fe5b602002013563ffffffff1663ffffffff161115156127ac57600080fd5b87878260ff1681811015156127bd57fe5b90506040020160016002811015156127d157fe5b602002013563ffffffff1663ffffffff1688888360ff1681811015156127f357fe5b905060400201600060028110151561280757fe5b602002013563ffffffff1663ffffffff161015156128b3576040517f08c379a00000000000000000000000000000000000000000000000000000000081526004018080602001828103825260248152602001807f53746167652073746172742064617465206d75737420626520677420656e642081526020017f646174650000000000000000000000000000000000000000000000000000000081525060400191505060405180910390fd5b60008160ff1611156129cb5787878260ff1681811015156128d057fe5b90506040020160006002811015156128e457fe5b602002013563ffffffff1663ffffffff1688886001840360ff16818110151561290957fe5b905060400201600160028110151561291d57fe5b602002013563ffffffff1663ffffffff16111515156129ca576040517f08c379a00000000000000000000000000000000000000000000000000000000081526004018080602001828103825260228152602001807f53746167657320617265206e6f7420696e20686973746f726963616c206f726481526020017f657200000000000000000000000000000000000000000000000000000000000081525060400191505060405180910390fd5b5b87878260ff1681811015156129dc57fe5b90506040020160006002811015156129f057fe5b602002013563ffffffff16600a8260ff16815481101515612a0d57fe5b906000526020600020906003020160000160006101000a81548163ffffffff021916908363ffffffff16021790555087878260ff168181101515612a4d57fe5b9050604002016001600281101515612a6157fe5b602002013563ffffffff16600a8260ff16815481101515612a7e57fe5b906000526020600020906003020160000160046101000a81548163ffffffff021916908363ffffffff16021790555085858260ff168181101515612abe57fe5b9050602002013560ff16600a8260ff16815481101515612ada57fe5b906000526020600020906003020160000160086101000a81548160ff021916908360ff16021790555083838260ff168181101515612b1457fe5b9050602002013563ffffffff16600a8260ff16815481101515612b3357fe5b906000526020600020906003020160000160096101000a81548163ffffffff021916908363ffffffff1602179055508080600101915050612676565b7f743961f4e677d1146fbf85d75565b1c5474fd083eb166f8b9595cf5d01a4d6e660405160405180910390a15050505050505050565b60065481565b60008060009054906101000a900473ffffffffffffffffffffffffffffffffffffffff1673ffffffffffffffffffffffffffffffffffffffff163373ffffffffffffffffffffffffffffffffffffffff16141515612c0857600080fd5b612c10613480565b1515612c1b57600080fd5b600160009054906101000a900473ffffffffffffffffffffffffffffffffffffffff1673ffffffffffffffffffffffffffffffffffffffff166370a08231306040518263ffffffff167c0100000000000000000000000000000000000000000000000000000000028152600401808273ffffffffffffffffffffffffffffffffffffffff1673ffffffffffffffffffffffffffffffffffffffff168152602001915050602060405180830381600087803b158015612cd857600080fd5b505af1158015612cec573d6000803e3d6000fd5b505050506040513d6020811015612d0257600080fd5b81019080805190602001909291905050509050600160009054906101000a900473ffffffffffffffffffffffffffffffffffffffff1673ffffffffffffffffffffffffffffffffffffffff1663a9059cbb6000809054906101000a900473ffffffffffffffffffffffffffffffffffffffff16836040518363ffffffff167c0100000000000000000000000000000000000000000000000000000000028152600401808373ffffffffffffffffffffffffffffffffffffffff1673ffffffffffffffffffffffffffffffffffffffff16815260200182815260200192505050602060405180830381600087803b158015612dfb57600080fd5b505af1158015612e0f573d6000803e3d6000fd5b505050506040513d6020811015612e2557600080fd5b81019080805190602001909291905050501515612e4157600080fd5b6000809054906101000a900473ffffffffffffffffffffffffffffffffffffffff1673ffffffffffffffffffffffffffffffffffffffff167f26ffb867a6b19bc0240d4e732ed6cfb0f0b6d93143a99cfb24ba5873308861f8826040518082815260200191505060405180910390a250565b6000600b80549050905090565b6000600160009054906101000a900473ffffffffffffffffffffffffffffffffffffffff16905090565b60008060009054906101000a900473ffffffffffffffffffffffffffffffffffffffff1673ffffffffffffffffffffffffffffffffffffffff163373ffffffffffffffffffffffffffffffffffffffff16141515612f4757600080fd5b6000600a805490501115612f9b5742600a6000815481101515612f6657fe5b906000526020600020906003020160000160009054906101000a900463ffffffff1663ffffffff16111515612f9a57600080fd5b5b8282905085859050141515612faf57600080fd5b600a8054905086101515612fc257600080fd5b600090505b848490508110156130b15760008111156130a4578484828181101515612fe957fe5b90506020020135858560018403818110151561300157fe5b905060200201351015156130a3576040517f08c379a000000000000000000000000000000000000000000000000000000000815260040180806020018281038252602c8152602001807f566f6c756d6520626f756e646172696573206d75737420626520696e2061736381526020017f656e64696e67206f72646572000000000000000000000000000000000000000081525060400191505060405180910390fd5b5b8080600101915050612fc7565b600a868154811015156130c057fe5b906000526020600020906003020160010160006130dd9190614021565b600a868154811015156130ec57fe5b906000526020600020906003020160020160006131099190614042565b8484600a8881548110151561311a57fe5b9060005260206000209060030201600101919061313892919061406a565b508282600a8881548110151561314a57fe5b906000526020600020906003020160020191906131689291906140b7565b50505050505050565b600760009054906101000a900473ffffffffffffffffffffffffffffffffffffffff1681565b60008060006131a46135d8565b915091508015156131b85760009250613236565b42600a838154811015156131c857fe5b906000526020600020906003020160000160009054906101000a900463ffffffff1663ffffffff1611158015613233575042600a8381548110151561320957fe5b906000526020600020906003020160000160049054906101000a900463ffffffff1663ffffffff16115b92505b505090565b6000809054906101000a900473ffffffffffffffffffffffffffffffffffffffff1673ffffffffffffffffffffffffffffffffffffffff163373ffffffffffffffffffffffffffffffffffffffff1614151561329657600080fd5b6000809054906101000a900473ffffffffffffffffffffffffffffffffffffffff1673ffffffffffffffffffffffffffffffffffffffff167ff8df31144d9c2f0f6b59d69b8b98abd5459d07f2742c4df920b25aae33c6482060405160405180910390a260008060006101000a81548173ffffffffffffffffffffffffffffffffffffffff021916908373ffffffffffffffffffffffffffffffffffffffff160217905550565b600c8181548110151561334c57fe5b9060005260206000209060089182820401919006600402915054906101000a900463ffffffff1681565b6000600a80549050905090565b600860009054906101000a900473ffffffffffffffffffffffffffffffffffffffff1681565b600a818154811015156133b857fe5b90600052602060002090600302016000915090508060000160009054906101000a900463ffffffff16908060000160049054906101000a900463ffffffff16908060000160089054906101000a900460ff16908060000160099054906101000a900463ffffffff16905084565b60055481565b6000809054906101000a900473ffffffffffffffffffffffffffffffffffffffff1681565b6000600960009054906101000a900473ffffffffffffffffffffffffffffffffffffffff16905090565b60045481565b600080600a8054905014806134d2575042600a6001600a80549050038154811015156134a857fe5b906000526020600020906003020160000160049054906101000a900463ffffffff1663ffffffff16105b905090565b600080600a805490501115156134ec57600080fd5b600a6001600a805490500381548110151561350357fe5b906000526020600020906003020160000160049054906101000a900463ffffffff16905090565b600960009054906101000a900473ffffffffffffffffffffffffffffffffffffffff1681565b8060068190555050565b600080600b805490509050600081141561357357600080fd5b5b60018103821080156135c25750600c6003830281548110151561359357fe5b90600052602060002090600891828204019190066004029054906101000a900463ffffffff1663ffffffff1642115b156135d4578180600101925050613574565b5090565b600080600080600091505b600a8054905082101561367057600a828154811015156135ff57fe5b90600052602060002090600302019050428160000160009054906101000a900463ffffffff1663ffffffff16111580156136525750428160000160049054906101000a900463ffffffff1663ffffffff16115b15613663578160019350935061367b565b81806001019250506135e3565b600080819150935093505b50509091565b600b8181548110151561369057fe5b90600052602060002090600302016000915090508060000160009054906101000a900463ffffffff16908060000160049054906101000a900460ff16908060000160059054906101000a900463ffffffff16908060000160099054906101000a900463ffffffff1690806001018054600181600116156101000203166002900480601f0160208091040260200160405190810160405280929190818152602001828054600181600116156101000203166002900480156137915780601f1061376657610100808354040283529160200191613791565b820191906000526020600020905b81548152906001019060200180831161377457829003601f168201915b505050505090806002018054600181600116156101000203166002900480601f01602080910402602001604051908101604052809291908181526020018280546001816001161561010002031660029004801561382f5780601f106138045761010080835404028352916020019161382f565b820191906000526020600020905b81548152906001019060200180831161381257829003601f168201915b5050505050905086565b6000809054906101000a900473ffffffffffffffffffffffffffffffffffffffff1673ffffffffffffffffffffffffffffffffffffffff163373ffffffffffffffffffffffffffffffffffffffff1614151561389457600080fd5b6000600a8054905011156138e85742600a60008154811015156138b357fe5b906000526020600020906003020160000160009054906101000a900463ffffffff1663ffffffff161115156138e757600080fd5b5b61391481600760009054906101000a900473ffffffffffffffffffffffffffffffffffffffff16613df1565b50565b6060600a8281548110151561392857fe5b906000526020600020906003020160010180548060200260200160405190810160405280929190818152602001828054801561398357602002820191906000526020600020905b81548152602001906001019080831161396f575b50505050509050919050565b6000809054906101000a900473ffffffffffffffffffffffffffffffffffffffff1673ffffffffffffffffffffffffffffffffffffffff163373ffffffffffffffffffffffffffffffffffffffff161415156139ea57600080fd5b600073ffffffffffffffffffffffffffffffffffffffff168173ffffffffffffffffffffffffffffffffffffffff1614151515613a2657600080fd5b8073ffffffffffffffffffffffffffffffffffffffff166000809054906101000a900473ffffffffffffffffffffffffffffffffffffffff1673ffffffffffffffffffffffffffffffffffffffff167f8be0079c531659141344cd1fd0a4f28419497f9722a3daafe3b4186f6b6457e060405160405180910390a3806000806101000a81548173ffffffffffffffffffffffffffffffffffffffff021916908373ffffffffffffffffffffffffffffffffffffffff16021790555050565b600160009054906101000a900473ffffffffffffffffffffffffffffffffffffffff1681565b6000806000806000879350600160009054906101000a900473ffffffffffffffffffffffffffffffffffffffff1673ffffffffffffffffffffffffffffffffffffffff166370a08231306040518263ffffffff167c0100000000000000000000000000000000000000000000000000000000028152600401808273ffffffffffffffffffffffffffffffffffffffff1673ffffffffffffffffffffffffffffffffffffffff168152602001915050602060405180830381600087803b158015613bd257600080fd5b505af1158015613be6573d6000803e3d6000fd5b505050506040513d6020811015613bfc57600080fd5b81019080805190602001909291905050509050600354600a0a8110151515613c2357600080fd5b60008711613c3357600454613c5f565b613c5e6064613c5089606403600454613d2c90919063ffffffff16565b613e8890919063ffffffff16565b5b9150613ca3600260035403600a0a613c9584613c878a6064018d613d2c90919063ffffffff16565b613e8890919063ffffffff16565b613d2c90919063ffffffff16565b945084811015613cdd57613cd285613cc4838b613d2c90919063ffffffff16565b613e8890919063ffffffff16565b935083880392508094505b5093509350935093565b6000613cf282613e9e565b1515613cfd57600080fd5b613d24612710613d168486613d2c90919063ffffffff16565b613e8890919063ffffffff16565b905092915050565b600080831415613d3f5760009050613d5e565b8183029050818382811515613d5057fe5b04141515613d5a57fe5b8090505b92915050565b606080828401855110151515613d7957600080fd5b821560008114613d9457604051915060208201604052613de5565b6040519150601f8416801560200281840101858101878315602002848b0101015b81831015613dd25780518352602083019250602081019050613db5565b50868552601f19601f8301166040525050505b50809150509392505050565b600082111515613e0057600080fd5b600073ffffffffffffffffffffffffffffffffffffffff168173ffffffffffffffffffffffffffffffffffffffff1614151515613e3c57600080fd5b8160048190555080600760006101000a81548173ffffffffffffffffffffffffffffffffffffffff021916908373ffffffffffffffffffffffffffffffffffffffff1602179055505050565b60008183811515613e9557fe5b04905092915050565b6000808210158015613eb257506127108211155b9050919050565b828054600181600116156101000203166002900490600052602060002090601f016020900481019282601f10613efa57805160ff1916838001178555613f28565b82800160010185558215613f28579182015b82811115613f27578251825591602001919060010190613f0c565b5b509050613f359190614161565b5090565b82805482825590600052602060002090600701600890048101928215613fde5791602002820160005b83821115613fac57833563ffffffff1683826101000a81548163ffffffff021916908363ffffffff1602179055509260200192600401602081600301049283019260010302613f62565b8015613fdc5782816101000a81549063ffffffff0219169055600401602081600301049283019260010302613fac565b505b509050613feb9190614186565b5090565b81548183558181111561401c5760030281600302836000526020600020918201910161401b91906141b9565b5b505050565b508054600082559060005260206000209081019061403f9190614161565b50565b50805460008255601f0160209004906000526020600020908101906140679190614161565b50565b8280548282559060005260206000209081019282156140a6579160200282015b828111156140a557823582559160200191906001019061408a565b5b5090506140b39190614161565b5090565b82805482825590600052602060002090601f016020900481019282156141505791602002820160005b8382111561412157833560ff1683826101000a81548160ff021916908360ff16021790555092602001926001016020816000010492830192600103026140e0565b801561414e5782816101000a81549060ff0219169055600101602081600001049283019260010302614121565b505b50905061415d9190614251565b5090565b61418391905b8082111561417f576000816000905550600101614167565b5090565b90565b6141b691905b808211156141b257600081816101000a81549063ffffffff02191690555060010161418c565b5090565b90565b61424e91905b8082111561424a57600080820160006101000a81549063ffffffff02191690556000820160046101000a81549063ffffffff02191690556000820160086101000a81549060ff02191690556000820160096101000a81549063ffffffff02191690556001820160006142319190614021565b6002820160006142419190614042565b506003016141bf565b5090565b90565b61427e91905b8082111561427a57600081816101000a81549060ff021916905550600101614257565b5090565b90565b600061428c82613e9e565b151561429757600080fd5b6142ab606483613e8890919063ffffffff16565b90509190505600a165627a7a72305820af7cbb53113c2cf31b79baeed7075452e19a4f64468acd9bdfbe2b68c79dc08e0029",
  "source": "pragma solidity ^0.4.24;\n\nimport \"./W12Crowdsale.sol\";\n\n\ncontract W12CrowdsaleStub is W12Crowdsale {\n    constructor (\n        address _originToken,\n        address _token,\n        uint _tokenDecimals,\n        uint _price,\n        address _serviceWallet,\n        address _swap,\n        uint _serviceFee,\n        uint _WTokenSaleFeePercent,\n        IW12Fund _fund\n    )\n        W12Crowdsale(\n            _originToken,\n             _token,\n             _tokenDecimals,\n             _price,\n             _serviceWallet,\n             _swap,\n             _serviceFee,\n            _WTokenSaleFeePercent,\n             _fund\n        ) public\n    {}\n\n    function _outTokens(address to, uint amount) external returns (bool) {\n        return token.transfer(to, amount);\n    }\n\n    function _setState(uint _WTokenSaleFeePercent) external {\n        WTokenSaleFeePercent = _WTokenSaleFeePercent;\n    }\n}\n",
  "sourcePath": "/Projects/w12-new/contracts/W12CrowdsaleStub.sol",
  "compiler": {
    "name": "solc",
    "version": "0.4.24+commit.e67f0147.Emscripten.clang"
  },
  "schemaVersion": "2.0.1",
  "updatedAt": "2018-08-29T16:48:08.237Z"
}