{
  "contractName": "W12FundStub",
  "abi": [
    {
      "constant": true,
      "inputs": [
        {
          "name": "wtokensToRefund",
          "type": "uint256"
        }
      ],
      "name": "getRefundAmount",
      "outputs": [
        {
          "name": "",
          "type": "uint256"
        }
      ],
      "payable": false,
      "stateMutability": "view",
      "type": "function"
    },
    {
      "constant": true,
      "inputs": [],
      "name": "wToken",
      "outputs": [
        {
          "name": "",
          "type": "address"
        }
      ],
      "payable": false,
      "stateMutability": "view",
      "type": "function"
    },
    {
      "constant": true,
      "inputs": [
        {
          "name": "buyer",
          "type": "address"
        }
      ],
      "name": "getInvestmentsInfo",
      "outputs": [
        {
          "name": "totalTokensBought",
          "type": "uint256"
        },
        {
          "name": "averageTokenPrice",
          "type": "uint256"
        }
      ],
      "payable": false,
      "stateMutability": "view",
      "type": "function"
    },
    {
      "constant": false,
      "inputs": [
        {
          "name": "wtokensToRefund",
          "type": "uint256"
        }
      ],
      "name": "refund",
      "outputs": [],
      "payable": false,
      "stateMutability": "nonpayable",
      "type": "function"
    },
    {
      "constant": false,
      "inputs": [
        {
          "name": "_crowdsale",
          "type": "address"
        }
      ],
      "name": "setCrowdsale",
      "outputs": [],
      "payable": false,
      "stateMutability": "nonpayable",
      "type": "function"
    },
    {
      "constant": true,
      "inputs": [],
      "name": "getRefundPeriod",
      "outputs": [
        {
          "name": "",
          "type": "uint32"
        },
        {
          "name": "",
          "type": "uint32"
        }
      ],
      "payable": false,
      "stateMutability": "view",
      "type": "function"
    },
    {
      "constant": false,
      "inputs": [],
      "name": "tranche",
      "outputs": [],
      "payable": false,
      "stateMutability": "nonpayable",
      "type": "function"
    },
    {
      "constant": false,
      "inputs": [],
      "name": "renounceOwnership",
      "outputs": [],
      "payable": false,
      "stateMutability": "nonpayable",
      "type": "function"
    },
    {
      "constant": true,
      "inputs": [],
      "name": "swap",
      "outputs": [
        {
          "name": "",
          "type": "address"
        }
      ],
      "payable": false,
      "stateMutability": "view",
      "type": "function"
    },
    {
      "constant": true,
      "inputs": [],
      "name": "getTrancheAmount",
      "outputs": [
        {
          "name": "",
          "type": "uint256"
        }
      ],
      "payable": false,
      "stateMutability": "view",
      "type": "function"
    },
    {
      "constant": true,
      "inputs": [],
      "name": "owner",
      "outputs": [
        {
          "name": "",
          "type": "address"
        }
      ],
      "payable": false,
      "stateMutability": "view",
      "type": "function"
    },
    {
      "constant": false,
      "inputs": [
        {
          "name": "buyer",
          "type": "address"
        },
        {
          "name": "tokenAmount",
          "type": "uint256"
        }
      ],
      "name": "recordPurchase",
      "outputs": [],
      "payable": true,
      "stateMutability": "payable",
      "type": "function"
    },
    {
      "constant": true,
      "inputs": [
        {
          "name": "",
          "type": "address"
        }
      ],
      "name": "buyers",
      "outputs": [
        {
          "name": "totalBought",
          "type": "uint256"
        },
        {
          "name": "averagePrice",
          "type": "uint256"
        },
        {
          "name": "totalFunded",
          "type": "uint256"
        }
      ],
      "payable": false,
      "stateMutability": "view",
      "type": "function"
    },
    {
      "constant": true,
      "inputs": [],
      "name": "crowdsale",
      "outputs": [
        {
          "name": "",
          "type": "address"
        }
      ],
      "payable": false,
      "stateMutability": "view",
      "type": "function"
    },
    {
      "constant": true,
      "inputs": [],
      "name": "getTrancheParameters",
      "outputs": [
        {
          "name": "",
          "type": "uint8"
        },
        {
          "name": "",
          "type": "uint32"
        },
        {
          "name": "",
          "type": "uint32"
        }
      ],
      "payable": false,
      "stateMutability": "view",
      "type": "function"
    },
    {
      "constant": false,
      "inputs": [
        {
          "name": "_swap",
          "type": "address"
        }
      ],
      "name": "setSwap",
      "outputs": [],
      "payable": false,
      "stateMutability": "nonpayable",
      "type": "function"
    },
    {
      "constant": true,
      "inputs": [],
      "name": "totalFunded",
      "outputs": [
        {
          "name": "",
          "type": "uint256"
        }
      ],
      "payable": false,
      "stateMutability": "view",
      "type": "function"
    },
    {
      "constant": true,
      "inputs": [],
      "name": "totalRefunded",
      "outputs": [
        {
          "name": "",
          "type": "uint256"
        }
      ],
      "payable": false,
      "stateMutability": "view",
      "type": "function"
    },
    {
      "constant": false,
      "inputs": [
        {
          "name": "_newOwner",
          "type": "address"
        }
      ],
      "name": "transferOwnership",
      "outputs": [],
      "payable": false,
      "stateMutability": "nonpayable",
      "type": "function"
    },
    {
      "inputs": [
        {
          "name": "crowdsaleAddress",
          "type": "address"
        },
        {
          "name": "swapAddress",
          "type": "address"
        },
        {
          "name": "wTokenAddress",
          "type": "address"
        }
      ],
      "payable": false,
      "stateMutability": "nonpayable",
      "type": "constructor"
    },
    {
      "payable": true,
      "stateMutability": "payable",
      "type": "fallback"
    },
    {
      "anonymous": false,
      "inputs": [
        {
          "indexed": true,
          "name": "buyer",
          "type": "address"
        },
        {
          "indexed": false,
          "name": "etherAmount",
          "type": "uint256"
        },
        {
          "indexed": false,
          "name": "tokenAmount",
          "type": "uint256"
        }
      ],
      "name": "FundsReceived",
      "type": "event"
    },
    {
      "anonymous": false,
      "inputs": [
        {
          "indexed": true,
          "name": "buyer",
          "type": "address"
        },
        {
          "indexed": false,
          "name": "etherAmount",
          "type": "uint256"
        },
        {
          "indexed": false,
          "name": "tokenAmount",
          "type": "uint256"
        }
      ],
      "name": "FundsRefunded",
      "type": "event"
    },
    {
      "anonymous": false,
      "inputs": [
        {
          "indexed": true,
          "name": "receiver",
          "type": "address"
        },
        {
          "indexed": false,
          "name": "amount",
          "type": "uint256"
        }
      ],
      "name": "TrancheOperation",
      "type": "event"
    },
    {
      "anonymous": false,
      "inputs": [
        {
          "indexed": true,
          "name": "previousOwner",
          "type": "address"
        }
      ],
      "name": "OwnershipRenounced",
      "type": "event"
    },
    {
      "anonymous": false,
      "inputs": [
        {
          "indexed": true,
          "name": "previousOwner",
          "type": "address"
        },
        {
          "indexed": true,
          "name": "newOwner",
          "type": "address"
        }
      ],
      "name": "OwnershipTransferred",
      "type": "event"
    },
    {
      "constant": false,
      "inputs": [
        {
          "name": "amount",
          "type": "uint256"
        }
      ],
      "name": "_receiveFunds",
      "outputs": [],
      "payable": false,
      "stateMutability": "nonpayable",
      "type": "function"
    },
    {
      "constant": false,
      "inputs": [
        {
          "name": "amount",
          "type": "uint256"
        }
      ],
      "name": "_setTotalFunded",
      "outputs": [],
      "payable": false,
      "stateMutability": "nonpayable",
      "type": "function"
    },
    {
      "constant": false,
      "inputs": [
        {
          "name": "amount",
          "type": "uint256"
        }
      ],
      "name": "_setTotalRefunded",
      "outputs": [],
      "payable": false,
      "stateMutability": "nonpayable",
      "type": "function"
    }
  ],
  "bytecode": "0x608060405260008060146101000a81548160ff02191690831515021790555034801561002a57600080fd5b506040516060806121df833981018060405281019080805190602001909291908051906020019092919080519060200190929190505050336000806101000a81548173ffffffffffffffffffffffffffffffffffffffff021916908373ffffffffffffffffffffffffffffffffffffffff16021790555082600160006101000a81548173ffffffffffffffffffffffffffffffffffffffff021916908373ffffffffffffffffffffffffffffffffffffffff16021790555081600260006101000a81548173ffffffffffffffffffffffffffffffffffffffff021916908373ffffffffffffffffffffffffffffffffffffffff16021790555080600360006101000a81548173ffffffffffffffffffffffffffffffffffffffff021916908373ffffffffffffffffffffffffffffffffffffffff160217905550505050612069806101766000396000f300608060405260043610610128576000357c0100000000000000000000000000000000000000000000000000000000900463ffffffff16806304cd52941461012a5780630babd8641461016b57806311fa7da2146101c2578063278ecde114610220578063483a20b21461024d5780635647cb14146102905780636ebc0af1146102da578063715018a6146102f1578063774dfa4e146103085780638119c065146103355780638ce2bc2a1461038c5780638da5cb5b146103b7578063958799cb1461040e57806397a993aa1461044e5780639c1e03a0146104b3578063a5db096a1461050a578063ac2a2a3414610537578063acb3c0731461058e578063ad044f49146105d1578063d9082962146105fc578063e4f940bc14610627578063f2fde38b14610654575b005b34801561013657600080fd5b5061015560048036038101908080359060200190929190505050610697565b6040518082815260200191505060405180910390f35b34801561017757600080fd5b50610180610a36565b604051808273ffffffffffffffffffffffffffffffffffffffff1673ffffffffffffffffffffffffffffffffffffffff16815260200191505060405180910390f35b3480156101ce57600080fd5b50610203600480360381019080803573ffffffffffffffffffffffffffffffffffffffff169060200190929190505050610a5c565b604051808381526020018281526020019250505060405180910390f35b34801561022c57600080fd5b5061024b60048036038101908080359060200190929190505050610b2a565b005b34801561025957600080fd5b5061028e600480360381019080803573ffffffffffffffffffffffffffffffffffffffff1690602001909291905050506110c0565b005b34801561029c57600080fd5b506102a561127a565b604051808363ffffffff1663ffffffff1681526020018263ffffffff1663ffffffff1681526020019250505060405180910390f35b3480156102e657600080fd5b506102ef611422565b005b3480156102fd57600080fd5b50610306611581565b005b34801561031457600080fd5b5061033360048036038101908080359060200190929190505050611683565b005b34801561034157600080fd5b5061034a61168d565b604051808273ffffffffffffffffffffffffffffffffffffffff1673ffffffffffffffffffffffffffffffffffffffff16815260200191505060405180910390f35b34801561039857600080fd5b506103a16116b3565b6040518082815260200191505060405180910390f35b3480156103c357600080fd5b506103cc611794565b604051808273ffffffffffffffffffffffffffffffffffffffff1673ffffffffffffffffffffffffffffffffffffffff16815260200191505060405180910390f35b61044c600480360381019080803573ffffffffffffffffffffffffffffffffffffffff169060200190929190803590602001909291905050506117b9565b005b34801561045a57600080fd5b5061048f600480360381019080803573ffffffffffffffffffffffffffffffffffffffff169060200190929190505050611a60565b60405180848152602001838152602001828152602001935050505060405180910390f35b3480156104bf57600080fd5b506104c8611a8a565b604051808273ffffffffffffffffffffffffffffffffffffffff1673ffffffffffffffffffffffffffffffffffffffff16815260200191505060405180910390f35b34801561051657600080fd5b5061053560048036038101908080359060200190929190505050611ab0565b005b34801561054357600080fd5b5061054c611aba565b604051808460ff1660ff1681526020018363ffffffff1663ffffffff1681526020018263ffffffff1663ffffffff168152602001935050505060405180910390f35b34801561059a57600080fd5b506105cf600480360381019080803573ffffffffffffffffffffffffffffffffffffffff169060200190929190505050611cb1565b005b3480156105dd57600080fd5b506105e6611d8c565b6040518082815260200191505060405180910390f35b34801561060857600080fd5b50610611611d92565b6040518082815260200191505060405180910390f35b34801561063357600080fd5b5061065260048036038101908080359060200190929190505050611d98565b005b34801561066057600080fd5b50610695600480360381019080803573ffffffffffffffffffffffffffffffffffffffff169060200190929190505050611e59565b005b600080600080600080600080600096506305f5e1007fffffffffffffffffffffffffffffffffffffffffffffffffffffffffffffffff8115156106d657fe5b0495503394506106e461127a565b9350935060008463ffffffff161180156107045750428363ffffffff1610155b80156107155750428463ffffffff16105b80156107215750600089115b801561076f57506000600460008773ffffffffffffffffffffffffffffffffffffffff1673ffffffffffffffffffffffffffffffffffffffff16815260200190815260200160002060000154115b8015610792575060003073ffffffffffffffffffffffffffffffffffffffff1631115b8015610895575088600360009054906101000a900473ffffffffffffffffffffffffffffffffffffffff1673ffffffffffffffffffffffffffffffffffffffff166370a08231876040518263ffffffff167c0100000000000000000000000000000000000000000000000000000000028152600401808273ffffffffffffffffffffffffffffffffffffffff1673ffffffffffffffffffffffffffffffffffffffff168152602001915050602060405180830381600087803b15801561085757600080fd5b505af115801561086b573d6000803e3d6000fd5b505050506040513d602081101561088157600080fd5b810190808051906020019092919050505010155b80156108e3575088600460008773ffffffffffffffffffffffffffffffffffffffff1673ffffffffffffffffffffffffffffffffffffffff1681526020019081526020016000206000015410155b15610a27576109683073ffffffffffffffffffffffffffffffffffffffff163161095a600554600460008a73ffffffffffffffffffffffffffffffffffffffff1673ffffffffffffffffffffffffffffffffffffffff16815260200190815260200160002060020154611ec090919063ffffffff16565b611ef890919063ffffffff16565b91508582101561097c576305f5e10061097f565b60015b63ffffffff169050610a24610a1582610a078c6109f9600460008c73ffffffffffffffffffffffffffffffffffffffff1673ffffffffffffffffffffffffffffffffffffffff168152602001908152602001600020600001546109eb888a611ec090919063ffffffff16565b611ef890919063ffffffff16565b611ec090919063ffffffff16565b611ef890919063ffffffff16565b88611f0e90919063ffffffff16565b96505b86975050505050505050919050565b600360009054906101000a900473ffffffffffffffffffffffffffffffffffffffff1681565b600080600073ffffffffffffffffffffffffffffffffffffffff168373ffffffffffffffffffffffffffffffffffffffff1614151515610a9b57600080fd5b600460008473ffffffffffffffffffffffffffffffffffffffff1673ffffffffffffffffffffffffffffffffffffffff16815260200190815260200160002060000154600460008573ffffffffffffffffffffffffffffffffffffffff1673ffffffffffffffffffffffffffffffffffffffff1681526020019081526020016000206001015491509150915091565b600080600060149054906101000a900460ff16151515610b4957600080fd5b6001600060146101000a81548160ff021916908315150217905550610b6d83610697565b9150339050600082111515610b8157600080fd5b600360009054906101000a900473ffffffffffffffffffffffffffffffffffffffff1673ffffffffffffffffffffffffffffffffffffffff166323b872dd82600260009054906101000a900473ffffffffffffffffffffffffffffffffffffffff16866040518463ffffffff167c0100000000000000000000000000000000000000000000000000000000028152600401808473ffffffffffffffffffffffffffffffffffffffff1673ffffffffffffffffffffffffffffffffffffffff1681526020018373ffffffffffffffffffffffffffffffffffffffff1673ffffffffffffffffffffffffffffffffffffffff1681526020018281526020019350505050602060405180830381600087803b158015610c9c57600080fd5b505af1158015610cb0573d6000803e3d6000fd5b505050506040513d6020811015610cc657600080fd5b81019080805190602001909291905050501515610ce257600080fd5b610d3783600460008473ffffffffffffffffffffffffffffffffffffffff1673ffffffffffffffffffffffffffffffffffffffff16815260200190815260200160002060000154611f2a90919063ffffffff16565b600460008373ffffffffffffffffffffffffffffffffffffffff1673ffffffffffffffffffffffffffffffffffffffff16815260200190815260200160002060000181905550610e26610dd5600460008473ffffffffffffffffffffffffffffffffffffffff1673ffffffffffffffffffffffffffffffffffffffff1681526020019081526020016000206001015485611ec090919063ffffffff16565b600460008473ffffffffffffffffffffffffffffffffffffffff1673ffffffffffffffffffffffffffffffffffffffff16815260200190815260200160002060020154611f2a90919063ffffffff16565b600460008373ffffffffffffffffffffffffffffffffffffffff1673ffffffffffffffffffffffffffffffffffffffff168152602001908152602001600020600201819055506000600460008373ffffffffffffffffffffffffffffffffffffffff1673ffffffffffffffffffffffffffffffffffffffff16815260200190815260200160002060020154118015610f0057506000600460008373ffffffffffffffffffffffffffffffffffffffff1673ffffffffffffffffffffffffffffffffffffffff16815260200190815260200160002060000154115b610f0b576000610fa3565b610fa2600460008373ffffffffffffffffffffffffffffffffffffffff1673ffffffffffffffffffffffffffffffffffffffff16815260200190815260200160002060000154600460008473ffffffffffffffffffffffffffffffffffffffff1673ffffffffffffffffffffffffffffffffffffffff16815260200190815260200160002060020154611ef890919063ffffffff16565b5b600460008373ffffffffffffffffffffffffffffffffffffffff1673ffffffffffffffffffffffffffffffffffffffff16815260200190815260200160002060010181905550610ffe82600654611f0e90919063ffffffff16565b6006819055508073ffffffffffffffffffffffffffffffffffffffff166108fc839081150290604051600060405180830381858888f1935050505015801561104a573d6000803e3d6000fd5b508073ffffffffffffffffffffffffffffffffffffffff167ffc48f4f163cfed28aaf3be3f0b162a1338fab214afc9340eafc6cb081c71fadf8385604051808381526020018281526020019250505060405180910390a260008060146101000a81548160ff021916908315150217905550505050565b6000809054906101000a900473ffffffffffffffffffffffffffffffffffffffff1673ffffffffffffffffffffffffffffffffffffffff163373ffffffffffffffffffffffffffffffffffffffff1614151561111b57600080fd5b600073ffffffffffffffffffffffffffffffffffffffff168173ffffffffffffffffffffffffffffffffffffffff161415151561115757600080fd5b80600160006101000a81548173ffffffffffffffffffffffffffffffffffffffff021916908373ffffffffffffffffffffffffffffffffffffffff1602179055508073ffffffffffffffffffffffffffffffffffffffff16634090cb646040518163ffffffff167c0100000000000000000000000000000000000000000000000000000000028152600401602060405180830381600087803b1580156111fc57600080fd5b505af1158015611210573d6000803e3d6000fd5b505050506040513d602081101561122657600080fd5b8101908080519060200190929190505050600360006101000a81548173ffffffffffffffffffffffffffffffffffffffff021916908373ffffffffffffffffffffffffffffffffffffffff16021790555050565b600080600080600160009054906101000a900473ffffffffffffffffffffffffffffffffffffffff1673ffffffffffffffffffffffffffffffffffffffff1663299a017c6040518163ffffffff167c0100000000000000000000000000000000000000000000000000000000028152600401600060405180830381600087803b15801561130657600080fd5b505af115801561131a573d6000803e3d6000fd5b505050506040513d6000823e3d601f19601f8201168201806040525060c081101561134457600080fd5b8101908080519060200190929190805190602001909291908051906020019092919080519060200190929190805164010000000081111561138457600080fd5b8281019050602081018481111561139a57600080fd5b81518560018202830111640100000000821117156113b757600080fd5b505092919060200180516401000000008111156113d357600080fd5b828101905060208101848111156113e957600080fd5b815185600182028301116401000000008211171561140657600080fd5b5050929190505050505093509350505081819350935050509091565b60008060009054906101000a900473ffffffffffffffffffffffffffffffffffffffff1673ffffffffffffffffffffffffffffffffffffffff163373ffffffffffffffffffffffffffffffffffffffff1614151561147f57600080fd5b600060149054906101000a900460ff1615151561149b57600080fd5b6001600060146101000a81548160ff0219169083151502179055506114be6116b3565b90506000811115156114cf57600080fd5b3373ffffffffffffffffffffffffffffffffffffffff166108fc829081150290604051600060405180830381858888f19350505050158015611515573d6000803e3d6000fd5b503373ffffffffffffffffffffffffffffffffffffffff167f333c8b01d26c7b77312592c86110afe8f6ffb558755a83599a45373a98e9294a826040518082815260200191505060405180910390a260008060146101000a81548160ff02191690831515021790555050565b6000809054906101000a900473ffffffffffffffffffffffffffffffffffffffff1673ffffffffffffffffffffffffffffffffffffffff163373ffffffffffffffffffffffffffffffffffffffff161415156115dc57600080fd5b6000809054906101000a900473ffffffffffffffffffffffffffffffffffffffff1673ffffffffffffffffffffffffffffffffffffffff167ff8df31144d9c2f0f6b59d69b8b98abd5459d07f2742c4df920b25aae33c6482060405160405180910390a260008060006101000a81548173ffffffffffffffffffffffffffffffffffffffff021916908373ffffffffffffffffffffffffffffffffffffffff160217905550565b8060058190555050565b600260009054906101000a900473ffffffffffffffffffffffffffffffffffffffff1681565b600080600080600080600094506116c8611aba565b93509350935060008363ffffffff161180156116ea5750428263ffffffff1610155b80156116fb5750428363ffffffff16105b801561170a575060008460ff16115b801561172d575060003073ffffffffffffffffffffffffffffffffffffffff1631115b1561178957611749600654600554611f2a90919063ffffffff16565b905061178661177760646117698760ff1685611ec090919063ffffffff16565b611ef890919063ffffffff16565b86611f0e90919063ffffffff16565b94505b849550505050505090565b6000809054906101000a900473ffffffffffffffffffffffffffffffffffffffff1681565b6000600160009054906101000a900473ffffffffffffffffffffffffffffffffffffffff16600460008573ffffffffffffffffffffffffffffffffffffffff1673ffffffffffffffffffffffffffffffffffffffff1681526020019081526020016000206000015491506118368383611f0e90919063ffffffff16565b600460008673ffffffffffffffffffffffffffffffffffffffff1673ffffffffffffffffffffffffffffffffffffffff168152602001908152602001600020600001819055506118d134600460008773ffffffffffffffffffffffffffffffffffffffff1673ffffffffffffffffffffffffffffffffffffffff16815260200190815260200160002060020154611f0e90919063ffffffff16565b600460008673ffffffffffffffffffffffffffffffffffffffff1673ffffffffffffffffffffffffffffffffffffffff168152602001908152602001600020600201819055506119ae600460008673ffffffffffffffffffffffffffffffffffffffff1673ffffffffffffffffffffffffffffffffffffffff16815260200190815260200160002060000154600460008773ffffffffffffffffffffffffffffffffffffffff1673ffffffffffffffffffffffffffffffffffffffff16815260200190815260200160002060020154611ef890919063ffffffff16565b600460008673ffffffffffffffffffffffffffffffffffffffff1673ffffffffffffffffffffffffffffffffffffffff16815260200190815260200160002060010181905550346005600082825401925050819055508373ffffffffffffffffffffffffffffffffffffffff167f363f315f930a17d1266b86a20d6dd34b1cfbc5a9db9f13a65d06a689c3a2af8a3485604051808381526020018281526020019250505060405180910390a250505050565b60046020528060005260406000206000915090508060000154908060010154908060020154905083565b600160009054906101000a900473ffffffffffffffffffffffffffffffffffffffff1681565b8060068190555050565b600080600080600080600160009054906101000a900473ffffffffffffffffffffffffffffffffffffffff1673ffffffffffffffffffffffffffffffffffffffff1663299a017c6040518163ffffffff167c0100000000000000000000000000000000000000000000000000000000028152600401600060405180830381600087803b158015611b4957600080fd5b505af1158015611b5d573d6000803e3d6000fd5b505050506040513d6000823e3d601f19601f8201168201806040525060c0811015611b8757600080fd5b81019080805190602001909291908051906020019092919080519060200190929190805190602001909291908051640100000000811115611bc757600080fd5b82810190506020810184811115611bdd57600080fd5b8151856001820283011164010000000082111715611bfa57600080fd5b50509291906020018051640100000000811115611c1657600080fd5b82810190506020810184811115611c2c57600080fd5b8151856001820283011164010000000082111715611c4957600080fd5b50509291905050505050935093509350508282428363ffffffff16108015611c77575060008363ffffffff16115b611c815782611ca3565b7fffffffffffffffffffffffffffffffffffffffffffffffffffffffffffffffff5b955095509550505050909192565b6000809054906101000a900473ffffffffffffffffffffffffffffffffffffffff1673ffffffffffffffffffffffffffffffffffffffff163373ffffffffffffffffffffffffffffffffffffffff16141515611d0c57600080fd5b600073ffffffffffffffffffffffffffffffffffffffff168173ffffffffffffffffffffffffffffffffffffffff1614151515611d4857600080fd5b80600260006101000a81548173ffffffffffffffffffffffffffffffffffffffff021916908373ffffffffffffffffffffffffffffffffffffffff16021790555050565b60055481565b60065481565b600060149054906101000a900460ff16151515611db457600080fd5b6001600060146101000a81548160ff021916908315150217905550803073ffffffffffffffffffffffffffffffffffffffff163110151515611df557600080fd5b3373ffffffffffffffffffffffffffffffffffffffff166108fc829081150290604051600060405180830381858888f19350505050158015611e3b573d6000803e3d6000fd5b5060008060146101000a81548160ff02191690831515021790555050565b6000809054906101000a900473ffffffffffffffffffffffffffffffffffffffff1673ffffffffffffffffffffffffffffffffffffffff163373ffffffffffffffffffffffffffffffffffffffff16141515611eb457600080fd5b611ebd81611f43565b50565b600080831415611ed35760009050611ef2565b8183029050818382811515611ee457fe5b04141515611eee57fe5b8090505b92915050565b60008183811515611f0557fe5b04905092915050565b60008183019050828110151515611f2157fe5b80905092915050565b6000828211151515611f3857fe5b818303905092915050565b600073ffffffffffffffffffffffffffffffffffffffff168173ffffffffffffffffffffffffffffffffffffffff1614151515611f7f57600080fd5b8073ffffffffffffffffffffffffffffffffffffffff166000809054906101000a900473ffffffffffffffffffffffffffffffffffffffff1673ffffffffffffffffffffffffffffffffffffffff167f8be0079c531659141344cd1fd0a4f28419497f9722a3daafe3b4186f6b6457e060405160405180910390a3806000806101000a81548173ffffffffffffffffffffffffffffffffffffffff021916908373ffffffffffffffffffffffffffffffffffffffff160217905550505600a165627a7a7230582064a5fe92e94ebf868fb5a0cd1cb418280852fa7911bf49efd9d26e6838c25f0a0029",
  "source": "pragma solidity ^0.4.24;\n\nimport \"./W12Fund.sol\";\nimport \"./WToken.sol\";\n\n\ncontract W12FundStub is W12Fund {\n    constructor (address crowdsaleAddress, address swapAddress, address wTokenAddress) public {\n        crowdsale = IW12Crowdsale(crowdsaleAddress);\n        swap = swapAddress;\n        wToken = WToken(wTokenAddress);\n    }\n\n    function _receiveFunds(uint amount) external nonReentrant {\n        require(address(this).balance >= amount);\n\n        msg.sender.transfer(amount);\n    }\n\n    function _setTotalFunded(uint amount) external {\n        totalFunded = amount;\n    }\n\n    function _setTotalRefunded(uint amount) external {\n        totalRefunded = amount;\n    }\n\n    function() payable external {}\n\n    // allow any sender\n    modifier onlyFrom(address sender) {\n        _;\n    }\n}\n",
  "sourcePath": "/c/Users/Mr.Hokid/projects/work/w12-product-contracts/contracts/W12FundStub.sol",
  "compiler": {
    "name": "solc",
    "version": "0.4.24+commit.e67f0147.Emscripten.clang"
  },
  "schemaVersion": "2.0.0",
  "updatedAt": "2018-07-26T15:14:13.073Z"
}