{
  "contractName": "W12FundFactory",
  "abi": [
    {
      "anonymous": false,
      "inputs": [
        {
          "indexed": true,
          "name": "fund",
          "type": "address"
        }
      ],
      "name": "FundCreated",
      "type": "event"
    },
    {
      "constant": false,
      "inputs": [
        {
          "name": "swap",
          "type": "address"
        },
        {
          "name": "serviceWallet",
          "type": "address"
        },
        {
          "name": "trancheFeePercent",
          "type": "uint256"
        }
      ],
      "name": "createFund",
      "outputs": [
        {
          "name": "result",
          "type": "address"
        }
      ],
      "payable": false,
      "stateMutability": "nonpayable",
      "type": "function"
    }
  ],
  "bytecode": "0x608060405234801561001057600080fd5b506136a6806100206000396000f300608060405260043610610041576000357c0100000000000000000000000000000000000000000000000000000000900463ffffffff1680631744462614610046575b600080fd5b34801561005257600080fd5b506100b1600480360381019080803573ffffffffffffffffffffffffffffffffffffffff169060200190929190803573ffffffffffffffffffffffffffffffffffffffff169060200190929190803590602001909291905050506100f3565b604051808273ffffffffffffffffffffffffffffffffffffffff1673ffffffffffffffffffffffffffffffffffffffff16815260200191505060405180910390f35b6000816100fe61038a565b80828152602001915050604051809103906000f080158015610124573d6000803e3d6000fd5b5090508073ffffffffffffffffffffffffffffffffffffffff1663acb3c073856040518263ffffffff167c0100000000000000000000000000000000000000000000000000000000028152600401808273ffffffffffffffffffffffffffffffffffffffff1673ffffffffffffffffffffffffffffffffffffffff168152602001915050600060405180830381600087803b1580156101c257600080fd5b505af11580156101d6573d6000803e3d6000fd5b505050508073ffffffffffffffffffffffffffffffffffffffff166323bffccc846040518263ffffffff167c0100000000000000000000000000000000000000000000000000000000028152600401808273ffffffffffffffffffffffffffffffffffffffff1673ffffffffffffffffffffffffffffffffffffffff168152602001915050600060405180830381600087803b15801561027557600080fd5b505af1158015610289573d6000803e3d6000fd5b505050508073ffffffffffffffffffffffffffffffffffffffff1663f2fde38b336040518263ffffffff167c0100000000000000000000000000000000000000000000000000000000028152600401808273ffffffffffffffffffffffffffffffffffffffff1673ffffffffffffffffffffffffffffffffffffffff168152602001915050600060405180830381600087803b15801561032857600080fd5b505af115801561033c573d6000803e3d6000fd5b505050508073ffffffffffffffffffffffffffffffffffffffff167fbeacbaab8887097be64d667b2a06e62db7e00cc1429a8ebe02535e97a6cc8fcd60405160405180910390a29392505050565b6040516132e08061039b8339019056006080604052600180553480156200001557600080fd5b50604051602080620032e083398101806040528101908080519060200190929190505050336000806101000a81548173ffffffffffffffffffffffffffffffffffffffff021916908373ffffffffffffffffffffffffffffffffffffffff1602179055506200009881620000dd6401000000000262002ff7176401000000009004565b8015620000c357506064620000c182620001276401000000000262003053176401000000009004565b105b1515620000cf57600080fd5b80600c819055505062000217565b6000620000f862000194640100000000026401000000009004565b82101580156200012057506200011c6200019c640100000000026401000000009004565b8211155b9050919050565b60006200014382620000dd640100000000026401000000009004565b15156200014f57600080fd5b6200018d6200016c620001bf640100000000026401000000009004565b600a0a83620001c86401000000000262002e47179091906401000000009004565b9050919050565b600080905090565b6000620001b7620001f4640100000000026401000000009004565b600a0a905090565b60006002905090565b600080600083111515620001db57600080fd5b8284811515620001e757fe5b0490508091505092915050565b60006200020f620001bf640100000000026401000000009004565b600201905090565b6130b980620002276000396000f300608060405260043610610154576000357c0100000000000000000000000000000000000000000000000000000000900463ffffffff16806304cd5294146101595780630babd8641461019a57806311fa7da2146101f157806319ae48ed1461024f57806323585f961461027a57806323bffccc146102bf578063278ecde1146103025780633b97e8561461032f5780633fa911ae1461035a578063483a20b2146103895780635641f3c3146103cc5780636ebc0af114610423578063715018a61461043a5780638119c065146104515780638ce2bc2a146104a85780638da5cb5b146104d3578063958799cb1461052a57806397a993aa1461056a5780639c1e03a0146105cf5780639e80baac14610626578063a328665a14610655578063ac2a2a3414610680578063acb3c073146106b9578063ad044f49146106fc578063d908296214610727578063f2fde38b14610752575b600080fd5b34801561016557600080fd5b5061018460048036038101908080359060200190929190505050610795565b6040518082815260200191505060405180910390f35b3480156101a657600080fd5b506101af610aeb565b604051808273ffffffffffffffffffffffffffffffffffffffff1673ffffffffffffffffffffffffffffffffffffffff16815260200191505060405180910390f35b3480156101fd57600080fd5b50610232600480360381019080803573ffffffffffffffffffffffffffffffffffffffff169060200190929190505050610b11565b604051808381526020018281526020019250505060405180910390f35b34801561025b57600080fd5b50610264610bdf565b6040518082815260200191505060405180910390f35b34801561028657600080fd5b506102a560048036038101908080359060200190929190505050610be5565b604051808215151515815260200191505060405180910390f35b3480156102cb57600080fd5b50610300600480360381019080803573ffffffffffffffffffffffffffffffffffffffff169060200190929190505050610c05565b005b34801561030e57600080fd5b5061032d60048036038101908080359060200190929190505050610ce0565b005b34801561033b57600080fd5b5061034461139a565b6040518082815260200191505060405180910390f35b34801561036657600080fd5b5061036f6113a0565b604051808215151515815260200191505060405180910390f35b34801561039557600080fd5b506103ca600480360381019080803573ffffffffffffffffffffffffffffffffffffffff16906020019092919050505061164a565b005b3480156103d857600080fd5b506103e16118ce565b604051808273ffffffffffffffffffffffffffffffffffffffff1673ffffffffffffffffffffffffffffffffffffffff16815260200191505060405180910390f35b34801561042f57600080fd5b506104386118f4565b005b34801561044657600080fd5b5061044f611b2e565b005b34801561045d57600080fd5b50610466611c30565b604051808273ffffffffffffffffffffffffffffffffffffffff1673ffffffffffffffffffffffffffffffffffffffff16815260200191505060405180910390f35b3480156104b457600080fd5b506104bd611c56565b6040518082815260200191505060405180910390f35b3480156104df57600080fd5b506104e8611ce6565b604051808273ffffffffffffffffffffffffffffffffffffffff1673ffffffffffffffffffffffffffffffffffffffff16815260200191505060405180910390f35b610568600480360381019080803573ffffffffffffffffffffffffffffffffffffffff16906020019092919080359060200190929190505050611d0b565b005b34801561057657600080fd5b506105ab600480360381019080803573ffffffffffffffffffffffffffffffffffffffff169060200190929190505050612008565b60405180848152602001838152602001828152602001935050505060405180910390f35b3480156105db57600080fd5b506105e4612032565b604051808273ffffffffffffffffffffffffffffffffffffffff1673ffffffffffffffffffffffffffffffffffffffff16815260200191505060405180910390f35b34801561063257600080fd5b5061063b612058565b604051808215151515815260200191505060405180910390f35b34801561066157600080fd5b5061066a61257f565b6040518082815260200191505060405180910390f35b34801561068c57600080fd5b50610695612585565b60405180848152602001838152602001828152602001935050505060405180910390f35b3480156106c557600080fd5b506106fa600480360381019080803573ffffffffffffffffffffffffffffffffffffffff169060200190929190505050612cbb565b005b34801561070857600080fd5b50610711612d96565b6040518082815260200191505060405180910390f35b34801561073357600080fd5b5061073c612d9c565b6040518082815260200191505060405180910390f35b34801561075e57600080fd5b50610793600480360381019080803573ffffffffffffffffffffffffffffffffffffffff169060200190929190505050612da2565b005b600080600080600080600860065401600654106107b4576006546107bb565b6008600654015b945084600a0a7fffffffffffffffffffffffffffffffffffffffffffffffffffffffffffffffff8115156107eb57fe5b049350339250600087148061084257506000600760008573ffffffffffffffffffffffffffffffffffffffff1673ffffffffffffffffffffffffffffffffffffffff16815260200190815260200160002060000154145b80610864575060003073ffffffffffffffffffffffffffffffffffffffff1631145b80610965575086600560009054906101000a900473ffffffffffffffffffffffffffffffffffffffff1673ffffffffffffffffffffffffffffffffffffffff166370a08231856040518263ffffffff167c0100000000000000000000000000000000000000000000000000000000028152600401808273ffffffffffffffffffffffffffffffffffffffff1673ffffffffffffffffffffffffffffffffffffffff168152602001915050602060405180830381600087803b15801561092857600080fd5b505af115801561093c573d6000803e3d6000fd5b505050506040513d602081101561095257600080fd5b8101908080519060200190929190505050105b806109b1575086600760008573ffffffffffffffffffffffffffffffffffffffff1673ffffffffffffffffffffffffffffffffffffffff16815260200190815260200160002060000154105b156109bb57610ae1565b610a3b3073ffffffffffffffffffffffffffffffffffffffff1631610a2d600954600760008873ffffffffffffffffffffffffffffffffffffffff1673ffffffffffffffffffffffffffffffffffffffff16815260200190815260200160002060020154612e0990919063ffffffff16565b612e4790919063ffffffff16565b915083821015610a4e5784600a0a610a51565b60015b9050610ade81610ad089610ac2600760008973ffffffffffffffffffffffffffffffffffffffff1673ffffffffffffffffffffffffffffffffffffffff16815260200190815260200160002060000154610ab48789612e0990919063ffffffff16565b612e4790919063ffffffff16565b612e0990919063ffffffff16565b612e4790919063ffffffff16565b95505b5050505050919050565b600560009054906101000a900473ffffffffffffffffffffffffffffffffffffffff1681565b600080600073ffffffffffffffffffffffffffffffffffffffff168373ffffffffffffffffffffffffffffffffffffffff1614151515610b5057600080fd5b600760008473ffffffffffffffffffffffffffffffffffffffff1673ffffffffffffffffffffffffffffffffffffffff16815260200190815260200160002060000154600760008573ffffffffffffffffffffffffffffffffffffffff1673ffffffffffffffffffffffffffffffffffffffff1681526020019081526020016000206001015491509150915091565b600b5481565b60086020528060005260406000206000915054906101000a900460ff1681565b6000809054906101000a900473ffffffffffffffffffffffffffffffffffffffff1673ffffffffffffffffffffffffffffffffffffffff163373ffffffffffffffffffffffffffffffffffffffff16141515610c6057600080fd5b600073ffffffffffffffffffffffffffffffffffffffff168173ffffffffffffffffffffffffffffffffffffffff1614151515610c9c57600080fd5b80600460006101000a81548173ffffffffffffffffffffffffffffffffffffffff021916908373ffffffffffffffffffffffffffffffffffffffff16021790555050565b6000806000600180600082825401925050819055506001549050339250610d056113a0565b1515610d1057600080fd5b600084111515610d1f57600080fd5b83600760008573ffffffffffffffffffffffffffffffffffffffff1673ffffffffffffffffffffffffffffffffffffffff1681526020019081526020016000206000015410151515610d7057600080fd5b83600560009054906101000a900473ffffffffffffffffffffffffffffffffffffffff1673ffffffffffffffffffffffffffffffffffffffff166370a08231856040518263ffffffff167c0100000000000000000000000000000000000000000000000000000000028152600401808273ffffffffffffffffffffffffffffffffffffffff1673ffffffffffffffffffffffffffffffffffffffff168152602001915050602060405180830381600087803b158015610e2e57600080fd5b505af1158015610e42573d6000803e3d6000fd5b505050506040513d6020811015610e5857600080fd5b810190808051906020019092919050505010151515610e7657600080fd5b83600560009054906101000a900473ffffffffffffffffffffffffffffffffffffffff1673ffffffffffffffffffffffffffffffffffffffff1663dd62ed3e33306040518363ffffffff167c0100000000000000000000000000000000000000000000000000000000028152600401808373ffffffffffffffffffffffffffffffffffffffff1673ffffffffffffffffffffffffffffffffffffffff1681526020018273ffffffffffffffffffffffffffffffffffffffff1673ffffffffffffffffffffffffffffffffffffffff16815260200192505050602060405180830381600087803b158015610f6857600080fd5b505af1158015610f7c573d6000803e3d6000fd5b505050506040513d6020811015610f9257600080fd5b810190808051906020019092919050505010151515610fb057600080fd5b610fb984610795565b9150600082111515610fca57600080fd5b600560009054906101000a900473ffffffffffffffffffffffffffffffffffffffff1673ffffffffffffffffffffffffffffffffffffffff166323b872dd84600360009054906101000a900473ffffffffffffffffffffffffffffffffffffffff16876040518463ffffffff167c0100000000000000000000000000000000000000000000000000000000028152600401808473ffffffffffffffffffffffffffffffffffffffff1673ffffffffffffffffffffffffffffffffffffffff1681526020018373ffffffffffffffffffffffffffffffffffffffff1673ffffffffffffffffffffffffffffffffffffffff1681526020018281526020019350505050602060405180830381600087803b1580156110e557600080fd5b505af11580156110f9573d6000803e3d6000fd5b505050506040513d602081101561110f57600080fd5b8101908080519060200190929190505050151561112b57600080fd5b61118084600760008673ffffffffffffffffffffffffffffffffffffffff1673ffffffffffffffffffffffffffffffffffffffff16815260200190815260200160002060000154612e7190919063ffffffff16565b600760008573ffffffffffffffffffffffffffffffffffffffff1673ffffffffffffffffffffffffffffffffffffffff16815260200190815260200160002060000181905550611286611235600654600a0a611227600760008873ffffffffffffffffffffffffffffffffffffffff1673ffffffffffffffffffffffffffffffffffffffff1681526020019081526020016000206001015488612e0990919063ffffffff16565b612e4790919063ffffffff16565b600760008673ffffffffffffffffffffffffffffffffffffffff1673ffffffffffffffffffffffffffffffffffffffff16815260200190815260200160002060020154612e7190919063ffffffff16565b600760008573ffffffffffffffffffffffffffffffffffffffff1673ffffffffffffffffffffffffffffffffffffffff168152602001908152602001600020600201819055506112e182600a54612e9290919063ffffffff16565b600a819055508273ffffffffffffffffffffffffffffffffffffffff166108fc839081150290604051600060405180830381858888f1935050505015801561132d573d6000803e3d6000fd5b508273ffffffffffffffffffffffffffffffffffffffff167ffc48f4f163cfed28aaf3be3f0b162a1338fab214afc9340eafc6cb081c71fadf8386604051808381526020018281526020019250505060405180910390a26001548114151561139457600080fd5b50505050565b60065481565b6000806000806000600260009054906101000a900473ffffffffffffffffffffffffffffffffffffffff1673ffffffffffffffffffffffffffffffffffffffff1663d6d65f3d6040518163ffffffff167c01000000000000000000000000000000000000000000000000000000000281526004016040805180830381600087803b15801561142d57600080fd5b505af1158015611441573d6000803e3d6000fd5b505050506040513d604081101561145757600080fd5b81019080805190602001909291908051906020019092919050505093509350600084141561148457611643565b600260009054906101000a900473ffffffffffffffffffffffffffffffffffffffff1673ffffffffffffffffffffffffffffffffffffffff16632442e1cb856040518263ffffffff167c010000000000000000000000000000000000000000000000000000000002815260040180828152602001915050600060405180830381600087803b15801561151557600080fd5b505af1158015611529573d6000803e3d6000fd5b505050506040513d6000823e3d601f19601f8201168201806040525060c081101561155357600080fd5b8101908080519060200190929190805190602001909291908051906020019092919080519060200190929190805164010000000081111561159357600080fd5b828101905060208101848111156115a957600080fd5b81518560018202830111640100000000821117156115c657600080fd5b505092919060200180516401000000008111156115e257600080fd5b828101905060208101848111156115f857600080fd5b815185600182028301116401000000008211171561161557600080fd5b50509291905050505050935050509150428263ffffffff161115801561164057508063ffffffff1642105b94505b5050505090565b6000809054906101000a900473ffffffffffffffffffffffffffffffffffffffff1673ffffffffffffffffffffffffffffffffffffffff163373ffffffffffffffffffffffffffffffffffffffff161415156116a557600080fd5b600073ffffffffffffffffffffffffffffffffffffffff168173ffffffffffffffffffffffffffffffffffffffff16141515156116e157600080fd5b80600260006101000a81548173ffffffffffffffffffffffffffffffffffffffff021916908373ffffffffffffffffffffffffffffffffffffffff1602179055508073ffffffffffffffffffffffffffffffffffffffff16634090cb646040518163ffffffff167c0100000000000000000000000000000000000000000000000000000000028152600401602060405180830381600087803b15801561178657600080fd5b505af115801561179a573d6000803e3d6000fd5b505050506040513d60208110156117b057600080fd5b8101908080519060200190929190505050600560006101000a81548173ffffffffffffffffffffffffffffffffffffffff021916908373ffffffffffffffffffffffffffffffffffffffff160217905550600560009054906101000a900473ffffffffffffffffffffffffffffffffffffffff1673ffffffffffffffffffffffffffffffffffffffff1663313ce5676040518163ffffffff167c0100000000000000000000000000000000000000000000000000000000028152600401602060405180830381600087803b15801561188757600080fd5b505af115801561189b573d6000803e3d6000fd5b505050506040513d60208110156118b157600080fd5b810190808051906020019092919050505060ff1660068190555050565b600460009054906101000a900473ffffffffffffffffffffffffffffffffffffffff1681565b6000806000806000809054906101000a900473ffffffffffffffffffffffffffffffffffffffff1673ffffffffffffffffffffffffffffffffffffffff163373ffffffffffffffffffffffffffffffffffffffff1614151561195557600080fd5b6000600180600082825401925050819055506001549050611974612058565b151561197f57600080fd5b611987611c56565b9450611991612585565b94505093506000851115156119a557600080fd5b60016008600085815260200190815260200160002060006101000a81548160ff0219169083151502179055506000600c541115611a72576119f1600c5486612eb390919063ffffffff16565b9150600460009054906101000a900473ffffffffffffffffffffffffffffffffffffffff1673ffffffffffffffffffffffffffffffffffffffff166108fc839081150290604051600060405180830381858888f19350505050158015611a5b573d6000803e3d6000fd5b50611a6f8286612e7190919063ffffffff16565b94505b3373ffffffffffffffffffffffffffffffffffffffff166108fc869081150290604051600060405180830381858888f19350505050158015611ab8573d6000803e3d6000fd5b5083600b600082825401925050819055503373ffffffffffffffffffffffffffffffffffffffff167f4a966617f50ccad97beb624d8e13820bf2a745e1640fed943858499286fc9829866040518082815260200191505060405180910390a260015481141515611b2757600080fd5b5050505050565b6000809054906101000a900473ffffffffffffffffffffffffffffffffffffffff1673ffffffffffffffffffffffffffffffffffffffff163373ffffffffffffffffffffffffffffffffffffffff16141515611b8957600080fd5b6000809054906101000a900473ffffffffffffffffffffffffffffffffffffffff1673ffffffffffffffffffffffffffffffffffffffff167ff8df31144d9c2f0f6b59d69b8b98abd5459d07f2742c4df920b25aae33c6482060405160405180910390a260008060006101000a81548173ffffffffffffffffffffffffffffffffffffffff021916908373ffffffffffffffffffffffffffffffffffffffff160217905550565b600360009054906101000a900473ffffffffffffffffffffffffffffffffffffffff1681565b6000806000806000611c66612585565b5093509350600084148015611c7b5750600083145b80611c9d575060003073ffffffffffffffffffffffffffffffffffffffff1631145b15611ca757611cdf565b611cbe600a54600954612e7190919063ffffffff16565b9150600b54838501039050611cdc8183612eb390919063ffffffff16565b94505b5050505090565b6000809054906101000a900473ffffffffffffffffffffffffffffffffffffffff1681565b600260009054906101000a900473ffffffffffffffffffffffffffffffffffffffff168073ffffffffffffffffffffffffffffffffffffffff163373ffffffffffffffffffffffffffffffffffffffff16141515611d6857600080fd5b611dbd82600760008673ffffffffffffffffffffffffffffffffffffffff1673ffffffffffffffffffffffffffffffffffffffff16815260200190815260200160002060000154612e9290919063ffffffff16565b600760008573ffffffffffffffffffffffffffffffffffffffff1673ffffffffffffffffffffffffffffffffffffffff16815260200190815260200160002060000181905550611e5834600760008673ffffffffffffffffffffffffffffffffffffffff1673ffffffffffffffffffffffffffffffffffffffff16815260200190815260200160002060020154612e9290919063ffffffff16565b600760008573ffffffffffffffffffffffffffffffffffffffff1673ffffffffffffffffffffffffffffffffffffffff16815260200190815260200160002060020181905550611f4c600760008573ffffffffffffffffffffffffffffffffffffffff1673ffffffffffffffffffffffffffffffffffffffff16815260200190815260200160002060000154611f3e600654600a0a600760008873ffffffffffffffffffffffffffffffffffffffff1673ffffffffffffffffffffffffffffffffffffffff16815260200190815260200160002060020154612e0990919063ffffffff16565b612e4790919063ffffffff16565b600760008573ffffffffffffffffffffffffffffffffffffffff1673ffffffffffffffffffffffffffffffffffffffff16815260200190815260200160002060010181905550611fa734600954612e9290919063ffffffff16565b6009819055508273ffffffffffffffffffffffffffffffffffffffff167f363f315f930a17d1266b86a20d6dd34b1cfbc5a9db9f13a65d06a689c3a2af8a3484604051808381526020018281526020019250505060405180910390a2505050565b60076020528060005260406000206000915090508060000154908060010154908060020154905083565b600260009054906101000a900473ffffffffffffffffffffffffffffffffffffffff1681565b600080600080600080600260009054906101000a900473ffffffffffffffffffffffffffffffffffffffff1673ffffffffffffffffffffffffffffffffffffffff1663d6d65f3d6040518163ffffffff167c01000000000000000000000000000000000000000000000000000000000281526004016040805180830381600087803b1580156120e657600080fd5b505af11580156120fa573d6000803e3d6000fd5b505050506040513d604081101561211057600080fd5b81019080805190602001909291908051906020019092919050505094509450600260009054906101000a900473ffffffffffffffffffffffffffffffffffffffff1673ffffffffffffffffffffffffffffffffffffffff166314f66d346040518163ffffffff167c01000000000000000000000000000000000000000000000000000000000281526004016040805180830381600087803b1580156121b457600080fd5b505af11580156121c8573d6000803e3d6000fd5b505050506040513d60408110156121de57600080fd5b81019080805190602001909291908051906020019092919050505050925083151561220857612577565b600085141561221a5760019550612577565b600260009054906101000a900473ffffffffffffffffffffffffffffffffffffffff1673ffffffffffffffffffffffffffffffffffffffff16632442e1cb866040518263ffffffff167c010000000000000000000000000000000000000000000000000000000002815260040180828152602001915050600060405180830381600087803b1580156122ab57600080fd5b505af11580156122bf573d6000803e3d6000fd5b505050506040513d6000823e3d601f19601f8201168201806040525060c08110156122e957600080fd5b8101908080519060200190929190805190602001909291908051906020019092919080519060200190929190805164010000000081111561232957600080fd5b8281019050602081018481111561233f57600080fd5b815185600182028301116401000000008211171561235c57600080fd5b5050929190602001805164010000000081111561237857600080fd5b8281019050602081018481111561238e57600080fd5b81518560018202830111640100000000821117156123ab57600080fd5b505092919050505050505050509150600260009054906101000a900473ffffffffffffffffffffffffffffffffffffffff1673ffffffffffffffffffffffffffffffffffffffff16632442e1cb846040518263ffffffff167c010000000000000000000000000000000000000000000000000000000002815260040180828152602001915050600060405180830381600087803b15801561244b57600080fd5b505af115801561245f573d6000803e3d6000fd5b505050506040513d6000823e3d601f19601f8201168201806040525060c081101561248957600080fd5b810190808051906020019092919080519060200190929190805190602001909291908051906020019092919080516401000000008111156124c957600080fd5b828101905060208101848111156124df57600080fd5b81518560018202830111640100000000821117156124fc57600080fd5b5050929190602001805164010000000081111561251857600080fd5b8281019050602081018481111561252e57600080fd5b815185600182028301116401000000008211171561254b57600080fd5b505092919050505050509350505050428263ffffffff1611806125745750428163ffffffff1611155b95505b505050505090565b600c5481565b600080600080600080600080600080600080600260009054906101000a900473ffffffffffffffffffffffffffffffffffffffff1673ffffffffffffffffffffffffffffffffffffffff1663d6d65f3d6040518163ffffffff167c01000000000000000000000000000000000000000000000000000000000281526004016040805180830381600087803b15801561261c57600080fd5b505af1158015612630573d6000803e3d6000fd5b505050506040513d604081101561264657600080fd5b81019080805190602001909291908051906020019092919050505098509850600260009054906101000a900473ffffffffffffffffffffffffffffffffffffffff1673ffffffffffffffffffffffffffffffffffffffff166314f66d346040518163ffffffff167c01000000000000000000000000000000000000000000000000000000000281526004016040805180830381600087803b1580156126ea57600080fd5b505af11580156126fe573d6000803e3d6000fd5b505050506040513d604081101561271457600080fd5b810190808051906020019092919080519060200190929190505050509650600260009054906101000a900473ffffffffffffffffffffffffffffffffffffffff1673ffffffffffffffffffffffffffffffffffffffff16632442e1cb886040518263ffffffff167c010000000000000000000000000000000000000000000000000000000002815260040180828152602001915050600060405180830381600087803b1580156127c357600080fd5b505af11580156127d7573d6000803e3d6000fd5b505050506040513d6000823e3d601f19601f8201168201806040525060c081101561280157600080fd5b8101908080519060200190929190805190602001909291908051906020019092919080519060200190929190805164010000000081111561284157600080fd5b8281019050602081018481111561285757600080fd5b815185600182028301116401000000008211171561287457600080fd5b5050929190602001805164010000000081111561289057600080fd5b828101905060208101848111156128a657600080fd5b81518560018202830111640100000000821117156128c357600080fd5b5050929190505050505098505050508715806128e457506128e2612058565b155b156128ee57612cad565b600089148061290357508563ffffffff164210155b6129105760018903612912565b885b9850600260009054906101000a900473ffffffffffffffffffffffffffffffffffffffff1673ffffffffffffffffffffffffffffffffffffffff16632442e1cb8a6040518263ffffffff167c010000000000000000000000000000000000000000000000000000000002815260040180828152602001915050600060405180830381600087803b1580156129a557600080fd5b505af11580156129b9573d6000803e3d6000fd5b505050506040513d6000823e3d601f19601f8201168201806040525060c08110156129e357600080fd5b81019080805190602001909291908051906020019092919080519060200190929190805190602001909291908051640100000000811115612a2357600080fd5b82810190506020810184811115612a3957600080fd5b8151856001820283011164010000000082111715612a5657600080fd5b50509291906020018051640100000000811115612a7257600080fd5b82810190506020810184811115612a8857600080fd5b8151856001820283011164010000000082111715612aa557600080fd5b50509291905050505050965050955050600860008a815260200190815260200160002060009054906101000a900460ff1692508215612ae357612cad565b8891505b6000821115612ca357818060019003925050600260009054906101000a900473ffffffffffffffffffffffffffffffffffffffff1673ffffffffffffffffffffffffffffffffffffffff16632442e1cb836040518263ffffffff167c010000000000000000000000000000000000000000000000000000000002815260040180828152602001915050600060405180830381600087803b158015612b8a57600080fd5b505af1158015612b9e573d6000803e3d6000fd5b505050506040513d6000823e3d601f19601f8201168201806040525060c0811015612bc857600080fd5b81019080805190602001909291908051906020019092919080519060200190929190805190602001909291908051640100000000811115612c0857600080fd5b82810190506020810184811115612c1e57600080fd5b8151856001820283011164010000000082111715612c3b57600080fd5b50509291906020018051640100000000811115612c5757600080fd5b82810190506020810184811115612c6d57600080fd5b8151856001820283011164010000000082111715612c8a57600080fd5b505092919050505050505050915050808b019a50612ae7565b848b8a9b509b509b505b505050505050505050909192565b6000809054906101000a900473ffffffffffffffffffffffffffffffffffffffff1673ffffffffffffffffffffffffffffffffffffffff163373ffffffffffffffffffffffffffffffffffffffff16141515612d1657600080fd5b600073ffffffffffffffffffffffffffffffffffffffff168173ffffffffffffffffffffffffffffffffffffffff1614151515612d5257600080fd5b80600360006101000a81548173ffffffffffffffffffffffffffffffffffffffff021916908373ffffffffffffffffffffffffffffffffffffffff16021790555050565b60095481565b600a5481565b6000809054906101000a900473ffffffffffffffffffffffffffffffffffffffff1673ffffffffffffffffffffffffffffffffffffffff163373ffffffffffffffffffffffffffffffffffffffff16141515612dfd57600080fd5b612e0681612efd565b50565b6000806000841415612e1e5760009150612e40565b8284029050828482811515612e2f57fe5b04141515612e3c57600080fd5b8091505b5092915050565b600080600083111515612e5957600080fd5b8284811515612e6457fe5b0490508091505092915050565b600080838311151515612e8357600080fd5b82840390508091505092915050565b6000808284019050838110151515612ea957600080fd5b8091505092915050565b6000612ebe82612ff7565b1515612ec957600080fd5b612ef5612ed461301e565b612ee78486612e0990919063ffffffff16565b612e4790919063ffffffff16565b905092915050565b600073ffffffffffffffffffffffffffffffffffffffff168173ffffffffffffffffffffffffffffffffffffffff1614151515612f3957600080fd5b8073ffffffffffffffffffffffffffffffffffffffff166000809054906101000a900473ffffffffffffffffffffffffffffffffffffffff1673ffffffffffffffffffffffffffffffffffffffff167f8be0079c531659141344cd1fd0a4f28419497f9722a3daafe3b4186f6b6457e060405160405180910390a3806000806101000a81548173ffffffffffffffffffffffffffffffffffffffff021916908373ffffffffffffffffffffffffffffffffffffffff16021790555050565b6000613001613030565b8210158015613017575061301361301e565b8211155b9050919050565b6000613028613038565b600a0a905090565b600080905090565b600061304261304a565b600201905090565b60006002905090565b600061305e82612ff7565b151561306957600080fd5b61308661307461304a565b600a0a83612e4790919063ffffffff16565b90509190505600a165627a7a72305820dcbb377b0df0d965530496902e756c2959464644eb24e99af8871f1d6dd509c50029a165627a7a72305820d83668cde03bb9c813bb3a7f76aedf0a3b189b9f036fff0a03bb014ab7d941100029",
  "source": "pragma solidity ^0.4.24;\n\nimport \"./W12Fund.sol\";\nimport \"./interfaces/IW12FundFactory.sol\";\n\n\ncontract W12FundFactory is IW12FundFactory {\n    event FundCreated(address indexed fund);\n\n    function createFund(address swap, address serviceWallet, uint trancheFeePercent) external returns (IW12Fund result) {\n        result = new W12Fund(trancheFeePercent);\n\n        result.setSwap(swap);\n        result.setServiceWallet(serviceWallet);\n        result.transferOwnership(msg.sender);\n\n        emit FundCreated(result);\n    }\n}\n",
  "sourcePath": "/Projects/w12-new/contracts/W12FundFactory.sol",
  "compiler": {
    "name": "solc",
    "version": "0.4.24+commit.e67f0147.Emscripten.clang"
  },
  "schemaVersion": "2.0.1",
  "updatedAt": "2018-09-17T15:36:05.726Z"
}