{
  "contractName": "W12Fund",
  "abi": [
    {
      "constant": true,
      "inputs": [],
      "name": "wToken",
      "outputs": [
        {
          "name": "",
          "type": "address"
        }
      ],
      "payable": false,
      "stateMutability": "view",
      "type": "function"
    },
    {
      "constant": false,
      "inputs": [],
      "name": "renounceOwnership",
      "outputs": [],
      "payable": false,
      "stateMutability": "nonpayable",
      "type": "function"
    },
    {
      "constant": true,
      "inputs": [],
      "name": "swap",
      "outputs": [
        {
          "name": "",
          "type": "address"
        }
      ],
      "payable": false,
      "stateMutability": "view",
      "type": "function"
    },
    {
      "constant": true,
      "inputs": [],
      "name": "owner",
      "outputs": [
        {
          "name": "",
          "type": "address"
        }
      ],
      "payable": false,
      "stateMutability": "view",
      "type": "function"
    },
    {
      "constant": true,
      "inputs": [
        {
          "name": "",
          "type": "address"
        }
      ],
      "name": "buyers",
      "outputs": [
        {
          "name": "totalBought",
          "type": "uint256"
        },
        {
          "name": "averagePrice",
          "type": "uint256"
        },
        {
          "name": "totalFunded",
          "type": "uint256"
        }
      ],
      "payable": false,
      "stateMutability": "view",
      "type": "function"
    },
    {
      "constant": true,
      "inputs": [],
      "name": "crowdsale",
      "outputs": [
        {
          "name": "",
          "type": "address"
        }
      ],
      "payable": false,
      "stateMutability": "view",
      "type": "function"
    },
    {
      "constant": true,
      "inputs": [],
      "name": "totalFunded",
      "outputs": [
        {
          "name": "",
          "type": "uint256"
        }
      ],
      "payable": false,
      "stateMutability": "view",
      "type": "function"
    },
    {
      "constant": true,
      "inputs": [],
      "name": "totalRefunded",
      "outputs": [
        {
          "name": "",
          "type": "uint256"
        }
      ],
      "payable": false,
      "stateMutability": "view",
      "type": "function"
    },
    {
      "constant": false,
      "inputs": [
        {
          "name": "_newOwner",
          "type": "address"
        }
      ],
      "name": "transferOwnership",
      "outputs": [],
      "payable": false,
      "stateMutability": "nonpayable",
      "type": "function"
    },
    {
      "anonymous": false,
      "inputs": [
        {
          "indexed": true,
          "name": "buyer",
          "type": "address"
        },
        {
          "indexed": false,
          "name": "etherAmount",
          "type": "uint256"
        },
        {
          "indexed": false,
          "name": "tokenAmount",
          "type": "uint256"
        }
      ],
      "name": "FundsReceived",
      "type": "event"
    },
    {
      "anonymous": false,
      "inputs": [
        {
          "indexed": true,
          "name": "buyer",
          "type": "address"
        },
        {
          "indexed": false,
          "name": "etherAmount",
          "type": "uint256"
        },
        {
          "indexed": false,
          "name": "tokenAmount",
          "type": "uint256"
        }
      ],
      "name": "FundsRefunded",
      "type": "event"
    },
    {
      "anonymous": false,
      "inputs": [
        {
          "indexed": true,
          "name": "receiver",
          "type": "address"
        },
        {
          "indexed": false,
          "name": "amount",
          "type": "uint256"
        }
      ],
      "name": "TrancheOperation",
      "type": "event"
    },
    {
      "anonymous": false,
      "inputs": [
        {
          "indexed": true,
          "name": "previousOwner",
          "type": "address"
        }
      ],
      "name": "OwnershipRenounced",
      "type": "event"
    },
    {
      "anonymous": false,
      "inputs": [
        {
          "indexed": true,
          "name": "previousOwner",
          "type": "address"
        },
        {
          "indexed": true,
          "name": "newOwner",
          "type": "address"
        }
      ],
      "name": "OwnershipTransferred",
      "type": "event"
    },
    {
      "constant": false,
      "inputs": [
        {
          "name": "_crowdsale",
          "type": "address"
        }
      ],
      "name": "setCrowdsale",
      "outputs": [],
      "payable": false,
      "stateMutability": "nonpayable",
      "type": "function"
    },
    {
      "constant": false,
      "inputs": [
        {
          "name": "_swap",
          "type": "address"
        }
      ],
      "name": "setSwap",
      "outputs": [],
      "payable": false,
      "stateMutability": "nonpayable",
      "type": "function"
    },
    {
      "constant": false,
      "inputs": [
        {
          "name": "buyer",
          "type": "address"
        },
        {
          "name": "tokenAmount",
          "type": "uint256"
        }
      ],
      "name": "recordPurchase",
      "outputs": [],
      "payable": true,
      "stateMutability": "payable",
      "type": "function"
    },
    {
      "constant": true,
      "inputs": [
        {
          "name": "buyer",
          "type": "address"
        }
      ],
      "name": "getInvestmentsInfo",
      "outputs": [
        {
          "name": "totalTokensBought",
          "type": "uint256"
        },
        {
          "name": "averageTokenPrice",
          "type": "uint256"
        }
      ],
      "payable": false,
      "stateMutability": "view",
      "type": "function"
    },
    {
      "constant": true,
      "inputs": [
        {
          "name": "wtokensToRefund",
          "type": "uint256"
        }
      ],
      "name": "getRefundAmount",
      "outputs": [
        {
          "name": "",
          "type": "uint256"
        }
      ],
      "payable": false,
      "stateMutability": "view",
      "type": "function"
    },
    {
      "constant": true,
      "inputs": [],
      "name": "getRefundPeriod",
      "outputs": [
        {
          "name": "",
          "type": "uint32"
        },
        {
          "name": "",
          "type": "uint32"
        }
      ],
      "payable": false,
      "stateMutability": "view",
      "type": "function"
    },
    {
      "constant": true,
      "inputs": [],
      "name": "getTrancheAmount",
      "outputs": [
        {
          "name": "",
          "type": "uint256"
        }
      ],
      "payable": false,
      "stateMutability": "view",
      "type": "function"
    },
    {
      "constant": true,
      "inputs": [],
      "name": "getTrancheParameters",
      "outputs": [
        {
          "name": "",
          "type": "uint8"
        },
        {
          "name": "",
          "type": "uint32"
        },
        {
          "name": "",
          "type": "uint32"
        }
      ],
      "payable": false,
      "stateMutability": "view",
      "type": "function"
    },
    {
      "constant": false,
      "inputs": [],
      "name": "tranche",
      "outputs": [],
      "payable": false,
      "stateMutability": "nonpayable",
      "type": "function"
    },
    {
      "constant": false,
      "inputs": [
        {
          "name": "wtokensToRefund",
          "type": "uint256"
        }
      ],
      "name": "refund",
      "outputs": [],
      "payable": false,
      "stateMutability": "nonpayable",
      "type": "function"
    }
  ],
  "bytecode": "0x608060405260008060146101000a81548160ff021916908315150217905550336000806101000a81548173ffffffffffffffffffffffffffffffffffffffff021916908373ffffffffffffffffffffffffffffffffffffffff160217905550611f298061006d6000396000f300608060405260043610610107576000357c0100000000000000000000000000000000000000000000000000000000900463ffffffff16806304cd52941461010c5780630babd8641461014d57806311fa7da2146101a4578063278ecde114610202578063483a20b21461022f5780635647cb14146102725780636ebc0af1146102bc578063715018a6146102d35780638119c065146102ea5780638ce2bc2a146103415780638da5cb5b1461036c578063958799cb146103c357806397a993aa146104035780639c1e03a014610468578063ac2a2a34146104bf578063acb3c07314610516578063ad044f4914610559578063d908296214610584578063f2fde38b146105af575b600080fd5b34801561011857600080fd5b50610137600480360381019080803590602001909291905050506105f2565b6040518082815260200191505060405180910390f35b34801561015957600080fd5b50610162610991565b604051808273ffffffffffffffffffffffffffffffffffffffff1673ffffffffffffffffffffffffffffffffffffffff16815260200191505060405180910390f35b3480156101b057600080fd5b506101e5600480360381019080803573ffffffffffffffffffffffffffffffffffffffff1690602001909291905050506109b7565b604051808381526020018281526020019250505060405180910390f35b34801561020e57600080fd5b5061022d60048036038101908080359060200190929190505050610a85565b005b34801561023b57600080fd5b50610270600480360381019080803573ffffffffffffffffffffffffffffffffffffffff16906020019092919050505061101b565b005b34801561027e57600080fd5b506102876111d5565b604051808363ffffffff1663ffffffff1681526020018263ffffffff1663ffffffff1681526020019250505060405180910390f35b3480156102c857600080fd5b506102d161137d565b005b3480156102df57600080fd5b506102e86114dc565b005b3480156102f657600080fd5b506102ff6115de565b604051808273ffffffffffffffffffffffffffffffffffffffff1673ffffffffffffffffffffffffffffffffffffffff16815260200191505060405180910390f35b34801561034d57600080fd5b50610356611604565b6040518082815260200191505060405180910390f35b34801561037857600080fd5b506103816116e5565b604051808273ffffffffffffffffffffffffffffffffffffffff1673ffffffffffffffffffffffffffffffffffffffff16815260200191505060405180910390f35b610401600480360381019080803573ffffffffffffffffffffffffffffffffffffffff1690602001909291908035906020019092919050505061170a565b005b34801561040f57600080fd5b50610444600480360381019080803573ffffffffffffffffffffffffffffffffffffffff1690602001909291905050506119eb565b60405180848152602001838152602001828152602001935050505060405180910390f35b34801561047457600080fd5b5061047d611a15565b604051808273ffffffffffffffffffffffffffffffffffffffff1673ffffffffffffffffffffffffffffffffffffffff16815260200191505060405180910390f35b3480156104cb57600080fd5b506104d4611a3b565b604051808460ff1660ff1681526020018363ffffffff1663ffffffff1681526020018263ffffffff1663ffffffff168152602001935050505060405180910390f35b34801561052257600080fd5b50610557600480360381019080803573ffffffffffffffffffffffffffffffffffffffff169060200190929190505050611c32565b005b34801561056557600080fd5b5061056e611d0d565b6040518082815260200191505060405180910390f35b34801561059057600080fd5b50610599611d13565b6040518082815260200191505060405180910390f35b3480156105bb57600080fd5b506105f0600480360381019080803573ffffffffffffffffffffffffffffffffffffffff169060200190929190505050611d19565b005b600080600080600080600080600096506305f5e1007fffffffffffffffffffffffffffffffffffffffffffffffffffffffffffffffff81151561063157fe5b04955033945061063f6111d5565b9350935060008463ffffffff1611801561065f5750428363ffffffff1610155b80156106705750428463ffffffff16105b801561067c5750600089115b80156106ca57506000600460008773ffffffffffffffffffffffffffffffffffffffff1673ffffffffffffffffffffffffffffffffffffffff16815260200190815260200160002060000154115b80156106ed575060003073ffffffffffffffffffffffffffffffffffffffff1631115b80156107f0575088600360009054906101000a900473ffffffffffffffffffffffffffffffffffffffff1673ffffffffffffffffffffffffffffffffffffffff166370a08231876040518263ffffffff167c0100000000000000000000000000000000000000000000000000000000028152600401808273ffffffffffffffffffffffffffffffffffffffff1673ffffffffffffffffffffffffffffffffffffffff168152602001915050602060405180830381600087803b1580156107b257600080fd5b505af11580156107c6573d6000803e3d6000fd5b505050506040513d60208110156107dc57600080fd5b810190808051906020019092919050505010155b801561083e575088600460008773ffffffffffffffffffffffffffffffffffffffff1673ffffffffffffffffffffffffffffffffffffffff1681526020019081526020016000206000015410155b15610982576108c33073ffffffffffffffffffffffffffffffffffffffff16316108b5600554600460008a73ffffffffffffffffffffffffffffffffffffffff1673ffffffffffffffffffffffffffffffffffffffff16815260200190815260200160002060020154611d8090919063ffffffff16565b611db890919063ffffffff16565b9150858210156108d7576305f5e1006108da565b60015b63ffffffff16905061097f610970826109628c610954600460008c73ffffffffffffffffffffffffffffffffffffffff1673ffffffffffffffffffffffffffffffffffffffff16815260200190815260200160002060000154610946888a611d8090919063ffffffff16565b611db890919063ffffffff16565b611d8090919063ffffffff16565b611db890919063ffffffff16565b88611dce90919063ffffffff16565b96505b86975050505050505050919050565b600360009054906101000a900473ffffffffffffffffffffffffffffffffffffffff1681565b600080600073ffffffffffffffffffffffffffffffffffffffff168373ffffffffffffffffffffffffffffffffffffffff16141515156109f657600080fd5b600460008473ffffffffffffffffffffffffffffffffffffffff1673ffffffffffffffffffffffffffffffffffffffff16815260200190815260200160002060000154600460008573ffffffffffffffffffffffffffffffffffffffff1673ffffffffffffffffffffffffffffffffffffffff1681526020019081526020016000206001015491509150915091565b600080600060149054906101000a900460ff16151515610aa457600080fd5b6001600060146101000a81548160ff021916908315150217905550610ac8836105f2565b9150339050600082111515610adc57600080fd5b600360009054906101000a900473ffffffffffffffffffffffffffffffffffffffff1673ffffffffffffffffffffffffffffffffffffffff166323b872dd82600260009054906101000a900473ffffffffffffffffffffffffffffffffffffffff16866040518463ffffffff167c0100000000000000000000000000000000000000000000000000000000028152600401808473ffffffffffffffffffffffffffffffffffffffff1673ffffffffffffffffffffffffffffffffffffffff1681526020018373ffffffffffffffffffffffffffffffffffffffff1673ffffffffffffffffffffffffffffffffffffffff1681526020018281526020019350505050602060405180830381600087803b158015610bf757600080fd5b505af1158015610c0b573d6000803e3d6000fd5b505050506040513d6020811015610c2157600080fd5b81019080805190602001909291905050501515610c3d57600080fd5b610c9283600460008473ffffffffffffffffffffffffffffffffffffffff1673ffffffffffffffffffffffffffffffffffffffff16815260200190815260200160002060000154611dea90919063ffffffff16565b600460008373ffffffffffffffffffffffffffffffffffffffff1673ffffffffffffffffffffffffffffffffffffffff16815260200190815260200160002060000181905550610d81610d30600460008473ffffffffffffffffffffffffffffffffffffffff1673ffffffffffffffffffffffffffffffffffffffff1681526020019081526020016000206001015485611d8090919063ffffffff16565b600460008473ffffffffffffffffffffffffffffffffffffffff1673ffffffffffffffffffffffffffffffffffffffff16815260200190815260200160002060020154611dea90919063ffffffff16565b600460008373ffffffffffffffffffffffffffffffffffffffff1673ffffffffffffffffffffffffffffffffffffffff168152602001908152602001600020600201819055506000600460008373ffffffffffffffffffffffffffffffffffffffff1673ffffffffffffffffffffffffffffffffffffffff16815260200190815260200160002060020154118015610e5b57506000600460008373ffffffffffffffffffffffffffffffffffffffff1673ffffffffffffffffffffffffffffffffffffffff16815260200190815260200160002060000154115b610e66576000610efe565b610efd600460008373ffffffffffffffffffffffffffffffffffffffff1673ffffffffffffffffffffffffffffffffffffffff16815260200190815260200160002060000154600460008473ffffffffffffffffffffffffffffffffffffffff1673ffffffffffffffffffffffffffffffffffffffff16815260200190815260200160002060020154611db890919063ffffffff16565b5b600460008373ffffffffffffffffffffffffffffffffffffffff1673ffffffffffffffffffffffffffffffffffffffff16815260200190815260200160002060010181905550610f5982600654611dce90919063ffffffff16565b6006819055508073ffffffffffffffffffffffffffffffffffffffff166108fc839081150290604051600060405180830381858888f19350505050158015610fa5573d6000803e3d6000fd5b508073ffffffffffffffffffffffffffffffffffffffff167ffc48f4f163cfed28aaf3be3f0b162a1338fab214afc9340eafc6cb081c71fadf8385604051808381526020018281526020019250505060405180910390a260008060146101000a81548160ff021916908315150217905550505050565b6000809054906101000a900473ffffffffffffffffffffffffffffffffffffffff1673ffffffffffffffffffffffffffffffffffffffff163373ffffffffffffffffffffffffffffffffffffffff1614151561107657600080fd5b600073ffffffffffffffffffffffffffffffffffffffff168173ffffffffffffffffffffffffffffffffffffffff16141515156110b257600080fd5b80600160006101000a81548173ffffffffffffffffffffffffffffffffffffffff021916908373ffffffffffffffffffffffffffffffffffffffff1602179055508073ffffffffffffffffffffffffffffffffffffffff16634090cb646040518163ffffffff167c0100000000000000000000000000000000000000000000000000000000028152600401602060405180830381600087803b15801561115757600080fd5b505af115801561116b573d6000803e3d6000fd5b505050506040513d602081101561118157600080fd5b8101908080519060200190929190505050600360006101000a81548173ffffffffffffffffffffffffffffffffffffffff021916908373ffffffffffffffffffffffffffffffffffffffff16021790555050565b600080600080600160009054906101000a900473ffffffffffffffffffffffffffffffffffffffff1673ffffffffffffffffffffffffffffffffffffffff1663299a017c6040518163ffffffff167c0100000000000000000000000000000000000000000000000000000000028152600401600060405180830381600087803b15801561126157600080fd5b505af1158015611275573d6000803e3d6000fd5b505050506040513d6000823e3d601f19601f8201168201806040525060c081101561129f57600080fd5b810190808051906020019092919080519060200190929190805190602001909291908051906020019092919080516401000000008111156112df57600080fd5b828101905060208101848111156112f557600080fd5b815185600182028301116401000000008211171561131257600080fd5b5050929190602001805164010000000081111561132e57600080fd5b8281019050602081018481111561134457600080fd5b815185600182028301116401000000008211171561136157600080fd5b5050929190505050505093509350505081819350935050509091565b60008060009054906101000a900473ffffffffffffffffffffffffffffffffffffffff1673ffffffffffffffffffffffffffffffffffffffff163373ffffffffffffffffffffffffffffffffffffffff161415156113da57600080fd5b600060149054906101000a900460ff161515156113f657600080fd5b6001600060146101000a81548160ff021916908315150217905550611419611604565b905060008111151561142a57600080fd5b3373ffffffffffffffffffffffffffffffffffffffff166108fc829081150290604051600060405180830381858888f19350505050158015611470573d6000803e3d6000fd5b503373ffffffffffffffffffffffffffffffffffffffff167f333c8b01d26c7b77312592c86110afe8f6ffb558755a83599a45373a98e9294a826040518082815260200191505060405180910390a260008060146101000a81548160ff02191690831515021790555050565b6000809054906101000a900473ffffffffffffffffffffffffffffffffffffffff1673ffffffffffffffffffffffffffffffffffffffff163373ffffffffffffffffffffffffffffffffffffffff1614151561153757600080fd5b6000809054906101000a900473ffffffffffffffffffffffffffffffffffffffff1673ffffffffffffffffffffffffffffffffffffffff167ff8df31144d9c2f0f6b59d69b8b98abd5459d07f2742c4df920b25aae33c6482060405160405180910390a260008060006101000a81548173ffffffffffffffffffffffffffffffffffffffff021916908373ffffffffffffffffffffffffffffffffffffffff160217905550565b600260009054906101000a900473ffffffffffffffffffffffffffffffffffffffff1681565b60008060008060008060009450611619611a3b565b93509350935060008363ffffffff1611801561163b5750428263ffffffff1610155b801561164c5750428363ffffffff16105b801561165b575060008460ff16115b801561167e575060003073ffffffffffffffffffffffffffffffffffffffff1631115b156116da5761169a600654600554611dea90919063ffffffff16565b90506116d76116c860646116ba8760ff1685611d8090919063ffffffff16565b611db890919063ffffffff16565b86611dce90919063ffffffff16565b94505b849550505050505090565b6000809054906101000a900473ffffffffffffffffffffffffffffffffffffffff1681565b6000600160009054906101000a900473ffffffffffffffffffffffffffffffffffffffff168073ffffffffffffffffffffffffffffffffffffffff163373ffffffffffffffffffffffffffffffffffffffff1614151561176957600080fd5b600460008573ffffffffffffffffffffffffffffffffffffffff1673ffffffffffffffffffffffffffffffffffffffff1681526020019081526020016000206000015491506117c18383611dce90919063ffffffff16565b600460008673ffffffffffffffffffffffffffffffffffffffff1673ffffffffffffffffffffffffffffffffffffffff1681526020019081526020016000206000018190555061185c34600460008773ffffffffffffffffffffffffffffffffffffffff1673ffffffffffffffffffffffffffffffffffffffff16815260200190815260200160002060020154611dce90919063ffffffff16565b600460008673ffffffffffffffffffffffffffffffffffffffff1673ffffffffffffffffffffffffffffffffffffffff16815260200190815260200160002060020181905550611939600460008673ffffffffffffffffffffffffffffffffffffffff1673ffffffffffffffffffffffffffffffffffffffff16815260200190815260200160002060000154600460008773ffffffffffffffffffffffffffffffffffffffff1673ffffffffffffffffffffffffffffffffffffffff16815260200190815260200160002060020154611db890919063ffffffff16565b600460008673ffffffffffffffffffffffffffffffffffffffff1673ffffffffffffffffffffffffffffffffffffffff16815260200190815260200160002060010181905550346005600082825401925050819055508373ffffffffffffffffffffffffffffffffffffffff167f363f315f930a17d1266b86a20d6dd34b1cfbc5a9db9f13a65d06a689c3a2af8a3485604051808381526020018281526020019250505060405180910390a250505050565b60046020528060005260406000206000915090508060000154908060010154908060020154905083565b600160009054906101000a900473ffffffffffffffffffffffffffffffffffffffff1681565b600080600080600080600160009054906101000a900473ffffffffffffffffffffffffffffffffffffffff1673ffffffffffffffffffffffffffffffffffffffff1663299a017c6040518163ffffffff167c0100000000000000000000000000000000000000000000000000000000028152600401600060405180830381600087803b158015611aca57600080fd5b505af1158015611ade573d6000803e3d6000fd5b505050506040513d6000823e3d601f19601f8201168201806040525060c0811015611b0857600080fd5b81019080805190602001909291908051906020019092919080519060200190929190805190602001909291908051640100000000811115611b4857600080fd5b82810190506020810184811115611b5e57600080fd5b8151856001820283011164010000000082111715611b7b57600080fd5b50509291906020018051640100000000811115611b9757600080fd5b82810190506020810184811115611bad57600080fd5b8151856001820283011164010000000082111715611bca57600080fd5b50509291905050505050935093509350508282428363ffffffff16108015611bf8575060008363ffffffff16115b611c025782611c24565b7fffffffffffffffffffffffffffffffffffffffffffffffffffffffffffffffff5b955095509550505050909192565b6000809054906101000a900473ffffffffffffffffffffffffffffffffffffffff1673ffffffffffffffffffffffffffffffffffffffff163373ffffffffffffffffffffffffffffffffffffffff16141515611c8d57600080fd5b600073ffffffffffffffffffffffffffffffffffffffff168173ffffffffffffffffffffffffffffffffffffffff1614151515611cc957600080fd5b80600260006101000a81548173ffffffffffffffffffffffffffffffffffffffff021916908373ffffffffffffffffffffffffffffffffffffffff16021790555050565b60055481565b60065481565b6000809054906101000a900473ffffffffffffffffffffffffffffffffffffffff1673ffffffffffffffffffffffffffffffffffffffff163373ffffffffffffffffffffffffffffffffffffffff16141515611d7457600080fd5b611d7d81611e03565b50565b600080831415611d935760009050611db2565b8183029050818382811515611da457fe5b04141515611dae57fe5b8090505b92915050565b60008183811515611dc557fe5b04905092915050565b60008183019050828110151515611de157fe5b80905092915050565b6000828211151515611df857fe5b818303905092915050565b600073ffffffffffffffffffffffffffffffffffffffff168173ffffffffffffffffffffffffffffffffffffffff1614151515611e3f57600080fd5b8073ffffffffffffffffffffffffffffffffffffffff166000809054906101000a900473ffffffffffffffffffffffffffffffffffffffff1673ffffffffffffffffffffffffffffffffffffffff167f8be0079c531659141344cd1fd0a4f28419497f9722a3daafe3b4186f6b6457e060405160405180910390a3806000806101000a81548173ffffffffffffffffffffffffffffffffffffffff021916908373ffffffffffffffffffffffffffffffffffffffff160217905550505600a165627a7a72305820a44d0af7fd3d39720ee47607b197ea095281f87929634f62ef0b08de015ad05d0029",
  "source": "pragma solidity ^0.4.24;\n\nimport \"../openzeppelin-solidity/contracts/ownership/Ownable.sol\";\nimport \"../openzeppelin-solidity/contracts/ReentrancyGuard.sol\";\nimport \"../openzeppelin-solidity/contracts/math/SafeMath.sol\";\nimport \"./WToken.sol\";\nimport \"./IW12Crowdsale.sol\";\n\n\ncontract W12Fund is Ownable, ReentrancyGuard {\n    using SafeMath for uint;\n\n    IW12Crowdsale public crowdsale;\n    address public swap;\n    WToken public wToken;\n    mapping (address=>TokenPriceInfo) public buyers;\n    uint public totalFunded;\n    uint public totalRefunded;\n\n    struct TokenPriceInfo {\n        uint totalBought;\n        uint averagePrice;\n        uint totalFunded;\n    }\n\n    event FundsReceived(address indexed buyer, uint etherAmount, uint tokenAmount);\n    event FundsRefunded(address indexed buyer, uint etherAmount, uint tokenAmount);\n    event TrancheOperation(address indexed receiver, uint amount);\n\n    function setCrowdsale(IW12Crowdsale _crowdsale) onlyOwner external {\n        require(_crowdsale != address(0));\n\n        crowdsale = _crowdsale;\n        wToken = _crowdsale.getWToken();\n    }\n\n    function setSwap(address _swap) onlyOwner external {\n        require(_swap != address(0));\n\n        swap = _swap;\n    }\n\n    function recordPurchase(address buyer, uint tokenAmount) external payable onlyFrom(crowdsale) {\n        uint tokensBoughtBefore = buyers[buyer].totalBought;\n\n        buyers[buyer].totalBought = tokensBoughtBefore.add(tokenAmount);\n        buyers[buyer].totalFunded = buyers[buyer].totalFunded.add(msg.value);\n        buyers[buyer].averagePrice = buyers[buyer].totalFunded.div(buyers[buyer].totalBought);\n\n        totalFunded += msg.value;\n\n        emit FundsReceived(buyer, msg.value, tokenAmount);\n    }\n\n    function getInvestmentsInfo(address buyer) external view returns (uint totalTokensBought, uint averageTokenPrice) {\n        require(buyer != address(0));\n\n        return (buyers[buyer].totalBought, buyers[buyer].averagePrice);\n    }\n\n    /**\n        calculation parameters:\n\n            a = address(this).balance\n            b = totalFunded\n            c = buyers[buyer].totalFunded\n            d = buyers[buyer].totalBought\n            e = wtokensToRefund\n\n        formula:\n            ( ( c * (a / b) ) / d ) * e = (refund amount)\n\n        adapted:\n            1. c * b / a = A_1\n            2. A_1 * 10 ** 8 / d * e / 10 ** 8\n    */\n    function getRefundAmount(uint wtokensToRefund) public view returns (uint) {\n        uint result = 0;\n        uint max = uint(-1) / 10 ** 8;\n        address buyer = msg.sender;\n        (uint32 start, uint32 end) = getRefundPeriod();\n\n        if (\n            start > 0\n            && end >= now\n            && start < now\n            && wtokensToRefund > 0\n            && buyers[buyer].totalBought > 0\n            && address(this).balance > 0\n            && wToken.balanceOf(buyer) >= wtokensToRefund\n            && buyers[buyer].totalBought >= wtokensToRefund\n        ) {\n            uint allowedFund = buyers[buyer].totalFunded.mul(totalFunded).div(address(this).balance);\n            uint precisionComponent = allowedFund >= max ? 1 : 10 ** 8;\n\n            result = result.add(\n                allowedFund\n                    .mul(precisionComponent)\n                    .div(buyers[buyer].totalBought)\n                    .mul(wtokensToRefund)\n                    .div(precisionComponent)\n            );\n        }\n\n        return result;\n    }\n\n    function getRefundPeriod() public view returns (uint32, uint32) {\n        (,, uint32 voteEndDate, uint32 withdrawalWindow,,) = crowdsale.getCurrentMilestone();\n\n        return (voteEndDate, withdrawalWindow);\n    }\n\n    function getTrancheAmount() public view returns (uint) {\n        uint result = 0;\n        (uint8 tranchePercent, uint32 start, uint32 end) = getTrancheParameters();\n\n        if (\n            start > 0\n            && end >= now\n            && start < now\n            && tranchePercent > 0\n            && address(this).balance > 0\n        ) {\n            uint allowedFund = totalFunded.sub(totalRefunded);\n\n            result = result.add(\n                allowedFund\n                .mul(tranchePercent)\n                .div(100)\n            );\n        }\n\n        return result;\n    }\n\n    function getTrancheParameters() public view returns (uint8, uint32, uint32) {\n        (, uint8 tranchePercent, uint32 voteEndDate, uint32 withdrawalWindow,,) = crowdsale.getCurrentMilestone();\n\n        return (\n            tranchePercent,\n            voteEndDate,\n            withdrawalWindow < now && withdrawalWindow > 0\n                ? uint32(-1)\n                : withdrawalWindow\n        );\n    }\n\n    function tranche() external onlyOwner nonReentrant {\n        uint trancheAmount = getTrancheAmount();\n\n        require(trancheAmount > 0);\n\n        msg.sender.transfer(trancheAmount);\n\n        emit TrancheOperation(msg.sender, trancheAmount);\n    }\n\n    function refund(uint wtokensToRefund) external nonReentrant {\n        uint transferAmount = getRefundAmount(wtokensToRefund);\n        address buyer = msg.sender;\n\n        require(transferAmount > 0);\n        require(wToken.transferFrom(buyer, swap, wtokensToRefund));\n\n        buyers[buyer].totalBought = buyers[buyer].totalBought.sub(wtokensToRefund);\n        buyers[buyer].totalFunded = buyers[buyer].totalFunded.sub(wtokensToRefund.mul(buyers[buyer].averagePrice));\n        buyers[buyer].averagePrice = buyers[buyer].totalFunded > 0 && buyers[buyer].totalBought > 0\n            ? buyers[buyer].totalFunded.div(buyers[buyer].totalBought)\n            : 0;\n\n        // update total refunded amount counter\n        totalRefunded = totalRefunded.add(transferAmount);\n\n        buyer.transfer(transferAmount);\n\n        emit FundsRefunded(buyer, transferAmount, wtokensToRefund);\n    }\n\n    modifier onlyFrom(address sender) {\n        require(msg.sender == sender);\n\n        _;\n    }\n}\n",
  "sourcePath": "/c/Users/Mr.Hokid/projects/work/w12-product-contracts/contracts/W12Fund.sol",
  "compiler": {
    "name": "solc",
    "version": "0.4.24+commit.e67f0147.Emscripten.clang"
  },
  "schemaVersion": "2.0.0",
  "updatedAt": "2018-07-26T15:14:13.081Z"
}