{
  "contractName": "W12FundFactory",
  "abi": [
    {
      "anonymous": false,
      "inputs": [
        {
          "indexed": true,
          "name": "fund",
          "type": "address"
        }
      ],
      "name": "FundCreated",
      "type": "event"
    },
    {
      "constant": false,
      "inputs": [
        {
          "name": "swap",
          "type": "address"
        },
        {
          "name": "serviceWallet",
          "type": "address"
        },
        {
          "name": "trancheFeePercent",
          "type": "uint256"
        }
      ],
      "name": "createFund",
      "outputs": [
        {
          "name": "result",
          "type": "address"
        }
      ],
      "payable": false,
      "stateMutability": "nonpayable",
      "type": "function"
    }
  ],
  "bytecode": "0x608060405234801561001057600080fd5b50613321806100206000396000f300608060405260043610610041576000357c0100000000000000000000000000000000000000000000000000000000900463ffffffff1680631744462614610046575b600080fd5b34801561005257600080fd5b506100b1600480360381019080803573ffffffffffffffffffffffffffffffffffffffff169060200190929190803573ffffffffffffffffffffffffffffffffffffffff169060200190929190803590602001909291905050506100f3565b604051808273ffffffffffffffffffffffffffffffffffffffff1673ffffffffffffffffffffffffffffffffffffffff16815260200191505060405180910390f35b6000816100fe61038a565b80828152602001915050604051809103906000f080158015610124573d6000803e3d6000fd5b5090508073ffffffffffffffffffffffffffffffffffffffff1663acb3c073856040518263ffffffff167c0100000000000000000000000000000000000000000000000000000000028152600401808273ffffffffffffffffffffffffffffffffffffffff1673ffffffffffffffffffffffffffffffffffffffff168152602001915050600060405180830381600087803b1580156101c257600080fd5b505af11580156101d6573d6000803e3d6000fd5b505050508073ffffffffffffffffffffffffffffffffffffffff166323bffccc846040518263ffffffff167c0100000000000000000000000000000000000000000000000000000000028152600401808273ffffffffffffffffffffffffffffffffffffffff1673ffffffffffffffffffffffffffffffffffffffff168152602001915050600060405180830381600087803b15801561027557600080fd5b505af1158015610289573d6000803e3d6000fd5b505050508073ffffffffffffffffffffffffffffffffffffffff1663f2fde38b336040518263ffffffff167c0100000000000000000000000000000000000000000000000000000000028152600401808273ffffffffffffffffffffffffffffffffffffffff1673ffffffffffffffffffffffffffffffffffffffff168152602001915050600060405180830381600087803b15801561032857600080fd5b505af115801561033c573d6000803e3d6000fd5b505050508073ffffffffffffffffffffffffffffffffffffffff167fbeacbaab8887097be64d667b2a06e62db7e00cc1429a8ebe02535e97a6cc8fcd60405160405180910390a29392505050565b604051612f5b8061039b833901905600608060405260008060146101000a81548160ff0219169083151502179055503480156200002b57600080fd5b5060405160208062002f5b83398101806040528101908080519060200190929190505050336000806101000a81548173ffffffffffffffffffffffffffffffffffffffff021916908373ffffffffffffffffffffffffffffffffffffffff160217905550620000ae81620000f36401000000000262002d5a176401000000009004565b8015620000d957506064620000d7826200010f6401000000000262002d75176401000000009004565b105b1515620000e557600080fd5b80600a819055505062000179565b60008082101580156200010857506127108211155b9050919050565b60006200012b82620000f3640100000000026401000000009004565b15156200013757600080fd5b6200015b606483620001626401000000000262002cca179091906401000000009004565b9050919050565b600081838115156200017057fe5b04905092915050565b612dd280620001896000396000f300608060405260043610610149576000357c0100000000000000000000000000000000000000000000000000000000900463ffffffff16806304cd52941461014e5780630babd8641461018f57806311fa7da2146101e657806323bffccc14610244578063278ecde1146102875780633b97e856146102b45780633fa911ae146102df578063483a20b21461030e5780635641f3c3146103515780636ebc0af1146103a8578063715018a6146103bf5780638119c065146103d65780638ce2bc2a1461042d5780638da5cb5b14610458578063958799cb146104af57806397a993aa146104ef5780639c1e03a0146105545780639e80baac146105ab578063a328665a146105da578063ac2a2a3414610605578063acb3c0731461065c578063ad044f491461069f578063d9082962146106ca578063e80b68df146106f5578063f2fde38b14610740575b600080fd5b34801561015a57600080fd5b5061017960048036038101908080359060200190929190505050610783565b6040518082815260200191505060405180910390f35b34801561019b57600080fd5b506101a4610af9565b604051808273ffffffffffffffffffffffffffffffffffffffff1673ffffffffffffffffffffffffffffffffffffffff16815260200191505060405180910390f35b3480156101f257600080fd5b50610227600480360381019080803573ffffffffffffffffffffffffffffffffffffffff169060200190929190505050610b1f565b604051808381526020018281526020019250505060405180910390f35b34801561025057600080fd5b50610285600480360381019080803573ffffffffffffffffffffffffffffffffffffffff169060200190929190505050610bed565b005b34801561029357600080fd5b506102b260048036038101908080359060200190929190505050610cc8565b005b3480156102c057600080fd5b506102c96113ab565b6040518082815260200191505060405180910390f35b3480156102eb57600080fd5b506102f46113b1565b604051808215151515815260200191505060405180910390f35b34801561031a57600080fd5b5061034f600480360381019080803573ffffffffffffffffffffffffffffffffffffffff16906020019092919050505061182a565b005b34801561035d57600080fd5b50610366611aae565b604051808273ffffffffffffffffffffffffffffffffffffffff1673ffffffffffffffffffffffffffffffffffffffff16815260200191505060405180910390f35b3480156103b457600080fd5b506103bd611ad4565b005b3480156103cb57600080fd5b506103d4611d30565b005b3480156103e257600080fd5b506103eb611e32565b604051808273ffffffffffffffffffffffffffffffffffffffff1673ffffffffffffffffffffffffffffffffffffffff16815260200191505060405180910390f35b34801561043957600080fd5b50610442611e58565b6040518082815260200191505060405180910390f35b34801561046457600080fd5b5061046d611f74565b604051808273ffffffffffffffffffffffffffffffffffffffff1673ffffffffffffffffffffffffffffffffffffffff16815260200191505060405180910390f35b6104ed600480360381019080803573ffffffffffffffffffffffffffffffffffffffff16906020019092919080359060200190929190505050611f99565b005b3480156104fb57600080fd5b50610530600480360381019080803573ffffffffffffffffffffffffffffffffffffffff169060200190929190505050612296565b60405180848152602001838152602001828152602001935050505060405180910390f35b34801561056057600080fd5b506105696122c0565b604051808273ffffffffffffffffffffffffffffffffffffffff1673ffffffffffffffffffffffffffffffffffffffff16815260200191505060405180910390f35b3480156105b757600080fd5b506105c06122e6565b604051808215151515815260200191505060405180910390f35b3480156105e657600080fd5b506105ef6127e7565b6040518082815260200191505060405180910390f35b34801561061157600080fd5b5061061a6127ed565b604051808460ff1660ff1681526020018363ffffffff1663ffffffff1681526020018263ffffffff1663ffffffff168152602001935050505060405180910390f35b34801561066857600080fd5b5061069d600480360381019080803573ffffffffffffffffffffffffffffffffffffffff169060200190929190505050612a36565b005b3480156106ab57600080fd5b506106b4612b11565b6040518082815260200191505060405180910390f35b3480156106d657600080fd5b506106df612b17565b6040518082815260200191505060405180910390f35b34801561070157600080fd5b50610726600480360381019080803563ffffffff169060200190929190505050612b1d565b604051808215151515815260200191505060405180910390f35b34801561074c57600080fd5b50610781600480360381019080803573ffffffffffffffffffffffffffffffffffffffff169060200190929190505050612b3d565b005b6000806000806000600860055401600a0a7fffffffffffffffffffffffffffffffffffffffffffffffffffffffffffffffff8115156107be57fe5b049350339250600086148061081557506000600660008573ffffffffffffffffffffffffffffffffffffffff1673ffffffffffffffffffffffffffffffffffffffff16815260200190815260200160002060000154145b80610837575060003073ffffffffffffffffffffffffffffffffffffffff1631145b80610938575085600460009054906101000a900473ffffffffffffffffffffffffffffffffffffffff1673ffffffffffffffffffffffffffffffffffffffff166370a08231856040518263ffffffff167c0100000000000000000000000000000000000000000000000000000000028152600401808273ffffffffffffffffffffffffffffffffffffffff1673ffffffffffffffffffffffffffffffffffffffff168152602001915050602060405180830381600087803b1580156108fb57600080fd5b505af115801561090f573d6000803e3d6000fd5b505050506040513d602081101561092557600080fd5b8101908080519060200190929190505050105b80610984575085600660008573ffffffffffffffffffffffffffffffffffffffff1673ffffffffffffffffffffffffffffffffffffffff16815260200190815260200160002060000154105b156109925760009450610af0565b60003073ffffffffffffffffffffffffffffffffffffffff16311115610aef57610a323073ffffffffffffffffffffffffffffffffffffffff1631610a24600854600660008873ffffffffffffffffffffffffffffffffffffffff1673ffffffffffffffffffffffffffffffffffffffff16815260200190815260200160002060020154612c9290919063ffffffff16565b612cca90919063ffffffff16565b915083821015610a4a57600860055401600a0a610a4d565b60015b9050610aec610add82610acf89610ac1600660008a73ffffffffffffffffffffffffffffffffffffffff1673ffffffffffffffffffffffffffffffffffffffff16815260200190815260200160002060000154610ab3888a612c9290919063ffffffff16565b612cca90919063ffffffff16565b612c9290919063ffffffff16565b612cca90919063ffffffff16565b86612ce090919063ffffffff16565b94505b5b50505050919050565b600460009054906101000a900473ffffffffffffffffffffffffffffffffffffffff1681565b600080600073ffffffffffffffffffffffffffffffffffffffff168373ffffffffffffffffffffffffffffffffffffffff1614151515610b5e57600080fd5b600660008473ffffffffffffffffffffffffffffffffffffffff1673ffffffffffffffffffffffffffffffffffffffff16815260200190815260200160002060000154600660008573ffffffffffffffffffffffffffffffffffffffff1673ffffffffffffffffffffffffffffffffffffffff1681526020019081526020016000206001015491509150915091565b6000809054906101000a900473ffffffffffffffffffffffffffffffffffffffff1673ffffffffffffffffffffffffffffffffffffffff163373ffffffffffffffffffffffffffffffffffffffff16141515610c4857600080fd5b600073ffffffffffffffffffffffffffffffffffffffff168173ffffffffffffffffffffffffffffffffffffffff1614151515610c8457600080fd5b80600360006101000a81548173ffffffffffffffffffffffffffffffffffffffff021916908373ffffffffffffffffffffffffffffffffffffffff16021790555050565b600080600060149054906101000a900460ff16151515610ce757600080fd5b6001600060146101000a81548160ff021916908315150217905550339150610d0d6113b1565b1515610d1857600080fd5b600083111515610d2757600080fd5b82600660008473ffffffffffffffffffffffffffffffffffffffff1673ffffffffffffffffffffffffffffffffffffffff1681526020019081526020016000206000015410151515610d7857600080fd5b82600460009054906101000a900473ffffffffffffffffffffffffffffffffffffffff1673ffffffffffffffffffffffffffffffffffffffff166370a08231846040518263ffffffff167c0100000000000000000000000000000000000000000000000000000000028152600401808273ffffffffffffffffffffffffffffffffffffffff1673ffffffffffffffffffffffffffffffffffffffff168152602001915050602060405180830381600087803b158015610e3657600080fd5b505af1158015610e4a573d6000803e3d6000fd5b505050506040513d6020811015610e6057600080fd5b810190808051906020019092919050505010151515610e7e57600080fd5b82600460009054906101000a900473ffffffffffffffffffffffffffffffffffffffff1673ffffffffffffffffffffffffffffffffffffffff1663dd62ed3e33306040518363ffffffff167c0100000000000000000000000000000000000000000000000000000000028152600401808373ffffffffffffffffffffffffffffffffffffffff1673ffffffffffffffffffffffffffffffffffffffff1681526020018273ffffffffffffffffffffffffffffffffffffffff1673ffffffffffffffffffffffffffffffffffffffff16815260200192505050602060405180830381600087803b158015610f7057600080fd5b505af1158015610f84573d6000803e3d6000fd5b505050506040513d6020811015610f9a57600080fd5b810190808051906020019092919050505010151515610fb857600080fd5b610fc183610783565b9050600081111515610fd257600080fd5b600460009054906101000a900473ffffffffffffffffffffffffffffffffffffffff1673ffffffffffffffffffffffffffffffffffffffff166323b872dd83600260009054906101000a900473ffffffffffffffffffffffffffffffffffffffff16866040518463ffffffff167c0100000000000000000000000000000000000000000000000000000000028152600401808473ffffffffffffffffffffffffffffffffffffffff1673ffffffffffffffffffffffffffffffffffffffff1681526020018373ffffffffffffffffffffffffffffffffffffffff1673ffffffffffffffffffffffffffffffffffffffff1681526020018281526020019350505050602060405180830381600087803b1580156110ed57600080fd5b505af1158015611101573d6000803e3d6000fd5b505050506040513d602081101561111757600080fd5b8101908080519060200190929190505050151561113357600080fd5b61118883600660008573ffffffffffffffffffffffffffffffffffffffff1673ffffffffffffffffffffffffffffffffffffffff16815260200190815260200160002060000154612cfc90919063ffffffff16565b600660008473ffffffffffffffffffffffffffffffffffffffff1673ffffffffffffffffffffffffffffffffffffffff1681526020019081526020016000206000018190555061128e61123d600554600a0a61122f600660008773ffffffffffffffffffffffffffffffffffffffff1673ffffffffffffffffffffffffffffffffffffffff1681526020019081526020016000206001015487612c9290919063ffffffff16565b612cca90919063ffffffff16565b600660008573ffffffffffffffffffffffffffffffffffffffff1673ffffffffffffffffffffffffffffffffffffffff16815260200190815260200160002060020154612cfc90919063ffffffff16565b600660008473ffffffffffffffffffffffffffffffffffffffff1673ffffffffffffffffffffffffffffffffffffffff168152602001908152602001600020600201819055506112e981600954612ce090919063ffffffff16565b6009819055508173ffffffffffffffffffffffffffffffffffffffff166108fc829081150290604051600060405180830381858888f19350505050158015611335573d6000803e3d6000fd5b508173ffffffffffffffffffffffffffffffffffffffff167ffc48f4f163cfed28aaf3be3f0b162a1338fab214afc9340eafc6cb081c71fadf8285604051808381526020018281526020019250505060405180910390a260008060146101000a81548160ff021916908315150217905550505050565b60055481565b600080600080600160009054906101000a900473ffffffffffffffffffffffffffffffffffffffff1673ffffffffffffffffffffffffffffffffffffffff1663d6d65f3d6040518163ffffffff167c0100000000000000000000000000000000000000000000000000000000028152600401602060405180830381600087803b15801561143d57600080fd5b505af1158015611451573d6000803e3d6000fd5b505050506040513d602081101561146757600080fd5b81019080805190602001909291905050509250600083141561148c5760009350611824565b600160009054906101000a900473ffffffffffffffffffffffffffffffffffffffff1673ffffffffffffffffffffffffffffffffffffffff16632442e1cb600185036040518263ffffffff167c010000000000000000000000000000000000000000000000000000000002815260040180828152602001915050600060405180830381600087803b15801561152057600080fd5b505af1158015611534573d6000803e3d6000fd5b505050506040513d6000823e3d601f19601f8201168201806040525060c081101561155e57600080fd5b8101908080519060200190929190805190602001909291908051906020019092919080519060200190929190805164010000000081111561159e57600080fd5b828101905060208101848111156115b457600080fd5b81518560018202830111640100000000821117156115d157600080fd5b505092919060200180516401000000008111156115ed57600080fd5b8281019050602081018481111561160357600080fd5b815185600182028301116401000000008211171561162057600080fd5b50509291905050505050935050509150428263ffffffff161115801561164b57508063ffffffff1642105b156116595760019350611824565b600160009054906101000a900473ffffffffffffffffffffffffffffffffffffffff1673ffffffffffffffffffffffffffffffffffffffff16632442e1cb846040518263ffffffff167c010000000000000000000000000000000000000000000000000000000002815260040180828152602001915050600060405180830381600087803b1580156116ea57600080fd5b505af11580156116fe573d6000803e3d6000fd5b505050506040513d6000823e3d601f19601f8201168201806040525060c081101561172857600080fd5b8101908080519060200190929190805190602001909291908051906020019092919080519060200190929190805164010000000081111561176857600080fd5b8281019050602081018481111561177e57600080fd5b815185600182028301116401000000008211171561179b57600080fd5b505092919060200180516401000000008111156117b757600080fd5b828101905060208101848111156117cd57600080fd5b81518560018202830111640100000000821117156117ea57600080fd5b50509291905050509091929350909192509050508092508193505050428263ffffffff161115801561182157508063ffffffff1642105b93505b50505090565b6000809054906101000a900473ffffffffffffffffffffffffffffffffffffffff1673ffffffffffffffffffffffffffffffffffffffff163373ffffffffffffffffffffffffffffffffffffffff1614151561188557600080fd5b600073ffffffffffffffffffffffffffffffffffffffff168173ffffffffffffffffffffffffffffffffffffffff16141515156118c157600080fd5b80600160006101000a81548173ffffffffffffffffffffffffffffffffffffffff021916908373ffffffffffffffffffffffffffffffffffffffff1602179055508073ffffffffffffffffffffffffffffffffffffffff16634090cb646040518163ffffffff167c0100000000000000000000000000000000000000000000000000000000028152600401602060405180830381600087803b15801561196657600080fd5b505af115801561197a573d6000803e3d6000fd5b505050506040513d602081101561199057600080fd5b8101908080519060200190929190505050600460006101000a81548173ffffffffffffffffffffffffffffffffffffffff021916908373ffffffffffffffffffffffffffffffffffffffff160217905550600460009054906101000a900473ffffffffffffffffffffffffffffffffffffffff1673ffffffffffffffffffffffffffffffffffffffff1663313ce5676040518163ffffffff167c0100000000000000000000000000000000000000000000000000000000028152600401602060405180830381600087803b158015611a6757600080fd5b505af1158015611a7b573d6000803e3d6000fd5b505050506040513d6020811015611a9157600080fd5b810190808051906020019092919050505060ff1660058190555050565b600360009054906101000a900473ffffffffffffffffffffffffffffffffffffffff1681565b60008060008060009054906101000a900473ffffffffffffffffffffffffffffffffffffffff1673ffffffffffffffffffffffffffffffffffffffff163373ffffffffffffffffffffffffffffffffffffffff16141515611b3457600080fd5b600060149054906101000a900460ff16151515611b5057600080fd5b6001600060146101000a81548160ff021916908315150217905550611b736122e6565b1515611b7e57600080fd5b611b86611e58565b9250611b906127ed565b93505050600083111515611ba357600080fd5b6001600760008463ffffffff1663ffffffff16815260200190815260200160002060006101000a81548160ff0219169083151502179055506000600a541115611c7c57611bfb600a5484612d1590919063ffffffff16565b9050600360009054906101000a900473ffffffffffffffffffffffffffffffffffffffff1673ffffffffffffffffffffffffffffffffffffffff166108fc829081150290604051600060405180830381858888f19350505050158015611c65573d6000803e3d6000fd5b50611c798184612cfc90919063ffffffff16565b92505b3373ffffffffffffffffffffffffffffffffffffffff166108fc849081150290604051600060405180830381858888f19350505050158015611cc2573d6000803e3d6000fd5b503373ffffffffffffffffffffffffffffffffffffffff167f333c8b01d26c7b77312592c86110afe8f6ffb558755a83599a45373a98e9294a846040518082815260200191505060405180910390a260008060146101000a81548160ff021916908315150217905550505050565b6000809054906101000a900473ffffffffffffffffffffffffffffffffffffffff1673ffffffffffffffffffffffffffffffffffffffff163373ffffffffffffffffffffffffffffffffffffffff16141515611d8b57600080fd5b6000809054906101000a900473ffffffffffffffffffffffffffffffffffffffff1673ffffffffffffffffffffffffffffffffffffffff167ff8df31144d9c2f0f6b59d69b8b98abd5459d07f2742c4df920b25aae33c6482060405160405180910390a260008060006101000a81548173ffffffffffffffffffffffffffffffffffffffff021916908373ffffffffffffffffffffffffffffffffffffffff160217905550565b600260009054906101000a900473ffffffffffffffffffffffffffffffffffffffff1681565b6000806000806000806000809550611e6e6127ed565b945094509450600760008463ffffffff1663ffffffff16815260200190815260200160002060009054906101000a900460ff16915081158015611eb7575060008463ffffffff16115b8015611ec95750428363ffffffff1610155b8015611eda5750428463ffffffff16105b8015611ee9575060008560ff16115b8015611f0c575060003073ffffffffffffffffffffffffffffffffffffffff1631115b15611f6857611f28600954600854612cfc90919063ffffffff16565b9050611f65611f566064611f488860ff1685612c9290919063ffffffff16565b612cca90919063ffffffff16565b87612ce090919063ffffffff16565b95505b85965050505050505090565b6000809054906101000a900473ffffffffffffffffffffffffffffffffffffffff1681565b600160009054906101000a900473ffffffffffffffffffffffffffffffffffffffff168073ffffffffffffffffffffffffffffffffffffffff163373ffffffffffffffffffffffffffffffffffffffff16141515611ff657600080fd5b61204b82600660008673ffffffffffffffffffffffffffffffffffffffff1673ffffffffffffffffffffffffffffffffffffffff16815260200190815260200160002060000154612ce090919063ffffffff16565b600660008573ffffffffffffffffffffffffffffffffffffffff1673ffffffffffffffffffffffffffffffffffffffff168152602001908152602001600020600001819055506120e634600660008673ffffffffffffffffffffffffffffffffffffffff1673ffffffffffffffffffffffffffffffffffffffff16815260200190815260200160002060020154612ce090919063ffffffff16565b600660008573ffffffffffffffffffffffffffffffffffffffff1673ffffffffffffffffffffffffffffffffffffffff168152602001908152602001600020600201819055506121da600660008573ffffffffffffffffffffffffffffffffffffffff1673ffffffffffffffffffffffffffffffffffffffff168152602001908152602001600020600001546121cc600554600a0a600660008873ffffffffffffffffffffffffffffffffffffffff1673ffffffffffffffffffffffffffffffffffffffff16815260200190815260200160002060020154612c9290919063ffffffff16565b612cca90919063ffffffff16565b600660008573ffffffffffffffffffffffffffffffffffffffff1673ffffffffffffffffffffffffffffffffffffffff1681526020019081526020016000206001018190555061223534600854612ce090919063ffffffff16565b6008819055508273ffffffffffffffffffffffffffffffffffffffff167f363f315f930a17d1266b86a20d6dd34b1cfbc5a9db9f13a65d06a689c3a2af8a3484604051808381526020018281526020019250505060405180910390a2505050565b60066020528060005260406000206000915090508060000154908060010154908060020154905083565b600160009054906101000a900473ffffffffffffffffffffffffffffffffffffffff1681565b600080600080600160009054906101000a900473ffffffffffffffffffffffffffffffffffffffff1673ffffffffffffffffffffffffffffffffffffffff1663d6d65f3d6040518163ffffffff167c0100000000000000000000000000000000000000000000000000000000028152600401602060405180830381600087803b15801561237257600080fd5b505af1158015612386573d6000803e3d6000fd5b505050506040513d602081101561239c57600080fd5b81019080805190602001909291905050509250600083141561248057600160009054906101000a900473ffffffffffffffffffffffffffffffffffffffff1673ffffffffffffffffffffffffffffffffffffffff1663a4fd6f566040518163ffffffff167c0100000000000000000000000000000000000000000000000000000000028152600401602060405180830381600087803b15801561243e57600080fd5b505af1158015612452573d6000803e3d6000fd5b505050506040513d602081101561246857600080fd5b810190808051906020019092919050505093506127e1565b600160009054906101000a900473ffffffffffffffffffffffffffffffffffffffff1673ffffffffffffffffffffffffffffffffffffffff16632442e1cb846040518263ffffffff167c010000000000000000000000000000000000000000000000000000000002815260040180828152602001915050600060405180830381600087803b15801561251157600080fd5b505af1158015612525573d6000803e3d6000fd5b505050506040513d6000823e3d601f19601f8201168201806040525060c081101561254f57600080fd5b8101908080519060200190929190805190602001909291908051906020019092919080519060200190929190805164010000000081111561258f57600080fd5b828101905060208101848111156125a557600080fd5b81518560018202830111640100000000821117156125c257600080fd5b505092919060200180516401000000008111156125de57600080fd5b828101905060208101848111156125f457600080fd5b815185600182028301116401000000008211171561261157600080fd5b505092919050505050505050509150600160009054906101000a900473ffffffffffffffffffffffffffffffffffffffff1673ffffffffffffffffffffffffffffffffffffffff16632442e1cb600185036040518263ffffffff167c010000000000000000000000000000000000000000000000000000000002815260040180828152602001915050600060405180830381600087803b1580156126b457600080fd5b505af11580156126c8573d6000803e3d6000fd5b505050506040513d6000823e3d601f19601f8201168201806040525060c08110156126f257600080fd5b8101908080519060200190929190805190602001909291908051906020019092919080519060200190929190805164010000000081111561273257600080fd5b8281019050602081018481111561274857600080fd5b815185600182028301116401000000008211171561276557600080fd5b5050929190602001805164010000000081111561278157600080fd5b8281019050602081018481111561279757600080fd5b81518560018202830111640100000000821117156127b457600080fd5b505092919050505050509350505050428163ffffffff16111580156127de57508163ffffffff1642105b93505b50505090565b600a5481565b6000806000806000806000600160009054906101000a900473ffffffffffffffffffffffffffffffffffffffff1673ffffffffffffffffffffffffffffffffffffffff1663299a017c6040518163ffffffff167c0100000000000000000000000000000000000000000000000000000000028152600401600060405180830381600087803b15801561287e57600080fd5b505af1158015612892573d6000803e3d6000fd5b505050506040513d6000823e3d601f19601f8201168201806040525060c08110156128bc57600080fd5b810190808051906020019092919080519060200190929190805190602001909291908051906020019092919080516401000000008111156128fc57600080fd5b8281019050602081018481111561291257600080fd5b815185600182028301116401000000008211171561292f57600080fd5b5050929190602001805164010000000081111561294b57600080fd5b8281019050602081018481111561296157600080fd5b815185600182028301116401000000008211171561297e57600080fd5b5050929190505050505094509450945050600760008363ffffffff1663ffffffff16815260200190815260200160002060009054906101000a900460ff16905080156129dd576000806000829250819150809050965096509650612a2d565b8383428463ffffffff161080156129fa575060008463ffffffff16115b612a045783612a26565b7fffffffffffffffffffffffffffffffffffffffffffffffffffffffffffffffff5b9650965096505b50505050909192565b6000809054906101000a900473ffffffffffffffffffffffffffffffffffffffff1673ffffffffffffffffffffffffffffffffffffffff163373ffffffffffffffffffffffffffffffffffffffff16141515612a9157600080fd5b600073ffffffffffffffffffffffffffffffffffffffff168173ffffffffffffffffffffffffffffffffffffffff1614151515612acd57600080fd5b80600260006101000a81548173ffffffffffffffffffffffffffffffffffffffff021916908373ffffffffffffffffffffffffffffffffffffffff16021790555050565b60085481565b60095481565b60076020528060005260406000206000915054906101000a900460ff1681565b6000809054906101000a900473ffffffffffffffffffffffffffffffffffffffff1673ffffffffffffffffffffffffffffffffffffffff163373ffffffffffffffffffffffffffffffffffffffff16141515612b9857600080fd5b600073ffffffffffffffffffffffffffffffffffffffff168173ffffffffffffffffffffffffffffffffffffffff1614151515612bd457600080fd5b8073ffffffffffffffffffffffffffffffffffffffff166000809054906101000a900473ffffffffffffffffffffffffffffffffffffffff1673ffffffffffffffffffffffffffffffffffffffff167f8be0079c531659141344cd1fd0a4f28419497f9722a3daafe3b4186f6b6457e060405160405180910390a3806000806101000a81548173ffffffffffffffffffffffffffffffffffffffff021916908373ffffffffffffffffffffffffffffffffffffffff16021790555050565b600080831415612ca55760009050612cc4565b8183029050818382811515612cb657fe5b04141515612cc057fe5b8090505b92915050565b60008183811515612cd757fe5b04905092915050565b60008183019050828110151515612cf357fe5b80905092915050565b6000828211151515612d0a57fe5b818303905092915050565b6000612d2082612d5a565b1515612d2b57600080fd5b612d52612710612d448486612c9290919063ffffffff16565b612cca90919063ffffffff16565b905092915050565b6000808210158015612d6e57506127108211155b9050919050565b6000612d8082612d5a565b1515612d8b57600080fd5b612d9f606483612cca90919063ffffffff16565b90509190505600a165627a7a72305820cbf8b057fa8c8902c5a712a41627be7e8b3e24b78ffd9dbc883af1910ace8f1c0029a165627a7a72305820a7d61991cc7029365c70e4d09cebab83e728f23c6ef279c4b250f6d00421acfe0029",
  "source": "pragma solidity ^0.4.24;\n\nimport \"./W12Fund.sol\";\nimport \"./interfaces/IW12FundFactory.sol\";\n\n\ncontract W12FundFactory is IW12FundFactory {\n    event FundCreated(address indexed fund);\n\n    function createFund(address swap, address serviceWallet, uint trancheFeePercent) external returns (IW12Fund result) {\n        result = new W12Fund(trancheFeePercent);\n\n        result.setSwap(swap);\n        result.setServiceWallet(serviceWallet);\n        result.transferOwnership(msg.sender);\n\n        emit FundCreated(result);\n    }\n}\n",
  "sourcePath": "/Projects/w12-new/contracts/W12FundFactory.sol",
  "compiler": {
    "name": "solc",
    "version": "0.4.24+commit.e67f0147.Emscripten.clang"
  },
  "schemaVersion": "2.0.1",
  "updatedAt": "2018-08-23T16:51:48.750Z"
}