{
  "contractName": "W12Fund",
  "abi": [
    {
      "constant": true,
      "inputs": [],
      "name": "wToken",
      "outputs": [
        {
          "name": "",
          "type": "address"
        }
      ],
      "payable": false,
      "stateMutability": "view",
      "type": "function"
    },
    {
      "constant": true,
      "inputs": [],
      "name": "tokenDecimals",
      "outputs": [
        {
          "name": "",
          "type": "uint256"
        }
      ],
      "payable": false,
      "stateMutability": "view",
      "type": "function"
    },
    {
      "constant": true,
      "inputs": [],
      "name": "serviceWallet",
      "outputs": [
        {
          "name": "",
          "type": "address"
        }
      ],
      "payable": false,
      "stateMutability": "view",
      "type": "function"
    },
    {
      "constant": false,
      "inputs": [],
      "name": "renounceOwnership",
      "outputs": [],
      "payable": false,
      "stateMutability": "nonpayable",
      "type": "function"
    },
    {
      "constant": true,
      "inputs": [],
      "name": "swap",
      "outputs": [
        {
          "name": "",
          "type": "address"
        }
      ],
      "payable": false,
      "stateMutability": "view",
      "type": "function"
    },
    {
      "constant": true,
      "inputs": [],
      "name": "owner",
      "outputs": [
        {
          "name": "",
          "type": "address"
        }
      ],
      "payable": false,
      "stateMutability": "view",
      "type": "function"
    },
    {
      "constant": true,
      "inputs": [
        {
          "name": "",
          "type": "address"
        }
      ],
      "name": "buyers",
      "outputs": [
        {
          "name": "totalBought",
          "type": "uint256"
        },
        {
          "name": "averagePrice",
          "type": "uint256"
        },
        {
          "name": "totalFunded",
          "type": "uint256"
        }
      ],
      "payable": false,
      "stateMutability": "view",
      "type": "function"
    },
    {
      "constant": true,
      "inputs": [],
      "name": "crowdsale",
      "outputs": [
        {
          "name": "",
          "type": "address"
        }
      ],
      "payable": false,
      "stateMutability": "view",
      "type": "function"
    },
    {
      "constant": true,
      "inputs": [],
      "name": "trancheFeePercent",
      "outputs": [
        {
          "name": "",
          "type": "uint256"
        }
      ],
      "payable": false,
      "stateMutability": "view",
      "type": "function"
    },
    {
      "constant": true,
      "inputs": [],
      "name": "totalFunded",
      "outputs": [
        {
          "name": "",
          "type": "uint256"
        }
      ],
      "payable": false,
      "stateMutability": "view",
      "type": "function"
    },
    {
      "constant": true,
      "inputs": [],
      "name": "totalRefunded",
      "outputs": [
        {
          "name": "",
          "type": "uint256"
        }
      ],
      "payable": false,
      "stateMutability": "view",
      "type": "function"
    },
    {
      "constant": true,
      "inputs": [
        {
          "name": "",
          "type": "uint32"
        }
      ],
      "name": "completedTranches",
      "outputs": [
        {
          "name": "",
          "type": "bool"
        }
      ],
      "payable": false,
      "stateMutability": "view",
      "type": "function"
    },
    {
      "constant": false,
      "inputs": [
        {
          "name": "newOwner",
          "type": "address"
        }
      ],
      "name": "transferOwnership",
      "outputs": [],
      "payable": false,
      "stateMutability": "nonpayable",
      "type": "function"
    },
    {
      "inputs": [
        {
          "name": "_trancheFeePercent",
          "type": "uint256"
        }
      ],
      "payable": false,
      "stateMutability": "nonpayable",
      "type": "constructor"
    },
    {
      "anonymous": false,
      "inputs": [
        {
          "indexed": true,
          "name": "buyer",
          "type": "address"
        },
        {
          "indexed": false,
          "name": "weiAmount",
          "type": "uint256"
        },
        {
          "indexed": false,
          "name": "tokenAmount",
          "type": "uint256"
        }
      ],
      "name": "FundsReceived",
      "type": "event"
    },
    {
      "anonymous": false,
      "inputs": [
        {
          "indexed": true,
          "name": "buyer",
          "type": "address"
        },
        {
          "indexed": false,
          "name": "weiAmount",
          "type": "uint256"
        },
        {
          "indexed": false,
          "name": "tokenAmount",
          "type": "uint256"
        }
      ],
      "name": "FundsRefunded",
      "type": "event"
    },
    {
      "anonymous": false,
      "inputs": [
        {
          "indexed": true,
          "name": "receiver",
          "type": "address"
        },
        {
          "indexed": false,
          "name": "amount",
          "type": "uint256"
        }
      ],
      "name": "TrancheOperation",
      "type": "event"
    },
    {
      "anonymous": false,
      "inputs": [
        {
          "indexed": true,
          "name": "previousOwner",
          "type": "address"
        }
      ],
      "name": "OwnershipRenounced",
      "type": "event"
    },
    {
      "anonymous": false,
      "inputs": [
        {
          "indexed": true,
          "name": "previousOwner",
          "type": "address"
        },
        {
          "indexed": true,
          "name": "newOwner",
          "type": "address"
        }
      ],
      "name": "OwnershipTransferred",
      "type": "event"
    },
    {
      "constant": false,
      "inputs": [
        {
          "name": "_crowdsale",
          "type": "address"
        }
      ],
      "name": "setCrowdsale",
      "outputs": [],
      "payable": false,
      "stateMutability": "nonpayable",
      "type": "function"
    },
    {
      "constant": false,
      "inputs": [
        {
          "name": "_swap",
          "type": "address"
        }
      ],
      "name": "setSwap",
      "outputs": [],
      "payable": false,
      "stateMutability": "nonpayable",
      "type": "function"
    },
    {
      "constant": false,
      "inputs": [
        {
          "name": "_serviceWallet",
          "type": "address"
        }
      ],
      "name": "setServiceWallet",
      "outputs": [],
      "payable": false,
      "stateMutability": "nonpayable",
      "type": "function"
    },
    {
      "constant": false,
      "inputs": [
        {
          "name": "buyer",
          "type": "address"
        },
        {
          "name": "tokenAmount",
          "type": "uint256"
        }
      ],
      "name": "recordPurchase",
      "outputs": [],
      "payable": true,
      "stateMutability": "payable",
      "type": "function"
    },
    {
      "constant": true,
      "inputs": [
        {
          "name": "buyer",
          "type": "address"
        }
      ],
      "name": "getInvestmentsInfo",
      "outputs": [
        {
          "name": "totalTokensBought",
          "type": "uint256"
        },
        {
          "name": "averageTokenPrice",
          "type": "uint256"
        }
      ],
      "payable": false,
      "stateMutability": "view",
      "type": "function"
    },
    {
      "constant": true,
      "inputs": [
        {
          "name": "wtokensToRefund",
          "type": "uint256"
        }
      ],
      "name": "getRefundAmount",
      "outputs": [
        {
          "name": "result",
          "type": "uint256"
        }
      ],
      "payable": false,
      "stateMutability": "view",
      "type": "function"
    },
    {
      "constant": true,
      "inputs": [],
      "name": "getTrancheAmount",
      "outputs": [
        {
          "name": "",
          "type": "uint256"
        }
      ],
      "payable": false,
      "stateMutability": "view",
      "type": "function"
    },
    {
      "constant": true,
      "inputs": [],
      "name": "getTrancheParameters",
      "outputs": [
        {
          "name": "",
          "type": "uint8"
        },
        {
          "name": "",
          "type": "uint32"
        },
        {
          "name": "",
          "type": "uint32"
        }
      ],
      "payable": false,
      "stateMutability": "view",
      "type": "function"
    },
    {
      "constant": false,
      "inputs": [],
      "name": "tranche",
      "outputs": [],
      "payable": false,
      "stateMutability": "nonpayable",
      "type": "function"
    },
    {
      "constant": false,
      "inputs": [
        {
          "name": "wtokensToRefund",
          "type": "uint256"
        }
      ],
      "name": "refund",
      "outputs": [],
      "payable": false,
      "stateMutability": "nonpayable",
      "type": "function"
    },
    {
      "constant": true,
      "inputs": [],
      "name": "refundAllowed",
      "outputs": [
        {
          "name": "",
          "type": "bool"
        }
      ],
      "payable": false,
      "stateMutability": "view",
      "type": "function"
    },
    {
      "constant": true,
      "inputs": [],
      "name": "trancheTransferAllowed",
      "outputs": [
        {
          "name": "",
          "type": "bool"
        }
      ],
      "payable": false,
      "stateMutability": "view",
      "type": "function"
    }
  ],
  "bytecode": "0x608060405260008060146101000a81548160ff0219169083151502179055503480156200002b57600080fd5b5060405160208062002f5b83398101806040528101908080519060200190929190505050336000806101000a81548173ffffffffffffffffffffffffffffffffffffffff021916908373ffffffffffffffffffffffffffffffffffffffff160217905550620000ae81620000f36401000000000262002d5a176401000000009004565b8015620000d957506064620000d7826200010f6401000000000262002d75176401000000009004565b105b1515620000e557600080fd5b80600a819055505062000179565b60008082101580156200010857506127108211155b9050919050565b60006200012b82620000f3640100000000026401000000009004565b15156200013757600080fd5b6200015b606483620001626401000000000262002cca179091906401000000009004565b9050919050565b600081838115156200017057fe5b04905092915050565b612dd280620001896000396000f300608060405260043610610149576000357c0100000000000000000000000000000000000000000000000000000000900463ffffffff16806304cd52941461014e5780630babd8641461018f57806311fa7da2146101e657806323bffccc14610244578063278ecde1146102875780633b97e856146102b45780633fa911ae146102df578063483a20b21461030e5780635641f3c3146103515780636ebc0af1146103a8578063715018a6146103bf5780638119c065146103d65780638ce2bc2a1461042d5780638da5cb5b14610458578063958799cb146104af57806397a993aa146104ef5780639c1e03a0146105545780639e80baac146105ab578063a328665a146105da578063ac2a2a3414610605578063acb3c0731461065c578063ad044f491461069f578063d9082962146106ca578063e80b68df146106f5578063f2fde38b14610740575b600080fd5b34801561015a57600080fd5b5061017960048036038101908080359060200190929190505050610783565b6040518082815260200191505060405180910390f35b34801561019b57600080fd5b506101a4610af9565b604051808273ffffffffffffffffffffffffffffffffffffffff1673ffffffffffffffffffffffffffffffffffffffff16815260200191505060405180910390f35b3480156101f257600080fd5b50610227600480360381019080803573ffffffffffffffffffffffffffffffffffffffff169060200190929190505050610b1f565b604051808381526020018281526020019250505060405180910390f35b34801561025057600080fd5b50610285600480360381019080803573ffffffffffffffffffffffffffffffffffffffff169060200190929190505050610bed565b005b34801561029357600080fd5b506102b260048036038101908080359060200190929190505050610cc8565b005b3480156102c057600080fd5b506102c96113ab565b6040518082815260200191505060405180910390f35b3480156102eb57600080fd5b506102f46113b1565b604051808215151515815260200191505060405180910390f35b34801561031a57600080fd5b5061034f600480360381019080803573ffffffffffffffffffffffffffffffffffffffff16906020019092919050505061182a565b005b34801561035d57600080fd5b50610366611aae565b604051808273ffffffffffffffffffffffffffffffffffffffff1673ffffffffffffffffffffffffffffffffffffffff16815260200191505060405180910390f35b3480156103b457600080fd5b506103bd611ad4565b005b3480156103cb57600080fd5b506103d4611d30565b005b3480156103e257600080fd5b506103eb611e32565b604051808273ffffffffffffffffffffffffffffffffffffffff1673ffffffffffffffffffffffffffffffffffffffff16815260200191505060405180910390f35b34801561043957600080fd5b50610442611e58565b6040518082815260200191505060405180910390f35b34801561046457600080fd5b5061046d611f74565b604051808273ffffffffffffffffffffffffffffffffffffffff1673ffffffffffffffffffffffffffffffffffffffff16815260200191505060405180910390f35b6104ed600480360381019080803573ffffffffffffffffffffffffffffffffffffffff16906020019092919080359060200190929190505050611f99565b005b3480156104fb57600080fd5b50610530600480360381019080803573ffffffffffffffffffffffffffffffffffffffff169060200190929190505050612296565b60405180848152602001838152602001828152602001935050505060405180910390f35b34801561056057600080fd5b506105696122c0565b604051808273ffffffffffffffffffffffffffffffffffffffff1673ffffffffffffffffffffffffffffffffffffffff16815260200191505060405180910390f35b3480156105b757600080fd5b506105c06122e6565b604051808215151515815260200191505060405180910390f35b3480156105e657600080fd5b506105ef6127e7565b6040518082815260200191505060405180910390f35b34801561061157600080fd5b5061061a6127ed565b604051808460ff1660ff1681526020018363ffffffff1663ffffffff1681526020018263ffffffff1663ffffffff168152602001935050505060405180910390f35b34801561066857600080fd5b5061069d600480360381019080803573ffffffffffffffffffffffffffffffffffffffff169060200190929190505050612a36565b005b3480156106ab57600080fd5b506106b4612b11565b6040518082815260200191505060405180910390f35b3480156106d657600080fd5b506106df612b17565b6040518082815260200191505060405180910390f35b34801561070157600080fd5b50610726600480360381019080803563ffffffff169060200190929190505050612b1d565b604051808215151515815260200191505060405180910390f35b34801561074c57600080fd5b50610781600480360381019080803573ffffffffffffffffffffffffffffffffffffffff169060200190929190505050612b3d565b005b6000806000806000600860055401600a0a7fffffffffffffffffffffffffffffffffffffffffffffffffffffffffffffffff8115156107be57fe5b049350339250600086148061081557506000600660008573ffffffffffffffffffffffffffffffffffffffff1673ffffffffffffffffffffffffffffffffffffffff16815260200190815260200160002060000154145b80610837575060003073ffffffffffffffffffffffffffffffffffffffff1631145b80610938575085600460009054906101000a900473ffffffffffffffffffffffffffffffffffffffff1673ffffffffffffffffffffffffffffffffffffffff166370a08231856040518263ffffffff167c0100000000000000000000000000000000000000000000000000000000028152600401808273ffffffffffffffffffffffffffffffffffffffff1673ffffffffffffffffffffffffffffffffffffffff168152602001915050602060405180830381600087803b1580156108fb57600080fd5b505af115801561090f573d6000803e3d6000fd5b505050506040513d602081101561092557600080fd5b8101908080519060200190929190505050105b80610984575085600660008573ffffffffffffffffffffffffffffffffffffffff1673ffffffffffffffffffffffffffffffffffffffff16815260200190815260200160002060000154105b156109925760009450610af0565b60003073ffffffffffffffffffffffffffffffffffffffff16311115610aef57610a323073ffffffffffffffffffffffffffffffffffffffff1631610a24600854600660008873ffffffffffffffffffffffffffffffffffffffff1673ffffffffffffffffffffffffffffffffffffffff16815260200190815260200160002060020154612c9290919063ffffffff16565b612cca90919063ffffffff16565b915083821015610a4a57600860055401600a0a610a4d565b60015b9050610aec610add82610acf89610ac1600660008a73ffffffffffffffffffffffffffffffffffffffff1673ffffffffffffffffffffffffffffffffffffffff16815260200190815260200160002060000154610ab3888a612c9290919063ffffffff16565b612cca90919063ffffffff16565b612c9290919063ffffffff16565b612cca90919063ffffffff16565b86612ce090919063ffffffff16565b94505b5b50505050919050565b600460009054906101000a900473ffffffffffffffffffffffffffffffffffffffff1681565b600080600073ffffffffffffffffffffffffffffffffffffffff168373ffffffffffffffffffffffffffffffffffffffff1614151515610b5e57600080fd5b600660008473ffffffffffffffffffffffffffffffffffffffff1673ffffffffffffffffffffffffffffffffffffffff16815260200190815260200160002060000154600660008573ffffffffffffffffffffffffffffffffffffffff1673ffffffffffffffffffffffffffffffffffffffff1681526020019081526020016000206001015491509150915091565b6000809054906101000a900473ffffffffffffffffffffffffffffffffffffffff1673ffffffffffffffffffffffffffffffffffffffff163373ffffffffffffffffffffffffffffffffffffffff16141515610c4857600080fd5b600073ffffffffffffffffffffffffffffffffffffffff168173ffffffffffffffffffffffffffffffffffffffff1614151515610c8457600080fd5b80600360006101000a81548173ffffffffffffffffffffffffffffffffffffffff021916908373ffffffffffffffffffffffffffffffffffffffff16021790555050565b600080600060149054906101000a900460ff16151515610ce757600080fd5b6001600060146101000a81548160ff021916908315150217905550339150610d0d6113b1565b1515610d1857600080fd5b600083111515610d2757600080fd5b82600660008473ffffffffffffffffffffffffffffffffffffffff1673ffffffffffffffffffffffffffffffffffffffff1681526020019081526020016000206000015410151515610d7857600080fd5b82600460009054906101000a900473ffffffffffffffffffffffffffffffffffffffff1673ffffffffffffffffffffffffffffffffffffffff166370a08231846040518263ffffffff167c0100000000000000000000000000000000000000000000000000000000028152600401808273ffffffffffffffffffffffffffffffffffffffff1673ffffffffffffffffffffffffffffffffffffffff168152602001915050602060405180830381600087803b158015610e3657600080fd5b505af1158015610e4a573d6000803e3d6000fd5b505050506040513d6020811015610e6057600080fd5b810190808051906020019092919050505010151515610e7e57600080fd5b82600460009054906101000a900473ffffffffffffffffffffffffffffffffffffffff1673ffffffffffffffffffffffffffffffffffffffff1663dd62ed3e33306040518363ffffffff167c0100000000000000000000000000000000000000000000000000000000028152600401808373ffffffffffffffffffffffffffffffffffffffff1673ffffffffffffffffffffffffffffffffffffffff1681526020018273ffffffffffffffffffffffffffffffffffffffff1673ffffffffffffffffffffffffffffffffffffffff16815260200192505050602060405180830381600087803b158015610f7057600080fd5b505af1158015610f84573d6000803e3d6000fd5b505050506040513d6020811015610f9a57600080fd5b810190808051906020019092919050505010151515610fb857600080fd5b610fc183610783565b9050600081111515610fd257600080fd5b600460009054906101000a900473ffffffffffffffffffffffffffffffffffffffff1673ffffffffffffffffffffffffffffffffffffffff166323b872dd83600260009054906101000a900473ffffffffffffffffffffffffffffffffffffffff16866040518463ffffffff167c0100000000000000000000000000000000000000000000000000000000028152600401808473ffffffffffffffffffffffffffffffffffffffff1673ffffffffffffffffffffffffffffffffffffffff1681526020018373ffffffffffffffffffffffffffffffffffffffff1673ffffffffffffffffffffffffffffffffffffffff1681526020018281526020019350505050602060405180830381600087803b1580156110ed57600080fd5b505af1158015611101573d6000803e3d6000fd5b505050506040513d602081101561111757600080fd5b8101908080519060200190929190505050151561113357600080fd5b61118883600660008573ffffffffffffffffffffffffffffffffffffffff1673ffffffffffffffffffffffffffffffffffffffff16815260200190815260200160002060000154612cfc90919063ffffffff16565b600660008473ffffffffffffffffffffffffffffffffffffffff1673ffffffffffffffffffffffffffffffffffffffff1681526020019081526020016000206000018190555061128e61123d600554600a0a61122f600660008773ffffffffffffffffffffffffffffffffffffffff1673ffffffffffffffffffffffffffffffffffffffff1681526020019081526020016000206001015487612c9290919063ffffffff16565b612cca90919063ffffffff16565b600660008573ffffffffffffffffffffffffffffffffffffffff1673ffffffffffffffffffffffffffffffffffffffff16815260200190815260200160002060020154612cfc90919063ffffffff16565b600660008473ffffffffffffffffffffffffffffffffffffffff1673ffffffffffffffffffffffffffffffffffffffff168152602001908152602001600020600201819055506112e981600954612ce090919063ffffffff16565b6009819055508173ffffffffffffffffffffffffffffffffffffffff166108fc829081150290604051600060405180830381858888f19350505050158015611335573d6000803e3d6000fd5b508173ffffffffffffffffffffffffffffffffffffffff167ffc48f4f163cfed28aaf3be3f0b162a1338fab214afc9340eafc6cb081c71fadf8285604051808381526020018281526020019250505060405180910390a260008060146101000a81548160ff021916908315150217905550505050565b60055481565b600080600080600160009054906101000a900473ffffffffffffffffffffffffffffffffffffffff1673ffffffffffffffffffffffffffffffffffffffff1663d6d65f3d6040518163ffffffff167c0100000000000000000000000000000000000000000000000000000000028152600401602060405180830381600087803b15801561143d57600080fd5b505af1158015611451573d6000803e3d6000fd5b505050506040513d602081101561146757600080fd5b81019080805190602001909291905050509250600083141561148c5760009350611824565b600160009054906101000a900473ffffffffffffffffffffffffffffffffffffffff1673ffffffffffffffffffffffffffffffffffffffff16632442e1cb600185036040518263ffffffff167c010000000000000000000000000000000000000000000000000000000002815260040180828152602001915050600060405180830381600087803b15801561152057600080fd5b505af1158015611534573d6000803e3d6000fd5b505050506040513d6000823e3d601f19601f8201168201806040525060c081101561155e57600080fd5b8101908080519060200190929190805190602001909291908051906020019092919080519060200190929190805164010000000081111561159e57600080fd5b828101905060208101848111156115b457600080fd5b81518560018202830111640100000000821117156115d157600080fd5b505092919060200180516401000000008111156115ed57600080fd5b8281019050602081018481111561160357600080fd5b815185600182028301116401000000008211171561162057600080fd5b50509291905050505050935050509150428263ffffffff161115801561164b57508063ffffffff1642105b156116595760019350611824565b600160009054906101000a900473ffffffffffffffffffffffffffffffffffffffff1673ffffffffffffffffffffffffffffffffffffffff16632442e1cb846040518263ffffffff167c010000000000000000000000000000000000000000000000000000000002815260040180828152602001915050600060405180830381600087803b1580156116ea57600080fd5b505af11580156116fe573d6000803e3d6000fd5b505050506040513d6000823e3d601f19601f8201168201806040525060c081101561172857600080fd5b8101908080519060200190929190805190602001909291908051906020019092919080519060200190929190805164010000000081111561176857600080fd5b8281019050602081018481111561177e57600080fd5b815185600182028301116401000000008211171561179b57600080fd5b505092919060200180516401000000008111156117b757600080fd5b828101905060208101848111156117cd57600080fd5b81518560018202830111640100000000821117156117ea57600080fd5b50509291905050509091929350909192509050508092508193505050428263ffffffff161115801561182157508063ffffffff1642105b93505b50505090565b6000809054906101000a900473ffffffffffffffffffffffffffffffffffffffff1673ffffffffffffffffffffffffffffffffffffffff163373ffffffffffffffffffffffffffffffffffffffff1614151561188557600080fd5b600073ffffffffffffffffffffffffffffffffffffffff168173ffffffffffffffffffffffffffffffffffffffff16141515156118c157600080fd5b80600160006101000a81548173ffffffffffffffffffffffffffffffffffffffff021916908373ffffffffffffffffffffffffffffffffffffffff1602179055508073ffffffffffffffffffffffffffffffffffffffff16634090cb646040518163ffffffff167c0100000000000000000000000000000000000000000000000000000000028152600401602060405180830381600087803b15801561196657600080fd5b505af115801561197a573d6000803e3d6000fd5b505050506040513d602081101561199057600080fd5b8101908080519060200190929190505050600460006101000a81548173ffffffffffffffffffffffffffffffffffffffff021916908373ffffffffffffffffffffffffffffffffffffffff160217905550600460009054906101000a900473ffffffffffffffffffffffffffffffffffffffff1673ffffffffffffffffffffffffffffffffffffffff1663313ce5676040518163ffffffff167c0100000000000000000000000000000000000000000000000000000000028152600401602060405180830381600087803b158015611a6757600080fd5b505af1158015611a7b573d6000803e3d6000fd5b505050506040513d6020811015611a9157600080fd5b810190808051906020019092919050505060ff1660058190555050565b600360009054906101000a900473ffffffffffffffffffffffffffffffffffffffff1681565b60008060008060009054906101000a900473ffffffffffffffffffffffffffffffffffffffff1673ffffffffffffffffffffffffffffffffffffffff163373ffffffffffffffffffffffffffffffffffffffff16141515611b3457600080fd5b600060149054906101000a900460ff16151515611b5057600080fd5b6001600060146101000a81548160ff021916908315150217905550611b736122e6565b1515611b7e57600080fd5b611b86611e58565b9250611b906127ed565b93505050600083111515611ba357600080fd5b6001600760008463ffffffff1663ffffffff16815260200190815260200160002060006101000a81548160ff0219169083151502179055506000600a541115611c7c57611bfb600a5484612d1590919063ffffffff16565b9050600360009054906101000a900473ffffffffffffffffffffffffffffffffffffffff1673ffffffffffffffffffffffffffffffffffffffff166108fc829081150290604051600060405180830381858888f19350505050158015611c65573d6000803e3d6000fd5b50611c798184612cfc90919063ffffffff16565b92505b3373ffffffffffffffffffffffffffffffffffffffff166108fc849081150290604051600060405180830381858888f19350505050158015611cc2573d6000803e3d6000fd5b503373ffffffffffffffffffffffffffffffffffffffff167f333c8b01d26c7b77312592c86110afe8f6ffb558755a83599a45373a98e9294a846040518082815260200191505060405180910390a260008060146101000a81548160ff021916908315150217905550505050565b6000809054906101000a900473ffffffffffffffffffffffffffffffffffffffff1673ffffffffffffffffffffffffffffffffffffffff163373ffffffffffffffffffffffffffffffffffffffff16141515611d8b57600080fd5b6000809054906101000a900473ffffffffffffffffffffffffffffffffffffffff1673ffffffffffffffffffffffffffffffffffffffff167ff8df31144d9c2f0f6b59d69b8b98abd5459d07f2742c4df920b25aae33c6482060405160405180910390a260008060006101000a81548173ffffffffffffffffffffffffffffffffffffffff021916908373ffffffffffffffffffffffffffffffffffffffff160217905550565b600260009054906101000a900473ffffffffffffffffffffffffffffffffffffffff1681565b6000806000806000806000809550611e6e6127ed565b945094509450600760008463ffffffff1663ffffffff16815260200190815260200160002060009054906101000a900460ff16915081158015611eb7575060008463ffffffff16115b8015611ec95750428363ffffffff1610155b8015611eda5750428463ffffffff16105b8015611ee9575060008560ff16115b8015611f0c575060003073ffffffffffffffffffffffffffffffffffffffff1631115b15611f6857611f28600954600854612cfc90919063ffffffff16565b9050611f65611f566064611f488860ff1685612c9290919063ffffffff16565b612cca90919063ffffffff16565b87612ce090919063ffffffff16565b95505b85965050505050505090565b6000809054906101000a900473ffffffffffffffffffffffffffffffffffffffff1681565b600160009054906101000a900473ffffffffffffffffffffffffffffffffffffffff168073ffffffffffffffffffffffffffffffffffffffff163373ffffffffffffffffffffffffffffffffffffffff16141515611ff657600080fd5b61204b82600660008673ffffffffffffffffffffffffffffffffffffffff1673ffffffffffffffffffffffffffffffffffffffff16815260200190815260200160002060000154612ce090919063ffffffff16565b600660008573ffffffffffffffffffffffffffffffffffffffff1673ffffffffffffffffffffffffffffffffffffffff168152602001908152602001600020600001819055506120e634600660008673ffffffffffffffffffffffffffffffffffffffff1673ffffffffffffffffffffffffffffffffffffffff16815260200190815260200160002060020154612ce090919063ffffffff16565b600660008573ffffffffffffffffffffffffffffffffffffffff1673ffffffffffffffffffffffffffffffffffffffff168152602001908152602001600020600201819055506121da600660008573ffffffffffffffffffffffffffffffffffffffff1673ffffffffffffffffffffffffffffffffffffffff168152602001908152602001600020600001546121cc600554600a0a600660008873ffffffffffffffffffffffffffffffffffffffff1673ffffffffffffffffffffffffffffffffffffffff16815260200190815260200160002060020154612c9290919063ffffffff16565b612cca90919063ffffffff16565b600660008573ffffffffffffffffffffffffffffffffffffffff1673ffffffffffffffffffffffffffffffffffffffff1681526020019081526020016000206001018190555061223534600854612ce090919063ffffffff16565b6008819055508273ffffffffffffffffffffffffffffffffffffffff167f363f315f930a17d1266b86a20d6dd34b1cfbc5a9db9f13a65d06a689c3a2af8a3484604051808381526020018281526020019250505060405180910390a2505050565b60066020528060005260406000206000915090508060000154908060010154908060020154905083565b600160009054906101000a900473ffffffffffffffffffffffffffffffffffffffff1681565b600080600080600160009054906101000a900473ffffffffffffffffffffffffffffffffffffffff1673ffffffffffffffffffffffffffffffffffffffff1663d6d65f3d6040518163ffffffff167c0100000000000000000000000000000000000000000000000000000000028152600401602060405180830381600087803b15801561237257600080fd5b505af1158015612386573d6000803e3d6000fd5b505050506040513d602081101561239c57600080fd5b81019080805190602001909291905050509250600083141561248057600160009054906101000a900473ffffffffffffffffffffffffffffffffffffffff1673ffffffffffffffffffffffffffffffffffffffff1663a4fd6f566040518163ffffffff167c0100000000000000000000000000000000000000000000000000000000028152600401602060405180830381600087803b15801561243e57600080fd5b505af1158015612452573d6000803e3d6000fd5b505050506040513d602081101561246857600080fd5b810190808051906020019092919050505093506127e1565b600160009054906101000a900473ffffffffffffffffffffffffffffffffffffffff1673ffffffffffffffffffffffffffffffffffffffff16632442e1cb846040518263ffffffff167c010000000000000000000000000000000000000000000000000000000002815260040180828152602001915050600060405180830381600087803b15801561251157600080fd5b505af1158015612525573d6000803e3d6000fd5b505050506040513d6000823e3d601f19601f8201168201806040525060c081101561254f57600080fd5b8101908080519060200190929190805190602001909291908051906020019092919080519060200190929190805164010000000081111561258f57600080fd5b828101905060208101848111156125a557600080fd5b81518560018202830111640100000000821117156125c257600080fd5b505092919060200180516401000000008111156125de57600080fd5b828101905060208101848111156125f457600080fd5b815185600182028301116401000000008211171561261157600080fd5b505092919050505050505050509150600160009054906101000a900473ffffffffffffffffffffffffffffffffffffffff1673ffffffffffffffffffffffffffffffffffffffff16632442e1cb600185036040518263ffffffff167c010000000000000000000000000000000000000000000000000000000002815260040180828152602001915050600060405180830381600087803b1580156126b457600080fd5b505af11580156126c8573d6000803e3d6000fd5b505050506040513d6000823e3d601f19601f8201168201806040525060c08110156126f257600080fd5b8101908080519060200190929190805190602001909291908051906020019092919080519060200190929190805164010000000081111561273257600080fd5b8281019050602081018481111561274857600080fd5b815185600182028301116401000000008211171561276557600080fd5b5050929190602001805164010000000081111561278157600080fd5b8281019050602081018481111561279757600080fd5b81518560018202830111640100000000821117156127b457600080fd5b505092919050505050509350505050428163ffffffff16111580156127de57508163ffffffff1642105b93505b50505090565b600a5481565b6000806000806000806000600160009054906101000a900473ffffffffffffffffffffffffffffffffffffffff1673ffffffffffffffffffffffffffffffffffffffff1663299a017c6040518163ffffffff167c0100000000000000000000000000000000000000000000000000000000028152600401600060405180830381600087803b15801561287e57600080fd5b505af1158015612892573d6000803e3d6000fd5b505050506040513d6000823e3d601f19601f8201168201806040525060c08110156128bc57600080fd5b810190808051906020019092919080519060200190929190805190602001909291908051906020019092919080516401000000008111156128fc57600080fd5b8281019050602081018481111561291257600080fd5b815185600182028301116401000000008211171561292f57600080fd5b5050929190602001805164010000000081111561294b57600080fd5b8281019050602081018481111561296157600080fd5b815185600182028301116401000000008211171561297e57600080fd5b5050929190505050505094509450945050600760008363ffffffff1663ffffffff16815260200190815260200160002060009054906101000a900460ff16905080156129dd576000806000829250819150809050965096509650612a2d565b8383428463ffffffff161080156129fa575060008463ffffffff16115b612a045783612a26565b7fffffffffffffffffffffffffffffffffffffffffffffffffffffffffffffffff5b9650965096505b50505050909192565b6000809054906101000a900473ffffffffffffffffffffffffffffffffffffffff1673ffffffffffffffffffffffffffffffffffffffff163373ffffffffffffffffffffffffffffffffffffffff16141515612a9157600080fd5b600073ffffffffffffffffffffffffffffffffffffffff168173ffffffffffffffffffffffffffffffffffffffff1614151515612acd57600080fd5b80600260006101000a81548173ffffffffffffffffffffffffffffffffffffffff021916908373ffffffffffffffffffffffffffffffffffffffff16021790555050565b60085481565b60095481565b60076020528060005260406000206000915054906101000a900460ff1681565b6000809054906101000a900473ffffffffffffffffffffffffffffffffffffffff1673ffffffffffffffffffffffffffffffffffffffff163373ffffffffffffffffffffffffffffffffffffffff16141515612b9857600080fd5b600073ffffffffffffffffffffffffffffffffffffffff168173ffffffffffffffffffffffffffffffffffffffff1614151515612bd457600080fd5b8073ffffffffffffffffffffffffffffffffffffffff166000809054906101000a900473ffffffffffffffffffffffffffffffffffffffff1673ffffffffffffffffffffffffffffffffffffffff167f8be0079c531659141344cd1fd0a4f28419497f9722a3daafe3b4186f6b6457e060405160405180910390a3806000806101000a81548173ffffffffffffffffffffffffffffffffffffffff021916908373ffffffffffffffffffffffffffffffffffffffff16021790555050565b600080831415612ca55760009050612cc4565b8183029050818382811515612cb657fe5b04141515612cc057fe5b8090505b92915050565b60008183811515612cd757fe5b04905092915050565b60008183019050828110151515612cf357fe5b80905092915050565b6000828211151515612d0a57fe5b818303905092915050565b6000612d2082612d5a565b1515612d2b57600080fd5b612d52612710612d448486612c9290919063ffffffff16565b612cca90919063ffffffff16565b905092915050565b6000808210158015612d6e57506127108211155b9050919050565b6000612d8082612d5a565b1515612d8b57600080fd5b612d9f606483612cca90919063ffffffff16565b90509190505600a165627a7a723058208ca280c6122a1baddc6dec14c7ea3934b75cd1e586c1b1fbf4f40dad590487330029",
  "source": "pragma solidity ^0.4.24;\n\nimport \"../openzeppelin-solidity/contracts/ownership/Ownable.sol\";\nimport \"../openzeppelin-solidity/contracts/ReentrancyGuard.sol\";\nimport \"../openzeppelin-solidity/contracts/math/SafeMath.sol\";\nimport \"./WToken.sol\";\nimport \"./interfaces/IW12Crowdsale.sol\";\nimport \"./interfaces/IW12Fund.sol\";\nimport \"./libs/Percent.sol\";\n\n\ncontract W12Fund is IW12Fund, Ownable, ReentrancyGuard {\n    using SafeMath for uint;\n    using Percent for uint;\n\n    IW12Crowdsale public crowdsale;\n    address public swap;\n    address public serviceWallet;\n    WToken public wToken;\n    uint public tokenDecimals; // TODO: refactor this\n    mapping (address=>TokenPriceInfo) public buyers;\n    mapping (uint32 => bool) public completedTranches; // TODO: refactor this\n    uint public totalFunded;\n    uint public totalRefunded;\n    uint public trancheFeePercent;\n\n    struct TokenPriceInfo {\n        uint totalBought;\n        uint averagePrice;\n        uint totalFunded;\n    }\n\n    event FundsReceived(address indexed buyer, uint weiAmount, uint tokenAmount);\n    event FundsRefunded(address indexed buyer, uint weiAmount, uint tokenAmount);\n    event TrancheOperation(address indexed receiver, uint amount);\n\n    constructor(uint _trancheFeePercent) public {\n        require(_trancheFeePercent.isPercent() && _trancheFeePercent.fromPercent() < 100);\n\n        trancheFeePercent = _trancheFeePercent;\n    }\n\n    function setCrowdsale(IW12Crowdsale _crowdsale) onlyOwner external {\n        require(_crowdsale != address(0));\n\n        crowdsale = _crowdsale;\n        wToken = _crowdsale.getWToken();\n        tokenDecimals = wToken.decimals();\n    }\n\n    function setSwap(address _swap) onlyOwner external {\n        require(_swap != address(0));\n\n        swap = _swap;\n    }\n\n    function setServiceWallet(address _serviceWallet) onlyOwner external {\n        require(_serviceWallet != address(0));\n\n        serviceWallet = _serviceWallet;\n    }\n\n    function recordPurchase(address buyer, uint tokenAmount) external payable onlyFrom(crowdsale) {\n        buyers[buyer].totalBought = buyers[buyer].totalBought.add(tokenAmount);\n        buyers[buyer].totalFunded = buyers[buyer].totalFunded.add(msg.value);\n        buyers[buyer].averagePrice = (buyers[buyer].totalFunded.mul(10 ** tokenDecimals)).div(buyers[buyer].totalBought);\n\n        totalFunded = totalFunded.add(msg.value);\n\n        emit FundsReceived(buyer, msg.value, tokenAmount);\n    }\n\n    function getInvestmentsInfo(address buyer) external view returns (uint totalTokensBought, uint averageTokenPrice) {\n        require(buyer != address(0));\n\n        return (buyers[buyer].totalBought, buyers[buyer].averagePrice);\n    }\n\n    /**\n        calculation parameters:\n\n            a = address(this).balance\n            b = totalFunded\n            c = buyers[buyer].totalFunded\n            d = buyers[buyer].totalBought\n            e = wtokensToRefund\n\n        formula:\n            ( ( c * (a / b) ) / d ) * e = (refund amount)\n\n        adapted:\n            1. c * b / a = A_1\n            2. A_1 * 10 ** 8 / d * e / 10 ** 8\n    */\n    function getRefundAmount(uint wtokensToRefund) public view returns (uint result) {\n        uint max = uint(-1) / 10 ** (tokenDecimals + 8);\n        address buyer = msg.sender;\n\n        if(wtokensToRefund == 0\n            || buyers[buyer].totalBought == 0\n            || address(this).balance == 0\n            || wToken.balanceOf(buyer) < wtokensToRefund\n            || buyers[buyer].totalBought < wtokensToRefund)\n            return 0;\n\n        if (address(this).balance > 0) {\n            uint allowedFund = buyers[buyer].totalFunded.mul(totalFunded).div(address(this).balance);\n            uint precisionComponent = allowedFund >= max ? 1 : 10 ** (tokenDecimals + 8);\n\n            result = result.add(\n                allowedFund\n                    .mul(precisionComponent)\n                    .div(buyers[buyer].totalBought)\n                    .mul(wtokensToRefund)\n                    .div(precisionComponent)\n            );\n        }\n    }\n\n    function getTrancheAmount() public view returns (uint) {\n        uint result = 0;\n        (uint8 tranchePercent, uint32 start, uint32 end) = getTrancheParameters();\n\n        bool completed = completedTranches[end];\n\n        if (\n            !completed\n            && start > 0\n            && end >= now\n            && start < now\n            && tranchePercent > 0\n            && address(this).balance > 0\n        ) {\n            uint allowedFund = totalFunded.sub(totalRefunded);\n\n            result = result.add(\n                allowedFund\n                .mul(tranchePercent)\n                .div(100)\n            );\n        }\n\n        return result;\n    }\n\n    function getTrancheParameters() public view returns (uint8, uint32, uint32) {\n        (, uint8 tranchePercent, uint32 voteEndDate, uint32 withdrawalWindow,,) = crowdsale.getCurrentMilestone();\n\n        bool completed = completedTranches[withdrawalWindow];\n\n        if (completed) {\n            return (0, 0, 0);\n        }\n\n        return (\n            tranchePercent,\n            voteEndDate,\n            withdrawalWindow < now && withdrawalWindow > 0\n                ? uint32(-1)\n                : withdrawalWindow\n        );\n    }\n\n    function tranche() external onlyOwner nonReentrant {\n        require(trancheTransferAllowed());\n\n        uint trancheAmount = getTrancheAmount();\n        (,, uint32 withdrawalWindow) = getTrancheParameters();\n\n        require(trancheAmount > 0);\n\n        completedTranches[withdrawalWindow] = true;\n\n        if (trancheFeePercent > 0) {\n            uint fee = trancheAmount.percent(trancheFeePercent);\n\n            serviceWallet.transfer(fee);\n\n            trancheAmount = trancheAmount.sub(fee);\n        }\n\n        msg.sender.transfer(trancheAmount);\n\n        emit TrancheOperation(msg.sender, trancheAmount);\n    }\n\n    function refund(uint wtokensToRefund) external nonReentrant {\n        address buyer = msg.sender;\n\n        require(refundAllowed());\n        require(wtokensToRefund > 0);\n        require(buyers[buyer].totalBought >= wtokensToRefund);\n        require(wToken.balanceOf(buyer) >= wtokensToRefund);\n        require(wToken.allowance(msg.sender, address(this)) >= wtokensToRefund);\n\n        uint transferAmount = getRefundAmount(wtokensToRefund);\n\n        require(transferAmount > 0);\n        require(wToken.transferFrom(buyer, swap, wtokensToRefund));\n\n        buyers[buyer].totalBought = buyers[buyer].totalBought\n            .sub(wtokensToRefund);\n        buyers[buyer].totalFunded = buyers[buyer].totalFunded\n            .sub(wtokensToRefund.mul(buyers[buyer].averagePrice).div(10 ** tokenDecimals));\n\n        // update total refunded amount counter\n        totalRefunded = totalRefunded.add(transferAmount);\n\n        buyer.transfer(transferAmount);\n\n        emit FundsRefunded(buyer, transferAmount, wtokensToRefund);\n    }\n\n    function refundAllowed() public view returns (bool) {\n        uint currentMilestoneIndex = crowdsale.getCurrentMilestoneIndex();\n\n        // first milestone is reserved for the project to claim initial amount of payments. No refund allowed at this stage.\n        if(currentMilestoneIndex == 0)\n            return false;\n\n        (uint32 endDate, , , uint32 withdrawalWindow, , ) = crowdsale.getMilestone(currentMilestoneIndex - 1);\n\n        // Refund allowed from ending of previous milestone to closing of withdrawal window\n        if(endDate <= now && now < withdrawalWindow)\n            return true;\n\n        (endDate, , , withdrawalWindow, , ) = crowdsale.getMilestone(currentMilestoneIndex);\n\n        return endDate <= now && now < withdrawalWindow;\n    }\n\n    function trancheTransferAllowed() public view returns (bool) {\n        uint currentMilestoneIndex = crowdsale.getCurrentMilestoneIndex();\n\n        if(currentMilestoneIndex == 0)\n            return crowdsale.isEnded();\n\n        (uint32 endDate, , , , , ) = crowdsale.getMilestone(currentMilestoneIndex);\n        (, , , uint32 withdrawalWindow, , ) = crowdsale.getMilestone(currentMilestoneIndex - 1);\n\n\n        // Refund allowed from ending of previous milestone to closing of withdrawal window\n        return withdrawalWindow <= now && now < endDate;\n    }\n\n    modifier onlyFrom(address sender) {\n        require(msg.sender == sender);\n\n        _;\n    }\n}\n",
  "sourcePath": "/Projects/w12-new/contracts/W12Fund.sol",
  "compiler": {
    "name": "solc",
    "version": "0.4.24+commit.e67f0147.Emscripten.clang"
  },
  "schemaVersion": "2.0.1",
  "updatedAt": "2018-08-29T16:48:08.239Z"
}