{
  "contractName": "W12ListerStub",
  "abi": [
    {
      "constant": false,
      "inputs": [
        {
          "name": "tokenAddress",
          "type": "address"
        },
        {
          "name": "amountForSale",
          "type": "uint256"
        },
        {
          "name": "price",
          "type": "uint256"
        }
      ],
      "name": "initCrowdsale",
      "outputs": [],
      "payable": false,
      "stateMutability": "nonpayable",
      "type": "function"
    },
    {
      "constant": true,
      "inputs": [
        {
          "name": "",
          "type": "uint256"
        }
      ],
      "name": "approvedTokens",
      "outputs": [
        {
          "name": "name",
          "type": "string"
        },
        {
          "name": "symbol",
          "type": "string"
        },
        {
          "name": "decimals",
          "type": "uint8"
        },
        {
          "name": "feePercent",
          "type": "uint256"
        },
        {
          "name": "ethFeePercent",
          "type": "uint256"
        },
        {
          "name": "WTokenSaleFeePercent",
          "type": "uint256"
        },
        {
          "name": "trancheFeePercent",
          "type": "uint256"
        },
        {
          "name": "crowdsaleAddress",
          "type": "address"
        },
        {
          "name": "tokensForSaleAmount",
          "type": "uint256"
        },
        {
          "name": "wTokensIssuedAmount",
          "type": "uint256"
        },
        {
          "name": "tokenAddress",
          "type": "address"
        }
      ],
      "payable": false,
      "stateMutability": "view",
      "type": "function"
    },
    {
      "constant": false,
      "inputs": [
        {
          "name": "tokenOwner",
          "type": "address"
        },
        {
          "name": "tokenAddress",
          "type": "address"
        },
        {
          "name": "name",
          "type": "string"
        },
        {
          "name": "symbol",
          "type": "string"
        },
        {
          "name": "decimals",
          "type": "uint8"
        },
        {
          "name": "feePercent",
          "type": "uint256"
        },
        {
          "name": "ethFeePercent",
          "type": "uint256"
        },
        {
          "name": "WTokenSaleFeePercent",
          "type": "uint256"
        },
        {
          "name": "trancheFeePercent",
          "type": "uint256"
        }
      ],
      "name": "whitelistToken",
      "outputs": [],
      "payable": false,
      "stateMutability": "nonpayable",
      "type": "function"
    },
    {
      "constant": true,
      "inputs": [
        {
          "name": "tokenAddress",
          "type": "address"
        },
        {
          "name": "ownerAddress",
          "type": "address"
        }
      ],
      "name": "getTokenCrowdsale",
      "outputs": [
        {
          "name": "",
          "type": "address"
        }
      ],
      "payable": false,
      "stateMutability": "view",
      "type": "function"
    },
    {
      "constant": true,
      "inputs": [],
      "name": "getSwap",
      "outputs": [
        {
          "name": "",
          "type": "address"
        }
      ],
      "payable": false,
      "stateMutability": "view",
      "type": "function"
    },
    {
      "constant": true,
      "inputs": [],
      "name": "ledger",
      "outputs": [
        {
          "name": "",
          "type": "address"
        }
      ],
      "payable": false,
      "stateMutability": "view",
      "type": "function"
    },
    {
      "constant": true,
      "inputs": [],
      "name": "serviceWallet",
      "outputs": [
        {
          "name": "",
          "type": "address"
        }
      ],
      "payable": false,
      "stateMutability": "view",
      "type": "function"
    },
    {
      "constant": false,
      "inputs": [
        {
          "name": "tokenAddress",
          "type": "address"
        },
        {
          "name": "amount",
          "type": "uint256"
        }
      ],
      "name": "placeToken",
      "outputs": [],
      "payable": false,
      "stateMutability": "nonpayable",
      "type": "function"
    },
    {
      "constant": false,
      "inputs": [],
      "name": "renounceOwnership",
      "outputs": [],
      "payable": false,
      "stateMutability": "nonpayable",
      "type": "function"
    },
    {
      "constant": true,
      "inputs": [],
      "name": "swap",
      "outputs": [
        {
          "name": "",
          "type": "address"
        }
      ],
      "payable": false,
      "stateMutability": "view",
      "type": "function"
    },
    {
      "constant": true,
      "inputs": [],
      "name": "owner",
      "outputs": [
        {
          "name": "",
          "type": "address"
        }
      ],
      "payable": false,
      "stateMutability": "view",
      "type": "function"
    },
    {
      "constant": true,
      "inputs": [],
      "name": "approvedTokensLength",
      "outputs": [
        {
          "name": "",
          "type": "uint16"
        }
      ],
      "payable": false,
      "stateMutability": "view",
      "type": "function"
    },
    {
      "constant": false,
      "inputs": [
        {
          "name": "tokenAddress",
          "type": "address"
        },
        {
          "name": "amountForSale",
          "type": "uint256"
        }
      ],
      "name": "addTokensToCrowdsale",
      "outputs": [],
      "payable": false,
      "stateMutability": "nonpayable",
      "type": "function"
    },
    {
      "constant": true,
      "inputs": [],
      "name": "factory",
      "outputs": [
        {
          "name": "",
          "type": "address"
        }
      ],
      "payable": false,
      "stateMutability": "view",
      "type": "function"
    },
    {
      "constant": true,
      "inputs": [
        {
          "name": "",
          "type": "address"
        },
        {
          "name": "",
          "type": "address"
        }
      ],
      "name": "approvedTokensIndex",
      "outputs": [
        {
          "name": "",
          "type": "uint16"
        }
      ],
      "payable": false,
      "stateMutability": "view",
      "type": "function"
    },
    {
      "constant": false,
      "inputs": [
        {
          "name": "newOwner",
          "type": "address"
        }
      ],
      "name": "transferOwnership",
      "outputs": [],
      "payable": false,
      "stateMutability": "nonpayable",
      "type": "function"
    },
    {
      "inputs": [
        {
          "name": "_factory",
          "type": "address"
        },
        {
          "name": "_ledger",
          "type": "address"
        },
        {
          "name": "_swap",
          "type": "address"
        }
      ],
      "payable": false,
      "stateMutability": "nonpayable",
      "type": "constructor"
    },
    {
      "anonymous": false,
      "inputs": [
        {
          "indexed": true,
          "name": "tokenAddress",
          "type": "address"
        },
        {
          "indexed": true,
          "name": "tokenOwner",
          "type": "address"
        },
        {
          "indexed": false,
          "name": "name",
          "type": "string"
        },
        {
          "indexed": false,
          "name": "symbol",
          "type": "string"
        }
      ],
      "name": "OwnerWhitelisted",
      "type": "event"
    },
    {
      "anonymous": false,
      "inputs": [
        {
          "indexed": true,
          "name": "originalTokenAddress",
          "type": "address"
        },
        {
          "indexed": true,
          "name": "tokenOwner",
          "type": "address"
        },
        {
          "indexed": false,
          "name": "tokenAmount",
          "type": "uint256"
        },
        {
          "indexed": false,
          "name": "placedTokenAddress",
          "type": "address"
        }
      ],
      "name": "TokenPlaced",
      "type": "event"
    },
    {
      "anonymous": false,
      "inputs": [
        {
          "indexed": true,
          "name": "tokenAddress",
          "type": "address"
        },
        {
          "indexed": true,
          "name": "tokenOwner",
          "type": "address"
        },
        {
          "indexed": false,
          "name": "amountForSale",
          "type": "uint256"
        }
      ],
      "name": "CrowdsaleInitialized",
      "type": "event"
    },
    {
      "anonymous": false,
      "inputs": [
        {
          "indexed": true,
          "name": "previousOwner",
          "type": "address"
        }
      ],
      "name": "OwnershipRenounced",
      "type": "event"
    },
    {
      "anonymous": false,
      "inputs": [
        {
          "indexed": true,
          "name": "previousOwner",
          "type": "address"
        },
        {
          "indexed": true,
          "name": "newOwner",
          "type": "address"
        }
      ],
      "name": "OwnershipTransferred",
      "type": "event"
    }
  ],
  "bytecode": "0x608060405260008060146101000a81548160ff0219169083151502179055503480156200002b57600080fd5b50604051606080620059c683398101806040528101908080519060200190929190805190602001909291908051906020019092919050505033838383336000806101000a81548173ffffffffffffffffffffffffffffffffffffffff021916908373ffffffffffffffffffffffffffffffffffffffff160217905550600073ffffffffffffffffffffffffffffffffffffffff168473ffffffffffffffffffffffffffffffffffffffff1614151515620000e457600080fd5b600073ffffffffffffffffffffffffffffffffffffffff168373ffffffffffffffffffffffffffffffffffffffff16141515156200012157600080fd5b600073ffffffffffffffffffffffffffffffffffffffff168273ffffffffffffffffffffffffffffffffffffffff16141515156200015e57600080fd5b600073ffffffffffffffffffffffffffffffffffffffff168173ffffffffffffffffffffffffffffffffffffffff16141515156200019b57600080fd5b81600460006101000a81548173ffffffffffffffffffffffffffffffffffffffff021916908373ffffffffffffffffffffffffffffffffffffffff16021790555080600360026101000a81548173ffffffffffffffffffffffffffffffffffffffff021916908373ffffffffffffffffffffffffffffffffffffffff16021790555083600560006101000a81548173ffffffffffffffffffffffffffffffffffffffff021916908373ffffffffffffffffffffffffffffffffffffffff16021790555082600660006101000a81548173ffffffffffffffffffffffffffffffffffffffff021916908373ffffffffffffffffffffffffffffffffffffffff16021790555060028054809190600101620002b59190620002c3565b505050505050505062000444565b815481835581811115620002f357600c0281600c028360005260206000209182019101620002f29190620002f8565b5b505050565b620003cd91905b80821115620003c957600080820160006200031b9190620003d0565b6001820160006200032d9190620003d0565b6002820160006101000a81549060ff021916905560048201600090556005820160009055600682016000905560078201600090556008820160006101000a81549073ffffffffffffffffffffffffffffffffffffffff02191690556009820160009055600a820160009055600b820160006101000a81549073ffffffffffffffffffffffffffffffffffffffff021916905550600c01620002ff565b5090565b90565b50805460018160011615610100020316600290046000825580601f10620003f8575062000419565b601f0160209004906000526020600020908101906200041891906200041c565b5b50565b6200044191905b808211156200043d57600081600090555060010162000423565b5090565b90565b61557280620004546000396000f300608060405260043610620000f7576000357c0100000000000000000000000000000000000000000000000000000000900463ffffffff16806309363c9914620000fc5780631dafede0146200015657806334cf82bf146200030e5780633f3466a714620003d957806349b010ab146200047f57806356397c3514620004d95780635641f3c3146200053357806368dce932146200058d578063715018a614620005dd5780638119c06514620005f75780638da5cb5b14620006515780639cf96e2e14620006ab578063a41ffd3814620006e1578063c45a01551462000731578063cca89d73146200078b578063f2fde38b146200080d575b600080fd5b3480156200010957600080fd5b5062000154600480360381019080803573ffffffffffffffffffffffffffffffffffffffff169060200190929190803590602001909291908035906020019092919050505062000853565b005b3480156200016357600080fd5b5062000184600480360381019080803590602001909291905050506200101c565b6040518080602001806020018c60ff1660ff1681526020018b81526020018a81526020018981526020018881526020018773ffffffffffffffffffffffffffffffffffffffff1673ffffffffffffffffffffffffffffffffffffffff1681526020018681526020018581526020018473ffffffffffffffffffffffffffffffffffffffff1673ffffffffffffffffffffffffffffffffffffffff16815260200183810383528e818151815260200191508051906020019080838360005b838110156200025e57808201518184015260208101905062000241565b50505050905090810190601f1680156200028c5780820380516001836020036101000a031916815260200191505b5083810382528d818151815260200191508051906020019080838360005b83811015620002c7578082015181840152602081019050620002aa565b50505050905090810190601f168015620002f55780820380516001836020036101000a031916815260200191505b509d505050505050505050505050505060405180910390f35b3480156200031b57600080fd5b50620003d7600480360381019080803573ffffffffffffffffffffffffffffffffffffffff169060200190929190803573ffffffffffffffffffffffffffffffffffffffff169060200190929190803590602001908201803590602001919091929391929390803590602001908201803590602001919091929391929390803560ff169060200190929190803590602001909291908035906020019092919080359060200190929190803590602001909291905050506200120b565b005b348015620003e657600080fd5b506200043d600480360381019080803573ffffffffffffffffffffffffffffffffffffffff169060200190929190803573ffffffffffffffffffffffffffffffffffffffff169060200190929190505050620017c3565b604051808273ffffffffffffffffffffffffffffffffffffffff1673ffffffffffffffffffffffffffffffffffffffff16815260200191505060405180910390f35b3480156200048c57600080fd5b506200049762001868565b604051808273ffffffffffffffffffffffffffffffffffffffff1673ffffffffffffffffffffffffffffffffffffffff16815260200191505060405180910390f35b348015620004e657600080fd5b50620004f162001892565b604051808273ffffffffffffffffffffffffffffffffffffffff1673ffffffffffffffffffffffffffffffffffffffff16815260200191505060405180910390f35b3480156200054057600080fd5b506200054b620018b8565b604051808273ffffffffffffffffffffffffffffffffffffffff1673ffffffffffffffffffffffffffffffffffffffff16815260200191505060405180910390f35b3480156200059a57600080fd5b50620005db600480360381019080803573ffffffffffffffffffffffffffffffffffffffff16906020019092919080359060200190929190505050620018de565b005b348015620005ea57600080fd5b50620005f5620024b1565b005b3480156200060457600080fd5b506200060f62002558565b604051808273ffffffffffffffffffffffffffffffffffffffff1673ffffffffffffffffffffffffffffffffffffffff16815260200191505060405180910390f35b3480156200065e57600080fd5b50620006696200257e565b604051808273ffffffffffffffffffffffffffffffffffffffff1673ffffffffffffffffffffffffffffffffffffffff16815260200191505060405180910390f35b348015620006b857600080fd5b50620006c3620025a3565b604051808261ffff1661ffff16815260200191505060405180910390f35b348015620006ee57600080fd5b506200072f600480360381019080803573ffffffffffffffffffffffffffffffffffffffff16906020019092919080359060200190929190505050620025b7565b005b3480156200073e57600080fd5b506200074962002940565b604051808273ffffffffffffffffffffffffffffffffffffffff1673ffffffffffffffffffffffffffffffffffffffff16815260200191505060405180910390f35b3480156200079857600080fd5b50620007ef600480360381019080803573ffffffffffffffffffffffffffffffffffffffff169060200190929190803573ffffffffffffffffffffffffffffffffffffffff16906020019092919050505062002966565b604051808261ffff1661ffff16815260200191505060405180910390f35b3480156200081a57600080fd5b5062000851600480360381019080803573ffffffffffffffffffffffffffffffffffffffff16906020019092919050505062002996565b005b600080600060149054906101000a900460ff161515156200087357600080fd5b6001600060146101000a81548160ff021916908315150217905550600115156200089e863362002a91565b60030160003373ffffffffffffffffffffffffffffffffffffffff1673ffffffffffffffffffffffffffffffffffffffff16815260200190815260200160002060009054906101000a900460ff161515141515620008fb57600080fd5b6200091f846200090c873362002a91565b600a015462002b4790919063ffffffff16565b6200092b863362002a91565b60090154101515156200093d57600080fd5b600073ffffffffffffffffffffffffffffffffffffffff1662000961863362002a91565b60080160009054906101000a900473ffffffffffffffffffffffffffffffffffffffff1673ffffffffffffffffffffffffffffffffffffffff16141515620009a857600080fd5b600460009054906101000a900473ffffffffffffffffffffffffffffffffffffffff1673ffffffffffffffffffffffffffffffffffffffff1663151f3734866040518263ffffffff167c0100000000000000000000000000000000000000000000000000000000028152600401808273ffffffffffffffffffffffffffffffffffffffff1673ffffffffffffffffffffffffffffffffffffffff168152602001915050602060405180830381600087803b15801562000a6657600080fd5b505af115801562000a7b573d6000803e3d6000fd5b505050506040513d602081101562000a9257600080fd5b81019080805190602001909291905050509150600660009054906101000a900473ffffffffffffffffffffffffffffffffffffffff1673ffffffffffffffffffffffffffffffffffffffff1663aa1322f7868486600560009054906101000a900473ffffffffffffffffffffffffffffffffffffffff1662000b158b3362002a91565b6005015462000b258c3362002a91565b6006015462000b358d3362002a91565b60070154600360029054906101000a900473ffffffffffffffffffffffffffffffffffffffff16336040518a63ffffffff167c0100000000000000000000000000000000000000000000000000000000028152600401808a73ffffffffffffffffffffffffffffffffffffffff1673ffffffffffffffffffffffffffffffffffffffff1681526020018973ffffffffffffffffffffffffffffffffffffffff1673ffffffffffffffffffffffffffffffffffffffff1681526020018881526020018773ffffffffffffffffffffffffffffffffffffffff1673ffffffffffffffffffffffffffffffffffffffff1681526020018681526020018581526020018481526020018373ffffffffffffffffffffffffffffffffffffffff1673ffffffffffffffffffffffffffffffffffffffff1681526020018273ffffffffffffffffffffffffffffffffffffffff1673ffffffffffffffffffffffffffffffffffffffff1681526020019950505050505050505050602060405180830381600087803b15801562000cc457600080fd5b505af115801562000cd9573d6000803e3d6000fd5b505050506040513d602081101562000cf057600080fd5b810190808051906020019092919050505090508062000d10863362002a91565b60080160006101000a81548173ffffffffffffffffffffffffffffffffffffffff021916908373ffffffffffffffffffffffffffffffffffffffff1602179055508173ffffffffffffffffffffffffffffffffffffffff1663d88b8676826040518263ffffffff167c0100000000000000000000000000000000000000000000000000000000028152600401808273ffffffffffffffffffffffffffffffffffffffff1673ffffffffffffffffffffffffffffffffffffffff168152602001915050600060405180830381600087803b15801562000ded57600080fd5b505af115801562000e02573d6000803e3d6000fd5b50505050600062000e14863362002a91565b60060154111562000f8a57600360029054906101000a900473ffffffffffffffffffffffffffffffffffffffff1673ffffffffffffffffffffffffffffffffffffffff1663e1f21c67868362000e9262000e6f8a3362002a91565b6006015462000e7f8b3362002a91565b6009015462002b6490919063ffffffff16565b6040518463ffffffff167c0100000000000000000000000000000000000000000000000000000000028152600401808473ffffffffffffffffffffffffffffffffffffffff1673ffffffffffffffffffffffffffffffffffffffff1681526020018373ffffffffffffffffffffffffffffffffffffffff1673ffffffffffffffffffffffffffffffffffffffff1681526020018281526020019350505050602060405180830381600087803b15801562000f4b57600080fd5b505af115801562000f60573d6000803e3d6000fd5b505050506040513d602081101562000f7757600080fd5b8101908080519060200190929190505050505b62000f968585620025b7565b3373ffffffffffffffffffffffffffffffffffffffff168573ffffffffffffffffffffffffffffffffffffffff167f824239e216016c403265447935e88cc521189d5e9a52754e5c2a16f7436281dc866040518082815260200191505060405180910390a360008060146101000a81548160ff0219169083151502179055505050505050565b6002818154811015156200102c57fe5b90600052602060002090600c0201600091509050806000018054600181600116156101000203166002900480601f016020809104026020016040519081016040528092919081815260200182805460018160011615610100020316600290048015620010dc5780601f10620010b057610100808354040283529160200191620010dc565b820191906000526020600020905b815481529060010190602001808311620010be57829003601f168201915b505050505090806001018054600181600116156101000203166002900480601f0160208091040260200160405190810160405280929190818152602001828054600181600116156101000203166002900480156200117e5780601f1062001152576101008083540402835291602001916200117e565b820191906000526020600020905b8154815290600101906020018083116200116057829003601f168201915b5050505050908060020160009054906101000a900460ff16908060040154908060050154908060060154908060070154908060080160009054906101000a900473ffffffffffffffffffffffffffffffffffffffff169080600901549080600a01549080600b0160009054906101000a900473ffffffffffffffffffffffffffffffffffffffff1690508b565b60008073ffffffffffffffffffffffffffffffffffffffff168c73ffffffffffffffffffffffffffffffffffffffff16141515156200124957600080fd5b600073ffffffffffffffffffffffffffffffffffffffff168b73ffffffffffffffffffffffffffffffffffffffff16141515156200128657600080fd5b620012918562002bb0565b8015620012a857506064620012a68662002bcc565b105b1515620012b457600080fd5b620012bf8462002bb0565b8015620012d657506064620012d48562002bcc565b105b1515620012e257600080fd5b620012ed8362002bb0565b80156200130457506064620013028462002bcc565b105b15156200131057600080fd5b6200131b8262002bb0565b80156200133257506064620013308362002bcc565b105b15156200133e57600080fd5b8a73ffffffffffffffffffffffffffffffffffffffff16620013618c8e62002a91565b600b0160009054906101000a900473ffffffffffffffffffffffffffffffffffffffff1673ffffffffffffffffffffffffffffffffffffffff1614151515620013a957600080fd5b620013b58b8d62002a91565b60030160008d73ffffffffffffffffffffffffffffffffffffffff1673ffffffffffffffffffffffffffffffffffffffff16815260200190815260200160002060009054906101000a900460ff161515156200141057600080fd5b600280549050905080600160008d73ffffffffffffffffffffffffffffffffffffffff1673ffffffffffffffffffffffffffffffffffffffff16815260200190815260200160002060008e73ffffffffffffffffffffffffffffffffffffffff1673ffffffffffffffffffffffffffffffffffffffff16815260200190815260200160002060006101000a81548161ffff021916908361ffff16021790555060028054809190600101620014c5919062002c6f565b600360006101000a81548161ffff021916908361ffff160217905550600160028261ffff16815481101515620014f757fe5b90600052602060002090600c020160030160008e73ffffffffffffffffffffffffffffffffffffffff1673ffffffffffffffffffffffffffffffffffffffff16815260200190815260200160002060006101000a81548160ff021916908315150217905550898960028361ffff168154811015156200157257fe5b90600052602060002090600c020160000191906200159292919062002ca4565b50878760028361ffff16815481101515620015a957fe5b90600052602060002090600c02016001019190620015c992919062002ca4565b508560028261ffff16815481101515620015df57fe5b90600052602060002090600c020160020160006101000a81548160ff021916908360ff1602179055508460028261ffff168154811015156200161d57fe5b90600052602060002090600c0201600401819055508360028261ffff168154811015156200164757fe5b90600052602060002090600c0201600501819055508260028261ffff168154811015156200167157fe5b90600052602060002090600c0201600601819055508160028261ffff168154811015156200169b57fe5b90600052602060002090600c0201600701819055508a60028261ffff16815481101515620016c557fe5b90600052602060002090600c0201600b0160006101000a81548173ffffffffffffffffffffffffffffffffffffffff021916908373ffffffffffffffffffffffffffffffffffffffff1602179055508b73ffffffffffffffffffffffffffffffffffffffff168b73ffffffffffffffffffffffffffffffffffffffff167fd3bb7a0fd3c972c824718e5d4fe7501feb58ebd797223783efbfd1d3085d49438c8c8c8c6040518080602001806020018381038352878782818152602001925080828437820191505083810382528585828181526020019250808284378201915050965050505050505060405180910390a3505050505050505050505050565b60008073ffffffffffffffffffffffffffffffffffffffff16620017e8848462002a91565b60080160009054906101000a900473ffffffffffffffffffffffffffffffffffffffff1673ffffffffffffffffffffffffffffffffffffffff16141515156200183057600080fd5b6200183c838362002a91565b60080160009054906101000a900473ffffffffffffffffffffffffffffffffffffffff16905092915050565b6000600360029054906101000a900473ffffffffffffffffffffffffffffffffffffffff16905090565b600460009054906101000a900473ffffffffffffffffffffffffffffffffffffffff1681565b600560009054906101000a900473ffffffffffffffffffffffffffffffffffffffff1681565b60008060008060008060008060149054906101000a900460ff161515156200190557600080fd5b6001600060146101000a81548160ff0219169083151502179055506000881115156200193057600080fd5b600073ffffffffffffffffffffffffffffffffffffffff168973ffffffffffffffffffffffffffffffffffffffff16141515156200196d57600080fd5b8873ffffffffffffffffffffffffffffffffffffffff16620019908a3362002a91565b600b0160009054906101000a900473ffffffffffffffffffffffffffffffffffffffff1673ffffffffffffffffffffffffffffffffffffffff16141515620019d757600080fd5b620019e3893362002a91565b60030160003373ffffffffffffffffffffffffffffffffffffffff1673ffffffffffffffffffffffffffffffffffffffff16815260200190815260200160002060009054906101000a900460ff16151562001a3d57600080fd5b62001a49893362002a91565b96508895508573ffffffffffffffffffffffffffffffffffffffff166370a08231600360029054906101000a900473ffffffffffffffffffffffffffffffffffffffff166040518263ffffffff167c0100000000000000000000000000000000000000000000000000000000028152600401808273ffffffffffffffffffffffffffffffffffffffff1673ffffffffffffffffffffffffffffffffffffffff168152602001915050602060405180830381600087803b15801562001b0c57600080fd5b505af115801562001b21573d6000803e3d6000fd5b505050506040513d602081101562001b3857600080fd5b81019080805190602001909291905050509450600087600401541162001b6057600062001b7a565b62001b7987600401548962002b6490919063ffffffff16565b5b935062001b91848962002c0290919063ffffffff16565b925062001bac83886009015462002b4790919063ffffffff16565b62001bb88a3362002a91565b600901819055508573ffffffffffffffffffffffffffffffffffffffff166323b872dd33600360029054906101000a900473ffffffffffffffffffffffffffffffffffffffff16866040518463ffffffff167c0100000000000000000000000000000000000000000000000000000000028152600401808473ffffffffffffffffffffffffffffffffffffffff1673ffffffffffffffffffffffffffffffffffffffff1681526020018373ffffffffffffffffffffffffffffffffffffffff1673ffffffffffffffffffffffffffffffffffffffff1681526020018281526020019350505050602060405180830381600087803b15801562001cb957600080fd5b505af115801562001cce573d6000803e3d6000fd5b505050506040513d602081101562001ce557600080fd5b8101908080519060200190929190505050508573ffffffffffffffffffffffffffffffffffffffff166323b872dd33600560009054906101000a900473ffffffffffffffffffffffffffffffffffffffff16876040518463ffffffff167c0100000000000000000000000000000000000000000000000000000000028152600401808473ffffffffffffffffffffffffffffffffffffffff1673ffffffffffffffffffffffffffffffffffffffff1681526020018373ffffffffffffffffffffffffffffffffffffffff1673ffffffffffffffffffffffffffffffffffffffff1681526020018281526020019350505050602060405180830381600087803b15801562001df157600080fd5b505af115801562001e06573d6000803e3d6000fd5b505050506040513d602081101562001e1d57600080fd5b8101908080519060200190929190505050508573ffffffffffffffffffffffffffffffffffffffff166370a08231600360029054906101000a900473ffffffffffffffffffffffffffffffffffffffff166040518263ffffffff167c0100000000000000000000000000000000000000000000000000000000028152600401808273ffffffffffffffffffffffffffffffffffffffff1673ffffffffffffffffffffffffffffffffffffffff168152602001915050602060405180830381600087803b15801562001eed57600080fd5b505af115801562001f02573d6000803e3d6000fd5b505050506040513d602081101562001f1957600080fd5b8101908080519060200190929190505050915062001f41838662002b4790919063ffffffff16565b8214151562001f4f57600080fd5b600073ffffffffffffffffffffffffffffffffffffffff16600460009054906101000a900473ffffffffffffffffffffffffffffffffffffffff1673ffffffffffffffffffffffffffffffffffffffff1663151f37348b6040518263ffffffff167c0100000000000000000000000000000000000000000000000000000000028152600401808273ffffffffffffffffffffffffffffffffffffffff1673ffffffffffffffffffffffffffffffffffffffff168152602001915050602060405180830381600087803b1580156200202557600080fd5b505af11580156200203a573d6000803e3d6000fd5b505050506040513d60208110156200205157600080fd5b810190808051906020019092919050505073ffffffffffffffffffffffffffffffffffffffff161415620022f95786600001876001018860020160009054906101000a900460ff16620020a362002d2b565b8080602001806020018460ff1660ff1681526020018381038352868181546001816001161561010002031660029004815260200191508054600181600116156101000203166002900480156200213d5780601f1062002111576101008083540402835291602001916200213d565b820191906000526020600020905b8154815290600101906020018083116200211f57829003601f168201915b5050838103825285818154600181600116156101000203166002900481526020019150805460018160011615610100020316600290048015620021c45780601f106200219857610100808354040283529160200191620021c4565b820191906000526020600020905b815481529060010190602001808311620021a657829003601f168201915b505095505050505050604051809103906000f080158015620021ea573d6000803e3d6000fd5b509050600460009054906101000a900473ffffffffffffffffffffffffffffffffffffffff1673ffffffffffffffffffffffffffffffffffffffff1663a07369128a836040518363ffffffff167c0100000000000000000000000000000000000000000000000000000000028152600401808373ffffffffffffffffffffffffffffffffffffffff1673ffffffffffffffffffffffffffffffffffffffff1681526020018273ffffffffffffffffffffffffffffffffffffffff1673ffffffffffffffffffffffffffffffffffffffff16815260200192505050600060405180830381600087803b158015620022df57600080fd5b505af1158015620022f4573d6000803e3d6000fd5b505050505b3373ffffffffffffffffffffffffffffffffffffffff168973ffffffffffffffffffffffffffffffffffffffff167f2b11dc5f6b2036a3d03d04c1e89724a8650507582665455ed7154b544f3e3c4f85600460009054906101000a900473ffffffffffffffffffffffffffffffffffffffff1673ffffffffffffffffffffffffffffffffffffffff1663151f37348e6040518263ffffffff167c0100000000000000000000000000000000000000000000000000000000028152600401808273ffffffffffffffffffffffffffffffffffffffff1673ffffffffffffffffffffffffffffffffffffffff168152602001915050602060405180830381600087803b1580156200240757600080fd5b505af11580156200241c573d6000803e3d6000fd5b505050506040513d60208110156200243357600080fd5b8101908080519060200190929190505050604051808381526020018273ffffffffffffffffffffffffffffffffffffffff1673ffffffffffffffffffffffffffffffffffffffff1681526020019250505060405180910390a360008060146101000a81548160ff021916908315150217905550505050505050505050565b6000809054906101000a900473ffffffffffffffffffffffffffffffffffffffff1673ffffffffffffffffffffffffffffffffffffffff167ff8df31144d9c2f0f6b59d69b8b98abd5459d07f2742c4df920b25aae33c6482060405160405180910390a260008060006101000a81548173ffffffffffffffffffffffffffffffffffffffff021916908373ffffffffffffffffffffffffffffffffffffffff160217905550565b600360029054906101000a900473ffffffffffffffffffffffffffffffffffffffff1681565b6000809054906101000a900473ffffffffffffffffffffffffffffffffffffffff1681565b600360009054906101000a900461ffff1681565b60008060011515620025ca853362002a91565b60030160003373ffffffffffffffffffffffffffffffffffffffff1673ffffffffffffffffffffffffffffffffffffffff16815260200190815260200160002060009054906101000a900460ff1615151415156200262757600080fd5b6200264b8362002638863362002a91565b600a015462002b4790919063ffffffff16565b62002657853362002a91565b60090154101515156200266957600080fd5b600460009054906101000a900473ffffffffffffffffffffffffffffffffffffffff1673ffffffffffffffffffffffffffffffffffffffff1663151f3734856040518263ffffffff167c0100000000000000000000000000000000000000000000000000000000028152600401808273ffffffffffffffffffffffffffffffffffffffff1673ffffffffffffffffffffffffffffffffffffffff168152602001915050602060405180830381600087803b1580156200272757600080fd5b505af11580156200273c573d6000803e3d6000fd5b505050506040513d60208110156200275357600080fd5b81019080805190602001909291905050509150600073ffffffffffffffffffffffffffffffffffffffff168273ffffffffffffffffffffffffffffffffffffffff1614151515620027a357600080fd5b620027af843362002a91565b60080160009054906101000a900473ffffffffffffffffffffffffffffffffffffffff169050600073ffffffffffffffffffffffffffffffffffffffff168173ffffffffffffffffffffffffffffffffffffffff16141515156200281257600080fd5b620028368362002823863362002a91565b600a015462002b4790919063ffffffff16565b62002842853362002a91565b600a01819055508173ffffffffffffffffffffffffffffffffffffffff1663d0047acf828560006040518463ffffffff167c0100000000000000000000000000000000000000000000000000000000028152600401808473ffffffffffffffffffffffffffffffffffffffff1673ffffffffffffffffffffffffffffffffffffffff1681526020018381526020018263ffffffff1681526020019350505050602060405180830381600087803b158015620028fc57600080fd5b505af115801562002911573d6000803e3d6000fd5b505050506040513d60208110156200292857600080fd5b81019080805190602001909291905050505050505050565b600660009054906101000a900473ffffffffffffffffffffffffffffffffffffffff1681565b60016020528160005260406000206020528060005260406000206000915091509054906101000a900461ffff1681565b600073ffffffffffffffffffffffffffffffffffffffff168173ffffffffffffffffffffffffffffffffffffffff1614151515620029d357600080fd5b8073ffffffffffffffffffffffffffffffffffffffff166000809054906101000a900473ffffffffffffffffffffffffffffffffffffffff1673ffffffffffffffffffffffffffffffffffffffff167f8be0079c531659141344cd1fd0a4f28419497f9722a3daafe3b4186f6b6457e060405160405180910390a3806000806101000a81548173ffffffffffffffffffffffffffffffffffffffff021916908373ffffffffffffffffffffffffffffffffffffffff16021790555050565b60006002600160008573ffffffffffffffffffffffffffffffffffffffff1673ffffffffffffffffffffffffffffffffffffffff16815260200190815260200160002060008473ffffffffffffffffffffffffffffffffffffffff1673ffffffffffffffffffffffffffffffffffffffff16815260200190815260200160002060009054906101000a900461ffff1661ffff1681548110151562002b3157fe5b90600052602060002090600c0201905092915050565b6000818301905082811015151562002b5b57fe5b80905092915050565b600062002b718262002bb0565b151562002b7d57600080fd5b62002ba861271062002b99848662002c1c90919063ffffffff16565b62002c5890919063ffffffff16565b905092915050565b600080821015801562002bc557506127108211155b9050919050565b600062002bd98262002bb0565b151562002be557600080fd5b62002bfb60648362002c5890919063ffffffff16565b9050919050565b600082821115151562002c1157fe5b818303905092915050565b60008083141562002c31576000905062002c52565b818302905081838281151562002c4357fe5b0414151562002c4e57fe5b8090505b92915050565b6000818381151562002c6657fe5b04905092915050565b81548183558181111562002c9f57600c0281600c02836000526020600020918201910162002c9e919062002d3c565b5b505050565b828054600181600116156101000203166002900490600052602060002090601f016020900481019282601f1062002ce757803560ff191683800117855562002d18565b8280016001018555821562002d18579182015b8281111562002d1757823582559160200191906001019062002cfa565b5b50905062002d27919062002e14565b5090565b6040516126be8062002e8983390190565b62002e1191905b8082111562002e0d576000808201600062002d5f919062002e3c565b60018201600062002d71919062002e3c565b6002820160006101000a81549060ff021916905560048201600090556005820160009055600682016000905560078201600090556008820160006101000a81549073ffffffffffffffffffffffffffffffffffffffff02191690556009820160009055600a820160009055600b820160006101000a81549073ffffffffffffffffffffffffffffffffffffffff021916905550600c0162002d43565b5090565b90565b62002e3991905b8082111562002e3557600081600090555060010162002e1b565b5090565b90565b50805460018160011615610100020316600290046000825580601f1062002e64575062002e85565b601f01602090049060005260206000209081019062002e84919062002e14565b5b50560060806040523480156200001157600080fd5b50604051620026be380380620026be83398101806040528101908080518201929190602001805182019291906020018051906020019092919050505082828282600090805190602001906200006892919062000142565b5081600190805190602001906200008192919062000142565b5080600260006101000a81548160ff021916908360ff16021790555050505033600260016101000a81548173ffffffffffffffffffffffffffffffffffffffff021916908373ffffffffffffffffffffffffffffffffffffffff1602179055506001600860003373ffffffffffffffffffffffffffffffffffffffff1673ffffffffffffffffffffffffffffffffffffffff16815260200190815260200160002060006101000a81548160ff021916908315150217905550505050620001f1565b828054600181600116156101000203166002900490600052602060002090601f016020900481019282601f106200018557805160ff1916838001178555620001b6565b82800160010185558215620001b6579182015b82811115620001b557825182559160200191906001019062000198565b5b509050620001c59190620001c9565b5090565b620001ee91905b80821115620001ea576000816000905550600101620001d0565b5090565b90565b6124bd80620002016000396000f300608060405260043610610133576000357c0100000000000000000000000000000000000000000000000000000000900463ffffffff16806306fdde0314610145578063095ea7b3146101d557806318160ddd1461023a57806323b872dd1461026557806327e235e3146102ea578063313ce5671461034157806342966c68146103725780634afbf5ee1461039f578063661884631461040057806370a0823114610465578063715018a6146104bc57806379cc6790146104d35780638da5cb5b1461052057806395d89b41146105775780639d2e477714610607578063a9059cbb1461067c578063ba0e0f5e146106e1578063d0047acf14610724578063d294cb0f14610799578063d73dd623146107f0578063d88b867614610855578063dd62ed3e14610898578063f2fde38b1461090f575b34801561013f57600080fd5b50600080fd5b34801561015157600080fd5b5061015a610952565b6040518080602001828103825283818151815260200191508051906020019080838360005b8381101561019a57808201518184015260208101905061017f565b50505050905090810190601f1680156101c75780820380516001836020036101000a031916815260200191505b509250505060405180910390f35b3480156101e157600080fd5b50610220600480360381019080803573ffffffffffffffffffffffffffffffffffffffff169060200190929190803590602001909291905050506109f0565b604051808215151515815260200191505060405180910390f35b34801561024657600080fd5b5061024f610ae2565b6040518082815260200191505060405180910390f35b34801561027157600080fd5b506102d0600480360381019080803573ffffffffffffffffffffffffffffffffffffffff169060200190929190803573ffffffffffffffffffffffffffffffffffffffff16906020019092919080359060200190929190505050610aec565b604051808215151515815260200191505060405180910390f35b3480156102f657600080fd5b5061032b600480360381019080803573ffffffffffffffffffffffffffffffffffffffff169060200190929190505050610d69565b6040518082815260200191505060405180910390f35b34801561034d57600080fd5b50610356610d81565b604051808260ff1660ff16815260200191505060405180910390f35b34801561037e57600080fd5b5061039d60048036038101908080359060200190929190505050610d94565b005b3480156103ab57600080fd5b506103ea600480360381019080803573ffffffffffffffffffffffffffffffffffffffff16906020019092919080359060200190929190505050610da1565b6040518082815260200191505060405180910390f35b34801561040c57600080fd5b5061044b600480360381019080803573ffffffffffffffffffffffffffffffffffffffff16906020019092919080359060200190929190505050610dc6565b604051808215151515815260200191505060405180910390f35b34801561047157600080fd5b506104a6600480360381019080803573ffffffffffffffffffffffffffffffffffffffff169060200190929190505050611048565b6040518082815260200191505060405180910390f35b3480156104c857600080fd5b506104d1611091565b005b3480156104df57600080fd5b5061051e600480360381019080803573ffffffffffffffffffffffffffffffffffffffff16906020019092919080359060200190929190505050611196565b005b34801561052c57600080fd5b506105356112b9565b604051808273ffffffffffffffffffffffffffffffffffffffff1673ffffffffffffffffffffffffffffffffffffffff16815260200191505060405180910390f35b34801561058357600080fd5b5061058c6112df565b6040518080602001828103825283818151815260200191508051906020019080838360005b838110156105cc5780820151818401526020810190506105b1565b50505050905090810190601f1680156105f95780820380516001836020036101000a031916815260200191505b509250505060405180910390f35b34801561061357600080fd5b50610662600480360381019080803573ffffffffffffffffffffffffffffffffffffffff16906020019092919080359060200190929190803563ffffffff16906020019092919050505061137d565b604051808215151515815260200191505060405180910390f35b34801561068857600080fd5b506106c7600480360381019080803573ffffffffffffffffffffffffffffffffffffffff169060200190929190803590602001909291905050506114be565b604051808215151515815260200191505060405180910390f35b3480156106ed57600080fd5b50610722600480360381019080803573ffffffffffffffffffffffffffffffffffffffff169060200190929190505050611625565b005b34801561073057600080fd5b5061077f600480360381019080803573ffffffffffffffffffffffffffffffffffffffff16906020019092919080359060200190929190803563ffffffff1690602001909291905050506116dc565b604051808215151515815260200191505060405180910390f35b3480156107a557600080fd5b506107da600480360381019080803573ffffffffffffffffffffffffffffffffffffffff1690602001909291905050506118ea565b6040518082815260200191505060405180910390f35b3480156107fc57600080fd5b5061083b600480360381019080803573ffffffffffffffffffffffffffffffffffffffff16906020019092919080359060200190929190505050611afb565b604051808215151515815260200191505060405180910390f35b34801561086157600080fd5b50610896600480360381019080803573ffffffffffffffffffffffffffffffffffffffff169060200190929190505050611c72565b005b3480156108a457600080fd5b506108f9600480360381019080803573ffffffffffffffffffffffffffffffffffffffff169060200190929190803573ffffffffffffffffffffffffffffffffffffffff169060200190929190505050611d29565b6040518082815260200191505060405180910390f35b34801561091b57600080fd5b50610950600480360381019080803573ffffffffffffffffffffffffffffffffffffffff169060200190929190505050611db0565b005b60008054600181600116156101000203166002900480601f0160208091040260200160405190810160405280929190818152602001828054600181600116156101000203166002900480156109e85780601f106109bd576101008083540402835291602001916109e8565b820191906000526020600020905b8154815290600101906020018083116109cb57829003601f168201915b505050505081565b600081600360003373ffffffffffffffffffffffffffffffffffffffff1673ffffffffffffffffffffffffffffffffffffffff16815260200190815260200160002060008573ffffffffffffffffffffffffffffffffffffffff1673ffffffffffffffffffffffffffffffffffffffff168152602001908152602001600020819055508273ffffffffffffffffffffffffffffffffffffffff163373ffffffffffffffffffffffffffffffffffffffff167f8c5be1e5ebec7d5bd14f71427d1e84f3dd0314c0f7b2291e5b200ac8c7c3b925846040518082815260200191505060405180910390a36001905092915050565b6000600554905090565b6000610af784611f08565b600073ffffffffffffffffffffffffffffffffffffffff168373ffffffffffffffffffffffffffffffffffffffff1614151515610b3357600080fd5b610b3c846118ea565b8211151515610b4a57600080fd5b600360008573ffffffffffffffffffffffffffffffffffffffff1673ffffffffffffffffffffffffffffffffffffffff16815260200190815260200160002060003373ffffffffffffffffffffffffffffffffffffffff1673ffffffffffffffffffffffffffffffffffffffff168152602001908152602001600020548211151515610bd557600080fd5b81600460008673ffffffffffffffffffffffffffffffffffffffff1673ffffffffffffffffffffffffffffffffffffffff1681526020019081526020016000206000828254039250508190555081600460008573ffffffffffffffffffffffffffffffffffffffff1673ffffffffffffffffffffffffffffffffffffffff1681526020019081526020016000206000828254019250508190555081600360008673ffffffffffffffffffffffffffffffffffffffff1673ffffffffffffffffffffffffffffffffffffffff16815260200190815260200160002060003373ffffffffffffffffffffffffffffffffffffffff1673ffffffffffffffffffffffffffffffffffffffff168152602001908152602001600020600082825403925050819055508273ffffffffffffffffffffffffffffffffffffffff168473ffffffffffffffffffffffffffffffffffffffff167fddf252ad1be2c89b69c2b068fc378daa952ba7f163c4a11628f55a4df523b3ef846040518082815260200191505060405180910390a3600190509392505050565b60046020528060005260406000206000915090505481565b600260009054906101000a900460ff1681565b610d9e33826121d7565b50565b6006602052816000526040600020602052806000526040600020600091509150505481565b600080600360003373ffffffffffffffffffffffffffffffffffffffff1673ffffffffffffffffffffffffffffffffffffffff16815260200190815260200160002060008573ffffffffffffffffffffffffffffffffffffffff1673ffffffffffffffffffffffffffffffffffffffff1681526020019081526020016000205490508083101515610ed8576000600360003373ffffffffffffffffffffffffffffffffffffffff1673ffffffffffffffffffffffffffffffffffffffff16815260200190815260200160002060008673ffffffffffffffffffffffffffffffffffffffff1673ffffffffffffffffffffffffffffffffffffffff16815260200190815260200160002081905550610f5c565b828103600360003373ffffffffffffffffffffffffffffffffffffffff1673ffffffffffffffffffffffffffffffffffffffff16815260200190815260200160002060008673ffffffffffffffffffffffffffffffffffffffff1673ffffffffffffffffffffffffffffffffffffffff168152602001908152602001600020819055505b8373ffffffffffffffffffffffffffffffffffffffff163373ffffffffffffffffffffffffffffffffffffffff167f8c5be1e5ebec7d5bd14f71427d1e84f3dd0314c0f7b2291e5b200ac8c7c3b925600360003373ffffffffffffffffffffffffffffffffffffffff1673ffffffffffffffffffffffffffffffffffffffff16815260200190815260200160002060008873ffffffffffffffffffffffffffffffffffffffff1673ffffffffffffffffffffffffffffffffffffffff168152602001908152602001600020546040518082815260200191505060405180910390a3600191505092915050565b6000600460008373ffffffffffffffffffffffffffffffffffffffff1673ffffffffffffffffffffffffffffffffffffffff168152602001908152602001600020549050919050565b600260019054906101000a900473ffffffffffffffffffffffffffffffffffffffff1673ffffffffffffffffffffffffffffffffffffffff163373ffffffffffffffffffffffffffffffffffffffff161415156110ed57600080fd5b600260019054906101000a900473ffffffffffffffffffffffffffffffffffffffff1673ffffffffffffffffffffffffffffffffffffffff167ff8df31144d9c2f0f6b59d69b8b98abd5459d07f2742c4df920b25aae33c6482060405160405180910390a26000600260016101000a81548173ffffffffffffffffffffffffffffffffffffffff021916908373ffffffffffffffffffffffffffffffffffffffff160217905550565b600360008373ffffffffffffffffffffffffffffffffffffffff1673ffffffffffffffffffffffffffffffffffffffff16815260200190815260200160002060003373ffffffffffffffffffffffffffffffffffffffff1673ffffffffffffffffffffffffffffffffffffffff16815260200190815260200160002054811115151561122157600080fd5b80600360008473ffffffffffffffffffffffffffffffffffffffff1673ffffffffffffffffffffffffffffffffffffffff16815260200190815260200160002060003373ffffffffffffffffffffffffffffffffffffffff1673ffffffffffffffffffffffffffffffffffffffff168152602001908152602001600020600082825403925050819055506112b582826121d7565b5050565b600260019054906101000a900473ffffffffffffffffffffffffffffffffffffffff1681565b60018054600181600116156101000203166002900480601f0160208091040260200160405190810160405280929190818152602001828054600181600116156101000203166002900480156113755780601f1061134a57610100808354040283529160200191611375565b820191906000526020600020905b81548152906001019060200180831161135857829003601f168201915b505050505081565b600033600860008273ffffffffffffffffffffffffffffffffffffffff1673ffffffffffffffffffffffffffffffffffffffff16815260200190815260200160002060009054906101000a900460ff1615156113d857600080fd5b6113e285856114be565b50428363ffffffff161115611405576114046000868563ffffffff168761230c565b5b7f5075049792a88eedfe4e60bb3ffeac77b4fa7f03108b81fb0b460161b983e20033868686604051808573ffffffffffffffffffffffffffffffffffffffff1673ffffffffffffffffffffffffffffffffffffffff1681526020018473ffffffffffffffffffffffffffffffffffffffff1673ffffffffffffffffffffffffffffffffffffffff1681526020018381526020018263ffffffff16815260200194505050505060405180910390a160019150509392505050565b60006114c933611f08565b600073ffffffffffffffffffffffffffffffffffffffff168373ffffffffffffffffffffffffffffffffffffffff161415151561150557600080fd5b61150e336118ea565b821115151561151c57600080fd5b81600460003373ffffffffffffffffffffffffffffffffffffffff1673ffffffffffffffffffffffffffffffffffffffff1681526020019081526020016000206000828254039250508190555081600460008573ffffffffffffffffffffffffffffffffffffffff1673ffffffffffffffffffffffffffffffffffffffff168152602001908152602001600020600082825401925050819055508273ffffffffffffffffffffffffffffffffffffffff163373ffffffffffffffffffffffffffffffffffffffff167fddf252ad1be2c89b69c2b068fc378daa952ba7f163c4a11628f55a4df523b3ef846040518082815260200191505060405180910390a36001905092915050565b600260019054906101000a900473ffffffffffffffffffffffffffffffffffffffff1673ffffffffffffffffffffffffffffffffffffffff163373ffffffffffffffffffffffffffffffffffffffff1614151561168157600080fd5b6000600860008373ffffffffffffffffffffffffffffffffffffffff1673ffffffffffffffffffffffffffffffffffffffff16815260200190815260200160002060006101000a81548160ff02191690831515021790555050565b600033600860008273ffffffffffffffffffffffffffffffffffffffff1673ffffffffffffffffffffffffffffffffffffffff16815260200190815260200160002060009054906101000a900460ff16151561173757600080fd5b600554846005540111151561174b57600080fd5b428363ffffffff16111561176d5761176c6000868563ffffffff168761230c565b5b83600460008773ffffffffffffffffffffffffffffffffffffffff1673ffffffffffffffffffffffffffffffffffffffff16815260200190815260200160002060008282540192505081905550836005600082825401925050819055508473ffffffffffffffffffffffffffffffffffffffff16600073ffffffffffffffffffffffffffffffffffffffff167fddf252ad1be2c89b69c2b068fc378daa952ba7f163c4a11628f55a4df523b3ef866040518082815260200191505060405180910390a37f5075049792a88eedfe4e60bb3ffeac77b4fa7f03108b81fb0b460161b983e2006000868686604051808573ffffffffffffffffffffffffffffffffffffffff1673ffffffffffffffffffffffffffffffffffffffff1681526020018473ffffffffffffffffffffffffffffffffffffffff1673ffffffffffffffffffffffffffffffffffffffff1681526020018381526020018263ffffffff16815260200194505050505060405180910390a160019150509392505050565b600080600460008473ffffffffffffffffffffffffffffffffffffffff1673ffffffffffffffffffffffffffffffffffffffff1681526020019081526020016000205491506000600660008573ffffffffffffffffffffffffffffffffffffffff1673ffffffffffffffffffffffffffffffffffffffff168152602001908152602001600020600080815260200190815260200160002054141561198d57611af5565b600090505b600760008473ffffffffffffffffffffffffffffffffffffffff1673ffffffffffffffffffffffffffffffffffffffff16815260200190815260200160002080549050811015611af45742600760008573ffffffffffffffffffffffffffffffffffffffff1673ffffffffffffffffffffffffffffffffffffffff16815260200190815260200160002082815481101515611a2957fe5b9060005260206000200154101515611ae757600660008473ffffffffffffffffffffffffffffffffffffffff1673ffffffffffffffffffffffffffffffffffffffff1681526020019081526020016000206000600760008673ffffffffffffffffffffffffffffffffffffffff1673ffffffffffffffffffffffffffffffffffffffff16815260200190815260200160002083815481101515611ac857fe5b9060005260206000200154815260200190815260200160002054820391505b8080600101915050611992565b5b50919050565b600081600360003373ffffffffffffffffffffffffffffffffffffffff1673ffffffffffffffffffffffffffffffffffffffff16815260200190815260200160002060008573ffffffffffffffffffffffffffffffffffffffff1673ffffffffffffffffffffffffffffffffffffffff168152602001908152602001600020600082825401925050819055508273ffffffffffffffffffffffffffffffffffffffff163373ffffffffffffffffffffffffffffffffffffffff167f8c5be1e5ebec7d5bd14f71427d1e84f3dd0314c0f7b2291e5b200ac8c7c3b925600360003373ffffffffffffffffffffffffffffffffffffffff1673ffffffffffffffffffffffffffffffffffffffff16815260200190815260200160002060008773ffffffffffffffffffffffffffffffffffffffff1673ffffffffffffffffffffffffffffffffffffffff168152602001908152602001600020546040518082815260200191505060405180910390a36001905092915050565b600260019054906101000a900473ffffffffffffffffffffffffffffffffffffffff1673ffffffffffffffffffffffffffffffffffffffff163373ffffffffffffffffffffffffffffffffffffffff16141515611cce57600080fd5b6001600860008373ffffffffffffffffffffffffffffffffffffffff1673ffffffffffffffffffffffffffffffffffffffff16815260200190815260200160002060006101000a81548160ff02191690831515021790555050565b6000600360008473ffffffffffffffffffffffffffffffffffffffff1673ffffffffffffffffffffffffffffffffffffffff16815260200190815260200160002060008373ffffffffffffffffffffffffffffffffffffffff1673ffffffffffffffffffffffffffffffffffffffff16815260200190815260200160002054905092915050565b600260019054906101000a900473ffffffffffffffffffffffffffffffffffffffff1673ffffffffffffffffffffffffffffffffffffffff163373ffffffffffffffffffffffffffffffffffffffff16141515611e0c57600080fd5b600073ffffffffffffffffffffffffffffffffffffffff168173ffffffffffffffffffffffffffffffffffffffff1614151515611e4857600080fd5b8073ffffffffffffffffffffffffffffffffffffffff16600260019054906101000a900473ffffffffffffffffffffffffffffffffffffffff1673ffffffffffffffffffffffffffffffffffffffff167f8be0079c531659141344cd1fd0a4f28419497f9722a3daafe3b4186f6b6457e060405160405180910390a380600260016101000a81548173ffffffffffffffffffffffffffffffffffffffff021916908373ffffffffffffffffffffffffffffffffffffffff16021790555050565b600080600660008473ffffffffffffffffffffffffffffffffffffffff1673ffffffffffffffffffffffffffffffffffffffff1681526020019081526020016000206000808152602001908152602001600020541415611f67576121d3565b600090505b600760008373ffffffffffffffffffffffffffffffffffffffff1673ffffffffffffffffffffffffffffffffffffffff168152602001908152602001600020805490508110156121d25742600760008473ffffffffffffffffffffffffffffffffffffffff1673ffffffffffffffffffffffffffffffffffffffff1681526020019081526020016000208281548110151561200357fe5b906000526020600020015410156121c557600660008373ffffffffffffffffffffffffffffffffffffffff1673ffffffffffffffffffffffffffffffffffffffff1681526020019081526020016000206000600760008573ffffffffffffffffffffffffffffffffffffffff1673ffffffffffffffffffffffffffffffffffffffff168152602001908152602001600020838154811015156120a157fe5b9060005260206000200154815260200190815260200160002054600660008473ffffffffffffffffffffffffffffffffffffffff1673ffffffffffffffffffffffffffffffffffffffff1681526020019081526020016000206000808152602001908152602001600020600082825403925050819055506000600660008473ffffffffffffffffffffffffffffffffffffffff1673ffffffffffffffffffffffffffffffffffffffff1681526020019081526020016000206000600760008673ffffffffffffffffffffffffffffffffffffffff1673ffffffffffffffffffffffffffffffffffffffff168152602001908152602001600020848154811015156121a757fe5b90600052602060002001548152602001908152602001600020819055505b8080600101915050611f6c565b5b5050565b6121e082611f08565b6121e9826118ea565b81111515156121f757600080fd5b80600460008473ffffffffffffffffffffffffffffffffffffffff1673ffffffffffffffffffffffffffffffffffffffff16815260200190815260200160002060008282540392505081905550806005600082825403925050819055508173ffffffffffffffffffffffffffffffffffffffff167fcc16f5dbb4873280815c1ee09dbd06736cffcc184412cf7a71a0fdb75d397ca5826040518082815260200191505060405180910390a2600073ffffffffffffffffffffffffffffffffffffffff168273ffffffffffffffffffffffffffffffffffffffff167fddf252ad1be2c89b69c2b068fc378daa952ba7f163c4a11628f55a4df523b3ef836040518082815260200191505060405180910390a35050565b80600660008573ffffffffffffffffffffffffffffffffffffffff1673ffffffffffffffffffffffffffffffffffffffff1681526020019081526020016000206000808152602001908152602001600020600082825401925050819055506000600660008573ffffffffffffffffffffffffffffffffffffffff1673ffffffffffffffffffffffffffffffffffffffff168152602001908152602001600020600084815260200190815260200160002054141561242d57600760008473ffffffffffffffffffffffffffffffffffffffff1673ffffffffffffffffffffffffffffffffffffffff1681526020019081526020016000208290806001815401808255809150509060018203906000526020600020016000909192909190915055505b80600660008573ffffffffffffffffffffffffffffffffffffffff1673ffffffffffffffffffffffffffffffffffffffff168152602001908152602001600020600084815260200190815260200160002060008282540192505081905550505050505600a165627a7a72305820aa331fa0595437f7cc3fc342763f9f264e03e806fa15257d71422f6b585f252d0029a165627a7a7230582091020c93481727b87684249b812a876c515bcc74bb5e349da92c500a4f1b444f0029",
  "source": "pragma solidity ^0.4.23;\n\nimport \"./W12Lister.sol\";\n\ncontract W12ListerStub is W12Lister {\n\n    /**\n    * @dev Allows for any account besides the owner.\n    */\n    modifier onlyOwner() {\n        _;\n    }\n\n    constructor(IW12CrowdsaleFactory _factory, W12TokenLedger _ledger, IW12AtomicSwap _swap) W12Lister(msg.sender, _factory, _ledger, _swap) public { }\n}\n",
  "sourcePath": "/Projects/w12-new/contracts/W12ListerStub.sol",
  "compiler": {
    "name": "solc",
    "version": "0.4.24+commit.e67f0147.Emscripten.clang"
  },
  "schemaVersion": "2.0.1",
  "updatedAt": "2018-08-24T22:22:14.923Z"
}