{
  "contractName": "W12ListerStub",
  "abi": [
    {
      "constant": true,
      "inputs": [
        {
          "name": "",
          "type": "uint256"
        }
      ],
      "name": "approvedTokens",
      "outputs": [
        {
          "name": "name",
          "type": "string"
        },
        {
          "name": "symbol",
          "type": "string"
        },
        {
          "name": "decimals",
          "type": "uint8"
        },
        {
          "name": "feePercent",
          "type": "uint256"
        },
        {
          "name": "ethFeePercent",
          "type": "uint256"
        },
        {
          "name": "WTokenSaleFeePercent",
          "type": "uint256"
        },
        {
          "name": "trancheFeePercent",
          "type": "uint256"
        },
        {
          "name": "crowdsaleAddress",
          "type": "address"
        },
        {
          "name": "tokensForSaleAmount",
          "type": "uint256"
        },
        {
          "name": "wTokensIssuedAmount",
          "type": "uint256"
        },
        {
          "name": "tokenAddress",
          "type": "address"
        }
      ],
      "payable": false,
      "stateMutability": "view",
      "type": "function"
    },
    {
      "constant": false,
      "inputs": [
        {
          "name": "tokenOwner",
          "type": "address"
        },
        {
          "name": "tokenAddress",
          "type": "address"
        },
        {
          "name": "name",
          "type": "string"
        },
        {
          "name": "symbol",
          "type": "string"
        },
        {
          "name": "decimals",
          "type": "uint8"
        },
        {
          "name": "feePercent",
          "type": "uint256"
        },
        {
          "name": "ethFeePercent",
          "type": "uint256"
        },
        {
          "name": "WTokenSaleFeePercent",
          "type": "uint256"
        },
        {
          "name": "trancheFeePercent",
          "type": "uint256"
        }
      ],
      "name": "whitelistToken",
      "outputs": [],
      "payable": false,
      "stateMutability": "nonpayable",
      "type": "function"
    },
    {
      "constant": true,
      "inputs": [
        {
          "name": "tokenAddress",
          "type": "address"
        },
        {
          "name": "ownerAddress",
          "type": "address"
        }
      ],
      "name": "getTokenCrowdsale",
      "outputs": [
        {
          "name": "",
          "type": "address"
        }
      ],
      "payable": false,
      "stateMutability": "view",
      "type": "function"
    },
    {
      "constant": true,
      "inputs": [],
      "name": "getSwap",
      "outputs": [
        {
          "name": "",
          "type": "address"
        }
      ],
      "payable": false,
      "stateMutability": "view",
      "type": "function"
    },
    {
      "constant": true,
      "inputs": [],
      "name": "ledger",
      "outputs": [
        {
          "name": "",
          "type": "address"
        }
      ],
      "payable": false,
      "stateMutability": "view",
      "type": "function"
    },
    {
      "constant": true,
      "inputs": [],
      "name": "serviceWallet",
      "outputs": [
        {
          "name": "",
          "type": "address"
        }
      ],
      "payable": false,
      "stateMutability": "view",
      "type": "function"
    },
    {
      "constant": false,
      "inputs": [
        {
          "name": "tokenAddress",
          "type": "address"
        },
        {
          "name": "amount",
          "type": "uint256"
        }
      ],
      "name": "placeToken",
      "outputs": [],
      "payable": false,
      "stateMutability": "nonpayable",
      "type": "function"
    },
    {
      "constant": false,
      "inputs": [],
      "name": "renounceOwnership",
      "outputs": [],
      "payable": false,
      "stateMutability": "nonpayable",
      "type": "function"
    },
    {
      "constant": false,
      "inputs": [
        {
          "name": "startDate",
          "type": "uint32"
        },
        {
          "name": "tokenAddress",
          "type": "address"
        },
        {
          "name": "amountForSale",
          "type": "uint256"
        },
        {
          "name": "price",
          "type": "uint256"
        }
      ],
      "name": "initCrowdsale",
      "outputs": [],
      "payable": false,
      "stateMutability": "nonpayable",
      "type": "function"
    },
    {
      "constant": true,
      "inputs": [],
      "name": "swap",
      "outputs": [
        {
          "name": "",
          "type": "address"
        }
      ],
      "payable": false,
      "stateMutability": "view",
      "type": "function"
    },
    {
      "constant": true,
      "inputs": [],
      "name": "owner",
      "outputs": [
        {
          "name": "",
          "type": "address"
        }
      ],
      "payable": false,
      "stateMutability": "view",
      "type": "function"
    },
    {
      "constant": true,
      "inputs": [],
      "name": "approvedTokensLength",
      "outputs": [
        {
          "name": "",
          "type": "uint16"
        }
      ],
      "payable": false,
      "stateMutability": "view",
      "type": "function"
    },
    {
      "constant": false,
      "inputs": [
        {
          "name": "tokenAddress",
          "type": "address"
        },
        {
          "name": "amountForSale",
          "type": "uint256"
        }
      ],
      "name": "addTokensToCrowdsale",
      "outputs": [],
      "payable": false,
      "stateMutability": "nonpayable",
      "type": "function"
    },
    {
      "constant": true,
      "inputs": [],
      "name": "factory",
      "outputs": [
        {
          "name": "",
          "type": "address"
        }
      ],
      "payable": false,
      "stateMutability": "view",
      "type": "function"
    },
    {
      "constant": true,
      "inputs": [
        {
          "name": "",
          "type": "address"
        },
        {
          "name": "",
          "type": "address"
        }
      ],
      "name": "approvedTokensIndex",
      "outputs": [
        {
          "name": "",
          "type": "uint16"
        }
      ],
      "payable": false,
      "stateMutability": "view",
      "type": "function"
    },
    {
      "constant": false,
      "inputs": [
        {
          "name": "newOwner",
          "type": "address"
        }
      ],
      "name": "transferOwnership",
      "outputs": [],
      "payable": false,
      "stateMutability": "nonpayable",
      "type": "function"
    },
    {
      "inputs": [
        {
          "name": "_factory",
          "type": "address"
        },
        {
          "name": "_ledger",
          "type": "address"
        },
        {
          "name": "_swap",
          "type": "address"
        }
      ],
      "payable": false,
      "stateMutability": "nonpayable",
      "type": "constructor"
    },
    {
      "anonymous": false,
      "inputs": [
        {
          "indexed": true,
          "name": "tokenAddress",
          "type": "address"
        },
        {
          "indexed": true,
          "name": "tokenOwner",
          "type": "address"
        },
        {
          "indexed": false,
          "name": "name",
          "type": "string"
        },
        {
          "indexed": false,
          "name": "symbol",
          "type": "string"
        }
      ],
      "name": "OwnerWhitelisted",
      "type": "event"
    },
    {
      "anonymous": false,
      "inputs": [
        {
          "indexed": true,
          "name": "originalTokenAddress",
          "type": "address"
        },
        {
          "indexed": true,
          "name": "tokenOwner",
          "type": "address"
        },
        {
          "indexed": false,
          "name": "tokenAmount",
          "type": "uint256"
        },
        {
          "indexed": false,
          "name": "placedTokenAddress",
          "type": "address"
        }
      ],
      "name": "TokenPlaced",
      "type": "event"
    },
    {
      "anonymous": false,
      "inputs": [
        {
          "indexed": false,
          "name": "startDate",
          "type": "uint256"
        },
        {
          "indexed": true,
          "name": "tokenAddress",
          "type": "address"
        },
        {
          "indexed": true,
          "name": "tokenOwner",
          "type": "address"
        },
        {
          "indexed": false,
          "name": "amountForSale",
          "type": "uint256"
        }
      ],
      "name": "CrowdsaleInitialized",
      "type": "event"
    },
    {
      "anonymous": false,
      "inputs": [
        {
          "indexed": true,
          "name": "previousOwner",
          "type": "address"
        }
      ],
      "name": "OwnershipRenounced",
      "type": "event"
    },
    {
      "anonymous": false,
      "inputs": [
        {
          "indexed": true,
          "name": "previousOwner",
          "type": "address"
        },
        {
          "indexed": true,
          "name": "newOwner",
          "type": "address"
        }
      ],
      "name": "OwnershipTransferred",
      "type": "event"
    }
  ],
  "bytecode": "0x608060405260008060146101000a81548160ff0219169083151502179055503480156200002b57600080fd5b506040516060806200570483398101806040528101908080519060200190929190805190602001909291908051906020019092919050505033838383336000806101000a81548173ffffffffffffffffffffffffffffffffffffffff021916908373ffffffffffffffffffffffffffffffffffffffff160217905550600073ffffffffffffffffffffffffffffffffffffffff168473ffffffffffffffffffffffffffffffffffffffff1614151515620000e457600080fd5b600073ffffffffffffffffffffffffffffffffffffffff168373ffffffffffffffffffffffffffffffffffffffff16141515156200012157600080fd5b600073ffffffffffffffffffffffffffffffffffffffff168273ffffffffffffffffffffffffffffffffffffffff16141515156200015e57600080fd5b600073ffffffffffffffffffffffffffffffffffffffff168173ffffffffffffffffffffffffffffffffffffffff16141515156200019b57600080fd5b81600460006101000a81548173ffffffffffffffffffffffffffffffffffffffff021916908373ffffffffffffffffffffffffffffffffffffffff16021790555080600360026101000a81548173ffffffffffffffffffffffffffffffffffffffff021916908373ffffffffffffffffffffffffffffffffffffffff16021790555083600560006101000a81548173ffffffffffffffffffffffffffffffffffffffff021916908373ffffffffffffffffffffffffffffffffffffffff16021790555082600660006101000a81548173ffffffffffffffffffffffffffffffffffffffff021916908373ffffffffffffffffffffffffffffffffffffffff16021790555060028054809190600101620002b59190620002c3565b505050505050505062000444565b815481835581811115620002f357600c0281600c028360005260206000209182019101620002f29190620002f8565b5b505050565b620003cd91905b80821115620003c957600080820160006200031b9190620003d0565b6001820160006200032d9190620003d0565b6002820160006101000a81549060ff021916905560048201600090556005820160009055600682016000905560078201600090556008820160006101000a81549073ffffffffffffffffffffffffffffffffffffffff02191690556009820160009055600a820160009055600b820160006101000a81549073ffffffffffffffffffffffffffffffffffffffff021916905550600c01620002ff565b5090565b90565b50805460018160011615610100020316600290046000825580601f10620003f8575062000419565b601f0160209004906000526020600020908101906200041891906200041c565b5b50565b6200044191905b808211156200043d57600081600090555060010162000423565b5090565b90565b6152b080620004546000396000f300608060405260043610620000f7576000357c0100000000000000000000000000000000000000000000000000000000900463ffffffff1680631dafede014620000fc57806334cf82bf14620002b45780633f3466a7146200037f57806349b010ab146200042557806356397c35146200047f5780635641f3c314620004d957806368dce9321462000533578063715018a6146200058357806377f518d3146200059d5780638119c06514620006075780638da5cb5b14620006615780639cf96e2e14620006bb578063a41ffd3814620006f1578063c45a01551462000741578063cca89d73146200079b578063f2fde38b146200081d575b600080fd5b3480156200010957600080fd5b506200012a6004803603810190808035906020019092919050505062000863565b6040518080602001806020018c60ff1660ff1681526020018b81526020018a81526020018981526020018881526020018773ffffffffffffffffffffffffffffffffffffffff1673ffffffffffffffffffffffffffffffffffffffff1681526020018681526020018581526020018473ffffffffffffffffffffffffffffffffffffffff1673ffffffffffffffffffffffffffffffffffffffff16815260200183810383528e818151815260200191508051906020019080838360005b8381101562000204578082015181840152602081019050620001e7565b50505050905090810190601f168015620002325780820380516001836020036101000a031916815260200191505b5083810382528d818151815260200191508051906020019080838360005b838110156200026d57808201518184015260208101905062000250565b50505050905090810190601f1680156200029b5780820380516001836020036101000a031916815260200191505b509d505050505050505050505050505060405180910390f35b348015620002c157600080fd5b506200037d600480360381019080803573ffffffffffffffffffffffffffffffffffffffff169060200190929190803573ffffffffffffffffffffffffffffffffffffffff169060200190929190803590602001908201803590602001919091929391929390803590602001908201803590602001919091929391929390803560ff1690602001909291908035906020019092919080359060200190929190803590602001909291908035906020019092919050505062000a52565b005b3480156200038c57600080fd5b50620003e3600480360381019080803573ffffffffffffffffffffffffffffffffffffffff169060200190929190803573ffffffffffffffffffffffffffffffffffffffff1690602001909291905050506200100a565b604051808273ffffffffffffffffffffffffffffffffffffffff1673ffffffffffffffffffffffffffffffffffffffff16815260200191505060405180910390f35b3480156200043257600080fd5b506200043d620010af565b604051808273ffffffffffffffffffffffffffffffffffffffff1673ffffffffffffffffffffffffffffffffffffffff16815260200191505060405180910390f35b3480156200048c57600080fd5b5062000497620010d9565b604051808273ffffffffffffffffffffffffffffffffffffffff1673ffffffffffffffffffffffffffffffffffffffff16815260200191505060405180910390f35b348015620004e657600080fd5b50620004f1620010ff565b604051808273ffffffffffffffffffffffffffffffffffffffff1673ffffffffffffffffffffffffffffffffffffffff16815260200191505060405180910390f35b3480156200054057600080fd5b5062000581600480360381019080803573ffffffffffffffffffffffffffffffffffffffff1690602001909291908035906020019092919050505062001125565b005b3480156200059057600080fd5b506200059b62001cf8565b005b348015620005aa57600080fd5b5062000605600480360381019080803563ffffffff169060200190929190803573ffffffffffffffffffffffffffffffffffffffff169060200190929190803590602001909291908035906020019092919050505062001d9f565b005b3480156200061457600080fd5b506200061f6200258b565b604051808273ffffffffffffffffffffffffffffffffffffffff1673ffffffffffffffffffffffffffffffffffffffff16815260200191505060405180910390f35b3480156200066e57600080fd5b5062000679620025b1565b604051808273ffffffffffffffffffffffffffffffffffffffff1673ffffffffffffffffffffffffffffffffffffffff16815260200191505060405180910390f35b348015620006c857600080fd5b50620006d3620025d6565b604051808261ffff1661ffff16815260200191505060405180910390f35b348015620006fe57600080fd5b506200073f600480360381019080803573ffffffffffffffffffffffffffffffffffffffff16906020019092919080359060200190929190505050620025ea565b005b3480156200074e57600080fd5b506200075962002973565b604051808273ffffffffffffffffffffffffffffffffffffffff1673ffffffffffffffffffffffffffffffffffffffff16815260200191505060405180910390f35b348015620007a857600080fd5b50620007ff600480360381019080803573ffffffffffffffffffffffffffffffffffffffff169060200190929190803573ffffffffffffffffffffffffffffffffffffffff16906020019092919050505062002999565b604051808261ffff1661ffff16815260200191505060405180910390f35b3480156200082a57600080fd5b5062000861600480360381019080803573ffffffffffffffffffffffffffffffffffffffff169060200190929190505050620029c9565b005b6002818154811015156200087357fe5b90600052602060002090600c0201600091509050806000018054600181600116156101000203166002900480601f016020809104026020016040519081016040528092919081815260200182805460018160011615610100020316600290048015620009235780601f10620008f75761010080835404028352916020019162000923565b820191906000526020600020905b8154815290600101906020018083116200090557829003601f168201915b505050505090806001018054600181600116156101000203166002900480601f016020809104026020016040519081016040528092919081815260200182805460018160011615610100020316600290048015620009c55780601f106200099957610100808354040283529160200191620009c5565b820191906000526020600020905b815481529060010190602001808311620009a757829003601f168201915b5050505050908060020160009054906101000a900460ff16908060040154908060050154908060060154908060070154908060080160009054906101000a900473ffffffffffffffffffffffffffffffffffffffff169080600901549080600a01549080600b0160009054906101000a900473ffffffffffffffffffffffffffffffffffffffff1690508b565b60008073ffffffffffffffffffffffffffffffffffffffff168c73ffffffffffffffffffffffffffffffffffffffff161415151562000a9057600080fd5b600073ffffffffffffffffffffffffffffffffffffffff168b73ffffffffffffffffffffffffffffffffffffffff161415151562000acd57600080fd5b62000ad88562002ac4565b801562000aef5750606462000aed8662002ae0565b105b151562000afb57600080fd5b62000b068462002ac4565b801562000b1d5750606462000b1b8562002ae0565b105b151562000b2957600080fd5b62000b348362002ac4565b801562000b4b5750606462000b498462002ae0565b105b151562000b5757600080fd5b62000b628262002ac4565b801562000b795750606462000b778362002ae0565b105b151562000b8557600080fd5b8a73ffffffffffffffffffffffffffffffffffffffff1662000ba88c8e62002b16565b600b0160009054906101000a900473ffffffffffffffffffffffffffffffffffffffff1673ffffffffffffffffffffffffffffffffffffffff161415151562000bf057600080fd5b62000bfc8b8d62002b16565b60030160008d73ffffffffffffffffffffffffffffffffffffffff1673ffffffffffffffffffffffffffffffffffffffff16815260200190815260200160002060009054906101000a900460ff1615151562000c5757600080fd5b600280549050905080600160008d73ffffffffffffffffffffffffffffffffffffffff1673ffffffffffffffffffffffffffffffffffffffff16815260200190815260200160002060008e73ffffffffffffffffffffffffffffffffffffffff1673ffffffffffffffffffffffffffffffffffffffff16815260200190815260200160002060006101000a81548161ffff021916908361ffff1602179055506002805480919060010162000d0c919062002ca2565b600360006101000a81548161ffff021916908361ffff160217905550600160028261ffff1681548110151562000d3e57fe5b90600052602060002090600c020160030160008e73ffffffffffffffffffffffffffffffffffffffff1673ffffffffffffffffffffffffffffffffffffffff16815260200190815260200160002060006101000a81548160ff021916908315150217905550898960028361ffff1681548110151562000db957fe5b90600052602060002090600c0201600001919062000dd992919062002cd7565b50878760028361ffff1681548110151562000df057fe5b90600052602060002090600c0201600101919062000e1092919062002cd7565b508560028261ffff1681548110151562000e2657fe5b90600052602060002090600c020160020160006101000a81548160ff021916908360ff1602179055508460028261ffff1681548110151562000e6457fe5b90600052602060002090600c0201600401819055508360028261ffff1681548110151562000e8e57fe5b90600052602060002090600c0201600501819055508260028261ffff1681548110151562000eb857fe5b90600052602060002090600c0201600601819055508160028261ffff1681548110151562000ee257fe5b90600052602060002090600c0201600701819055508a60028261ffff1681548110151562000f0c57fe5b90600052602060002090600c0201600b0160006101000a81548173ffffffffffffffffffffffffffffffffffffffff021916908373ffffffffffffffffffffffffffffffffffffffff1602179055508b73ffffffffffffffffffffffffffffffffffffffff168b73ffffffffffffffffffffffffffffffffffffffff167fd3bb7a0fd3c972c824718e5d4fe7501feb58ebd797223783efbfd1d3085d49438c8c8c8c6040518080602001806020018381038352878782818152602001925080828437820191505083810382528585828181526020019250808284378201915050965050505050505060405180910390a3505050505050505050505050565b60008073ffffffffffffffffffffffffffffffffffffffff166200102f848462002b16565b60080160009054906101000a900473ffffffffffffffffffffffffffffffffffffffff1673ffffffffffffffffffffffffffffffffffffffff16141515156200107757600080fd5b62001083838362002b16565b60080160009054906101000a900473ffffffffffffffffffffffffffffffffffffffff16905092915050565b6000600360029054906101000a900473ffffffffffffffffffffffffffffffffffffffff16905090565b600460009054906101000a900473ffffffffffffffffffffffffffffffffffffffff1681565b600560009054906101000a900473ffffffffffffffffffffffffffffffffffffffff1681565b60008060008060008060008060149054906101000a900460ff161515156200114c57600080fd5b6001600060146101000a81548160ff0219169083151502179055506000881115156200117757600080fd5b600073ffffffffffffffffffffffffffffffffffffffff168973ffffffffffffffffffffffffffffffffffffffff1614151515620011b457600080fd5b8873ffffffffffffffffffffffffffffffffffffffff16620011d78a3362002b16565b600b0160009054906101000a900473ffffffffffffffffffffffffffffffffffffffff1673ffffffffffffffffffffffffffffffffffffffff161415156200121e57600080fd5b6200122a893362002b16565b60030160003373ffffffffffffffffffffffffffffffffffffffff1673ffffffffffffffffffffffffffffffffffffffff16815260200190815260200160002060009054906101000a900460ff1615156200128457600080fd5b62001290893362002b16565b96508895508573ffffffffffffffffffffffffffffffffffffffff166370a08231600360029054906101000a900473ffffffffffffffffffffffffffffffffffffffff166040518263ffffffff167c0100000000000000000000000000000000000000000000000000000000028152600401808273ffffffffffffffffffffffffffffffffffffffff1673ffffffffffffffffffffffffffffffffffffffff168152602001915050602060405180830381600087803b1580156200135357600080fd5b505af115801562001368573d6000803e3d6000fd5b505050506040513d60208110156200137f57600080fd5b810190808051906020019092919050505094506000876004015411620013a7576000620013c1565b620013c087600401548962002bcc90919063ffffffff16565b5b9350620013d8848962002c1890919063ffffffff16565b9250620013f383886009015462002c3290919063ffffffff16565b620013ff8a3362002b16565b600901819055508573ffffffffffffffffffffffffffffffffffffffff166323b872dd33600360029054906101000a900473ffffffffffffffffffffffffffffffffffffffff16866040518463ffffffff167c0100000000000000000000000000000000000000000000000000000000028152600401808473ffffffffffffffffffffffffffffffffffffffff1673ffffffffffffffffffffffffffffffffffffffff1681526020018373ffffffffffffffffffffffffffffffffffffffff1673ffffffffffffffffffffffffffffffffffffffff1681526020018281526020019350505050602060405180830381600087803b1580156200150057600080fd5b505af115801562001515573d6000803e3d6000fd5b505050506040513d60208110156200152c57600080fd5b8101908080519060200190929190505050508573ffffffffffffffffffffffffffffffffffffffff166323b872dd33600560009054906101000a900473ffffffffffffffffffffffffffffffffffffffff16876040518463ffffffff167c0100000000000000000000000000000000000000000000000000000000028152600401808473ffffffffffffffffffffffffffffffffffffffff1673ffffffffffffffffffffffffffffffffffffffff1681526020018373ffffffffffffffffffffffffffffffffffffffff1673ffffffffffffffffffffffffffffffffffffffff1681526020018281526020019350505050602060405180830381600087803b1580156200163857600080fd5b505af11580156200164d573d6000803e3d6000fd5b505050506040513d60208110156200166457600080fd5b8101908080519060200190929190505050508573ffffffffffffffffffffffffffffffffffffffff166370a08231600360029054906101000a900473ffffffffffffffffffffffffffffffffffffffff166040518263ffffffff167c0100000000000000000000000000000000000000000000000000000000028152600401808273ffffffffffffffffffffffffffffffffffffffff1673ffffffffffffffffffffffffffffffffffffffff168152602001915050602060405180830381600087803b1580156200173457600080fd5b505af115801562001749573d6000803e3d6000fd5b505050506040513d60208110156200176057600080fd5b8101908080519060200190929190505050915062001788838662002c3290919063ffffffff16565b821415156200179657600080fd5b600073ffffffffffffffffffffffffffffffffffffffff16600460009054906101000a900473ffffffffffffffffffffffffffffffffffffffff1673ffffffffffffffffffffffffffffffffffffffff1663151f37348b6040518263ffffffff167c0100000000000000000000000000000000000000000000000000000000028152600401808273ffffffffffffffffffffffffffffffffffffffff1673ffffffffffffffffffffffffffffffffffffffff168152602001915050602060405180830381600087803b1580156200186c57600080fd5b505af115801562001881573d6000803e3d6000fd5b505050506040513d60208110156200189857600080fd5b810190808051906020019092919050505073ffffffffffffffffffffffffffffffffffffffff16141562001b405786600001876001018860020160009054906101000a900460ff16620018ea62002d5e565b8080602001806020018460ff1660ff168152602001838103835286818154600181600116156101000203166002900481526020019150805460018160011615610100020316600290048015620019845780601f10620019585761010080835404028352916020019162001984565b820191906000526020600020905b8154815290600101906020018083116200196657829003601f168201915b505083810382528581815460018160011615610100020316600290048152602001915080546001816001161561010002031660029004801562001a0b5780601f10620019df5761010080835404028352916020019162001a0b565b820191906000526020600020905b815481529060010190602001808311620019ed57829003601f168201915b505095505050505050604051809103906000f08015801562001a31573d6000803e3d6000fd5b509050600460009054906101000a900473ffffffffffffffffffffffffffffffffffffffff1673ffffffffffffffffffffffffffffffffffffffff1663a07369128a836040518363ffffffff167c0100000000000000000000000000000000000000000000000000000000028152600401808373ffffffffffffffffffffffffffffffffffffffff1673ffffffffffffffffffffffffffffffffffffffff1681526020018273ffffffffffffffffffffffffffffffffffffffff1673ffffffffffffffffffffffffffffffffffffffff16815260200192505050600060405180830381600087803b15801562001b2657600080fd5b505af115801562001b3b573d6000803e3d6000fd5b505050505b3373ffffffffffffffffffffffffffffffffffffffff168973ffffffffffffffffffffffffffffffffffffffff167f2b11dc5f6b2036a3d03d04c1e89724a8650507582665455ed7154b544f3e3c4f85600460009054906101000a900473ffffffffffffffffffffffffffffffffffffffff1673ffffffffffffffffffffffffffffffffffffffff1663151f37348e6040518263ffffffff167c0100000000000000000000000000000000000000000000000000000000028152600401808273ffffffffffffffffffffffffffffffffffffffff1673ffffffffffffffffffffffffffffffffffffffff168152602001915050602060405180830381600087803b15801562001c4e57600080fd5b505af115801562001c63573d6000803e3d6000fd5b505050506040513d602081101562001c7a57600080fd5b8101908080519060200190929190505050604051808381526020018273ffffffffffffffffffffffffffffffffffffffff1673ffffffffffffffffffffffffffffffffffffffff1681526020019250505060405180910390a360008060146101000a81548160ff021916908315150217905550505050505050505050565b6000809054906101000a900473ffffffffffffffffffffffffffffffffffffffff1673ffffffffffffffffffffffffffffffffffffffff167ff8df31144d9c2f0f6b59d69b8b98abd5459d07f2742c4df920b25aae33c6482060405160405180910390a260008060006101000a81548173ffffffffffffffffffffffffffffffffffffffff021916908373ffffffffffffffffffffffffffffffffffffffff160217905550565b600080600060149054906101000a900460ff1615151562001dbf57600080fd5b6001600060146101000a81548160ff0219169083151502179055506001151562001dea863362002b16565b60030160003373ffffffffffffffffffffffffffffffffffffffff1673ffffffffffffffffffffffffffffffffffffffff16815260200190815260200160002060009054906101000a900460ff16151514151562001e4757600080fd5b62001e6b8462001e58873362002b16565b600a015462002c3290919063ffffffff16565b62001e77863362002b16565b600901541015151562001e8957600080fd5b600073ffffffffffffffffffffffffffffffffffffffff1662001ead863362002b16565b60080160009054906101000a900473ffffffffffffffffffffffffffffffffffffffff1673ffffffffffffffffffffffffffffffffffffffff1614151562001ef457600080fd5b600460009054906101000a900473ffffffffffffffffffffffffffffffffffffffff1673ffffffffffffffffffffffffffffffffffffffff1663151f3734866040518263ffffffff167c0100000000000000000000000000000000000000000000000000000000028152600401808273ffffffffffffffffffffffffffffffffffffffff1673ffffffffffffffffffffffffffffffffffffffff168152602001915050602060405180830381600087803b15801562001fb257600080fd5b505af115801562001fc7573d6000803e3d6000fd5b505050506040513d602081101562001fde57600080fd5b81019080805190602001909291905050509150600660009054906101000a900473ffffffffffffffffffffffffffffffffffffffff1673ffffffffffffffffffffffffffffffffffffffff1663ed0f91a086848987600560009054906101000a900473ffffffffffffffffffffffffffffffffffffffff16620020628c3362002b16565b60050154620020728d3362002b16565b60060154620020828e3362002b16565b60070154600360029054906101000a900473ffffffffffffffffffffffffffffffffffffffff16336040518b63ffffffff167c0100000000000000000000000000000000000000000000000000000000028152600401808b73ffffffffffffffffffffffffffffffffffffffff1673ffffffffffffffffffffffffffffffffffffffff1681526020018a73ffffffffffffffffffffffffffffffffffffffff1673ffffffffffffffffffffffffffffffffffffffff1681526020018963ffffffff1663ffffffff1681526020018881526020018773ffffffffffffffffffffffffffffffffffffffff1673ffffffffffffffffffffffffffffffffffffffff1681526020018681526020018581526020018481526020018373ffffffffffffffffffffffffffffffffffffffff1673ffffffffffffffffffffffffffffffffffffffff1681526020018273ffffffffffffffffffffffffffffffffffffffff1673ffffffffffffffffffffffffffffffffffffffff1681526020019a5050505050505050505050602060405180830381600087803b1580156200222457600080fd5b505af115801562002239573d6000803e3d6000fd5b505050506040513d60208110156200225057600080fd5b810190808051906020019092919050505090508062002270863362002b16565b60080160006101000a81548173ffffffffffffffffffffffffffffffffffffffff021916908373ffffffffffffffffffffffffffffffffffffffff1602179055508173ffffffffffffffffffffffffffffffffffffffff1663d88b8676826040518263ffffffff167c0100000000000000000000000000000000000000000000000000000000028152600401808273ffffffffffffffffffffffffffffffffffffffff1673ffffffffffffffffffffffffffffffffffffffff168152602001915050600060405180830381600087803b1580156200234d57600080fd5b505af115801562002362573d6000803e3d6000fd5b50505050600062002374863362002b16565b600601541115620024ea57600360029054906101000a900473ffffffffffffffffffffffffffffffffffffffff1673ffffffffffffffffffffffffffffffffffffffff1663e1f21c678683620023f2620023cf8a3362002b16565b60060154620023df8b3362002b16565b6009015462002bcc90919063ffffffff16565b6040518463ffffffff167c0100000000000000000000000000000000000000000000000000000000028152600401808473ffffffffffffffffffffffffffffffffffffffff1673ffffffffffffffffffffffffffffffffffffffff1681526020018373ffffffffffffffffffffffffffffffffffffffff1673ffffffffffffffffffffffffffffffffffffffff1681526020018281526020019350505050602060405180830381600087803b158015620024ab57600080fd5b505af1158015620024c0573d6000803e3d6000fd5b505050506040513d6020811015620024d757600080fd5b8101908080519060200190929190505050505b620024f68585620025ea565b3373ffffffffffffffffffffffffffffffffffffffff168573ffffffffffffffffffffffffffffffffffffffff167f55ba97b8c9a7f29936b8c9d92b2812067e683cc87018f61cd56ed87a0b9eca818887604051808363ffffffff1681526020018281526020019250505060405180910390a360008060146101000a81548160ff021916908315150217905550505050505050565b600360029054906101000a900473ffffffffffffffffffffffffffffffffffffffff1681565b6000809054906101000a900473ffffffffffffffffffffffffffffffffffffffff1681565b600360009054906101000a900461ffff1681565b60008060011515620025fd853362002b16565b60030160003373ffffffffffffffffffffffffffffffffffffffff1673ffffffffffffffffffffffffffffffffffffffff16815260200190815260200160002060009054906101000a900460ff1615151415156200265a57600080fd5b6200267e836200266b863362002b16565b600a015462002c3290919063ffffffff16565b6200268a853362002b16565b60090154101515156200269c57600080fd5b600460009054906101000a900473ffffffffffffffffffffffffffffffffffffffff1673ffffffffffffffffffffffffffffffffffffffff1663151f3734856040518263ffffffff167c0100000000000000000000000000000000000000000000000000000000028152600401808273ffffffffffffffffffffffffffffffffffffffff1673ffffffffffffffffffffffffffffffffffffffff168152602001915050602060405180830381600087803b1580156200275a57600080fd5b505af11580156200276f573d6000803e3d6000fd5b505050506040513d60208110156200278657600080fd5b81019080805190602001909291905050509150600073ffffffffffffffffffffffffffffffffffffffff168273ffffffffffffffffffffffffffffffffffffffff1614151515620027d657600080fd5b620027e2843362002b16565b60080160009054906101000a900473ffffffffffffffffffffffffffffffffffffffff169050600073ffffffffffffffffffffffffffffffffffffffff168173ffffffffffffffffffffffffffffffffffffffff16141515156200284557600080fd5b620028698362002856863362002b16565b600a015462002c3290919063ffffffff16565b62002875853362002b16565b600a01819055508173ffffffffffffffffffffffffffffffffffffffff1663d0047acf828560006040518463ffffffff167c0100000000000000000000000000000000000000000000000000000000028152600401808473ffffffffffffffffffffffffffffffffffffffff1673ffffffffffffffffffffffffffffffffffffffff1681526020018381526020018263ffffffff1681526020019350505050602060405180830381600087803b1580156200292f57600080fd5b505af115801562002944573d6000803e3d6000fd5b505050506040513d60208110156200295b57600080fd5b81019080805190602001909291905050505050505050565b600660009054906101000a900473ffffffffffffffffffffffffffffffffffffffff1681565b60016020528160005260406000206020528060005260406000206000915091509054906101000a900461ffff1681565b600073ffffffffffffffffffffffffffffffffffffffff168173ffffffffffffffffffffffffffffffffffffffff161415151562002a0657600080fd5b8073ffffffffffffffffffffffffffffffffffffffff166000809054906101000a900473ffffffffffffffffffffffffffffffffffffffff1673ffffffffffffffffffffffffffffffffffffffff167f8be0079c531659141344cd1fd0a4f28419497f9722a3daafe3b4186f6b6457e060405160405180910390a3806000806101000a81548173ffffffffffffffffffffffffffffffffffffffff021916908373ffffffffffffffffffffffffffffffffffffffff16021790555050565b600080821015801562002ad957506127108211155b9050919050565b600062002aed8262002ac4565b151562002af957600080fd5b62002b0f60648362002c4f90919063ffffffff16565b9050919050565b60006002600160008573ffffffffffffffffffffffffffffffffffffffff1673ffffffffffffffffffffffffffffffffffffffff16815260200190815260200160002060008473ffffffffffffffffffffffffffffffffffffffff1673ffffffffffffffffffffffffffffffffffffffff16815260200190815260200160002060009054906101000a900461ffff1661ffff1681548110151562002bb657fe5b90600052602060002090600c0201905092915050565b600062002bd98262002ac4565b151562002be557600080fd5b62002c1061271062002c01848662002c6690919063ffffffff16565b62002c4f90919063ffffffff16565b905092915050565b600082821115151562002c2757fe5b818303905092915050565b6000818301905082811015151562002c4657fe5b80905092915050565b6000818381151562002c5d57fe5b04905092915050565b60008083141562002c7b576000905062002c9c565b818302905081838281151562002c8d57fe5b0414151562002c9857fe5b8090505b92915050565b81548183558181111562002cd257600c0281600c02836000526020600020918201910162002cd1919062002d6f565b5b505050565b828054600181600116156101000203166002900490600052602060002090601f016020900481019282601f1062002d1a57803560ff191683800117855562002d4b565b8280016001018555821562002d4b579182015b8281111562002d4a57823582559160200191906001019062002d2d565b5b50905062002d5a919062002e47565b5090565b6040516123c98062002ebc83390190565b62002e4491905b8082111562002e40576000808201600062002d92919062002e6f565b60018201600062002da4919062002e6f565b6002820160006101000a81549060ff021916905560048201600090556005820160009055600682016000905560078201600090556008820160006101000a81549073ffffffffffffffffffffffffffffffffffffffff02191690556009820160009055600a820160009055600b820160006101000a81549073ffffffffffffffffffffffffffffffffffffffff021916905550600c0162002d76565b5090565b90565b62002e6c91905b8082111562002e6857600081600090555060010162002e4e565b5090565b90565b50805460018160011615610100020316600290046000825580601f1062002e97575062002eb8565b601f01602090049060005260206000209081019062002eb7919062002e47565b5b50560060806040523480156200001157600080fd5b50604051620023c9380380620023c983398101806040528101908080518201929190602001805182019291906020018051906020019092919050505082828282600090805190602001906200006892919062000142565b5081600190805190602001906200008192919062000142565b5080600260006101000a81548160ff021916908360ff16021790555050505033600260016101000a81548173ffffffffffffffffffffffffffffffffffffffff021916908373ffffffffffffffffffffffffffffffffffffffff1602179055506001600860003373ffffffffffffffffffffffffffffffffffffffff1673ffffffffffffffffffffffffffffffffffffffff16815260200190815260200160002060006101000a81548160ff021916908315150217905550505050620001f1565b828054600181600116156101000203166002900490600052602060002090601f016020900481019282601f106200018557805160ff1916838001178555620001b6565b82800160010185558215620001b6579182015b82811115620001b557825182559160200191906001019062000198565b5b509050620001c59190620001c9565b5090565b620001ee91905b80821115620001ea576000816000905550600101620001d0565b5090565b90565b6121c880620002016000396000f30060806040526004361061011d576000357c0100000000000000000000000000000000000000000000000000000000900463ffffffff16806306fdde031461012f578063095ea7b3146101bf57806318160ddd1461022457806323b872dd1461024f57806327e235e3146102d4578063313ce5671461032b5780634afbf5ee1461035c57806366188463146103bd57806370a0823114610422578063715018a6146104795780638da5cb5b1461049057806395d89b41146104e75780639d2e477714610577578063a9059cbb146105ec578063ba0e0f5e14610651578063d0047acf14610694578063d294cb0f14610709578063d73dd62314610760578063d88b8676146107c5578063dd62ed3e14610808578063f2fde38b1461087f575b34801561012957600080fd5b50600080fd5b34801561013b57600080fd5b506101446108c2565b6040518080602001828103825283818151815260200191508051906020019080838360005b83811015610184578082015181840152602081019050610169565b50505050905090810190601f1680156101b15780820380516001836020036101000a031916815260200191505b509250505060405180910390f35b3480156101cb57600080fd5b5061020a600480360381019080803573ffffffffffffffffffffffffffffffffffffffff16906020019092919080359060200190929190505050610960565b604051808215151515815260200191505060405180910390f35b34801561023057600080fd5b50610239610a52565b6040518082815260200191505060405180910390f35b34801561025b57600080fd5b506102ba600480360381019080803573ffffffffffffffffffffffffffffffffffffffff169060200190929190803573ffffffffffffffffffffffffffffffffffffffff16906020019092919080359060200190929190505050610a5c565b604051808215151515815260200191505060405180910390f35b3480156102e057600080fd5b50610315600480360381019080803573ffffffffffffffffffffffffffffffffffffffff169060200190929190505050610cd9565b6040518082815260200191505060405180910390f35b34801561033757600080fd5b50610340610cf1565b604051808260ff1660ff16815260200191505060405180910390f35b34801561036857600080fd5b506103a7600480360381019080803573ffffffffffffffffffffffffffffffffffffffff16906020019092919080359060200190929190505050610d04565b6040518082815260200191505060405180910390f35b3480156103c957600080fd5b50610408600480360381019080803573ffffffffffffffffffffffffffffffffffffffff16906020019092919080359060200190929190505050610d29565b604051808215151515815260200191505060405180910390f35b34801561042e57600080fd5b50610463600480360381019080803573ffffffffffffffffffffffffffffffffffffffff169060200190929190505050610fab565b6040518082815260200191505060405180910390f35b34801561048557600080fd5b5061048e610ff4565b005b34801561049c57600080fd5b506104a56110f9565b604051808273ffffffffffffffffffffffffffffffffffffffff1673ffffffffffffffffffffffffffffffffffffffff16815260200191505060405180910390f35b3480156104f357600080fd5b506104fc61111f565b6040518080602001828103825283818151815260200191508051906020019080838360005b8381101561053c578082015181840152602081019050610521565b50505050905090810190601f1680156105695780820380516001836020036101000a031916815260200191505b509250505060405180910390f35b34801561058357600080fd5b506105d2600480360381019080803573ffffffffffffffffffffffffffffffffffffffff16906020019092919080359060200190929190803563ffffffff1690602001909291905050506111bd565b604051808215151515815260200191505060405180910390f35b3480156105f857600080fd5b50610637600480360381019080803573ffffffffffffffffffffffffffffffffffffffff169060200190929190803590602001909291905050506112fe565b604051808215151515815260200191505060405180910390f35b34801561065d57600080fd5b50610692600480360381019080803573ffffffffffffffffffffffffffffffffffffffff169060200190929190505050611465565b005b3480156106a057600080fd5b506106ef600480360381019080803573ffffffffffffffffffffffffffffffffffffffff16906020019092919080359060200190929190803563ffffffff16906020019092919050505061151c565b604051808215151515815260200191505060405180910390f35b34801561071557600080fd5b5061074a600480360381019080803573ffffffffffffffffffffffffffffffffffffffff16906020019092919050505061172a565b6040518082815260200191505060405180910390f35b34801561076c57600080fd5b506107ab600480360381019080803573ffffffffffffffffffffffffffffffffffffffff1690602001909291908035906020019092919050505061193b565b604051808215151515815260200191505060405180910390f35b3480156107d157600080fd5b50610806600480360381019080803573ffffffffffffffffffffffffffffffffffffffff169060200190929190505050611ab2565b005b34801561081457600080fd5b50610869600480360381019080803573ffffffffffffffffffffffffffffffffffffffff169060200190929190803573ffffffffffffffffffffffffffffffffffffffff169060200190929190505050611b69565b6040518082815260200191505060405180910390f35b34801561088b57600080fd5b506108c0600480360381019080803573ffffffffffffffffffffffffffffffffffffffff169060200190929190505050611bf0565b005b60008054600181600116156101000203166002900480601f0160208091040260200160405190810160405280929190818152602001828054600181600116156101000203166002900480156109585780601f1061092d57610100808354040283529160200191610958565b820191906000526020600020905b81548152906001019060200180831161093b57829003601f168201915b505050505081565b600081600360003373ffffffffffffffffffffffffffffffffffffffff1673ffffffffffffffffffffffffffffffffffffffff16815260200190815260200160002060008573ffffffffffffffffffffffffffffffffffffffff1673ffffffffffffffffffffffffffffffffffffffff168152602001908152602001600020819055508273ffffffffffffffffffffffffffffffffffffffff163373ffffffffffffffffffffffffffffffffffffffff167f8c5be1e5ebec7d5bd14f71427d1e84f3dd0314c0f7b2291e5b200ac8c7c3b925846040518082815260200191505060405180910390a36001905092915050565b6000600554905090565b6000610a6784611d48565b600073ffffffffffffffffffffffffffffffffffffffff168373ffffffffffffffffffffffffffffffffffffffff1614151515610aa357600080fd5b610aac8461172a565b8211151515610aba57600080fd5b600360008573ffffffffffffffffffffffffffffffffffffffff1673ffffffffffffffffffffffffffffffffffffffff16815260200190815260200160002060003373ffffffffffffffffffffffffffffffffffffffff1673ffffffffffffffffffffffffffffffffffffffff168152602001908152602001600020548211151515610b4557600080fd5b81600460008673ffffffffffffffffffffffffffffffffffffffff1673ffffffffffffffffffffffffffffffffffffffff1681526020019081526020016000206000828254039250508190555081600460008573ffffffffffffffffffffffffffffffffffffffff1673ffffffffffffffffffffffffffffffffffffffff1681526020019081526020016000206000828254019250508190555081600360008673ffffffffffffffffffffffffffffffffffffffff1673ffffffffffffffffffffffffffffffffffffffff16815260200190815260200160002060003373ffffffffffffffffffffffffffffffffffffffff1673ffffffffffffffffffffffffffffffffffffffff168152602001908152602001600020600082825403925050819055508273ffffffffffffffffffffffffffffffffffffffff168473ffffffffffffffffffffffffffffffffffffffff167fddf252ad1be2c89b69c2b068fc378daa952ba7f163c4a11628f55a4df523b3ef846040518082815260200191505060405180910390a3600190509392505050565b60046020528060005260406000206000915090505481565b600260009054906101000a900460ff1681565b6006602052816000526040600020602052806000526040600020600091509150505481565b600080600360003373ffffffffffffffffffffffffffffffffffffffff1673ffffffffffffffffffffffffffffffffffffffff16815260200190815260200160002060008573ffffffffffffffffffffffffffffffffffffffff1673ffffffffffffffffffffffffffffffffffffffff1681526020019081526020016000205490508083101515610e3b576000600360003373ffffffffffffffffffffffffffffffffffffffff1673ffffffffffffffffffffffffffffffffffffffff16815260200190815260200160002060008673ffffffffffffffffffffffffffffffffffffffff1673ffffffffffffffffffffffffffffffffffffffff16815260200190815260200160002081905550610ebf565b828103600360003373ffffffffffffffffffffffffffffffffffffffff1673ffffffffffffffffffffffffffffffffffffffff16815260200190815260200160002060008673ffffffffffffffffffffffffffffffffffffffff1673ffffffffffffffffffffffffffffffffffffffff168152602001908152602001600020819055505b8373ffffffffffffffffffffffffffffffffffffffff163373ffffffffffffffffffffffffffffffffffffffff167f8c5be1e5ebec7d5bd14f71427d1e84f3dd0314c0f7b2291e5b200ac8c7c3b925600360003373ffffffffffffffffffffffffffffffffffffffff1673ffffffffffffffffffffffffffffffffffffffff16815260200190815260200160002060008873ffffffffffffffffffffffffffffffffffffffff1673ffffffffffffffffffffffffffffffffffffffff168152602001908152602001600020546040518082815260200191505060405180910390a3600191505092915050565b6000600460008373ffffffffffffffffffffffffffffffffffffffff1673ffffffffffffffffffffffffffffffffffffffff168152602001908152602001600020549050919050565b600260019054906101000a900473ffffffffffffffffffffffffffffffffffffffff1673ffffffffffffffffffffffffffffffffffffffff163373ffffffffffffffffffffffffffffffffffffffff1614151561105057600080fd5b600260019054906101000a900473ffffffffffffffffffffffffffffffffffffffff1673ffffffffffffffffffffffffffffffffffffffff167ff8df31144d9c2f0f6b59d69b8b98abd5459d07f2742c4df920b25aae33c6482060405160405180910390a26000600260016101000a81548173ffffffffffffffffffffffffffffffffffffffff021916908373ffffffffffffffffffffffffffffffffffffffff160217905550565b600260019054906101000a900473ffffffffffffffffffffffffffffffffffffffff1681565b60018054600181600116156101000203166002900480601f0160208091040260200160405190810160405280929190818152602001828054600181600116156101000203166002900480156111b55780601f1061118a576101008083540402835291602001916111b5565b820191906000526020600020905b81548152906001019060200180831161119857829003601f168201915b505050505081565b600033600860008273ffffffffffffffffffffffffffffffffffffffff1673ffffffffffffffffffffffffffffffffffffffff16815260200190815260200160002060009054906101000a900460ff16151561121857600080fd5b61122285856112fe565b50428363ffffffff161115611245576112446000868563ffffffff1687612017565b5b7f5075049792a88eedfe4e60bb3ffeac77b4fa7f03108b81fb0b460161b983e20033868686604051808573ffffffffffffffffffffffffffffffffffffffff1673ffffffffffffffffffffffffffffffffffffffff1681526020018473ffffffffffffffffffffffffffffffffffffffff1673ffffffffffffffffffffffffffffffffffffffff1681526020018381526020018263ffffffff16815260200194505050505060405180910390a160019150509392505050565b600061130933611d48565b600073ffffffffffffffffffffffffffffffffffffffff168373ffffffffffffffffffffffffffffffffffffffff161415151561134557600080fd5b61134e3361172a565b821115151561135c57600080fd5b81600460003373ffffffffffffffffffffffffffffffffffffffff1673ffffffffffffffffffffffffffffffffffffffff1681526020019081526020016000206000828254039250508190555081600460008573ffffffffffffffffffffffffffffffffffffffff1673ffffffffffffffffffffffffffffffffffffffff168152602001908152602001600020600082825401925050819055508273ffffffffffffffffffffffffffffffffffffffff163373ffffffffffffffffffffffffffffffffffffffff167fddf252ad1be2c89b69c2b068fc378daa952ba7f163c4a11628f55a4df523b3ef846040518082815260200191505060405180910390a36001905092915050565b600260019054906101000a900473ffffffffffffffffffffffffffffffffffffffff1673ffffffffffffffffffffffffffffffffffffffff163373ffffffffffffffffffffffffffffffffffffffff161415156114c157600080fd5b6000600860008373ffffffffffffffffffffffffffffffffffffffff1673ffffffffffffffffffffffffffffffffffffffff16815260200190815260200160002060006101000a81548160ff02191690831515021790555050565b600033600860008273ffffffffffffffffffffffffffffffffffffffff1673ffffffffffffffffffffffffffffffffffffffff16815260200190815260200160002060009054906101000a900460ff16151561157757600080fd5b600554846005540111151561158b57600080fd5b428363ffffffff1611156115ad576115ac6000868563ffffffff1687612017565b5b83600460008773ffffffffffffffffffffffffffffffffffffffff1673ffffffffffffffffffffffffffffffffffffffff16815260200190815260200160002060008282540192505081905550836005600082825401925050819055508473ffffffffffffffffffffffffffffffffffffffff16600073ffffffffffffffffffffffffffffffffffffffff167fddf252ad1be2c89b69c2b068fc378daa952ba7f163c4a11628f55a4df523b3ef866040518082815260200191505060405180910390a37f5075049792a88eedfe4e60bb3ffeac77b4fa7f03108b81fb0b460161b983e2006000868686604051808573ffffffffffffffffffffffffffffffffffffffff1673ffffffffffffffffffffffffffffffffffffffff1681526020018473ffffffffffffffffffffffffffffffffffffffff1673ffffffffffffffffffffffffffffffffffffffff1681526020018381526020018263ffffffff16815260200194505050505060405180910390a160019150509392505050565b600080600460008473ffffffffffffffffffffffffffffffffffffffff1673ffffffffffffffffffffffffffffffffffffffff1681526020019081526020016000205491506000600660008573ffffffffffffffffffffffffffffffffffffffff1673ffffffffffffffffffffffffffffffffffffffff16815260200190815260200160002060008081526020019081526020016000205414156117cd57611935565b600090505b600760008473ffffffffffffffffffffffffffffffffffffffff1673ffffffffffffffffffffffffffffffffffffffff168152602001908152602001600020805490508110156119345742600760008573ffffffffffffffffffffffffffffffffffffffff1673ffffffffffffffffffffffffffffffffffffffff1681526020019081526020016000208281548110151561186957fe5b906000526020600020015410151561192757600660008473ffffffffffffffffffffffffffffffffffffffff1673ffffffffffffffffffffffffffffffffffffffff1681526020019081526020016000206000600760008673ffffffffffffffffffffffffffffffffffffffff1673ffffffffffffffffffffffffffffffffffffffff1681526020019081526020016000208381548110151561190857fe5b9060005260206000200154815260200190815260200160002054820391505b80806001019150506117d2565b5b50919050565b600081600360003373ffffffffffffffffffffffffffffffffffffffff1673ffffffffffffffffffffffffffffffffffffffff16815260200190815260200160002060008573ffffffffffffffffffffffffffffffffffffffff1673ffffffffffffffffffffffffffffffffffffffff168152602001908152602001600020600082825401925050819055508273ffffffffffffffffffffffffffffffffffffffff163373ffffffffffffffffffffffffffffffffffffffff167f8c5be1e5ebec7d5bd14f71427d1e84f3dd0314c0f7b2291e5b200ac8c7c3b925600360003373ffffffffffffffffffffffffffffffffffffffff1673ffffffffffffffffffffffffffffffffffffffff16815260200190815260200160002060008773ffffffffffffffffffffffffffffffffffffffff1673ffffffffffffffffffffffffffffffffffffffff168152602001908152602001600020546040518082815260200191505060405180910390a36001905092915050565b600260019054906101000a900473ffffffffffffffffffffffffffffffffffffffff1673ffffffffffffffffffffffffffffffffffffffff163373ffffffffffffffffffffffffffffffffffffffff16141515611b0e57600080fd5b6001600860008373ffffffffffffffffffffffffffffffffffffffff1673ffffffffffffffffffffffffffffffffffffffff16815260200190815260200160002060006101000a81548160ff02191690831515021790555050565b6000600360008473ffffffffffffffffffffffffffffffffffffffff1673ffffffffffffffffffffffffffffffffffffffff16815260200190815260200160002060008373ffffffffffffffffffffffffffffffffffffffff1673ffffffffffffffffffffffffffffffffffffffff16815260200190815260200160002054905092915050565b600260019054906101000a900473ffffffffffffffffffffffffffffffffffffffff1673ffffffffffffffffffffffffffffffffffffffff163373ffffffffffffffffffffffffffffffffffffffff16141515611c4c57600080fd5b600073ffffffffffffffffffffffffffffffffffffffff168173ffffffffffffffffffffffffffffffffffffffff1614151515611c8857600080fd5b8073ffffffffffffffffffffffffffffffffffffffff16600260019054906101000a900473ffffffffffffffffffffffffffffffffffffffff1673ffffffffffffffffffffffffffffffffffffffff167f8be0079c531659141344cd1fd0a4f28419497f9722a3daafe3b4186f6b6457e060405160405180910390a380600260016101000a81548173ffffffffffffffffffffffffffffffffffffffff021916908373ffffffffffffffffffffffffffffffffffffffff16021790555050565b600080600660008473ffffffffffffffffffffffffffffffffffffffff1673ffffffffffffffffffffffffffffffffffffffff1681526020019081526020016000206000808152602001908152602001600020541415611da757612013565b600090505b600760008373ffffffffffffffffffffffffffffffffffffffff1673ffffffffffffffffffffffffffffffffffffffff168152602001908152602001600020805490508110156120125742600760008473ffffffffffffffffffffffffffffffffffffffff1673ffffffffffffffffffffffffffffffffffffffff16815260200190815260200160002082815481101515611e4357fe5b9060005260206000200154101561200557600660008373ffffffffffffffffffffffffffffffffffffffff1673ffffffffffffffffffffffffffffffffffffffff1681526020019081526020016000206000600760008573ffffffffffffffffffffffffffffffffffffffff1673ffffffffffffffffffffffffffffffffffffffff16815260200190815260200160002083815481101515611ee157fe5b9060005260206000200154815260200190815260200160002054600660008473ffffffffffffffffffffffffffffffffffffffff1673ffffffffffffffffffffffffffffffffffffffff1681526020019081526020016000206000808152602001908152602001600020600082825403925050819055506000600660008473ffffffffffffffffffffffffffffffffffffffff1673ffffffffffffffffffffffffffffffffffffffff1681526020019081526020016000206000600760008673ffffffffffffffffffffffffffffffffffffffff1673ffffffffffffffffffffffffffffffffffffffff16815260200190815260200160002084815481101515611fe757fe5b90600052602060002001548152602001908152602001600020819055505b8080600101915050611dac565b5b5050565b80600660008573ffffffffffffffffffffffffffffffffffffffff1673ffffffffffffffffffffffffffffffffffffffff1681526020019081526020016000206000808152602001908152602001600020600082825401925050819055506000600660008573ffffffffffffffffffffffffffffffffffffffff1673ffffffffffffffffffffffffffffffffffffffff168152602001908152602001600020600084815260200190815260200160002054141561213857600760008473ffffffffffffffffffffffffffffffffffffffff1673ffffffffffffffffffffffffffffffffffffffff1681526020019081526020016000208290806001815401808255809150509060018203906000526020600020016000909192909190915055505b80600660008573ffffffffffffffffffffffffffffffffffffffff1673ffffffffffffffffffffffffffffffffffffffff168152602001908152602001600020600084815260200190815260200160002060008282540192505081905550505050505600a165627a7a7230582086356d9085c717187b144d946465ce043c8d821eb16a59bcbf97c689d02553490029a165627a7a723058208403a4a19c57f517e4dc78963726e3e521a0c8713dd574bc9c9b0471a516e15f0029",
  "source": "pragma solidity ^0.4.23;\n\nimport \"./W12Lister.sol\";\n\ncontract W12ListerStub is W12Lister {\n\n    /**\n    * @dev Allows for any account besides the owner.\n    */\n    modifier onlyOwner() {\n        _;\n    }\n\n    constructor(IW12CrowdsaleFactory _factory, W12TokenLedger _ledger, IW12AtomicSwap _swap) W12Lister(msg.sender, _factory, _ledger, _swap) public { }\n}\n",
  "sourcePath": "/Projects/w12-new/contracts/W12ListerStub.sol",
  "compiler": {
    "name": "solc",
    "version": "0.4.24+commit.e67f0147.Emscripten.clang"
  },
  "schemaVersion": "2.0.1",
  "updatedAt": "2018-08-23T16:51:48.756Z"
}